Component: ARM Compiler 5.06 update 6 (build 750) Tool: armlink [4d35ed]

==============================================================================

Section Cross References

    startup_stm32f103xe.o(RESET) refers to startup_stm32f103xe.o(STACK) for __initial_sp
    startup_stm32f103xe.o(RESET) refers to startup_stm32f103xe.o(.text) for Reset_Handler
    startup_stm32f103xe.o(RESET) refers to stm32f1xx_it.o(i.NMI_Handler) for NMI_Handler
    startup_stm32f103xe.o(RESET) refers to stm32f1xx_it.o(i.HardFault_Handler) for HardFault_Handler
    startup_stm32f103xe.o(RESET) refers to stm32f1xx_it.o(i.MemManage_Handler) for MemManage_Handler
    startup_stm32f103xe.o(RESET) refers to stm32f1xx_it.o(i.BusFault_Handler) for BusFault_Handler
    startup_stm32f103xe.o(RESET) refers to stm32f1xx_it.o(i.UsageFault_Handler) for UsageFault_Handler
    startup_stm32f103xe.o(RESET) refers to port.o(.emb_text) for SVC_Handler
    startup_stm32f103xe.o(RESET) refers to stm32f1xx_it.o(i.DebugMon_Handler) for DebugMon_Handler
    startup_stm32f103xe.o(RESET) refers to port.o(i.SysTick_Handler) for SysTick_Handler
    startup_stm32f103xe.o(RESET) refers to stm32f1xx_it.o(i.RTC_IRQHandler) for RTC_IRQHandler
    startup_stm32f103xe.o(RESET) refers to stm32f1xx_it.o(i.DMA1_Channel3_IRQHandler) for DMA1_Channel3_IRQHandler
    startup_stm32f103xe.o(RESET) refers to stm32f1xx_it.o(i.DMA1_Channel5_IRQHandler) for DMA1_Channel5_IRQHandler
    startup_stm32f103xe.o(RESET) refers to stm32f1xx_it.o(i.DMA1_Channel6_IRQHandler) for DMA1_Channel6_IRQHandler
    startup_stm32f103xe.o(RESET) refers to stm32f1xx_it.o(i.EXTI9_5_IRQHandler) for EXTI9_5_IRQHandler
    startup_stm32f103xe.o(RESET) refers to stm32f1xx_it.o(i.TIM4_IRQHandler) for TIM4_IRQHandler
    startup_stm32f103xe.o(RESET) refers to stm32f1xx_it.o(i.SPI1_IRQHandler) for SPI1_IRQHandler
    startup_stm32f103xe.o(RESET) refers to stm32f1xx_it.o(i.USART1_IRQHandler) for USART1_IRQHandler
==============================================================================

Removing Unused input sections from the image.

    Removing startup_stm32f103xe.o(HEAP), (512 bytes).
    Removing main.o(.rev16_text), (4 bytes).
    Removing main.o(.revsh_text), (4 bytes).
    Removing main.o(.rrx_text), (6 bytes).
    Removing gpio.o(.rev16_text), (4 bytes).
    Removing gpio.o(.revsh_text), (4 bytes).
    Removing gpio.o(.rrx_text), (6 bytes).
    Removing gpio.o(i.Lcd_en), (36 bytes).
    Removing gpio.o(i.lighting), (40 bytes).
    Removing freertos.o(.rev16_text), (4 bytes).
    Removing freertos.o(.revsh_text), (4 bytes).
    Removing freertos.o(.rrx_text), (6 bytes).
    Removing adc.o(.rev16_text), (4 bytes).
    Removing adc.o(.revsh_text), (4 bytes).
    Removing adc.o(.rrx_text), (6 bytes).
    Removing adc.o(i.HAL_ADC_MspDeInit), (60 bytes).
    Removing dma.o(.rev16_text), (4 bytes).
    Removing dma.o(.revsh_text), (4 bytes).
==============================================================================

Image Symbol Table

    Local Symbols

    Symbol Name                              Value     Ov Type        Size  Object(Section)

    ../Core/Src/adc.c                        0x00000000   Number         0  adc.o ABSOLUTE
    ../Core/Src/dma.c                        0x00000000   Number         0  dma.o ABSOLUTE
    ../Core/Src/freertos.c                   0x00000000   Number         0  freertos.o ABSOLUTE
    ../Core/Src/gpio.c                       0x00000000   Number         0  gpio.o ABSOLUTE
    ../Core/Src/i2c.c                        0x00000000   Number         0  i2c.o ABSOLUTE
    ../Core/Src/iwdg.c                       0x00000000   Number         0  iwdg.o ABSOLUTE
    ../Core/Src/main.c                       0x00000000   Number         0  main.o ABSOLUTE
    ../Core/Src/rtc.c                        0x00000000   Number         0  rtc.o ABSOLUTE
    ../Core/Src/spi.c                        0x00000000   Number         0  spi.o ABSOLUTE
    ../Core/Src/stm32f1xx_hal_msp.c          0x00000000   Number         0  stm32f1xx_hal_msp.o ABSOLUTE
    ../Core/Src/stm32f1xx_hal_timebase_tim.c 0x00000000   Number         0  stm32f1xx_hal_timebase_tim.o ABSOLUTE
    ../Core/Src/stm32f1xx_it.c               0x00000000   Number         0  stm32f1xx_it.o ABSOLUTE
    ../Core/Src/system_stm32f1xx.c           0x00000000   Number         0  system_stm32f1xx.o ABSOLUTE
    ../Core/Src/usart.c                      0x00000000   Number         0  usart.o ABSOLUTE
    ../Drivers/STM32F1xx_HAL_Driver/Src/stm32f1xx_hal.c 0x00000000   Number         0  stm32f1xx_hal.o ABSOLUTE
    ../Drivers/STM32F1xx_HAL_Driver/Src/stm32f1xx_hal_adc.c 0x00000000   Number         0  stm32f1xx_hal_adc.o ABSOLUTE
    ../Drivers/STM32F1xx_HAL_Driver/Src/stm32f1xx_hal_adc_ex.c 0x00000000   Number         0  stm32f1xx_hal_adc_ex.o ABSOLUTE
    ../Drivers/STM32F1xx_HAL_Driver/Src/stm32f1xx_hal_cortex.c 0x00000000   Number         0  stm32f1xx_hal_cortex.o ABSOLUTE
    ../Drivers/STM32F1xx_HAL_Driver/Src/stm32f1xx_hal_dma.c 0x00000000   Number         0  stm32f1xx_hal_dma.o ABSOLUTE
    ../Drivers/STM32F1xx_HAL_Driver/Src/stm32f1xx_hal_exti.c 0x00000000   Number         0  stm32f1xx_hal_exti.o ABSOLUTE
    ../Drivers/STM32F1xx_HAL_Driver/Src/stm32f1xx_hal_flash.c 0x00000000   Number         0  stm32f1xx_hal_flash.o ABSOLUTE
    ../Drivers/STM32F1xx_HAL_Driver/Src/stm32f1xx_hal_flash_ex.c 0x00000000   Number         0  stm32f1xx_hal_flash_ex.o ABSOLUTE
    ../Drivers/STM32F1xx_HAL_Driver/Src/stm32f1xx_hal_gpio.c 0x00000000   Number         0  stm32f1xx_hal_gpio.o ABSOLUTE
    ../Drivers/STM32F1xx_HAL_Driver/Src/stm32f1xx_hal_gpio_ex.c 0x00000000   Number         0  stm32f1xx_hal_gpio_ex.o ABSOLUTE
    ../Drivers/STM32F1xx_HAL_Driver/Src/stm32f1xx_hal_i2c.c 0x00000000   Number         0  stm32f1xx_hal_i2c.o ABSOLUTE
    ../Drivers/STM32F1xx_HAL_Driver/Src/stm32f1xx_hal_iwdg.c 0x00000000   Number         0  stm32f1xx_hal_iwdg.o ABSOLUTE
    ../Drivers/STM32F1xx_HAL_Driver/Src/stm32f1xx_hal_pwr.c 0x00000000   Number         0  stm32f1xx_hal_pwr.o ABSOLUTE
    ../Drivers/STM32F1xx_HAL_Driver/Src/stm32f1xx_hal_rcc.c 0x00000000   Number         0  stm32f1xx_hal_rcc.o ABSOLUTE
    ../Drivers/STM32F1xx_HAL_Driver/Src/stm32f1xx_hal_rcc_ex.c 0x00000000   Number         0  stm32f1xx_hal_rcc_ex.o ABSOLUTE
    ../Drivers/STM32F1xx_HAL_Driver/Src/stm32f1xx_hal_rtc.c 0x00000000   Number         0  stm32f1xx_hal_rtc.o ABSOLUTE
    ../Drivers/STM32F1xx_HAL_Driver/Src/stm32f1xx_hal_rtc_ex.c 0x00000000   Number         0  stm32f1xx_hal_rtc_ex.o ABSOLUTE
    ../Drivers/STM32F1xx_HAL_Driver/Src/stm32f1xx_hal_spi.c 0x00000000   Number         0  stm32f1xx_hal_spi.o ABSOLUTE
    ../Drivers/STM32F1xx_HAL_Driver/Src/stm32f1xx_hal_tim.c 0x00000000   Number         0  stm32f1xx_hal_tim.o ABSOLUTE
    ../Drivers/STM32F1xx_HAL_Driver/Src/stm32f1xx_hal_tim_ex.c 0x00000000   Number         0  stm32f1xx_hal_tim_ex.o ABSOLUTE
    ../Drivers/STM32F1xx_HAL_Driver/Src/stm32f1xx_hal_uart.c 0x00000000   Number         0  stm32f1xx_hal_uart.o ABSOLUTE
    ../Middlewares/Third_Party/FreeRTOS/Source/CMSIS_RTOS/cmsis_os.c 0x00000000   Number         0  cmsis_os.o ABSOLUTE
    ../Middlewares/Third_Party/FreeRTOS/Source/croutine.c 0x00000000   Number         0  croutine.o ABSOLUTE
    ../Middlewares/Third_Party/FreeRTOS/Source/event_groups.c 0x00000000   Number         0  event_groups.o ABSOLUTE
    ../Middlewares/Third_Party/FreeRTOS/Source/list.c 0x00000000   Number         0  list.o ABSOLUTE
    ../Middlewares/Third_Party/FreeRTOS/Source/portable/MemMang/heap_4.c 0x00000000   Number         0  heap_4.o ABSOLUTE
    ../Middlewares/Third_Party/FreeRTOS/Source/portable/RVDS/ARM_CM3/port.c 0x00000000   Number         0  port.o ABSOLUTE
    ../Middlewares/Third_Party/FreeRTOS/Source/queue.c 0x00000000   Number         0  queue.o ABSOLUTE
    ../Middlewares/Third_Party/FreeRTOS/Source/stream_buffer.c 0x00000000   Number         0  stream_buffer.o ABSOLUTE
    ../Middlewares/Third_Party/FreeRTOS/Source/tasks.c 0x00000000   Number         0  tasks.o ABSOLUTE
    ../Middlewares/Third_Party/FreeRTOS/Source/timers.c 0x00000000   Number         0  timers.o ABSOLUTE
    ../clib/../cmprslib/zerorunl2.c          0x00000000   Number         0  __dczerorl2.o ABSOLUTE
    ../clib/microlib/ctype/ctype.c           0x00000000   Number         0  isspace_c.o ABSOLUTE
    ../clib/microlib/ctype/ctype.c           0x00000000   Number         0  ctype_c.o ABSOLUTE
    ../clib/microlib/division.c              0x00000000   Number         0  uldiv.o ABSOLUTE
    ../clib/microlib/division.c              0x00000000   Number         0  uidiv.o ABSOLUTE
    ../clib/microlib/errno.c                 0x00000000   Number         0  errno.o ABSOLUTE
    ../clib/microlib/init/entry.s            0x00000000   Number         0  entry7b.o ABSOLUTE
    ../clib/microlib/init/entry.s            0x00000000   Number         0  entry11b.o ABSOLUTE
    ../clib/microlib/init/entry.s            0x00000000   Number         0  entry5.o ABSOLUTE
    ../clib/microlib/init/entry.s            0x00000000   Number         0  entry11a.o ABSOLUTE
    ../clib/microlib/init/entry.s            0x00000000   Number         0  entry.o ABSOLUTE
    ../clib/microlib/init/entry.s            0x00000000   Number         0  entry7a.o ABSOLUTE
    ../clib/microlib/init/entry.s            0x00000000   Number         0  entry10b.o ABSOLUTE
    ../clib/microlib/init/entry.s            0x00000000   Number         0  entry10a.o ABSOLUTE
    ../clib/microlib/init/entry.s            0x00000000   Number         0  entry9b.o ABSOLUTE
    ../clib/microlib/init/entry.s            0x00000000   Number         0  entry9a.o ABSOLUTE
    ../clib/microlib/init/entry.s            0x00000000   Number         0  entry8b.o ABSOLUTE
    ../clib/microlib/init/entry.s            0x00000000   Number         0  entry8a.o ABSOLUTE
    ../clib/microlib/init/entry.s            0x00000000   Number         0  entry2.o ABSOLUTE
    ../clib/microlib/longlong.c              0x00000000   Number         0  llushr.o ABSOLUTE
    ../clib/microlib/longlong.c              0x00000000   Number         0  llsshr.o ABSOLUTE
    ../clib/microlib/longlong.c              0x00000000   Number         0  llshl.o ABSOLUTE
    ../clib/microlib/printf/printf.c         0x00000000   Number         0  printf7.o ABSOLUTE
    ../clib/microlib/printf/printf.c         0x00000000   Number         0  printfa.o ABSOLUTE
    ../clib/microlib/printf/printf.c         0x00000000   Number         0  printf8.o ABSOLUTE
    ../clib/microlib/printf/printf.c         0x00000000   Number         0  printf6.o ABSOLUTE
    ../clib/microlib/printf/printf.c         0x00000000   Number         0  printfb.o ABSOLUTE
    ../clib/microlib/printf/printf.c         0x00000000   Number         0  printf0.o ABSOLUTE
    ../clib/microlib/printf/printf.c         0x00000000   Number         0  printf1.o ABSOLUTE
    ../clib/microlib/printf/printf.c         0x00000000   Number         0  printf2.o ABSOLUTE
    ../clib/microlib/printf/printf.c         0x00000000   Number         0  printf3.o ABSOLUTE
    ../clib/microlib/printf/printf.c         0x00000000   Number         0  printf4.o ABSOLUTE
    ../clib/microlib/printf/printf.c         0x00000000   Number         0  printf5.o ABSOLUTE
    ../clib/microlib/printf/stubs.s          0x00000000   Number         0  stubs.o ABSOLUTE
    ../clib/microlib/stdio/streams.c         0x00000000   Number         0  stdout.o ABSOLUTE
    ../clib/microlib/string/memcpy.c         0x00000000   Number         0  memcpya.o ABSOLUTE
    ../clib/microlib/string/memcpy.c         0x00000000   Number         0  memcpyb.o ABSOLUTE
    ../clib/microlib/string/memset.c         0x00000000   Number         0  memset.o ABSOLUTE
    ../clib/microlib/string/memset.c         0x00000000   Number         0  memseta.o ABSOLUTE
    ../clib/microlib/string/strlen.c         0x00000000   Number         0  strlen.o ABSOLUTE
    ../clib/microlib/stubs.s                 0x00000000   Number         0  iusefp.o ABSOLUTE
    ../clib/microlib/time/localtime.c        0x00000000   Number         0  localtime.o ABSOLUTE
    ../clib/scanf.c                          0x00000000   Number         0  _sgetc.o ABSOLUTE
    ../clib/scanf.c                          0x00000000   Number         0  strtod.o ABSOLUTE
    ../clib/scanf.c                          0x00000000   Number         0  scanf_fp.o ABSOLUTE
    ../fplib/microlib/d2f.c                  0x00000000   Number         0  d2f.o ABSOLUTE
    ../fplib/microlib/f2d.c                  0x00000000   Number         0  f2d.o ABSOLUTE
    ../fplib/microlib/fpadd.c                0x00000000   Number         0  dadd.o ABSOLUTE
    ../fplib/microlib/fpadd.c                0x00000000   Number         0  fadd.o ABSOLUTE
    ../fplib/microlib/fpdiv.c                0x00000000   Number         0  fdiv.o ABSOLUTE
    ../fplib/microlib/fpdiv.c                0x00000000   Number         0  ddiv.o ABSOLUTE
    ../fplib/microlib/fpepilogue.c           0x00000000   Number         0  fepilogue.o ABSOLUTE
    ../fplib/microlib/fpepilogue.c           0x00000000   Number         0  depilogue.o ABSOLUTE
    ../fplib/microlib/fpfix.c                0x00000000   Number         0  ffixui.o ABSOLUTE
    ../fplib/microlib/fpfix.c                0x00000000   Number         0  dfixui.o ABSOLUTE
    ../fplib/microlib/fpfix.c                0x00000000   Number         0  dfixul.o ABSOLUTE
    ../fplib/microlib/fpflt.c                0x00000000   Number         0  dfltul.o ABSOLUTE
    ../fplib/microlib/fpflt.c                0x00000000   Number         0  fflti.o ABSOLUTE
    ../fplib/microlib/fpflt.c                0x00000000   Number         0  ffltui.o ABSOLUTE
    ../fplib/microlib/fpflt.c                0x00000000   Number         0  dflti.o ABSOLUTE
    ../fplib/microlib/fpmul.c                0x00000000   Number         0  dmul.o ABSOLUTE
    ../fplib/microlib/fpmul.c                0x00000000   Number         0  fmul.o ABSOLUTE
    ../mathlib/atof.c                        0x00000000   Number         0  atof.o ABSOLUTE
    ..\101_104_api\devif.c                   0x00000000   Number         0  devif.o ABSOLUTE
    ..\101_104_api\heap.c                    0x00000000   Number         0  heap.o ABSOLUTE
    ..\101_104_api\iec101_link.c             0x00000000   Number         0  iec101_link.o ABSOLUTE
    ..\101_104_api\iec104_link.c             0x00000000   Number         0  iec104_link.o ABSOLUTE
    ..\101_104_api\iec10x.c                  0x00000000   Number         0  iec10x.o ABSOLUTE
    ..\101_104_api\iec10x_allpower.c         0x00000000   Number         0  iec10x_allpower.o ABSOLUTE
    ..\101_104_api\iec10x_debug.c            0x00000000   Number         0  iec10x_debug.o ABSOLUTE
    ..\101_104_api\iec10x_event.c            0x00000000   Number         0  iec10x_event.o ABSOLUTE
    ..\101_104_api\iec10x_period.c           0x00000000   Number         0  iec10x_period.o ABSOLUTE
    ..\101_104_api\iec10x_sync.c             0x00000000   Number         0  iec10x_sync.o ABSOLUTE
    ..\101_104_api\iec10x_telectrl.c         0x00000000   Number         0  iec10x_telectrl.o ABSOLUTE
    ..\101_104_api\iec10x_telesgnl.c         0x00000000   Number         0  iec10x_telesgnl.o ABSOLUTE
    ..\101_104_api\str.c                     0x00000000   Number         0  str.o ABSOLUTE
    ..\101_104_api\user_iecx_use.c           0x00000000   Number         0  user_iecx_use.o ABSOLUTE
    ..\Core\Src\adc.c                        0x00000000   Number         0  adc.o ABSOLUTE
    ..\Core\Src\dma.c                        0x00000000   Number         0  dma.o ABSOLUTE
    ..\Core\Src\freertos.c                   0x00000000   Number         0  freertos.o ABSOLUTE
    ..\Core\Src\gpio.c                       0x00000000   Number         0  gpio.o ABSOLUTE
    ..\Core\Src\i2c.c                        0x00000000   Number         0  i2c.o ABSOLUTE
    ..\Core\Src\iwdg.c                       0x00000000   Number         0  iwdg.o ABSOLUTE
    ..\Core\Src\main.c                       0x00000000   Number         0  main.o ABSOLUTE
    ..\Core\Src\rtc.c                        0x00000000   Number         0  rtc.o ABSOLUTE
    ..\Core\Src\spi.c                        0x00000000   Number         0  spi.o ABSOLUTE
    ..\Core\Src\stm32f1xx_hal_msp.c          0x00000000   Number         0  stm32f1xx_hal_msp.o ABSOLUTE
    ..\Core\Src\stm32f1xx_hal_timebase_tim.c 0x00000000   Number         0  stm32f1xx_hal_timebase_tim.o ABSOLUTE
    ..\Core\Src\stm32f1xx_it.c               0x00000000   Number         0  stm32f1xx_it.o ABSOLUTE
    ..\Core\Src\system_stm32f1xx.c           0x00000000   Number         0  system_stm32f1xx.o ABSOLUTE
    ..\Core\Src\usart.c                      0x00000000   Number         0  usart.o ABSOLUTE
    ..\Drivers\STM32F1xx_HAL_Driver\Src\stm32f1xx_hal.c 0x00000000   Number         0  stm32f1xx_hal.o ABSOLUTE
    ..\Drivers\STM32F1xx_HAL_Driver\Src\stm32f1xx_hal_adc.c 0x00000000   Number         0  stm32f1xx_hal_adc.o ABSOLUTE
    ..\Drivers\STM32F1xx_HAL_Driver\Src\stm32f1xx_hal_adc_ex.c 0x00000000   Number         0  stm32f1xx_hal_adc_ex.o ABSOLUTE
    ..\Drivers\STM32F1xx_HAL_Driver\Src\stm32f1xx_hal_cortex.c 0x00000000   Number         0  stm32f1xx_hal_cortex.o ABSOLUTE
    ..\Drivers\STM32F1xx_HAL_Driver\Src\stm32f1xx_hal_dma.c 0x00000000   Number         0  stm32f1xx_hal_dma.o ABSOLUTE
    ..\Drivers\STM32F1xx_HAL_Driver\Src\stm32f1xx_hal_exti.c 0x00000000   Number         0  stm32f1xx_hal_exti.o ABSOLUTE
    ..\Drivers\STM32F1xx_HAL_Driver\Src\stm32f1xx_hal_flash.c 0x00000000   Number         0  stm32f1xx_hal_flash.o ABSOLUTE
    ..\Drivers\STM32F1xx_HAL_Driver\Src\stm32f1xx_hal_flash_ex.c 0x00000000   Number         0  stm32f1xx_hal_flash_ex.o ABSOLUTE
    ..\Drivers\STM32F1xx_HAL_Driver\Src\stm32f1xx_hal_gpio.c 0x00000000   Number         0  stm32f1xx_hal_gpio.o ABSOLUTE
    ..\Drivers\STM32F1xx_HAL_Driver\Src\stm32f1xx_hal_gpio_ex.c 0x00000000   Number         0  stm32f1xx_hal_gpio_ex.o ABSOLUTE
    ..\Drivers\STM32F1xx_HAL_Driver\Src\stm32f1xx_hal_i2c.c 0x00000000   Number         0  stm32f1xx_hal_i2c.o ABSOLUTE
    ..\Drivers\STM32F1xx_HAL_Driver\Src\stm32f1xx_hal_iwdg.c 0x00000000   Number         0  stm32f1xx_hal_iwdg.o ABSOLUTE
    ..\Drivers\STM32F1xx_HAL_Driver\Src\stm32f1xx_hal_pwr.c 0x00000000   Number         0  stm32f1xx_hal_pwr.o ABSOLUTE
    ..\Drivers\STM32F1xx_HAL_Driver\Src\stm32f1xx_hal_rcc.c 0x00000000   Number         0  stm32f1xx_hal_rcc.o ABSOLUTE
    ..\Drivers\STM32F1xx_HAL_Driver\Src\stm32f1xx_hal_rcc_ex.c 0x00000000   Number         0  stm32f1xx_hal_rcc_ex.o ABSOLUTE
    ..\Drivers\STM32F1xx_HAL_Driver\Src\stm32f1xx_hal_rtc.c 0x00000000   Number         0  stm32f1xx_hal_rtc.o ABSOLUTE
    ..\Drivers\STM32F1xx_HAL_Driver\Src\stm32f1xx_hal_rtc_ex.c 0x00000000   Number         0  stm32f1xx_hal_rtc_ex.o ABSOLUTE
    ..\Drivers\STM32F1xx_HAL_Driver\Src\stm32f1xx_hal_spi.c 0x00000000   Number         0  stm32f1xx_hal_spi.o ABSOLUTE
    ..\Drivers\STM32F1xx_HAL_Driver\Src\stm32f1xx_hal_tim.c 0x00000000   Number         0  stm32f1xx_hal_tim.o ABSOLUTE
    ..\Drivers\STM32F1xx_HAL_Driver\Src\stm32f1xx_hal_tim_ex.c 0x00000000   Number         0  stm32f1xx_hal_tim_ex.o ABSOLUTE
    ..\Drivers\STM32F1xx_HAL_Driver\Src\stm32f1xx_hal_uart.c 0x00000000   Number         0  stm32f1xx_hal_uart.o ABSOLUTE
    ..\Middlewares\Third_Party\FreeRTOS\Source\CMSIS_RTOS\cmsis_os.c 0x00000000   Number         0  cmsis_os.o ABSOLUTE
    ..\Middlewares\Third_Party\FreeRTOS\Source\portable\RVDS\ARM_CM3\port.c 0x00000000   Number         0  port.o ABSOLUTE
    ..\\101_104_api\\iec101_link.c           0x00000000   Number         0  iec101_link.o ABSOLUTE
    ..\\101_104_api\\user_iecx_use.c         0x00000000   Number         0  user_iecx_use.o ABSOLUTE
    ..\\data_get\\data_get.c                 0x00000000   Number         0  data_get.o ABSOLUTE
    ..\\ff\\diskio.c                         0x00000000   Number         0  diskio.o ABSOLUTE
    ..\\flash_api\\bsp_spiflash.c            0x00000000   Number         0  bsp_spiflash.o ABSOLUTE
    ..\\flash_api\\memory_data.c             0x00000000   Number         0  memory_data.o ABSOLUTE
    ..\\lcd_api\\lcd.c                       0x00000000   Number         0  lcd.o ABSOLUTE
    ..\\lcd_api\\lcd_init.c                  0x00000000   Number         0  lcd_init.o ABSOLUTE
    ..\\led_con\\cot_led.c                   0x00000000   Number         0  cot_led.o ABSOLUTE
    ..\\led_con\\led_user.c                  0x00000000   Number         0  led_user.o ABSOLUTE
    ..\\power_con\\power_con.c               0x00000000   Number         0  power_con.o ABSOLUTE
    ..\\save_api\\save_api.c                 0x00000000   Number         0  save_api.o ABSOLUTE
    ..\\sd_api\\SD.c                         0x00000000   Number         0  sd.o ABSOLUTE
    ..\\speak_api\\speak_api.c               0x00000000   Number         0  speak_api.o ABSOLUTE
    ..\\usart_api\\usart_api.c               0x00000000   Number         0  usart_api_1.o ABSOLUTE
    ..\\user_menu\\menu.c                    0x00000000   Number         0  menu.o ABSOLUTE
    ..\\user_menu\\menu_ui.c                 0x00000000   Number         0  menu_ui.o ABSOLUTE
    ..\\user_menu\\user_key.c                0x00000000   Number         0  user_key.o ABSOLUTE
    ..\data_get\data_get.c                   0x00000000   Number         0  data_get.o ABSOLUTE
    ..\ff\diskio.c                           0x00000000   Number         0  diskio.o ABSOLUTE
    ..\ff\ff.c                               0x00000000   Number         0  ff.o ABSOLUTE
    ..\ff\option\cc936.c                     0x00000000   Number         0  cc936.o ABSOLUTE
    ..\flash_api\bsp_spiflash.c              0x00000000   Number         0  bsp_spiflash.o ABSOLUTE
    ..\flash_api\memory_data.c               0x00000000   Number         0  memory_data.o ABSOLUTE
    ..\lcd_api\lcd.c                         0x00000000   Number         0  lcd.o ABSOLUTE
    ..\lcd_api\lcd_init.c                    0x00000000   Number         0  lcd_init.o ABSOLUTE
    ..\led_con\cot_led.c                     0x00000000   Number         0  cot_led.o ABSOLUTE
    ..\led_con\led_user.c                    0x00000000   Number         0  led_user.o ABSOLUTE
    ..\power_con\power_con.c                 0x00000000   Number         0  power_con.o ABSOLUTE
    ..\save_api\save_api.c                   0x00000000   Number         0  save_api.o ABSOLUTE
    ..\sd_api\SD.c                           0x00000000   Number         0  sd.o ABSOLUTE
    ..\speak_api\speak_api.c                 0x00000000   Number         0  speak_api.o ABSOLUTE
    ..\usart_api\usart_api.c                 0x00000000   Number         0  usart_api_1.o ABSOLUTE
    ..\user_menu\flexible_button.c           0x00000000   Number         0  flexible_button.o ABSOLUTE
    ..\user_menu\menu.c                      0x00000000   Number         0  menu.o ABSOLUTE
    ..\user_menu\menu_ui.c                   0x00000000   Number         0  menu_ui.o ABSOLUTE
    ..\user_menu\user_key.c                  0x00000000   Number         0  user_key.o ABSOLUTE
    cdrcmple.s                               0x00000000   Number         0  cdrcmple.o ABSOLUTE
    cfcmple.s                                0x00000000   Number         0  cfcmple.o ABSOLUTE
    cfrcmple.s                               0x00000000   Number         0  cfrcmple.o ABSOLUTE
    dc.s                                     0x00000000   Number         0  dc.o ABSOLUTE
    handlers.s                               0x00000000   Number         0  handlers.o ABSOLUTE
    init.s                                   0x00000000   Number         0  init.o ABSOLUTE
    startup_stm32f103xe.s                    0x00000000   Number         0  startup_stm32f103xe.o ABSOLUTE
    RESET                                    0x08000000   Section      304  startup_stm32f103xe.o(RESET)
    .ARM.Collect$$$$00000000                 0x08000130   Section        0  entry.o(.ARM.Collect$$$$00000000)
    .ARM.Collect$$$$00000001                 0x08000130   Section        4  entry2.o(.ARM.Collect$$$$00000001)
    .ARM.Collect$$$$00000004                 0x08000134   Section        4  entry5.o(.ARM.Collect$$$$00000004)
    .ARM.Collect$$$$00000008                 0x08000138   Section        0  entry7b.o(.ARM.Collect$$$$00000008)
    .ARM.Collect$$$$0000000A                 0x08000138   Section        0  entry8b.o(.ARM.Collect$$$$0000000A)
    .ARM.Collect$$$$0000000B                 0x08000138   Section        8  entry9a.o(.ARM.Collect$$$$0000000B)
    .ARM.Collect$$$$0000000D                 0x08000140   Section        0  entry10a.o(.ARM.Collect$$$$0000000D)
    .ARM.Collect$$$$0000000F                 0x08000140   Section        0  entry11a.o(.ARM.Collect$$$$0000000F)
    .ARM.Collect$$$$00002712                 0x08000140   Section        4  entry2.o(.ARM.Collect$$$$00002712)
    __lit__00000000                          0x08000140   Data           4  entry2.o(.ARM.Collect$$$$00002712)
    .emb_text                                0x08000144   Section      150  port.o(.emb_text)
    .text                                    0x080001dc   Section       36  startup_stm32f103xe.o(.text)
    .text                                    0x08000200   Section        0  uldiv.o(.text)
    .text                                    0x08000262   Section        0  llushr.o(.text)
    .text                                    0x08000284   Section        0  localtime.o(.text)
    .text                                    0x08000318   Section        0  memcpya.o(.text)
    .text                                    0x0800033c   Section        0  memseta.o(.text)
    .text                                    0x08000360   Section        0  strlen.o(.text)
    .text                                    0x0800036e   Section        0  fadd.o(.text)
    .text                                    0x0800041e   Section        0  fmul.o(.text)
    .text                                    0x08000482   Section        0  fdiv.o(.text)
    .text                                    0x080004fe   Section        0  dmul.o(.text)
    .text                                    0x080005e2   Section        0  fflti.o(.text)
    .text                                    0x080005f4   Section        0  ffltui.o(.text)
    .text                                    0x080005fe   Section        0  dflti.o(.text)
    .text                                    0x08000620   Section        0  ffixui.o(.text)
    .text                                    0x08000648   Section        0  dfixui.o(.text)
    .text                                    0x0800067a   Section        0  f2d.o(.text)
    .text                                    0x080006a0   Section        0  d2f.o(.text)
    .text                                    0x080006d8   Section       20  cfcmple.o(.text)
    .text                                    0x080006ec   Section       20  cfrcmple.o(.text)
    .text                                    0x08000700   Section        0  uidiv.o(.text)
    .text                                    0x0800072c   Section        0  llshl.o(.text)
    .text                                    0x0800074c   Section        0  strtod.o(.text)
    _local_sscanf                            0x0800074d   Thumb Code    54  strtod.o(.text)
    .text                                    0x080007e8   Section        0  iusefp.o(.text)
    .text                                    0x080007e8   Section        0  fepilogue.o(.text)
    .text                                    0x08000856   Section        0  depilogue.o(.text)
    .text                                    0x08000910   Section        0  dadd.o(.text)
    .text                                    0x08000a5e   Section        0  ddiv.o(.text)
    .text                                    0x08000b3c   Section        0  dfixul.o(.text)
    .text                                    0x08000b6c   Section       48  cdrcmple.o(.text)
    .text                                    0x08000b9c   Section       36  init.o(.text)
    .text                                    0x08000bc0   Section        0  llsshr.o(.text)
    .text                                    0x08000be4   Section        0  isspace_c.o(.text)
    .text                                    0x08000bf0   Section        0  scanf_fp.o(.text)
    _fp_value                                0x08000bf1   Thumb Code   296  scanf_fp.o(.text)
    .text                                    0x08000f50   Section        0  _sgetc.o(.text)
    .text                                    0x08000f90   Section        0  ctype_c.o(.text)
    .text                                    0x08000fb8   Section        0  dfltul.o(.text)
    .text                                    0x08000fd0   Section        0  __dczerorl2.o(.text)
    i.ADC_ConversionStop_Disable             0x08001026   Section        0  stm32f1xx_hal_adc.o(i.ADC_ConversionStop_Disable)
    i.ADC_Enable                             0x08001084   Section        0  stm32f1xx_hal_adc.o(i.ADC_Enable)
    i.ASDU_parse                             0x08001114   Section        0  iec10x_debug.o(i.ASDU_parse)
    ASDU_parse                               0x08001115   Thumb Code   350  iec10x_debug.o(i.ASDU_parse)
    i.BusFault_Handler                       0x080012a0   Section        0  stm32f1xx_it.o(i.BusFault_Handler)
    i.Certification_effectiveness            0x080012a4   Section        0  save_api.o(i.Certification_effectiveness)
    i.Certification_in                       0x08001428   Section        0  save_api.o(i.Certification_in)
    i.Certification_process                  0x08001544   Section        0  save_api.o(i.Certification_process)
    i.Certification_writ                     0x08001978   Section        0  save_api.o(i.Certification_writ)
    i.CtrlLed_100                            0x08001b54   Section        0  led_user.o(i.CtrlLed_100)
    i.CtrlLed_25                             0x08001b78   Section        0  led_user.o(i.CtrlLed_25)
    i.CtrlLed_50                             0x08001b9c   Section        0  led_user.o(i.CtrlLed_50)
    i.CtrlLed_75                             0x08001bc0   Section        0  led_user.o(i.CtrlLed_75)
    i.CtrlLed_BED                            0x08001be4   Section        0  led_user.o(i.CtrlLed_BED)
    i.CtrlLed_RED                            0x08001c08   Section        0  led_user.o(i.CtrlLed_RED)
    i.CtrlLed_run1                           0x08001c2c   Section        0  led_user.o(i.CtrlLed_run1)
    i.CtrlLed_run2                           0x08001c50   Section        0  led_user.o(i.CtrlLed_run2)
    i.CtrlPwmLedState                        0x08001c74   Section        0  cot_led.o(i.CtrlPwmLedState)
    CtrlPwmLedState                          0x08001c75   Thumb Code    76  cot_led.o(i.CtrlPwmLedState)
    i.DIQ0T_parse                            0x08001cc0   Section        0  iec10x_debug.o(i.DIQ0T_parse)
    i.DIQ24T_parse                           0x08001dc8   Section        0  iec10x_debug.o(i.DIQ24T_parse)
    i.DIQ56T_parse                           0x08001ef4   Section        0  iec10x_debug.o(i.DIQ56T_parse)
    i.DMA1_Channel3_IRQHandler               0x08002038   Section        0  stm32f1xx_it.o(i.DMA1_Channel3_IRQHandler)
    i.DMA1_Channel5_IRQHandler               0x08002048   Section        0  stm32f1xx_it.o(i.DMA1_Channel5_IRQHandler)
    i.DMA1_Channel6_IRQHandler               0x08002058   Section        0  stm32f1xx_it.o(i.DMA1_Channel6_IRQHandler)
    i.DMA2_Channel3_IRQHandler               0x08002068   Section        0  stm32f1xx_it.o(i.DMA2_Channel3_IRQHandler)
    i.DMA_SetConfig                          0x08002078   Section        0  stm32f1xx_hal_dma.o(i.DMA_SetConfig)
    DMA_SetConfig                            0x08002079   Thumb Code    44  stm32f1xx_hal_dma.o(i.DMA_SetConfig)
    i.DebugMon_Handler                       0x080020a4   Section        0  stm32f1xx_it.o(i.DebugMon_Handler)
    i.EXTI9_5_IRQHandler                     0x080020a6   Section        0  stm32f1xx_it.o(i.EXTI9_5_IRQHandler)
    i.Enter_Page                             0x080020b8   Section        0  menu_ui.o(i.Enter_Page)
    i.Error_Handler                          0x08002150   Section        0  main.o(i.Error_Handler)
    i.FIELD_EN                               0x08002158   Section        0  gpio.o(i.FIELD_EN)
    i.Framing_results                        0x0800217c   Section        0  save_api.o(i.Framing_results)
    i.FucCheckSum                            0x080021e0   Section        0  usart_api_1.o(i.FucCheckSum)
    i.Gas_en                                 0x08002208   Section        0  gpio.o(i.Gas_en)
    i.HAA2018_EN                             0x08002230   Section        0  gpio.o(i.HAA2018_EN)
    i.HAL_ADCEx_Calibration_Start            0x08002254   Section        0  stm32f1xx_hal_adc_ex.o(i.HAL_ADCEx_Calibration_Start)
    i.HAL_ADC_ConfigChannel                  0x08002370   Section        0  stm32f1xx_hal_adc.o(i.HAL_ADC_ConfigChannel)
    i.HAL_ADC_GetValue                       0x080024d0   Section        0  stm32f1xx_hal_adc.o(i.HAL_ADC_GetValue)
    i.HAL_ADC_Init                           0x080024d8   Section        0  stm32f1xx_hal_adc.o(i.HAL_ADC_Init)
    i.HAL_ADC_MspInit                        0x08002638   Section        0  adc.o(i.HAL_ADC_MspInit)
    i.HAL_ADC_PollForConversion              0x080026d4   Section        0  stm32f1xx_hal_adc.o(i.HAL_ADC_PollForConversion)
    i.HAL_ADC_Start                          0x08002854   Section        0  stm32f1xx_hal_adc.o(i.HAL_ADC_Start)
    i.HAL_ADC_Stop                           0x08002984   Section        0  stm32f1xx_hal_adc.o(i.HAL_ADC_Stop)
    i.HAL_DMA_Abort                          0x080029c4   Section        0  stm32f1xx_hal_dma.o(i.HAL_DMA_Abort)
    i.HAL_DMA_Abort_IT                       0x08002a1c   Section        0  stm32f1xx_hal_dma.o(i.HAL_DMA_Abort_IT)
    i.HAL_DMA_IRQHandler                     0x08002bc4   Section        0  stm32f1xx_hal_dma.o(i.HAL_DMA_IRQHandler)
    i.HAL_DMA_Init                           0x08002f5c   Section        0  stm32f1xx_hal_dma.o(i.HAL_DMA_Init)
    i.HAL_DMA_Start_IT                       0x08002fe8   Section        0  stm32f1xx_hal_dma.o(i.HAL_DMA_Start_IT)
    i.HAL_Delay                              0x08003084   Section        0  stm32f1xx_hal.o(i.HAL_Delay)
    i.HAL_GPIO_EXTI_Callback                 0x080030ac   Section        0  stm32f1xx_hal_gpio.o(i.HAL_GPIO_EXTI_Callback)
    i.HAL_GPIO_EXTI_IRQHandler               0x080030b0   Section        0  stm32f1xx_hal_gpio.o(i.HAL_GPIO_EXTI_IRQHandler)
    i.HAL_GPIO_Init                          0x080030cc   Section        0  stm32f1xx_hal_gpio.o(i.HAL_GPIO_Init)
    i.HAL_GPIO_ReadPin                       0x0800340c   Section        0  stm32f1xx_hal_gpio.o(i.HAL_GPIO_ReadPin)
    i.HAL_GPIO_WritePin                      0x0800341c   Section        0  stm32f1xx_hal_gpio.o(i.HAL_GPIO_WritePin)
    i.HAL_GetTick                            0x08003428   Section        0  stm32f1xx_hal.o(i.HAL_GetTick)
    i.HAL_I2C_Init                           0x08003434   Section        0  stm32f1xx_hal_i2c.o(i.HAL_I2C_Init)
    i.HAL_I2C_MspInit                        0x08003604   Section        0  i2c.o(i.HAL_I2C_MspInit)
    i.HAL_IncTick                            0x08003690   Section        0  stm32f1xx_hal.o(i.HAL_IncTick)
    i.HAL_Init                               0x080036a8   Section        0  stm32f1xx_hal.o(i.HAL_Init)
    i.HAL_InitTick                           0x080036d0   Section        0  stm32f1xx_hal_timebase_tim.o(i.HAL_InitTick)
    i.HAL_MspInit                            0x08003784   Section        0  stm32f1xx_hal_msp.o(i.HAL_MspInit)
    i.HAL_NVIC_EnableIRQ                     0x080037e4   Section        0  stm32f1xx_hal_cortex.o(i.HAL_NVIC_EnableIRQ)
    i.HAL_NVIC_SetPriority                   0x08003804   Section        0  stm32f1xx_hal_cortex.o(i.HAL_NVIC_SetPriority)
    i.HAL_NVIC_SetPriorityGrouping           0x08003880   Section        0  stm32f1xx_hal_cortex.o(i.HAL_NVIC_SetPriorityGrouping)
    i.HAL_PWR_EnableBkUpAccess               0x080038a8   Section        0  stm32f1xx_hal_pwr.o(i.HAL_PWR_EnableBkUpAccess)
    i.HAL_RCCEx_GetPeriphCLKFreq             0x080038b4   Section        0  stm32f1xx_hal_rcc_ex.o(i.HAL_RCCEx_GetPeriphCLKFreq)
    i.HAL_RCCEx_PeriphCLKConfig              0x080039cc   Section        0  stm32f1xx_hal_rcc_ex.o(i.HAL_RCCEx_PeriphCLKConfig)
    i.HAL_RCC_ClockConfig                    0x08003afc   Section        0  stm32f1xx_hal_rcc.o(i.HAL_RCC_ClockConfig)
    i.HAL_RCC_GetClockConfig                 0x08003c88   Section        0  stm32f1xx_hal_rcc.o(i.HAL_RCC_GetClockConfig)
    i.HAL_RCC_GetHCLKFreq                    0x08003ccc   Section        0  stm32f1xx_hal_rcc.o(i.HAL_RCC_GetHCLKFreq)
    i.HAL_RCC_GetPCLK1Freq                   0x08003cd8   Section        0  stm32f1xx_hal_rcc.o(i.HAL_RCC_GetPCLK1Freq)
    i.HAL_RCC_GetPCLK2Freq                   0x08003cf8   Section        0  stm32f1xx_hal_rcc.o(i.HAL_RCC_GetPCLK2Freq)
    i.HAL_RCC_GetSysClockFreq                0x08003d18   Section        0  stm32f1xx_hal_rcc.o(i.HAL_RCC_GetSysClockFreq)
    i.HAL_RCC_OscConfig                      0x08003d88   Section        0  stm32f1xx_hal_rcc.o(i.HAL_RCC_OscConfig)
    i.HAL_RTCEx_RTCEventCallback             0x080041ec   Section        0  stm32f1xx_hal_rtc_ex.o(i.HAL_RTCEx_RTCEventCallback)
    i.HAL_RTCEx_RTCEventErrorCallback        0x080041ee   Section        0  stm32f1xx_hal_rtc_ex.o(i.HAL_RTCEx_RTCEventErrorCallback)
    i.HAL_RTCEx_RTCIRQHandler                0x080041f0   Section        0  stm32f1xx_hal_rtc_ex.o(i.HAL_RTCEx_RTCIRQHandler)
    i.HAL_RTC_GetDate                        0x0800423e   Section        0  stm32f1xx_hal_rtc.o(i.HAL_RTC_GetDate)
    i.HAL_RTC_GetTime                        0x08004290   Section        0  stm32f1xx_hal_rtc.o(i.HAL_RTC_GetTime)
    i.HAL_RTC_Init                           0x08004394   Section        0  stm32f1xx_hal_rtc.o(i.HAL_RTC_Init)
    i.HAL_RTC_MspInit                        0x08004454   Section        0  rtc.o(i.HAL_RTC_MspInit)
    i.HAL_RTC_SetDate                        0x080044a4   Section        0  stm32f1xx_hal_rtc.o(i.HAL_RTC_SetDate)
    i.HAL_RTC_SetTime                        0x0800459c   Section        0  stm32f1xx_hal_rtc.o(i.HAL_RTC_SetTime)
    i.HAL_RTC_WaitForSynchro                 0x08004678   Section        0  stm32f1xx_hal_rtc.o(i.HAL_RTC_WaitForSynchro)
    i.HAL_SPI_ErrorCallback                  0x080046b8   Section        0  stm32f1xx_hal_spi.o(i.HAL_SPI_ErrorCallback)
    i.HAL_SPI_IRQHandler                     0x080046bc   Section        0  stm32f1xx_hal_spi.o(i.HAL_SPI_IRQHandler)
    i.HAL_SPI_Init                           0x080047f0   Section        0  stm32f1xx_hal_spi.o(i.HAL_SPI_Init)
    i.HAL_SPI_MspInit                        0x080048b0   Section        0  spi.o(i.HAL_SPI_MspInit)
    i.HAL_SPI_RxCpltCallback                 0x080049b4   Section        0  stm32f1xx_hal_spi.o(i.HAL_SPI_RxCpltCallback)
    i.HAL_SPI_TransmitReceive                0x080049b6   Section        0  stm32f1xx_hal_spi.o(i.HAL_SPI_TransmitReceive)
    i.HAL_SPI_TransmitReceive_IT             0x08004bf8   Section        0  stm32f1xx_hal_spi.o(i.HAL_SPI_TransmitReceive_IT)
    i.HAL_SPI_Transmit_IT                    0x08004cbc   Section        0  stm32f1xx_hal_spi.o(i.HAL_SPI_Transmit_IT)
    i.HAL_SPI_TxCpltCallback                 0x08004d70   Section        0  stm32f1xx_hal_spi.o(i.HAL_SPI_TxCpltCallback)
    i.HAL_SPI_TxRxCpltCallback               0x08004d72   Section        0  stm32f1xx_hal_spi.o(i.HAL_SPI_TxRxCpltCallback)
    i.HAL_TIMEx_BreakCallback                0x08004d74   Section        0  stm32f1xx_hal_tim_ex.o(i.HAL_TIMEx_BreakCallback)
    i.HAL_TIMEx_CommutCallback               0x08004d76   Section        0  stm32f1xx_hal_tim_ex.o(i.HAL_TIMEx_CommutCallback)
    i.HAL_TIM_Base_Init                      0x08004d78   Section        0  stm32f1xx_hal_tim.o(i.HAL_TIM_Base_Init)
    i.HAL_TIM_Base_MspInit                   0x08004dde   Section        0  stm32f1xx_hal_tim.o(i.HAL_TIM_Base_MspInit)
    i.HAL_TIM_Base_Start_IT                  0x08004de0   Section        0  stm32f1xx_hal_tim.o(i.HAL_TIM_Base_Start_IT)
    i.HAL_TIM_IC_CaptureCallback             0x08004e70   Section        0  stm32f1xx_hal_tim.o(i.HAL_TIM_IC_CaptureCallback)
    i.HAL_TIM_IRQHandler                     0x08004e72   Section        0  stm32f1xx_hal_tim.o(i.HAL_TIM_IRQHandler)
    i.HAL_TIM_OC_DelayElapsedCallback        0x08005008   Section        0  stm32f1xx_hal_tim.o(i.HAL_TIM_OC_DelayElapsedCallback)
    i.HAL_TIM_PWM_PulseFinishedCallback      0x0800500a   Section        0  stm32f1xx_hal_tim.o(i.HAL_TIM_PWM_PulseFinishedCallback)
    i.HAL_TIM_PeriodElapsedCallback          0x0800500c   Section        0  main.o(i.HAL_TIM_PeriodElapsedCallback)
    i.HAL_TIM_TriggerCallback                0x08005024   Section        0  stm32f1xx_hal_tim.o(i.HAL_TIM_TriggerCallback)
    i.HAL_UARTEx_RxEventCallback             0x08005026   Section        0  stm32f1xx_hal_uart.o(i.HAL_UARTEx_RxEventCallback)
    i.HAL_UART_DMAStop                       0x08005028   Section        0  stm32f1xx_hal_uart.o(i.HAL_UART_DMAStop)
    i.HAL_UART_ErrorCallback                 0x080050b2   Section        0  stm32f1xx_hal_uart.o(i.HAL_UART_ErrorCallback)
    i.HAL_UART_IRQHandler                    0x080050b4   Section        0  stm32f1xx_hal_uart.o(i.HAL_UART_IRQHandler)
    i.HAL_UART_Init                          0x08005398   Section        0  stm32f1xx_hal_uart.o(i.HAL_UART_Init)
    i.HAL_UART_MspInit                       0x08005410   Section        0  usart.o(i.HAL_UART_MspInit)
    i.HAL_UART_Receive_DMA                   0x08005720   Section        0  stm32f1xx_hal_uart.o(i.HAL_UART_Receive_DMA)
    i.HAL_UART_RxCpltCallback                0x0800574c   Section        0  stm32f1xx_hal_uart.o(i.HAL_UART_RxCpltCallback)
    i.HAL_UART_RxHalfCpltCallback            0x0800574e   Section        0  stm32f1xx_hal_uart.o(i.HAL_UART_RxHalfCpltCallback)
    i.HAL_UART_Transmit                      0x08005750   Section        0  stm32f1xx_hal_uart.o(i.HAL_UART_Transmit)
    i.HAL_UART_TxCpltCallback                0x08005802   Section        0  stm32f1xx_hal_uart.o(i.HAL_UART_TxCpltCallback)
    i.Hand                                   0x08005804   Section        0  speak_api.o(i.Hand)
    i.HardFault_Handler                      0x08005878   Section        0  stm32f1xx_it.o(i.HardFault_Handler)
    i.JUMP_Table                             0x0800587c   Section        0  menu.o(i.JUMP_Table)
    JUMP_Table                               0x0800587d   Thumb Code    36  menu.o(i.JUMP_Table)
    i.JW5808_EN                              0x080058a4   Section        0  gpio.o(i.JW5808_EN)
    i.LCD_Address_Set                        0x080058c8   Section        0  lcd_init.o(i.LCD_Address_Set)
    i.LCD_DISP_MIX                           0x0800590a   Section        0  lcd.o(i.LCD_DISP_MIX)
    i.LCD_DrawPoint                          0x0800598a   Section        0  lcd.o(i.LCD_DrawPoint)
    i.LCD_Fill                               0x080059a6   Section        0  lcd.o(i.LCD_Fill)
    i.LCD_Init                               0x080059f0   Section        0  lcd_init.o(i.LCD_Init)
    i.LCD_ShowChar                           0x08005b84   Section        0  lcd.o(i.LCD_ShowChar)
    i.LCD_ShowChinese                        0x08005cdc   Section        0  lcd.o(i.LCD_ShowChinese)
    i.LCD_ShowChinese12x12                   0x08005d68   Section        0  lcd.o(i.LCD_ShowChinese12x12)
    i.LCD_ShowChinese16x16                   0x08005eb0   Section        0  lcd.o(i.LCD_ShowChinese16x16)
    i.LCD_ShowChinese24x24                   0x08005fe8   Section        0  lcd.o(i.LCD_ShowChinese24x24)
    i.LCD_ShowChinese32x32                   0x08006130   Section        0  lcd.o(i.LCD_ShowChinese32x32)
    i.LCD_ShowFloatNum1                      0x08006268   Section        0  lcd.o(i.LCD_ShowFloatNum1)
    i.LCD_ShowIntNum                         0x0800630c   Section        0  lcd.o(i.LCD_ShowIntNum)
    i.LCD_ShowString                         0x0800636c   Section        0  lcd.o(i.LCD_ShowString)
    i.LCD_WR_DATA                            0x080063b8   Section        0  lcd_init.o(i.LCD_WR_DATA)
    i.LCD_WR_DATA8                           0x080063ca   Section        0  lcd_init.o(i.LCD_WR_DATA8)
    i.LCD_WR_REG                             0x080063d8   Section        0  lcd_init.o(i.LCD_WR_REG)
    i.LCD_Writ_Bus                           0x08006400   Section        0  lcd_init.o(i.LCD_Writ_Bus)
    i.MX_ADC1_Init                           0x08006468   Section        0  adc.o(i.MX_ADC1_Init)
    i.MX_DMA_Init                            0x0800651c   Section        0  dma.o(i.MX_DMA_Init)
    i.MX_FREERTOS_Init                       0x0800659c   Section        0  freertos.o(i.MX_FREERTOS_Init)
    i.MX_GPIO_Init                           0x0800666c   Section        0  gpio.o(i.MX_GPIO_Init)
    i.MX_I2C1_Init                           0x08006874   Section        0  i2c.o(i.MX_I2C1_Init)
    i.MX_RTC_Init                            0x080068b0   Section        0  rtc.o(i.MX_RTC_Init)
    i.MX_SPI1_Init                           0x08006924   Section        0  spi.o(i.MX_SPI1_Init)
    i.MX_SPI3_Init                           0x0800696c   Section        0  spi.o(i.MX_SPI3_Init)
    i.MX_UART4_Init                          0x080069b0   Section        0  usart.o(i.MX_UART4_Init)
    i.MX_USART1_UART_Init                    0x080069e8   Section        0  usart.o(i.MX_USART1_UART_Init)
    i.MX_USART2_UART_Init                    0x08006a20   Section        0  usart.o(i.MX_USART2_UART_Init)
    i.MX_USART3_UART_Init                    0x08006a58   Section        0  usart.o(i.MX_USART3_UART_Init)
    i.MemManage_Handler                      0x08006a90   Section        0  stm32f1xx_it.o(i.MemManage_Handler)
    i.Menu_Main_Init                         0x08006a94   Section        0  menu_ui.o(i.Menu_Main_Init)
    i.Menu_Select_Item                       0x08006ac0   Section        0  menu.o(i.Menu_Select_Item)
    i.NMI_Handler                            0x08006ad0   Section        0  stm32f1xx_it.o(i.NMI_Handler)
    i.Near_electric                          0x08006ad4   Section        0  data_get.o(i.Near_electric)
    i.P_3V8                                  0x08006bf4   Section        0  gpio.o(i.P_3V8)
    i.P_5V                                   0x08006c18   Section        0  gpio.o(i.P_5V)
    i.Power_key                              0x08006c3c   Section        0  gpio.o(i.Power_key)
    i.Protocol_decode_Message                0x08006c64   Section        0  data_get.o(i.Protocol_decode_Message)
    i.Protocol_decode_contrl                 0x08006c98   Section        0  data_get.o(i.Protocol_decode_contrl)
    i.Protocol_decode_data                   0x08006cb4   Section        0  data_get.o(i.Protocol_decode_data)
    i.RCC_Delay                              0x08006e14   Section        0  stm32f1xx_hal_rcc.o(i.RCC_Delay)
    RCC_Delay                                0x08006e15   Thumb Code    36  stm32f1xx_hal_rcc.o(i.RCC_Delay)
    i.RTC_Bcd2ToByte                         0x08006e3c   Section        0  stm32f1xx_hal_rtc.o(i.RTC_Bcd2ToByte)
    RTC_Bcd2ToByte                           0x08006e3d   Thumb Code    22  stm32f1xx_hal_rtc.o(i.RTC_Bcd2ToByte)
    i.RTC_ByteToBcd2                         0x08006e52   Section        0  stm32f1xx_hal_rtc.o(i.RTC_ByteToBcd2)
    RTC_ByteToBcd2                           0x08006e53   Thumb Code    26  stm32f1xx_hal_rtc.o(i.RTC_ByteToBcd2)
    i.RTC_DateUpdate                         0x08006e6c   Section        0  stm32f1xx_hal_rtc.o(i.RTC_DateUpdate)
    RTC_DateUpdate                           0x08006e6d   Thumb Code   182  stm32f1xx_hal_rtc.o(i.RTC_DateUpdate)
    i.RTC_EnterInitMode                      0x08006f22   Section        0  stm32f1xx_hal_rtc.o(i.RTC_EnterInitMode)
    RTC_EnterInitMode                        0x08006f23   Thumb Code    58  stm32f1xx_hal_rtc.o(i.RTC_EnterInitMode)
    i.RTC_ExitInitMode                       0x08006f5c   Section        0  stm32f1xx_hal_rtc.o(i.RTC_ExitInitMode)
    RTC_ExitInitMode                         0x08006f5d   Thumb Code    58  stm32f1xx_hal_rtc.o(i.RTC_ExitInitMode)
    i.RTC_GetDivider                         0x08006f98   Section        0  user_iecx_use.o(i.RTC_GetDivider)
    i.RTC_IRQHandler                         0x08006fb0   Section        0  stm32f1xx_it.o(i.RTC_IRQHandler)
    i.RTC_IsLeapYear                         0x08006fc0   Section        0  stm32f1xx_hal_rtc.o(i.RTC_IsLeapYear)
    RTC_IsLeapYear                           0x08006fc1   Thumb Code    50  stm32f1xx_hal_rtc.o(i.RTC_IsLeapYear)
    i.RTC_ReadAlarmCounter                   0x08006ff2   Section        0  stm32f1xx_hal_rtc.o(i.RTC_ReadAlarmCounter)
    RTC_ReadAlarmCounter                     0x08006ff3   Thumb Code    24  stm32f1xx_hal_rtc.o(i.RTC_ReadAlarmCounter)
    i.RTC_ReadTimeCounter                    0x0800700a   Section        0  stm32f1xx_hal_rtc.o(i.RTC_ReadTimeCounter)
    RTC_ReadTimeCounter                      0x0800700b   Thumb Code    52  stm32f1xx_hal_rtc.o(i.RTC_ReadTimeCounter)
    i.RTC_SetDivider                         0x08007040   Section        0  user_iecx_use.o(i.RTC_SetDivider)
    i.RTC_WeekDayNum                         0x08007080   Section        0  stm32f1xx_hal_rtc.o(i.RTC_WeekDayNum)
    RTC_WeekDayNum                           0x08007081   Thumb Code   132  stm32f1xx_hal_rtc.o(i.RTC_WeekDayNum)
    i.RTC_WriteAlarmCounter                  0x08007104   Section        0  stm32f1xx_hal_rtc.o(i.RTC_WriteAlarmCounter)
    RTC_WriteAlarmCounter                    0x08007105   Thumb Code    46  stm32f1xx_hal_rtc.o(i.RTC_WriteAlarmCounter)
    i.RTC_WriteTimeCounter                   0x08007132   Section        0  stm32f1xx_hal_rtc.o(i.RTC_WriteTimeCounter)
    RTC_WriteTimeCounter                     0x08007133   Thumb Code    46  stm32f1xx_hal_rtc.o(i.RTC_WriteTimeCounter)
    i.ReadPwmLedState                        0x08007160   Section        0  cot_led.o(i.ReadPwmLedState)
    ReadPwmLedState                          0x08007161   Thumb Code    28  cot_led.o(i.ReadPwmLedState)
    i.SA868_EN                               0x0800717c   Section        0  gpio.o(i.SA868_EN)
    i.SC116Y_EN                              0x080071a0   Section        0  gpio.o(i.SC116Y_EN)
    i.SD_EN                                  0x080071c4   Section        0  gpio.o(i.SD_EN)
    i.SD_GetCIDRegister                      0x080071e8   Section        0  sd.o(i.SD_GetCIDRegister)
    i.SD_GetCSDRegister                      0x080072f4   Section        0  sd.o(i.SD_GetCSDRegister)
    i.SD_GetCardInfo                         0x0800752c   Section        0  sd.o(i.SD_GetCardInfo)
    i.SD_GetCardType                         0x080075dc   Section        0  sd.o(i.SD_GetCardType)
    i.SD_GetDataResponse                     0x08007760   Section        0  sd.o(i.SD_GetDataResponse)
    i.SD_GetResponse                         0x080077ac   Section        0  sd.o(i.SD_GetResponse)
    i.SD_GoIdleState                         0x080077d0   Section        0  sd.o(i.SD_GoIdleState)
    i.SD_Init                                0x0800780c   Section        0  sd.o(i.SD_Init)
    i.SD_ReadByte                            0x08007864   Section        0  sd.o(i.SD_ReadByte)
    i.SD_ReadMultiBlocks                     0x0800788c   Section        0  sd.o(i.SD_ReadMultiBlocks)
    i.SD_SendCmd                             0x08007948   Section        0  sd.o(i.SD_SendCmd)
    i.SD_WriteByte                           0x08007990   Section        0  sd.o(i.SD_WriteByte)
    i.SD_WriteMultiBlocks                    0x080079b8   Section        0  sd.o(i.SD_WriteMultiBlocks)
    i.SIQ0T_parse                            0x08007a78   Section        0  iec10x_debug.o(i.SIQ0T_parse)
    i.SIQ24T_parse                           0x08007b80   Section        0  iec10x_debug.o(i.SIQ24T_parse)
    i.SIQ56T_parse                           0x08007cac   Section        0  iec10x_debug.o(i.SIQ56T_parse)
    i.SPI1_IRQHandler                        0x08007df0   Section        0  stm32f1xx_it.o(i.SPI1_IRQHandler)
    i.SPI_2linesRxISR_16BIT                  0x08007e00   Section        0  stm32f1xx_hal_spi.o(i.SPI_2linesRxISR_16BIT)
    SPI_2linesRxISR_16BIT                    0x08007e01   Thumb Code    52  stm32f1xx_hal_spi.o(i.SPI_2linesRxISR_16BIT)
    i.SPI_2linesRxISR_8BIT                   0x08007e34   Section        0  stm32f1xx_hal_spi.o(i.SPI_2linesRxISR_8BIT)
    SPI_2linesRxISR_8BIT                     0x08007e35   Thumb Code    52  stm32f1xx_hal_spi.o(i.SPI_2linesRxISR_8BIT)
    i.SPI_2linesTxISR_16BIT                  0x08007e68   Section        0  stm32f1xx_hal_spi.o(i.SPI_2linesTxISR_16BIT)
    SPI_2linesTxISR_16BIT                    0x08007e69   Thumb Code    52  stm32f1xx_hal_spi.o(i.SPI_2linesTxISR_16BIT)
    i.SPI_2linesTxISR_8BIT                   0x08007e9c   Section        0  stm32f1xx_hal_spi.o(i.SPI_2linesTxISR_8BIT)
    SPI_2linesTxISR_8BIT                     0x08007e9d   Thumb Code    52  stm32f1xx_hal_spi.o(i.SPI_2linesTxISR_8BIT)
    i.SPI_CloseRxTx_ISR                      0x08007ed0   Section        0  stm32f1xx_hal_spi.o(i.SPI_CloseRxTx_ISR)
    SPI_CloseRxTx_ISR                        0x08007ed1   Thumb Code   182  stm32f1xx_hal_spi.o(i.SPI_CloseRxTx_ISR)
    i.SPI_CloseTx_ISR                        0x08007f8c   Section        0  stm32f1xx_hal_spi.o(i.SPI_CloseTx_ISR)
    SPI_CloseTx_ISR                          0x08007f8d   Thumb Code   154  stm32f1xx_hal_spi.o(i.SPI_CloseTx_ISR)
    i.SPI_DMAAbortOnError                    0x0800802c   Section        0  stm32f1xx_hal_spi.o(i.SPI_DMAAbortOnError)
    SPI_DMAAbortOnError                      0x0800802d   Thumb Code    20  stm32f1xx_hal_spi.o(i.SPI_DMAAbortOnError)
    i.SPI_EndRxTxTransaction                 0x08008040   Section        0  stm32f1xx_hal_spi.o(i.SPI_EndRxTxTransaction)
    SPI_EndRxTxTransaction                   0x08008041   Thumb Code    40  stm32f1xx_hal_spi.o(i.SPI_EndRxTxTransaction)
    i.SPI_FLASH_BufferRead                   0x08008068   Section        0  bsp_spiflash.o(i.SPI_FLASH_BufferRead)
    i.SPI_FLASH_BufferWrite                  0x080080bc   Section        0  bsp_spiflash.o(i.SPI_FLASH_BufferWrite)
    i.SPI_FLASH_PageWrite                    0x080081e0   Section        0  bsp_spiflash.o(i.SPI_FLASH_PageWrite)
    i.SPI_FLASH_ReadID                       0x08008244   Section        0  bsp_spiflash.o(i.SPI_FLASH_ReadID)
    i.SPI_FLASH_SectorErase                  0x08008298   Section        0  bsp_spiflash.o(i.SPI_FLASH_SectorErase)
    i.SPI_FLASH_SendByte                     0x080082e0   Section        0  bsp_spiflash.o(i.SPI_FLASH_SendByte)
    i.SPI_FLASH_WaitForWriteEnd              0x08008308   Section        0  bsp_spiflash.o(i.SPI_FLASH_WaitForWriteEnd)
    i.SPI_FLASH_WriteEnable                  0x08008340   Section        0  bsp_spiflash.o(i.SPI_FLASH_WriteEnable)
    i.SPI_TxISR_16BIT                        0x08008364   Section        0  stm32f1xx_hal_spi.o(i.SPI_TxISR_16BIT)
    SPI_TxISR_16BIT                          0x08008365   Thumb Code    36  stm32f1xx_hal_spi.o(i.SPI_TxISR_16BIT)
    i.SPI_TxISR_8BIT                         0x08008388   Section        0  stm32f1xx_hal_spi.o(i.SPI_TxISR_8BIT)
    SPI_TxISR_8BIT                           0x08008389   Thumb Code    36  stm32f1xx_hal_spi.o(i.SPI_TxISR_8BIT)
    i.SPI_WaitFlagStateUntilTimeout          0x080083ac   Section        0  stm32f1xx_hal_spi.o(i.SPI_WaitFlagStateUntilTimeout)
    SPI_WaitFlagStateUntilTimeout            0x080083ad   Thumb Code   210  stm32f1xx_hal_spi.o(i.SPI_WaitFlagStateUntilTimeout)
    i.SPP_CMD                                0x08008484   Section        0  speak_api.o(i.SPP_CMD)
    i.STD0T_pro                              0x0800853c   Section        0  iec10x_debug.o(i.STD0T_pro)
    i.STD24T_pro                             0x08008690   Section        0  iec10x_debug.o(i.STD24T_pro)
    i.STD56T_pro                             0x08008814   Section        0  iec10x_debug.o(i.STD56T_pro)
    i.StartDefaultTask                       0x080089c0   Section        0  freertos.o(i.StartDefaultTask)
    i.StartTask02                            0x08008ac8   Section        0  freertos.o(i.StartTask02)
    i.StartTask03                            0x08008ad6   Section        0  freertos.o(i.StartTask03)
    i.StartTask04                            0x08008afe   Section        0  freertos.o(i.StartTask04)
    i.StartTask05                            0x08008b12   Section        0  freertos.o(i.StartTask05)
    i.StartTask06                            0x08008b30   Section        0  freertos.o(i.StartTask06)
    i.StartTask07                            0x08008b54   Section        0  freertos.o(i.StartTask07)
    i.SysTick_Handler                        0x08008b74   Section        0  port.o(i.SysTick_Handler)
    i.SystemClock_Config                     0x08008ba8   Section        0  main.o(i.SystemClock_Config)
    i.SystemInit                             0x08008c36   Section        0  system_stm32f1xx.o(i.SystemInit)
    i.TIM4_IRQHandler                        0x08008c38   Section        0  stm32f1xx_it.o(i.TIM4_IRQHandler)
    i.TIM_Base_SetConfig                     0x08008c48   Section        0  stm32f1xx_hal_tim.o(i.TIM_Base_SetConfig)
    i.UART4_IRQHandler                       0x08008ce4   Section        0  stm32f1xx_it.o(i.UART4_IRQHandler)
    i.UART_DMAAbortOnError                   0x08008cf8   Section        0  stm32f1xx_hal_uart.o(i.UART_DMAAbortOnError)
    UART_DMAAbortOnError                     0x08008cf9   Thumb Code    20  stm32f1xx_hal_uart.o(i.UART_DMAAbortOnError)
    i.UART_DMAError                          0x08008d0c   Section        0  stm32f1xx_hal_uart.o(i.UART_DMAError)
    UART_DMAError                            0x08008d0d   Thumb Code    80  stm32f1xx_hal_uart.o(i.UART_DMAError)
    i.UART_DMAReceiveCplt                    0x08008d5c   Section        0  stm32f1xx_hal_uart.o(i.UART_DMAReceiveCplt)
    UART_DMAReceiveCplt                      0x08008d5d   Thumb Code   180  stm32f1xx_hal_uart.o(i.UART_DMAReceiveCplt)
    i.UART_DMARxHalfCplt                     0x08008e10   Section        0  stm32f1xx_hal_uart.o(i.UART_DMARxHalfCplt)
    UART_DMARxHalfCplt                       0x08008e11   Thumb Code    36  stm32f1xx_hal_uart.o(i.UART_DMARxHalfCplt)
    i.UART_EndRxTransfer                     0x08008e34   Section        0  stm32f1xx_hal_uart.o(i.UART_EndRxTransfer)
    UART_EndRxTransfer                       0x08008e35   Thumb Code   108  stm32f1xx_hal_uart.o(i.UART_EndRxTransfer)
    i.UART_EndTransmit_IT                    0x08008ea0   Section        0  stm32f1xx_hal_uart.o(i.UART_EndTransmit_IT)
    UART_EndTransmit_IT                      0x08008ea1   Thumb Code    32  stm32f1xx_hal_uart.o(i.UART_EndTransmit_IT)
    i.UART_EndTxTransfer                     0x08008ec0   Section        0  stm32f1xx_hal_uart.o(i.UART_EndTxTransfer)
    UART_EndTxTransfer                       0x08008ec1   Thumb Code    38  stm32f1xx_hal_uart.o(i.UART_EndTxTransfer)
    i.UART_Receive_IT                        0x08008ee6   Section        0  stm32f1xx_hal_uart.o(i.UART_Receive_IT)
    UART_Receive_IT                          0x08008ee7   Thumb Code   252  stm32f1xx_hal_uart.o(i.UART_Receive_IT)
    i.UART_SetConfig                         0x08008fe4   Section        0  stm32f1xx_hal_uart.o(i.UART_SetConfig)
    UART_SetConfig                           0x08008fe5   Thumb Code   248  stm32f1xx_hal_uart.o(i.UART_SetConfig)
    i.UART_Start_Receive_DMA                 0x080090e0   Section        0  stm32f1xx_hal_uart.o(i.UART_Start_Receive_DMA)
    i.UART_Transmit_IT                       0x080091a8   Section        0  stm32f1xx_hal_uart.o(i.UART_Transmit_IT)
    UART_Transmit_IT                         0x080091a9   Thumb Code    96  stm32f1xx_hal_uart.o(i.UART_Transmit_IT)
    i.UART_WaitOnFlagUntilTimeout            0x08009208   Section        0  stm32f1xx_hal_uart.o(i.UART_WaitOnFlagUntilTimeout)
    UART_WaitOnFlagUntilTimeout              0x08009209   Thumb Code   146  stm32f1xx_hal_uart.o(i.UART_WaitOnFlagUntilTimeout)
    i.USART1_IRQHandler                      0x0800929c   Section        0  stm32f1xx_it.o(i.USART1_IRQHandler)
    i.USART2_IRQHandler                      0x080092b0   Section        0  stm32f1xx_it.o(i.USART2_IRQHandler)
    i.USART3_IRQHandler                      0x080092c4   Section        0  stm32f1xx_it.o(i.USART3_IRQHandler)
    i.UsageFault_Handler                     0x080092d8   Section        0  stm32f1xx_it.o(i.UsageFault_Handler)
    i.W25Q_addr                              0x080092dc   Section        0  bsp_spiflash.o(i.W25Q_addr)
    i.__0printf                              0x080092f0   Section        0  printfa.o(i.__0printf)
    i.__0snprintf                            0x08009310   Section        0  printfa.o(i.__0snprintf)
    i.__0sprintf                             0x08009340   Section        0  printfa.o(i.__0sprintf)
    i.__NVIC_GetPriorityGrouping             0x08009368   Section        0  stm32f1xx_hal_cortex.o(i.__NVIC_GetPriorityGrouping)
    __NVIC_GetPriorityGrouping               0x08009369   Thumb Code    10  stm32f1xx_hal_cortex.o(i.__NVIC_GetPriorityGrouping)
    i.__NVIC_SetPriority                     0x08009378   Section        0  stm32f1xx_hal_cortex.o(i.__NVIC_SetPriority)
    __NVIC_SetPriority                       0x08009379   Thumb Code    32  stm32f1xx_hal_cortex.o(i.__NVIC_SetPriority)
    i.__read_errno                           0x080093a0   Section        0  errno.o(i.__read_errno)
    i.__scatterload_copy                     0x080093ac   Section       14  handlers.o(i.__scatterload_copy)
    i.__scatterload_null                     0x080093ba   Section        2  handlers.o(i.__scatterload_null)
    i.__scatterload_zeroinit                 0x080093bc   Section       14  handlers.o(i.__scatterload_zeroinit)
    i.__set_errno                            0x080093cc   Section        0  errno.o(i.__set_errno)
    i._fp_digits                             0x080093d8   Section        0  printfa.o(i._fp_digits)
    _fp_digits                               0x080093d9   Thumb Code   366  printfa.o(i._fp_digits)
    i._iec101_shortpkt                       0x0800955c   Section        0  iec101_link.o(i._iec101_shortpkt)
    _iec101_shortpkt                         0x0800955d   Thumb Code    42  iec101_link.o(i._iec101_shortpkt)
    i._is_digit                              0x08009586   Section        0  scanf_fp.o(i._is_digit)
    i._printf_core                           0x08009594   Section        0  printfa.o(i._printf_core)
    _printf_core                             0x08009595   Thumb Code  1744  printfa.o(i._printf_core)
    i._printf_post_padding                   0x08009c70   Section        0  printfa.o(i._printf_post_padding)
    _printf_post_padding                     0x08009c71   Thumb Code    36  printfa.o(i._printf_post_padding)
    i._printf_pre_padding                    0x08009c94   Section        0  printfa.o(i._printf_pre_padding)
    _printf_pre_padding                      0x08009c95   Thumb Code    46  printfa.o(i._printf_pre_padding)
    i._snputc                                0x08009cc2   Section        0  printfa.o(i._snputc)
    _snputc                                  0x08009cc3   Thumb Code    22  printfa.o(i._snputc)
    i._sputc                                 0x08009cd8   Section        0  printfa.o(i._sputc)
    _sputc                                   0x08009cd9   Thumb Code    10  printfa.o(i._sputc)
    i.add                                    0x08009ce2   Section        0  save_api.o(i.add)
    i.addrcheck                              0x08009cfe   Section        0  iec10x_telesgnl.o(i.addrcheck)
    addrcheck                                0x08009cff   Thumb Code   174  iec10x_telesgnl.o(i.addrcheck)
    i.air_alarm_get                          0x08009dac   Section        0  data_get.o(i.air_alarm_get)
    i.air_alarm_page                         0x08009e74   Section        0  menu.o(i.air_alarm_page)
    i.air_init                               0x08009fc0   Section        0  data_get.o(i.air_init)
    i.air_page_ui_process                    0x08009ffc   Section        0  menu_ui.o(i.air_page_ui_process)
    i.air_send_da                            0x0800a7fc   Section        0  data_get.o(i.air_send_da)
    i.atof                                   0x0800a836   Section        0  atof.o(i.atof)
    i.avg_jisuan                             0x0800a860   Section        0  data_get.o(i.avg_jisuan)
    i.balm_link_check                        0x0800a884   Section        0  iec10x_debug.o(i.balm_link_check)
    balm_link_check                          0x0800a885   Thumb Code    62  iec10x_debug.o(i.balm_link_check)
    i.balm_link_check                        0x0800a914   Section        0  iec101_link.o(i.balm_link_check)
    balm_link_check                          0x0800a915   Thumb Code   198  iec101_link.o(i.balm_link_check)
    i.bals_link_check                        0x0800a9dc   Section        0  iec10x_debug.o(i.bals_link_check)
    bals_link_check                          0x0800a9dd   Thumb Code    62  iec10x_debug.o(i.bals_link_check)
    i.bals_link_check                        0x0800aa30   Section        0  iec101_link.o(i.bals_link_check)
    bals_link_check                          0x0800aa31   Thumb Code   280  iec101_link.o(i.bals_link_check)
    i.calchksum                              0x0800ab54   Section        0  iec101_link.o(i.calchksum)
    calchksum                                0x0800ab55   Thumb Code    26  iec101_link.o(i.calchksum)
    i.check_fs                               0x0800ab70   Section        0  ff.o(i.check_fs)
    check_fs                                 0x0800ab71   Thumb Code   140  ff.o(i.check_fs)
    i.check_xiping                           0x0800ac00   Section        0  user_key.o(i.check_xiping)
    i.chk_chr                                0x0800ac58   Section        0  ff.o(i.chk_chr)
    chk_chr                                  0x0800ac59   Thumb Code    20  ff.o(i.chk_chr)
    i.clust2sect                             0x0800ac6c   Section        0  ff.o(i.clust2sect)
    i.cmp_lfn                                0x0800ac88   Section        0  ff.o(i.cmp_lfn)
    cmp_lfn                                  0x0800ac89   Thumb Code   154  ff.o(i.cmp_lfn)
    i.common_btn1_callback                   0x0800ad28   Section        0  user_key.o(i.common_btn1_callback)
    i.common_btn2_callback                   0x0800ad60   Section        0  user_key.o(i.common_btn2_callback)
    i.common_btn3_callback                   0x0800ad98   Section        0  user_key.o(i.common_btn3_callback)
    i.common_btn4_callback                   0x0800add0   Section        0  user_key.o(i.common_btn4_callback)
    i.common_btn5_callback                   0x0800ae08   Section        0  user_key.o(i.common_btn5_callback)
    i.common_btn6_callback                   0x0800ae48   Section        0  user_key.o(i.common_btn6_callback)
    i.common_btn7_callback                   0x0800ae9c   Section        0  user_key.o(i.common_btn7_callback)
    i.common_btn_read                        0x0800aefc   Section        0  user_key.o(i.common_btn_read)
    common_btn_read                          0x0800aefd   Thumb Code   128  user_key.o(i.common_btn_read)
    i.con_dev_casd                           0x0800af88   Section        0  user_iecx_use.o(i.con_dev_casd)
    i.cotLed_Ctrl                            0x0800b07c   Section        0  cot_led.o(i.cotLed_Ctrl)
    i.cotLed_Init                            0x0800b334   Section        0  cot_led.o(i.cotLed_Init)
    i.cotLed_OFF                             0x0800b368   Section        0  cot_led.o(i.cotLed_OFF)
    i.cotLed_ON                              0x0800b376   Section        0  cot_led.o(i.cotLed_ON)
    i.cotLed_SetState                        0x0800b384   Section        0  cot_led.o(i.cotLed_SetState)
    i.cotLed_Twinkle                         0x0800b444   Section        0  cot_led.o(i.cotLed_Twinkle)
    i.cotLed_Waterfall                       0x0800b4fc   Section        0  cot_led.o(i.cotLed_Waterfall)
    i.create_chain                           0x0800b670   Section        0  ff.o(i.create_chain)
    create_chain                             0x0800b671   Thumb Code   214  ff.o(i.create_chain)
    i.create_name                            0x0800b748   Section        0  ff.o(i.create_name)
    create_name                              0x0800b749   Thumb Code   604  ff.o(i.create_name)
    i.data_get_stip                          0x0800b9b8   Section        0  data_get.o(i.data_get_stip)
    i.data_save_in_SD                        0x0800bc0c   Section        0  memory_data.o(i.data_save_in_SD)
    i.default_puts                           0x0800c664   Section        0  iec10x.o(i.default_puts)
    default_puts                             0x0800c665   Thumb Code    32  iec10x.o(i.default_puts)
    i.default_rst                            0x0800c690   Section        0  iec10x.o(i.default_rst)
    default_rst                              0x0800c691   Thumb Code     2  iec10x.o(i.default_rst)
    i.delay_ms                               0x0800c692   Section        0  lcd_init.o(i.delay_ms)
    i.dev_config_page_process                0x0800c6a0   Section        0  menu.o(i.dev_config_page_process)
    i.dev_config_page_ui_process             0x0800c848   Section        0  menu_ui.o(i.dev_config_page_ui_process)
    i.dev_open_con                           0x0800d020   Section        0  power_con.o(i.dev_open_con)
    i.dir_alloc                              0x0800d0c8   Section        0  ff.o(i.dir_alloc)
    dir_alloc                                0x0800d0c9   Thumb Code    92  ff.o(i.dir_alloc)
    i.dir_find                               0x0800d124   Section        0  ff.o(i.dir_find)
    dir_find                                 0x0800d125   Thumb Code   234  ff.o(i.dir_find)
    i.dir_next                               0x0800d20e   Section        0  ff.o(i.dir_next)
    dir_next                                 0x0800d20f   Thumb Code   314  ff.o(i.dir_next)
    i.dir_register                           0x0800d348   Section        0  ff.o(i.dir_register)
    dir_register                             0x0800d349   Thumb Code   298  ff.o(i.dir_register)
    i.dir_sdi                                0x0800d472   Section        0  ff.o(i.dir_sdi)
    dir_sdi                                  0x0800d473   Thumb Code   200  ff.o(i.dir_sdi)
    i.disk_initialize                        0x0800d53a   Section        0  diskio.o(i.disk_initialize)
    i.disk_ioctl                             0x0800d564   Section        0  diskio.o(i.disk_ioctl)
    i.disk_read                              0x0800d5d0   Section        0  diskio.o(i.disk_read)
    i.disk_status                            0x0800d626   Section        0  diskio.o(i.disk_status)
    i.disk_write                             0x0800d642   Section        0  diskio.o(i.disk_write)
    i.event_type_size                        0x0800d69e   Section        0  iec10x_event.o(i.event_type_size)
    event_type_size                          0x0800d69f   Thumb Code    82  iec10x_event.o(i.event_type_size)
    i.f_close                                0x0800d6f0   Section        0  ff.o(i.f_close)
    i.f_getfree                              0x0800d710   Section        0  ff.o(i.f_getfree)
    i.f_lseek                                0x0800d812   Section        0  ff.o(i.f_lseek)
    i.f_mkfs                                 0x0800d9ac   Section        0  ff.o(i.f_mkfs)
    i.f_mount                                0x0800e030   Section        0  ff.o(i.f_mount)
    i.f_open                                 0x0800e08c   Section        0  ff.o(i.f_open)
    i.f_read                                 0x0800e20a   Section        0  ff.o(i.f_read)
    i.f_sync                                 0x0800e3da   Section        0  ff.o(i.f_sync)
    i.f_write                                0x0800e48a   Section        0  ff.o(i.f_write)
    i.ff_convert                             0x0800e698   Section        0  cc936.o(i.ff_convert)
    i.ff_wtoupper                            0x0800e714   Section        0  cc936.o(i.ff_wtoupper)
    i.find_volume                            0x0800e770   Section        0  ff.o(i.find_volume)
    find_volume                              0x0800e771   Thumb Code   966  ff.o(i.find_volume)
    i.fit_lfn                                0x0800eb48   Section        0  ff.o(i.fit_lfn)
    fit_lfn                                  0x0800eb49   Thumb Code   122  ff.o(i.fit_lfn)
    i.flex_button_event_read                 0x0800ebc8   Section        0  flexible_button.o(i.flex_button_event_read)
    i.flex_button_process                    0x0800ebd4   Section        0  flexible_button.o(i.flex_button_process)
    flex_button_process                      0x0800ebd5   Thumb Code   586  flexible_button.o(i.flex_button_process)
    i.flex_button_read                       0x0800ee2c   Section        0  flexible_button.o(i.flex_button_read)
    flex_button_read                         0x0800ee2d   Thumb Code    56  flexible_button.o(i.flex_button_read)
    i.flex_button_register                   0x0800ee74   Section        0  flexible_button.o(i.flex_button_register)
    i.flex_button_scan                       0x0800eef4   Section        0  flexible_button.o(i.flex_button_scan)
    i.fml_led_init                           0x0800ef00   Section        0  led_user.o(i.fml_led_init)
    i.follow_path                            0x0800ef48   Section        0  ff.o(i.follow_path)
    follow_path                              0x0800ef49   Thumb Code   144  ff.o(i.follow_path)
    i.fputc                                  0x0800efd8   Section        0  main.o(i.fputc)
    i.gas_data_get                           0x0800eff4   Section        0  data_get.o(i.gas_data_get)
    i.gas_data_pre                           0x0800f0f0   Section        0  data_get.o(i.gas_data_pre)
    i.gen_numname                            0x0800f140   Section        0  ff.o(i.gen_numname)
    gen_numname                              0x0800f141   Thumb Code   198  ff.o(i.gen_numname)
    i.get_ONE_Point                          0x0800f20c   Section        0  user_iecx_use.o(i.get_ONE_Point)
    i.get_S_FLOAT                            0x0800f244   Section        0  user_iecx_use.o(i.get_S_FLOAT)
    i.get_fat                                0x0800f27c   Section        0  ff.o(i.get_fat)
    i.get_fattime                            0x0800f3bc   Section        0  diskio.o(i.get_fattime)
    i.get_ldnumber                           0x0800f3c4   Section        0  ff.o(i.get_ldnumber)
    get_ldnumber                             0x0800f3c5   Thumb Code    74  ff.o(i.get_ldnumber)
    i.get_net_data                           0x0800f410   Section        0  data_get.o(i.get_net_data)
    i.iec101_bus_init                        0x0800f454   Section        0  iec10x.o(i.iec101_bus_init)
    i.iec101_connected                       0x0800f600   Section        0  iec101_link.o(i.iec101_connected)
    i.iec101_disconnect                      0x0800f664   Section        0  iec101_link.o(i.iec101_disconnect)
    i.iec101_longpkt_parse                   0x0800f69c   Section        0  iec10x_debug.o(i.iec101_longpkt_parse)
    iec101_longpkt_parse                     0x0800f69d   Thumb Code   262  iec10x_debug.o(i.iec101_longpkt_parse)
    i.iec101_longpkt_parse                   0x0800f82c   Section        0  iec101_link.o(i.iec101_longpkt_parse)
    iec101_longpkt_parse                     0x0800f82d   Thumb Code   154  iec101_link.o(i.iec101_longpkt_parse)
    i.iec101_packet_parser                   0x0800f91c   Section        0  iec10x_debug.o(i.iec101_packet_parser)
    i.iec101_protocol_recv                   0x0800f954   Section        0  iec101_link.o(i.iec101_protocol_recv)
    i.iec101_protocol_send                   0x0800fae8   Section        0  iec101_link.o(i.iec101_protocol_send)
    i.iec101_shortpkt                        0x0800fc24   Section        0  iec101_link.o(i.iec101_shortpkt)
    i.iec101_shortpkt_parse                  0x0800fc38   Section        0  iec10x_debug.o(i.iec101_shortpkt_parse)
    iec101_shortpkt_parse                    0x0800fc39   Thumb Code   116  iec10x_debug.o(i.iec101_shortpkt_parse)
    i.iec101_shortpkt_parse                  0x0800fcc8   Section        0  iec101_link.o(i.iec101_shortpkt_parse)
    iec101_shortpkt_parse                    0x0800fcc9   Thumb Code   156  iec101_link.o(i.iec101_shortpkt_parse)
    i.iec101mst_conncet                      0x0800fd9c   Section        0  iec101_link.o(i.iec101mst_conncet)
    i.iec101mst_longpkt                      0x0800fe04   Section        0  iec101_link.o(i.iec101mst_longpkt)
    iec101mst_longpkt                        0x0800fe05   Thumb Code   106  iec101_link.o(i.iec101mst_longpkt)
    i.iec101mst_period                       0x0800fe94   Section        0  iec10x_period.o(i.iec101mst_period)
    i.iec101slv_balance_period               0x0800fe98   Section        0  iec10x_period.o(i.iec101slv_balance_period)
    i.iec101slv_initpkt                      0x0801000c   Section        0  iec101_link.o(i.iec101slv_initpkt)
    iec101slv_initpkt                        0x0801000d   Thumb Code   208  iec101_link.o(i.iec101slv_initpkt)
    i.iec101slv_longpkt                      0x080100dc   Section        0  iec101_link.o(i.iec101slv_longpkt)
    iec101slv_longpkt                        0x080100dd   Thumb Code   172  iec101_link.o(i.iec101slv_longpkt)
    i.iec101slv_unbalance_period             0x080101d0   Section        0  iec10x_period.o(i.iec101slv_unbalance_period)
    i.iec104_disconnect                      0x08010248   Section        0  iec104_link.o(i.iec104_disconnect)
    i.iec104_heartbeat                       0x08010278   Section        0  iec104_link.o(i.iec104_heartbeat)
    i.iec104_iframe                          0x080102a0   Section        0  iec10x_debug.o(i.iec104_iframe)
    iec104_iframe                            0x080102a1   Thumb Code    92  iec10x_debug.o(i.iec104_iframe)
    i.iec104_packet_parser                   0x0801032c   Section        0  iec10x_debug.o(i.iec104_packet_parser)
    i.iec104_parse                           0x080103ac   Section        0  iec104_link.o(i.iec104_parse)
    iec104_parse                             0x080103ad   Thumb Code   170  iec104_link.o(i.iec104_parse)
    i.iec104_protocol_recv                   0x08010470   Section        0  iec104_link.o(i.iec104_protocol_recv)
    i.iec104_protocol_send                   0x08010574   Section        0  iec104_link.o(i.iec104_protocol_send)
    i.iec104_uframe                          0x0801065c   Section        0  iec10x_debug.o(i.iec104_uframe)
    iec104_uframe                            0x0801065d   Thumb Code    54  iec10x_debug.o(i.iec104_uframe)
    i.iec104mst_iframe                       0x08010714   Section        0  iec104_link.o(i.iec104mst_iframe)
    iec104mst_iframe                         0x08010715   Thumb Code   170  iec104_link.o(i.iec104mst_iframe)
    i.iec104mst_period                       0x080107e8   Section        0  iec10x_period.o(i.iec104mst_period)
    i.iec104mst_uframe                       0x080107ec   Section        0  iec104_link.o(i.iec104mst_uframe)
    iec104mst_uframe                         0x080107ed   Thumb Code   184  iec104_link.o(i.iec104mst_uframe)
    i.iec104slv_iframe                       0x080108ec   Section        0  iec104_link.o(i.iec104slv_iframe)
    iec104slv_iframe                         0x080108ed   Thumb Code   118  iec104_link.o(i.iec104slv_iframe)
    i.iec104slv_period                       0x08010988   Section        0  iec10x_period.o(i.iec104slv_period)
    i.iec104slv_sframe                       0x08010ae8   Section        0  iec104_link.o(i.iec104slv_sframe)
    iec104slv_sframe                         0x08010ae9   Thumb Code    20  iec104_link.o(i.iec104slv_sframe)
    i.iec104slv_uframe                       0x08010afc   Section        0  iec104_link.o(i.iec104slv_uframe)
    iec104slv_uframe                         0x08010afd   Thumb Code   180  iec104_link.o(i.iec104slv_uframe)
    i.iec10x_devif_register                  0x08010be4   Section        0  iec10x.o(i.iec10x_devif_register)
    i.iec10x_event_deinit                    0x08010c48   Section        0  iec10x_event.o(i.iec10x_event_deinit)
    i.iec10x_parser_init                     0x08010c94   Section        0  iec10x_debug.o(i.iec10x_parser_init)
    i.iec10x_periodic_handle                 0x08010cf4   Section        0  iec10x.o(i.iec10x_periodic_handle)
    i.iec10x_protocol_init                   0x08010d30   Section        0  iec10x.o(i.iec10x_protocol_init)
    i.iec10x_recv                            0x08010d68   Section        0  iec10x.o(i.iec10x_recv)
    i.iec10x_register                        0x08010d94   Section        0  iec10x.o(i.iec10x_register)
    iec10x_register                          0x08010d95   Thumb Code    18  iec10x.o(i.iec10x_register)
    i.iec10x_summon_respond                  0x08010dac   Section        0  iec10x_telesgnl.o(i.iec10x_summon_respond)
    i.iec10x_telectrl_respond                0x08010dca   Section        0  iec10x_telectrl.o(i.iec10x_telectrl_respond)
    i.iec10x_type_listen                     0x08010de8   Section        0  iec10x.o(i.iec10x_type_listen)
    i.iec10xmst_event_pro                    0x08010e5c   Section        0  iec10x_event.o(i.iec10xmst_event_pro)
    i.iec10xslv_ctrlreply                    0x08010e86   Section        0  iec10x_telectrl.o(i.iec10xslv_ctrlreply)
    iec10xslv_ctrlreply                      0x08010e87   Thumb Code   146  iec10x_telectrl.o(i.iec10xslv_ctrlreply)
    i.iec10xslv_event                        0x08010f18   Section        0  iec10x_event.o(i.iec10xslv_event)
    i.iec10xslv_event_pro                    0x08010fc8   Section        0  iec10x_event.o(i.iec10xslv_event_pro)
    i.iec10xslv_peridic_summon               0x0801114c   Section        0  iec10x_telesgnl.o(i.iec10xslv_peridic_summon)
    i.iec10xslv_summon_add                   0x080111a0   Section        0  iec10x_telesgnl.o(i.iec10xslv_summon_add)
    i.iec10xslv_summon_confirm               0x0801126c   Section        0  iec10x_telesgnl.o(i.iec10xslv_summon_confirm)
    iec10xslv_summon_confirm                 0x0801126d   Thumb Code   206  iec10x_telesgnl.o(i.iec10xslv_summon_confirm)
    i.iec10xslv_summon_data                  0x08011340   Section        0  iec10x_telesgnl.o(i.iec10xslv_summon_data)
    iec10xslv_summon_data                    0x08011341   Thumb Code   426  iec10x_telesgnl.o(i.iec10xslv_summon_data)
    i.iec10xslv_summon_finish                0x080114fc   Section        0  iec10x_telesgnl.o(i.iec10xslv_summon_finish)
    iec10xslv_summon_finish                  0x080114fd   Thumb Code   216  iec10x_telesgnl.o(i.iec10xslv_summon_finish)
    i.iec10xslv_summon_respond               0x080115d4   Section        0  iec10x_telesgnl.o(i.iec10xslv_summon_respond)
    iec10xslv_summon_respond                 0x080115d5   Thumb Code   184  iec10x_telesgnl.o(i.iec10xslv_summon_respond)
    i.iec10xslv_sync_reply                   0x08011694   Section        0  iec10x_sync.o(i.iec10xslv_sync_reply)
    iec10xslv_sync_reply                     0x08011695   Thumb Code   120  iec10x_sync.o(i.iec10xslv_sync_reply)
    i.iec10xslv_sync_respond                 0x0801170c   Section        0  iec10x_sync.o(i.iec10xslv_sync_respond)
    iec10xslv_sync_respond                   0x0801170d   Thumb Code   258  iec10x_sync.o(i.iec10xslv_sync_respond)
    i.iec10xslv_telectrl                     0x0801184c   Section        0  iec10x_telectrl.o(i.iec10xslv_telectrl)
    iec10xslv_telectrl                       0x0801184d   Thumb Code   414  iec10x_telectrl.o(i.iec10xslv_telectrl)
    i.iec_devif_find                         0x08011a70   Section        0  devif.o(i.iec_devif_find)
    i.iec_devif_insert                       0x08011a9a   Section        0  devif.o(i.iec_devif_insert)
    iec_devif_insert                         0x08011a9b   Thumb Code    58  devif.o(i.iec_devif_insert)
    i.iec_devif_register                     0x08011ad4   Section        0  devif.o(i.iec_devif_register)
    i.iec_free                               0x08011b28   Section        0  heap.o(i.iec_free)
    i.iec_list_add_tail                      0x08011bb0   Section        0  iec10x_event.o(i.iec_list_add_tail)
    iec_list_add_tail                        0x08011bb1   Thumb Code    14  iec10x_event.o(i.iec_list_add_tail)
    i.iec_list_del                           0x08011bbe   Section        0  iec10x_event.o(i.iec_list_del)
    iec_list_del                             0x08011bbf   Thumb Code    12  iec10x_event.o(i.iec_list_del)
    i.iec_malloc                             0x08011bcc   Section        0  heap.o(i.iec_malloc)
    i.init_dtu_port                          0x08011c9c   Section        0  usart_api_1.o(i.init_dtu_port)
    i.init_gas_port                          0x08011ce4   Section        0  usart_api_1.o(i.init_gas_port)
    i.init_iec_list                          0x08011d2c   Section        0  iec10x.o(i.init_iec_list)
    init_iec_list                            0x08011d2d   Thumb Code     6  iec10x.o(i.init_iec_list)
    i.init_spp_port                          0x08011d34   Section        0  usart_api_1.o(i.init_spp_port)
    i.init_up_port                           0x08011d7c   Section        0  usart_api_1.o(i.init_up_port)
    i.lcd_test                               0x08011dc4   Section        0  lcd.o(i.lcd_test)
    i.ld_clust                               0x08011e08   Section        0  ff.o(i.ld_clust)
    ld_clust                                 0x08011e09   Thumb Code    32  ff.o(i.ld_clust)
    i.led_con                                0x08011e28   Section        0  led_user.o(i.led_con)
    i.load_data                              0x08011f14   Section        0  iec10x_telesgnl.o(i.load_data)
    load_data                                0x08011f15   Thumb Code   258  iec10x_telesgnl.o(i.load_data)
    i.main                                   0x0801204c   Section        0  main.o(i.main)
    i.main_page_process                      0x080120a0   Section        0  menu.o(i.main_page_process)
    i.main_page_ui_process                   0x0801218c   Section        0  menu_ui.o(i.main_page_ui_process)
    i.makeFreeRtosPriority                   0x08013110   Section        0  cmsis_os.o(i.makeFreeRtosPriority)
    makeFreeRtosPriority                     0x08013111   Thumb Code    14  cmsis_os.o(i.makeFreeRtosPriority)
    i.mem_cmp                                0x0801311e   Section        0  ff.o(i.mem_cmp)
    mem_cmp                                  0x0801311f   Thumb Code    38  ff.o(i.mem_cmp)
    i.mem_cpy                                0x08013144   Section        0  ff.o(i.mem_cpy)
    mem_cpy                                  0x08013145   Thumb Code    26  ff.o(i.mem_cpy)
    i.mem_set                                0x0801315e   Section        0  ff.o(i.mem_set)
    mem_set                                  0x0801315f   Thumb Code    20  ff.o(i.mem_set)
    i.move_window                            0x08013172   Section        0  ff.o(i.move_window)
    move_window                              0x08013173   Thumb Code    52  ff.o(i.move_window)
    i.my_Upper_computer_analysis             0x080131a8   Section        0  usart_api_1.o(i.my_Upper_computer_analysis)
    i.my_Upper_computer_send                 0x080132bc   Section        0  usart_api_1.o(i.my_Upper_computer_send)
    i.mypow                                  0x080134d0   Section        0  lcd.o(i.mypow)
    i.near_alarm_page_process                0x080134e8   Section        0  menu.o(i.near_alarm_page_process)
    i.net_play_music                         0x08013508   Section        0  data_get.o(i.net_play_music)
    i.now_alarm_page                         0x08013540   Section        0  menu.o(i.now_alarm_page)
    i.now_alarm_page_ui_process              0x0801362c   Section        0  menu_ui.o(i.now_alarm_page_ui_process)
    i.old_alarm_page_process                 0x080137d8   Section        0  menu.o(i.old_alarm_page_process)
    i.old_alarm_page_ui_process              0x08013bd4   Section        0  menu_ui.o(i.old_alarm_page_ui_process)
    i.osDelay                                0x08013f40   Section        0  cmsis_os.o(i.osDelay)
    i.osKernelStart                          0x08013f58   Section        0  cmsis_os.o(i.osKernelStart)
    i.osThreadCreate                         0x08013f62   Section        0  cmsis_os.o(i.osThreadCreate)
    i.out_alarm_page_process                 0x08013fc0   Section        0  menu.o(i.out_alarm_page_process)
    i.out_alarm_ui_process                   0x08013fe0   Section        0  menu_ui.o(i.out_alarm_ui_process)
    i.packet_data                            0x08014010   Section        0  iec10x_debug.o(i.packet_data)
    packet_data                              0x08014011   Thumb Code    96  iec10x_debug.o(i.packet_data)
    i.parameter_init                         0x08014090   Section        0  save_api.o(i.parameter_init)
    i.prvAddCurrentTaskToDelayedList         0x0801414c   Section        0  tasks.o(i.prvAddCurrentTaskToDelayedList)
    prvAddCurrentTaskToDelayedList           0x0801414d   Thumb Code   124  tasks.o(i.prvAddCurrentTaskToDelayedList)
    i.prvAddNewTaskToReadyList               0x080141e4   Section        0  tasks.o(i.prvAddNewTaskToReadyList)
    prvAddNewTaskToReadyList                 0x080141e5   Thumb Code   150  tasks.o(i.prvAddNewTaskToReadyList)
    i.prvCheckTasksWaitingTermination        0x08014298   Section        0  tasks.o(i.prvCheckTasksWaitingTermination)
    prvCheckTasksWaitingTermination          0x08014299   Thumb Code    60  tasks.o(i.prvCheckTasksWaitingTermination)
    i.prvDeleteTCB                           0x080142e0   Section        0  tasks.o(i.prvDeleteTCB)
    prvDeleteTCB                             0x080142e1   Thumb Code    80  tasks.o(i.prvDeleteTCB)
    i.prvHeapInit                            0x08014330   Section        0  heap_4.o(i.prvHeapInit)
    prvHeapInit                              0x08014331   Thumb Code    98  heap_4.o(i.prvHeapInit)
    i.prvIdleTask                            0x080143ac   Section        0  tasks.o(i.prvIdleTask)
    prvIdleTask                              0x080143ad   Thumb Code    32  tasks.o(i.prvIdleTask)
    i.prvInitialiseNewTask                   0x080143d4   Section        0  tasks.o(i.prvInitialiseNewTask)
    prvInitialiseNewTask                     0x080143d5   Thumb Code   170  tasks.o(i.prvInitialiseNewTask)
    i.prvInitialiseTaskLists                 0x08014480   Section        0  tasks.o(i.prvInitialiseTaskLists)
    prvInitialiseTaskLists                   0x08014481   Thumb Code    70  tasks.o(i.prvInitialiseTaskLists)
    i.prvInsertBlockIntoFreeList             0x080144e8   Section        0  heap_4.o(i.prvInsertBlockIntoFreeList)
    prvInsertBlockIntoFreeList               0x080144e9   Thumb Code    96  heap_4.o(i.prvInsertBlockIntoFreeList)
    i.prvResetNextTaskUnblockTime            0x08014550   Section        0  tasks.o(i.prvResetNextTaskUnblockTime)
    prvResetNextTaskUnblockTime              0x08014551   Thumb Code    42  tasks.o(i.prvResetNextTaskUnblockTime)
    i.prvTaskExitError                       0x08014584   Section        0  port.o(i.prvTaskExitError)
    prvTaskExitError                         0x08014585   Thumb Code    60  port.o(i.prvTaskExitError)
    i.put_fat                                0x080145c4   Section        0  ff.o(i.put_fat)
    i.pvPortMalloc                           0x0801474c   Section        0  heap_4.o(i.pvPortMalloc)
    i.pxPortInitialiseStack                  0x08014888   Section        0  port.o(i.pxPortInitialiseStack)
    i.read_ONE_Point                         0x080148ac   Section        0  user_iecx_use.o(i.read_ONE_Point)
    i.read_S_FLOAT                           0x080148f0   Section        0  user_iecx_use.o(i.read_S_FLOAT)
    i.remove_chain                           0x08014938   Section        0  ff.o(i.remove_chain)
    remove_chain                             0x08014939   Thumb Code   108  ff.o(i.remove_chain)
    i.set_time                               0x080149a4   Section        0  data_get.o(i.set_time)
    i.show_alarm_biao                        0x08014a0c   Section        0  menu_ui.o(i.show_alarm_biao)
    i.speak_page                             0x08014b58   Section        0  menu.o(i.speak_page)
    i.speak_page_ui_process                  0x08014d38   Section        0  menu_ui.o(i.speak_page_ui_process)
    i.spi_tx_rx_stip                         0x080151e0   Section        0  save_api.o(i.spi_tx_rx_stip)
    i.spp_work_stip                          0x080153b0   Section        0  speak_api.o(i.spp_work_stip)
    i.st_clust                               0x080156ac   Section        0  ff.o(i.st_clust)
    st_clust                                 0x080156ad   Thumb Code    16  ff.o(i.st_clust)
    i.sum_sfn                                0x080156bc   Section        0  ff.o(i.sum_sfn)
    sum_sfn                                  0x080156bd   Thumb Code    32  ff.o(i.sum_sfn)
    i.sync_fs                                0x080156dc   Section        0  ff.o(i.sync_fs)
    sync_fs                                  0x080156dd   Thumb Code   200  ff.o(i.sync_fs)
    i.sync_window                            0x080157a4   Section        0  ff.o(i.sync_window)
    sync_window                              0x080157a5   Thumb Code    82  ff.o(i.sync_window)
    i.synchronize_respond                    0x080157f8   Section        0  iec10x_sync.o(i.synchronize_respond)
    i.terminal_gather                        0x0801585c   Section        0  save_api.o(i.terminal_gather)
    i.time_set                               0x080163c0   Section        0  user_iecx_use.o(i.time_set)
    i.uart_check_sum                         0x08016584   Section        0  usart_api_1.o(i.uart_check_sum)
    i.uart_dtu_send                          0x080165cc   Section        0  usart_api_1.o(i.uart_dtu_send)
    i.uart_gas_port_recv_dma                 0x080165e4   Section        0  usart_api_1.o(i.uart_gas_port_recv_dma)
    i.uart_gas_send                          0x08016664   Section        0  usart_api_1.o(i.uart_gas_send)
    i.uart_net_port_recv_dma                 0x0801667c   Section        0  usart_api_1.o(i.uart_net_port_recv_dma)
    i.uart_spp_port_recv_dma                 0x08016728   Section        0  usart_api_1.o(i.uart_spp_port_recv_dma)
    i.uart_spp_send                          0x080167a0   Section        0  usart_api_1.o(i.uart_spp_send)
    i.uart_up_port_recv_dma                  0x080167b8   Section        0  usart_api_1.o(i.uart_up_port_recv_dma)
    i.uart_up_send                           0x08016898   Section        0  usart_api_1.o(i.uart_up_send)
    i.unbalm_link_check                      0x080168b0   Section        0  iec10x_debug.o(i.unbalm_link_check)
    unbalm_link_check                        0x080168b1   Thumb Code    54  iec10x_debug.o(i.unbalm_link_check)
    i.unbalm_link_check                      0x08016920   Section        0  iec101_link.o(i.unbalm_link_check)
    unbalm_link_check                        0x08016921   Thumb Code   134  iec101_link.o(i.unbalm_link_check)
    i.unbals_link_check                      0x080169a8   Section        0  iec10x_debug.o(i.unbals_link_check)
    unbals_link_check                        0x080169a9   Thumb Code    30  iec10x_debug.o(i.unbals_link_check)
    i.unbals_link_check                      0x080169d8   Section        0  iec101_link.o(i.unbals_link_check)
    unbals_link_check                        0x080169d9   Thumb Code   176  iec101_link.o(i.unbals_link_check)
    i.user_bus_init                          0x08016a90   Section        0  user_iecx_use.o(i.user_bus_init)
    i.user_button_init                       0x08016af4   Section        0  user_key.o(i.user_button_init)
    i.user_dtu_recv_callback                 0x08016b94   Section        0  usart_api_1.o(i.user_dtu_recv_callback)
    i.user_event_crea                        0x08016cd0   Section        0  user_iecx_use.o(i.user_event_crea)
    i.user_gas_recv_callback                 0x08016e58   Section        0  usart_api_1.o(i.user_gas_recv_callback)
    i.user_get_ms_time                       0x08016f04   Section        0  user_iecx_use.o(i.user_get_ms_time)
    i.user_init                              0x08016f70   Section        0  user_iecx_use.o(i.user_init)
    i.user_music_ctrl                        0x08016fe4   Section        0  data_get.o(i.user_music_ctrl)
    i.user_music_play_con                    0x08017260   Section        0  data_get.o(i.user_music_play_con)
    i.uxListRemove                           0x080173a4   Section        0  list.o(i.uxListRemove)
    i.vApplicationGetIdleTaskMemory          0x080173cc   Section        0  freertos.o(i.vApplicationGetIdleTaskMemory)
    i.vApplicationStackOverflowHook          0x080173e4   Section        0  freertos.o(i.vApplicationStackOverflowHook)
    i.vListInitialise                        0x08017420   Section        0  list.o(i.vListInitialise)
    i.vListInitialiseItem                    0x0801743a   Section        0  list.o(i.vListInitialiseItem)
    i.vListInsert                            0x08017440   Section        0  list.o(i.vListInsert)
    i.vListInsertEnd                         0x08017474   Section        0  list.o(i.vListInsertEnd)
    i.vPortEnterCritical                     0x0801748c   Section        0  port.o(i.vPortEnterCritical)
    i.vPortExitCritical                      0x080174e0   Section        0  port.o(i.vPortExitCritical)
    i.vPortFree                              0x0801751c   Section        0  heap_4.o(i.vPortFree)
    i.vPortSetupTimerInterrupt               0x080175b0   Section        0  port.o(i.vPortSetupTimerInterrupt)
    i.vTaskDelay                             0x080175d8   Section        0  tasks.o(i.vTaskDelay)
    i.vTaskStartScheduler                    0x08017634   Section        0  tasks.o(i.vTaskStartScheduler)
    i.vTaskSuspendAll                        0x080176e4   Section        0  tasks.o(i.vTaskSuspendAll)
    i.vTaskSwitchContext                     0x080176f4   Section        0  tasks.o(i.vTaskSwitchContext)
    i.validate                               0x0801779c   Section        0  ff.o(i.validate)
    validate                                 0x0801779d   Thumb Code    50  ff.o(i.validate)
    i.verify_signature                       0x080177d0   Section        0  save_api.o(i.verify_signature)
    i.weixing_page_process                   0x080178bc   Section        0  menu.o(i.weixing_page_process)
    i.weixing_page_ui_process                0x0801790c   Section        0  menu_ui.o(i.weixing_page_ui_process)
    i.xPortStartScheduler                    0x08017b54   Section        0  port.o(i.xPortStartScheduler)
    i.xTaskCreate                            0x08017c4c   Section        0  tasks.o(i.xTaskCreate)
    i.xTaskCreateStatic                      0x08017cb0   Section        0  tasks.o(i.xTaskCreateStatic)
    i.xTaskIncrementTick                     0x08017d68   Section        0  tasks.o(i.xTaskIncrementTick)
    i.xTaskResumeAll                         0x08017eb0   Section        0  tasks.o(i.xTaskResumeAll)
    i.xoren                                  0x08017fb4   Section        0  save_api.o(i.xoren)
    .constdata                               0x08017fd0   Section      196  freertos.o(.constdata)
    .constdata                               0x08018094   Section       18  stm32f1xx_hal_rcc.o(.constdata)
    aPLLMULFactorTable                       0x08018094   Data          16  stm32f1xx_hal_rcc.o(.constdata)
    aPredivFactorTable                       0x080180a4   Data           2  stm32f1xx_hal_rcc.o(.constdata)
    .constdata                               0x080180a6   Section       18  stm32f1xx_hal_rcc_ex.o(.constdata)
    aPLLMULFactorTable                       0x080180a6   Data          16  stm32f1xx_hal_rcc_ex.o(.constdata)
    aPredivFactorTable                       0x080180b6   Data           2  stm32f1xx_hal_rcc_ex.o(.constdata)
    .constdata                               0x080180b8   Section       24  system_stm32f1xx.o(.constdata)
    .constdata                               0x080180d0   Section    21942  lcd.o(.constdata)
    .constdata                               0x0801d686   Section      128  devif.o(.constdata)
    .constdata                               0x0801d708   Section      135  iec10x.o(.constdata)
    func                                     0x0801d708   Data          32  iec10x.o(.constdata)
    zero                                     0x0801d728   Data          40  iec10x.o(.constdata)
    zero                                     0x0801d750   Data          44  iec10x.o(.constdata)
    __FUNCTION__                             0x0801d77c   Data          19  iec10x.o(.constdata)
    .constdata                               0x0801d790   Section     1004  str.o(.constdata)
    .constdata                               0x0801db7c   Section       58  ff.o(.constdata)
    LfnOfs                                   0x0801db7c   Data          13  ff.o(.constdata)
    vst                                      0x0801db8a   Data          22  ff.o(.constdata)
    cst                                      0x0801dba0   Data          22  ff.o(.constdata)
    .constdata                               0x0801dbb6   Section    176320  cc936.o(.constdata)
    uni2oem                                  0x0801dbb6   Data       87172  cc936.o(.constdata)
    oem2uni                                  0x0803303a   Data       87172  cc936.o(.constdata)
    lower                                    0x080484be   Data         988  cc936.o(.constdata)
    upper                                    0x0804889a   Data         988  cc936.o(.constdata)
    .constdata                               0x08048c78   Section       28  user_key.o(.constdata)
    .constdata                               0x08048c94   Section       12  localtime.o(.constdata)
    monlen                                   0x08048c94   Data          12  localtime.o(.constdata)
    .constdata                               0x08048ca0   Section       64  ctype_c.o(.constdata)
    .conststring                             0x08048ce0   Section       84  freertos.o(.conststring)
    .conststring                             0x08048d34   Section       64  iec10x_debug.o(.conststring)
    .conststring                             0x08048d74   Section     4329  str.o(.conststring)
    .conststring                             0x08049e60   Section      277  memory_data.o(.conststring)
    .data                                    0x20000000   Section       33  freertos.o(.data)
    .data                                    0x20000024   Section        9  stm32f1xx_hal.o(.data)
    .data                                    0x20000030   Section        4  system_stm32f1xx.o(.data)
    .data                                    0x20000034   Section       60  tasks.o(.data)
    pxDelayedTaskList                        0x20000038   Data           4  tasks.o(.data)
    pxOverflowDelayedTaskList                0x2000003c   Data           4  tasks.o(.data)
    uxDeletedTasksWaitingCleanUp             0x20000040   Data           4  tasks.o(.data)
    uxCurrentNumberOfTasks                   0x20000044   Data           4  tasks.o(.data)
    xTickCount                               0x20000048   Data           4  tasks.o(.data)
    uxTopReadyPriority                       0x2000004c   Data           4  tasks.o(.data)
    xSchedulerRunning                        0x20000050   Data           4  tasks.o(.data)
    uxPendedTicks                            0x20000054   Data           4  tasks.o(.data)
    xYieldPending                            0x20000058   Data           4  tasks.o(.data)
    xNumOfOverflows                          0x2000005c   Data           4  tasks.o(.data)
    uxTaskNumber                             0x20000060   Data           4  tasks.o(.data)
    xNextTaskUnblockTime                     0x20000064   Data           4  tasks.o(.data)
    xIdleTaskHandle                          0x20000068   Data           4  tasks.o(.data)
    uxSchedulerSuspended                     0x2000006c   Data           4  tasks.o(.data)
    .data                                    0x20000070   Section       24  heap_4.o(.data)
    xStart                                   0x20000070   Data           8  heap_4.o(.data)
    pxEnd                                    0x20000078   Data           4  heap_4.o(.data)
    xFreeBytesRemaining                      0x2000007c   Data           4  heap_4.o(.data)
    xMinimumEverFreeBytesRemaining           0x20000080   Data           4  heap_4.o(.data)
    xBlockAllocatedBit                       0x20000084   Data           4  heap_4.o(.data)
    .data                                    0x20000088   Section       12  port.o(.data)
    uxCriticalNesting                        0x20000088   Data           4  port.o(.data)
    ucMaxSysCallPriority                     0x2000008c   Data           1  port.o(.data)
    ulMaxPRIGROUPValue                       0x20000090   Data           4  port.o(.data)
    .data                                    0x20000094   Section        1  sd.o(.data)
    .data                                    0x20000098   Section       20  heap.o(.data)
    bufstart                                 0x20000098   Data           4  heap.o(.data)
    pool_index_max                           0x2000009c   Data           4  heap.o(.data)
    liststart                                0x200000a0   Data           8  heap.o(.data)
    memmtx                                   0x200000a8   Data           4  heap.o(.data)
    .data                                    0x200000ac   Section       16  iec10x.o(.data)
    iec10x_bus                               0x200000ac   Data           8  iec10x.o(.data)
    iec10x_mtx                               0x200000b4   Data           4  iec10x.o(.data)
    .data                                    0x200000bc   Section       24  iec10x_debug.o(.data)
    SQinfo                                   0x200000bc   Data           8  iec10x_debug.o(.data)
    titleinfo                                0x200000c4   Data          16  iec10x_debug.o(.data)
    .data                                    0x200000d4   Section        1  iec10x_telesgnl.o(.data)
    .data                                    0x200000d8   Section       96  user_iecx_use.o(.data)
    .data                                    0x20000138   Section      129  speak_api.o(.data)
    cnt                                      0x200001b8   Data           1  speak_api.o(.data)
    .data                                    0x200001bc   Section       10  ff.o(.data)
    FatFs                                    0x200001bc   Data           8  ff.o(.data)
    Fsid                                     0x200001c4   Data           2  ff.o(.data)
    .data                                    0x200001c8   Section      116  menu.o(.data)
    g_opStruct                               0x200001cc   Data          88  menu.o(.data)
    .data                                    0x2000023c   Section        1  menu_ui.o(.data)
    .data                                    0x20000240   Section       76  data_get.o(.data)
    .data                                    0x2000028c   Section       11  save_api.o(.data)
    .data                                    0x20000298   Section       12  cot_led.o(.data)
    sg_pLedTable                             0x20000298   Data           4  cot_led.o(.data)
    sg_ledNum                                0x2000029c   Data           4  cot_led.o(.data)
    s_sysTimeBak                             0x200002a0   Data           4  cot_led.o(.data)
    .data                                    0x200002a4   Section      144  led_user.o(.data)
    s_ledTable                               0x200002b4   Data         128  led_user.o(.data)
    .data                                    0x20000334   Section       13  flexible_button.o(.data)
    btn_head                                 0x20000334   Data           4  flexible_button.o(.data)
    button_cnt                               0x20000340   Data           1  flexible_button.o(.data)
    .data                                    0x20000344   Section        8  user_key.o(.data)
    flag                                     0x20000344   Data           4  user_key.o(.data)
    start_time                               0x20000348   Data           4  user_key.o(.data)
    .data                                    0x2000034c   Section       36  memory_data.o(.data)
    .data                                    0x20000370   Section        4  stdout.o(.data)
    .data                                    0x20000374   Section        4  errno.o(.data)
    _errno                                   0x20000374   Data           4  errno.o(.data)
    .bss                                     0x20000378   Section      596  freertos.o(.bss)
    xIdleTaskTCBBuffer                       0x20000378   Data          84  freertos.o(.bss)
    xIdleStack                               0x200003cc   Data         512  freertos.o(.bss)
    .bss                                     0x200005cc   Section       48  adc.o(.bss)
    .bss                                     0x200005fc   Section       84  i2c.o(.bss)
    .bss                                     0x20000650   Section       20  rtc.o(.bss)
    .bss                                     0x20000664   Section      176  spi.o(.bss)
    .bss                                     0x20000714   Section      560  usart.o(.bss)
    .bss                                     0x20000944   Section       72  stm32f1xx_hal_timebase_tim.o(.bss)
    .bss                                     0x2000098c   Section      240  tasks.o(.bss)
    pxReadyTasksLists                        0x2000098c   Data         140  tasks.o(.bss)
    xDelayedTaskList1                        0x20000a18   Data          20  tasks.o(.bss)
    xDelayedTaskList2                        0x20000a2c   Data          20  tasks.o(.bss)
    xPendingReadyList                        0x20000a40   Data          20  tasks.o(.bss)
    xTasksWaitingTermination                 0x20000a54   Data          20  tasks.o(.bss)
    xSuspendedTaskList                       0x20000a68   Data          20  tasks.o(.bss)
    .bss                                     0x20000a7c   Section    15360  heap_4.o(.bss)
    ucHeap                                   0x20000a7c   Data       15360  heap_4.o(.bss)
    .bss                                     0x20004680   Section       88  sd.o(.bss)
    .bss                                     0x200046d8   Section     5120  heap.o(.bss)
    bufpool                                  0x200046d8   Data        5120  heap.o(.bss)
    .bss                                     0x20005ad8   Section     1020  iec10x.o(.bss)
    .bss                                     0x20005ed4   Section      256  iec10x_debug.o(.bss)
    data_parser                              0x20005ed4   Data         256  iec10x_debug.o(.bss)
    .bss                                     0x20005fd4   Section      700  user_iecx_use.o(.bss)
    .bss                                     0x20006290   Section       32  speak_api.o(.bss)
    .bss                                     0x200062b0   Section     4144  menu.o(.bss)
    .bss                                     0x200072e0   Section      680  menu_ui.o(.bss)
    .bss                                     0x20007588   Section     1364  data_get.o(.bss)
    .bss                                     0x20007adc   Section    13712  usart_api_1.o(.bss)
    .bss                                     0x2000b06c   Section     2544  save_api.o(.bss)
    .bss                                     0x2000ba5c   Section      196  user_key.o(.bss)
    user_button                              0x2000ba5c   Data         196  user_key.o(.bss)
    .bss                                     0x2000bb20   Section     8404  memory_data.o(.bss)
    .bss                                     0x2000dbf4   Section       44  localtime.o(.bss)
    _tms                                     0x2000dbf4   Data          44  localtime.o(.bss)
    STACK                                    0x2000dc20   Section     1024  startup_stm32f103xe.o(STACK)

    Global Symbols

    Symbol Name                              Value     Ov Type        Size  Object(Section)

    BuildAttributes$$THM_ISAv4$P$D$K$B$S$PE$A:L22UL41UL21$X:L11$S22US41US21$IEEE1$IW$USESV6$~STKCKD$USESV7$~SHL$OTIME$ROPI$IEEEJ$EBA8$MICROLIB$REQ8$PRES8$EABIv2 0x00000000   Number         0  anon$$obj.o ABSOLUTE
    __ARM_use_no_argv                        0x00000000   Number         0  main.o ABSOLUTE
    _printf_a                                0x00000000   Number         0  stubs.o ABSOLUTE
    _printf_c                                0x00000000   Number         0  stubs.o ABSOLUTE
    _printf_charcount                        0x00000000   Number         0  stubs.o ABSOLUTE
    _printf_d                                0x00000000   Number         0  stubs.o ABSOLUTE
    _printf_e                                0x00000000   Number         0  stubs.o ABSOLUTE
    _printf_f                                0x00000000   Number         0  stubs.o ABSOLUTE
    _printf_flags                            0x00000000   Number         0  stubs.o ABSOLUTE
    _printf_fp_dec                           0x00000000   Number         0  stubs.o ABSOLUTE
    _printf_fp_hex                           0x00000000   Number         0  stubs.o ABSOLUTE
    _printf_g                                0x00000000   Number         0  stubs.o ABSOLUTE
    _printf_i                                0x00000000   Number         0  stubs.o ABSOLUTE
    _printf_int_dec                          0x00000000   Number         0  stubs.o ABSOLUTE
    _printf_l                                0x00000000   Number         0  stubs.o ABSOLUTE
    _printf_lc                               0x00000000   Number         0  stubs.o ABSOLUTE
    _printf_ll                               0x00000000   Number         0  stubs.o ABSOLUTE
    _printf_lld                              0x00000000   Number         0  stubs.o ABSOLUTE
    _printf_lli                              0x00000000   Number         0  stubs.o ABSOLUTE
    _printf_llo                              0x00000000   Number         0  stubs.o ABSOLUTE
    _printf_llu                              0x00000000   Number         0  stubs.o ABSOLUTE
    _printf_llx                              0x00000000   Number         0  stubs.o ABSOLUTE
    _printf_longlong_dec                     0x00000000   Number         0  stubs.o ABSOLUTE
    _printf_longlong_hex                     0x00000000   Number         0  stubs.o ABSOLUTE
    _printf_longlong_oct                     0x00000000   Number         0  stubs.o ABSOLUTE
    _printf_ls                               0x00000000   Number         0  stubs.o ABSOLUTE
    _printf_mbtowc                           0x00000000   Number         0  stubs.o ABSOLUTE
    _printf_n                                0x00000000   Number         0  stubs.o ABSOLUTE
    _printf_o                                0x00000000   Number         0  stubs.o ABSOLUTE
    _printf_p                                0x00000000   Number         0  stubs.o ABSOLUTE
    _printf_percent                          0x00000000   Number         0  stubs.o ABSOLUTE
    _printf_pre_padding                      0x00000000   Number         0  stubs.o ABSOLUTE
    _printf_return_value                     0x00000000   Number         0  stubs.o ABSOLUTE
    _printf_s                                0x00000000   Number         0  stubs.o ABSOLUTE
    _printf_sizespec                         0x00000000   Number         0  stubs.o ABSOLUTE
    _printf_str                              0x00000000   Number         0  stubs.o ABSOLUTE
    _printf_truncate_signed                  0x00000000   Number         0  stubs.o ABSOLUTE
    _printf_truncate_unsigned                0x00000000   Number         0  stubs.o ABSOLUTE
    _printf_u                                0x00000000   Number         0  stubs.o ABSOLUTE
    _printf_wc                               0x00000000   Number         0  stubs.o ABSOLUTE
    _printf_wctomb                           0x00000000   Number         0  stubs.o ABSOLUTE
    _printf_widthprec                        0x00000000   Number         0  stubs.o ABSOLUTE
    _printf_x                                0x00000000   Number         0  stubs.o ABSOLUTE
    __cpp_initialize__aeabi_                  - Undefined Weak Reference
    __cxa_finalize                            - Undefined Weak Reference
    _clock_init                               - Undefined Weak Reference
    _microlib_exit                            - Undefined Weak Reference
    __Vectors_Size                           0x00000130   Number         0  startup_stm32f103xe.o ABSOLUTE
    __Vectors                                0x08000000   Data           4  startup_stm32f103xe.o(RESET)
    __Vectors_End                            0x08000130   Data           0  startup_stm32f103xe.o(RESET)
    __main                                   0x08000131   Thumb Code     0  entry.o(.ARM.Collect$$$$00000000)
    _main_stk                                0x08000131   Thumb Code     0  entry2.o(.ARM.Collect$$$$00000001)
    _main_scatterload                        0x08000135   Thumb Code     0  entry5.o(.ARM.Collect$$$$00000004)
    __main_after_scatterload                 0x08000139   Thumb Code     0  entry5.o(.ARM.Collect$$$$00000004)
    _main_clock                              0x08000139   Thumb Code     0  entry7b.o(.ARM.Collect$$$$00000008)
    _main_cpp_init                           0x08000139   Thumb Code     0  entry8b.o(.ARM.Collect$$$$0000000A)
    _main_init                               0x08000139   Thumb Code     0  entry9a.o(.ARM.Collect$$$$0000000B)
    __rt_final_cpp                           0x08000141   Thumb Code     0  entry10a.o(.ARM.Collect$$$$0000000D)
    __rt_final_exit                          0x08000141   Thumb Code     0  entry11a.o(.ARM.Collect$$$$0000000F)
    SVC_Handler                              0x08000145   Thumb Code    32  port.o(.emb_text)
    __asm___6_port_c_39a90d8d__prvStartFirstTask 0x08000169   Thumb Code    28  port.o(.emb_text)
    PendSV_Handler                           0x08000189   Thumb Code    72  port.o(.emb_text)
    vPortGetIPSR                             0x080001d5   Thumb Code     6  port.o(.emb_text)
    Reset_Handler                            0x080001dd   Thumb Code     8  startup_stm32f103xe.o(.text)
    ADC1_2_IRQHandler                        0x080001f7   Thumb Code     0  startup_stm32f103xe.o(.text)
    ADC3_IRQHandler                          0x080001f7   Thumb Code     0  startup_stm32f103xe.o(.text)
    CAN1_RX1_IRQHandler                      0x080001f7   Thumb Code     0  startup_stm32f103xe.o(.text)
    CAN1_SCE_IRQHandler                      0x080001f7   Thumb Code     0  startup_stm32f103xe.o(.text)
    DMA1_Channel1_IRQHandler                 0x080001f7   Thumb Code     0  startup_stm32f103xe.o(.text)
    DMA1_Channel2_IRQHandler                 0x080001f7   Thumb Code     0  startup_stm32f103xe.o(.text)
    DMA1_Channel4_IRQHandler                 0x080001f7   Thumb Code     0  startup_stm32f103xe.o(.text)
    DMA1_Channel7_IRQHandler                 0x080001f7   Thumb Code     0  startup_stm32f103xe.o(.text)
    DMA2_Channel1_IRQHandler                 0x080001f7   Thumb Code     0  startup_stm32f103xe.o(.text)
    DMA2_Channel2_IRQHandler                 0x080001f7   Thumb Code     0  startup_stm32f103xe.o(.text)
    DMA2_Channel4_5_IRQHandler               0x080001f7   Thumb Code     0  startup_stm32f103xe.o(.text)
    EXTI0_IRQHandler                         0x080001f7   Thumb Code     0  startup_stm32f103xe.o(.text)
    EXTI15_10_IRQHandler                     0x080001f7   Thumb Code     0  startup_stm32f103xe.o(.text)
    EXTI1_IRQHandler                         0x080001f7   Thumb Code     0  startup_stm32f103xe.o(.text)
    EXTI2_IRQHandler                         0x080001f7   Thumb Code     0  startup_stm32f103xe.o(.text)
    EXTI3_IRQHandler                         0x080001f7   Thumb Code     0  startup_stm32f103xe.o(.text)
    EXTI4_IRQHandler                         0x080001f7   Thumb Code     0  startup_stm32f103xe.o(.text)
    FLASH_IRQHandler                         0x080001f7   Thumb Code     0  startup_stm32f103xe.o(.text)
    FSMC_IRQHandler                          0x080001f7   Thumb Code     0  startup_stm32f103xe.o(.text)
    I2C1_ER_IRQHandler                       0x080001f7   Thumb Code     0  startup_stm32f103xe.o(.text)
    I2C1_EV_IRQHandler                       0x080001f7   Thumb Code     0  startup_stm32f103xe.o(.text)
    I2C2_ER_IRQHandler                       0x080001f7   Thumb Code     0  startup_stm32f103xe.o(.text)
    I2C2_EV_IRQHandler                       0x080001f7   Thumb Code     0  startup_stm32f103xe.o(.text)
    PVD_IRQHandler                           0x080001f7   Thumb Code     0  startup_stm32f103xe.o(.text)
    RCC_IRQHandler                           0x080001f7   Thumb Code     0  startup_stm32f103xe.o(.text)
    RTC_Alarm_IRQHandler                     0x080001f7   Thumb Code     0  startup_stm32f103xe.o(.text)
    SDIO_IRQHandler                          0x080001f7   Thumb Code     0  startup_stm32f103xe.o(.text)
    SPI2_IRQHandler                          0x080001f7   Thumb Code     0  startup_stm32f103xe.o(.text)
    SPI3_IRQHandler                          0x080001f7   Thumb Code     0  startup_stm32f103xe.o(.text)
    TAMPER_IRQHandler                        0x080001f7   Thumb Code     0  startup_stm32f103xe.o(.text)
    TIM1_BRK_IRQHandler                      0x080001f7   Thumb Code     0  startup_stm32f103xe.o(.text)
    TIM1_CC_IRQHandler                       0x080001f7   Thumb Code     0  startup_stm32f103xe.o(.text)
    TIM1_TRG_COM_IRQHandler                  0x080001f7   Thumb Code     0  startup_stm32f103xe.o(.text)
    TIM1_UP_IRQHandler                       0x080001f7   Thumb Code     0  startup_stm32f103xe.o(.text)
    TIM2_IRQHandler                          0x080001f7   Thumb Code     0  startup_stm32f103xe.o(.text)
    TIM3_IRQHandler                          0x080001f7   Thumb Code     0  startup_stm32f103xe.o(.text)
    TIM5_IRQHandler                          0x080001f7   Thumb Code     0  startup_stm32f103xe.o(.text)
    TIM6_IRQHandler                          0x080001f7   Thumb Code     0  startup_stm32f103xe.o(.text)
    TIM7_IRQHandler                          0x080001f7   Thumb Code     0  startup_stm32f103xe.o(.text)
    TIM8_BRK_IRQHandler                      0x080001f7   Thumb Code     0  startup_stm32f103xe.o(.text)
    TIM8_CC_IRQHandler                       0x080001f7   Thumb Code     0  startup_stm32f103xe.o(.text)
    TIM8_TRG_COM_IRQHandler                  0x080001f7   Thumb Code     0  startup_stm32f103xe.o(.text)
    TIM8_UP_IRQHandler                       0x080001f7   Thumb Code     0  startup_stm32f103xe.o(.text)
    UART5_IRQHandler                         0x080001f7   Thumb Code     0  startup_stm32f103xe.o(.text)
    USBWakeUp_IRQHandler                     0x080001f7   Thumb Code     0  startup_stm32f103xe.o(.text)
    USB_HP_CAN1_TX_IRQHandler                0x080001f7   Thumb Code     0  startup_stm32f103xe.o(.text)
    USB_LP_CAN1_RX0_IRQHandler               0x080001f7   Thumb Code     0  startup_stm32f103xe.o(.text)
    WWDG_IRQHandler                          0x080001f7   Thumb Code     0  startup_stm32f103xe.o(.text)
    __aeabi_uldivmod                         0x08000201   Thumb Code    98  uldiv.o(.text)
    __aeabi_llsr                             0x08000263   Thumb Code    32  llushr.o(.text)
    _ll_ushift_r                             0x08000263   Thumb Code     0  llushr.o(.text)
    localtime                                0x08000285   Thumb Code   138  localtime.o(.text)
    __aeabi_memcpy                           0x08000319   Thumb Code    36  memcpya.o(.text)
    __aeabi_memcpy4                          0x08000319   Thumb Code     0  memcpya.o(.text)
    __aeabi_memcpy8                          0x08000319   Thumb Code     0  memcpya.o(.text)
    __aeabi_memset                           0x0800033d   Thumb Code    14  memseta.o(.text)
    __aeabi_memset4                          0x0800033d   Thumb Code     0  memseta.o(.text)
    __aeabi_memset8                          0x0800033d   Thumb Code     0  memseta.o(.text)
    __aeabi_memclr                           0x0800034b   Thumb Code     4  memseta.o(.text)
    __aeabi_memclr4                          0x0800034b   Thumb Code     0  memseta.o(.text)
    __aeabi_memclr8                          0x0800034b   Thumb Code     0  memseta.o(.text)
    memset                                   0x0800034f   Thumb Code    18  memseta.o(.text)
    strlen                                   0x08000361   Thumb Code    14  strlen.o(.text)
    __aeabi_fadd                             0x0800036f   Thumb Code   164  fadd.o(.text)
    __aeabi_fsub                             0x08000413   Thumb Code     6  fadd.o(.text)
    __aeabi_frsub                            0x08000419   Thumb Code     6  fadd.o(.text)
    __aeabi_fmul                             0x0800041f   Thumb Code   100  fmul.o(.text)
    __aeabi_fdiv                             0x08000483   Thumb Code   124  fdiv.o(.text)
    __aeabi_dmul                             0x080004ff   Thumb Code   228  dmul.o(.text)
    __aeabi_i2f                              0x080005e3   Thumb Code    18  fflti.o(.text)
    __aeabi_ui2f                             0x080005f5   Thumb Code    10  ffltui.o(.text)
    __aeabi_i2d                              0x080005ff   Thumb Code    34  dflti.o(.text)
    __aeabi_f2uiz                            0x08000621   Thumb Code    40  ffixui.o(.text)
    __aeabi_d2uiz                            0x08000649   Thumb Code    50  dfixui.o(.text)
    __aeabi_f2d                              0x0800067b   Thumb Code    38  f2d.o(.text)
    __aeabi_d2f                              0x080006a1   Thumb Code    56  d2f.o(.text)
    __aeabi_cfcmpeq                          0x080006d9   Thumb Code     0  cfcmple.o(.text)
    __aeabi_cfcmple                          0x080006d9   Thumb Code    20  cfcmple.o(.text)
    __aeabi_cfrcmple                         0x080006ed   Thumb Code    20  cfrcmple.o(.text)
    __aeabi_uidiv                            0x08000701   Thumb Code     0  uidiv.o(.text)
    __aeabi_uidivmod                         0x08000701   Thumb Code    44  uidiv.o(.text)
    __aeabi_llsl                             0x0800072d   Thumb Code    30  llshl.o(.text)
    _ll_shift_l                              0x0800072d   Thumb Code     0  llshl.o(.text)
    __strtod_int                             0x08000783   Thumb Code    90  strtod.o(.text)
    __I$use$fp                               0x080007e9   Thumb Code     0  iusefp.o(.text)
    _float_round                             0x080007e9   Thumb Code    18  fepilogue.o(.text)
    _float_epilogue                          0x080007fb   Thumb Code    92  fepilogue.o(.text)
    _double_round                            0x08000857   Thumb Code    30  depilogue.o(.text)
    _double_epilogue                         0x08000875   Thumb Code   156  depilogue.o(.text)
    __aeabi_dadd                             0x08000911   Thumb Code   322  dadd.o(.text)
    __aeabi_dsub                             0x08000a53   Thumb Code     6  dadd.o(.text)
    __aeabi_drsub                            0x08000a59   Thumb Code     6  dadd.o(.text)
    __aeabi_ddiv                             0x08000a5f   Thumb Code   222  ddiv.o(.text)
    __aeabi_d2ulz                            0x08000b3d   Thumb Code    48  dfixul.o(.text)
    __aeabi_cdrcmple                         0x08000b6d   Thumb Code    48  cdrcmple.o(.text)
    __scatterload                            0x08000b9d   Thumb Code    28  init.o(.text)
    __scatterload_rt2                        0x08000b9d   Thumb Code     0  init.o(.text)
    __aeabi_lasr                             0x08000bc1   Thumb Code    36  llsshr.o(.text)
    _ll_sshift_r                             0x08000bc1   Thumb Code     0  llsshr.o(.text)
    isspace                                  0x08000be5   Thumb Code    10  isspace_c.o(.text)
    _scanf_real                              0x08000d19   Thumb Code     0  scanf_fp.o(.text)
    _scanf_really_real                       0x08000d19   Thumb Code   556  scanf_fp.o(.text)
    _sgetc                                   0x08000f51   Thumb Code    30  _sgetc.o(.text)
    _sbackspace                              0x08000f6f   Thumb Code    34  _sgetc.o(.text)
    __ctype_lookup                           0x08000f91   Thumb Code    34  ctype_c.o(.text)
    __aeabi_ul2d                             0x08000fb9   Thumb Code    24  dfltul.o(.text)
    __decompress                             0x08000fd1   Thumb Code     0  __dczerorl2.o(.text)
    __decompress1                            0x08000fd1   Thumb Code    86  __dczerorl2.o(.text)
    ADC_ConversionStop_Disable               0x08001027   Thumb Code    92  stm32f1xx_hal_adc.o(i.ADC_ConversionStop_Disable)
    ADC_Enable                               0x08001085   Thumb Code   134  stm32f1xx_hal_adc.o(i.ADC_Enable)
    BusFault_Handler                         0x080012a1   Thumb Code     4  stm32f1xx_it.o(i.BusFault_Handler)
    Certification_effectiveness              0x080012a5   Thumb Code   354  save_api.o(i.Certification_effectiveness)
    Certification_in                         0x08001429   Thumb Code   266  save_api.o(i.Certification_in)
    Certification_process                    0x08001545   Thumb Code  1072  save_api.o(i.Certification_process)
    Certification_writ                       0x08001979   Thumb Code   452  save_api.o(i.Certification_writ)
    CtrlLed_100                              0x08001b55   Thumb Code    32  led_user.o(i.CtrlLed_100)
    CtrlLed_25                               0x08001b79   Thumb Code    32  led_user.o(i.CtrlLed_25)
    CtrlLed_50                               0x08001b9d   Thumb Code    32  led_user.o(i.CtrlLed_50)
    CtrlLed_75                               0x08001bc1   Thumb Code    32  led_user.o(i.CtrlLed_75)
    CtrlLed_BED                              0x08001be5   Thumb Code    32  led_user.o(i.CtrlLed_BED)
    CtrlLed_RED                              0x08001c09   Thumb Code    32  led_user.o(i.CtrlLed_RED)
    CtrlLed_run1                             0x08001c2d   Thumb Code    32  led_user.o(i.CtrlLed_run1)
    CtrlLed_run2                             0x08001c51   Thumb Code    32  led_user.o(i.CtrlLed_run2)
    DIQ0T_parse                              0x08001cc1   Thumb Code   180  iec10x_debug.o(i.DIQ0T_parse)
    DIQ24T_parse                             0x08001dc9   Thumb Code   208  iec10x_debug.o(i.DIQ24T_parse)
    DIQ56T_parse                             0x08001ef5   Thumb Code   224  iec10x_debug.o(i.DIQ56T_parse)
    DMA1_Channel3_IRQHandler                 0x08002039   Thumb Code    10  stm32f1xx_it.o(i.DMA1_Channel3_IRQHandler)
    DMA1_Channel5_IRQHandler                 0x08002049   Thumb Code    10  stm32f1xx_it.o(i.DMA1_Channel5_IRQHandler)
    DMA1_Channel6_IRQHandler                 0x08002059   Thumb Code    10  stm32f1xx_it.o(i.DMA1_Channel6_IRQHandler)
    DMA2_Channel3_IRQHandler                 0x08002069   Thumb Code    10  stm32f1xx_it.o(i.DMA2_Channel3_IRQHandler)
    DebugMon_Handler                         0x080020a5   Thumb Code     2  stm32f1xx_it.o(i.DebugMon_Handler)
    EXTI9_5_IRQHandler                       0x080020a7   Thumb Code    16  stm32f1xx_it.o(i.EXTI9_5_IRQHandler)
    Enter_Page                               0x080020b9   Thumb Code   144  menu_ui.o(i.Enter_Page)
    Error_Handler                            0x08002151   Thumb Code     6  main.o(i.Error_Handler)
    FIELD_EN                                 0x08002159   Thumb Code    32  gpio.o(i.FIELD_EN)
    Framing_results                          0x0800217d   Thumb Code    86  save_api.o(i.Framing_results)
    FucCheckSum                              0x080021e1   Thumb Code    38  usart_api_1.o(i.FucCheckSum)
    Gas_en                                   0x08002209   Thumb Code    34  gpio.o(i.Gas_en)
    HAA2018_EN                               0x08002231   Thumb Code    32  gpio.o(i.HAA2018_EN)
    HAL_ADCEx_Calibration_Start              0x08002255   Thumb Code   278  stm32f1xx_hal_adc_ex.o(i.HAL_ADCEx_Calibration_Start)
    HAL_ADC_ConfigChannel                    0x08002371   Thumb Code   338  stm32f1xx_hal_adc.o(i.HAL_ADC_ConfigChannel)
    HAL_ADC_GetValue                         0x080024d1   Thumb Code     8  stm32f1xx_hal_adc.o(i.HAL_ADC_GetValue)
    HAL_ADC_Init                             0x080024d9   Thumb Code   340  stm32f1xx_hal_adc.o(i.HAL_ADC_Init)
    HAL_ADC_MspInit                          0x08002639   Thumb Code   140  adc.o(i.HAL_ADC_MspInit)
    HAL_ADC_PollForConversion                0x080026d5   Thumb Code   366  stm32f1xx_hal_adc.o(i.HAL_ADC_PollForConversion)
    HAL_ADC_Start                            0x08002855   Thumb Code   294  stm32f1xx_hal_adc.o(i.HAL_ADC_Start)
    HAL_ADC_Stop                             0x08002985   Thumb Code    64  stm32f1xx_hal_adc.o(i.HAL_ADC_Stop)
    HAL_DMA_Abort                            0x080029c5   Thumb Code    86  stm32f1xx_hal_dma.o(i.HAL_DMA_Abort)
    HAL_DMA_Abort_IT                         0x08002a1d   Thumb Code   414  stm32f1xx_hal_dma.o(i.HAL_DMA_Abort_IT)
    HAL_DMA_IRQHandler                       0x08002bc5   Thumb Code   910  stm32f1xx_hal_dma.o(i.HAL_DMA_IRQHandler)
    HAL_DMA_Init                             0x08002f5d   Thumb Code   132  stm32f1xx_hal_dma.o(i.HAL_DMA_Init)
    HAL_DMA_Start_IT                         0x08002fe9   Thumb Code   156  stm32f1xx_hal_dma.o(i.HAL_DMA_Start_IT)
    HAL_Delay                                0x08003085   Thumb Code    36  stm32f1xx_hal.o(i.HAL_Delay)
    HAL_GPIO_EXTI_Callback                   0x080030ad   Thumb Code     2  stm32f1xx_hal_gpio.o(i.HAL_GPIO_EXTI_Callback)
    HAL_GPIO_EXTI_IRQHandler                 0x080030b1   Thumb Code    24  stm32f1xx_hal_gpio.o(i.HAL_GPIO_EXTI_IRQHandler)
    HAL_GPIO_Init                            0x080030cd   Thumb Code   792  stm32f1xx_hal_gpio.o(i.HAL_GPIO_Init)
    HAL_GPIO_ReadPin                         0x0800340d   Thumb Code    16  stm32f1xx_hal_gpio.o(i.HAL_GPIO_ReadPin)
    HAL_GPIO_WritePin                        0x0800341d   Thumb Code    12  stm32f1xx_hal_gpio.o(i.HAL_GPIO_WritePin)
    HAL_GetTick                              0x08003429   Thumb Code     6  stm32f1xx_hal.o(i.HAL_GetTick)
    HAL_I2C_Init                             0x08003435   Thumb Code   446  stm32f1xx_hal_i2c.o(i.HAL_I2C_Init)
    HAL_I2C_MspInit                          0x08003605   Thumb Code   124  i2c.o(i.HAL_I2C_MspInit)
    HAL_IncTick                              0x08003691   Thumb Code    16  stm32f1xx_hal.o(i.HAL_IncTick)
    HAL_Init                                 0x080036a9   Thumb Code    34  stm32f1xx_hal.o(i.HAL_Init)
    HAL_InitTick                             0x080036d1   Thumb Code   158  stm32f1xx_hal_timebase_tim.o(i.HAL_InitTick)
    HAL_MspInit                              0x08003785   Thumb Code    86  stm32f1xx_hal_msp.o(i.HAL_MspInit)
    HAL_NVIC_EnableIRQ                       0x080037e5   Thumb Code    32  stm32f1xx_hal_cortex.o(i.HAL_NVIC_EnableIRQ)
    HAL_NVIC_SetPriority                     0x08003805   Thumb Code   124  stm32f1xx_hal_cortex.o(i.HAL_NVIC_SetPriority)
    HAL_NVIC_SetPriorityGrouping             0x08003881   Thumb Code    32  stm32f1xx_hal_cortex.o(i.HAL_NVIC_SetPriorityGrouping)
    HAL_PWR_EnableBkUpAccess                 0x080038a9   Thumb Code     8  stm32f1xx_hal_pwr.o(i.HAL_PWR_EnableBkUpAccess)
    HAL_RCCEx_GetPeriphCLKFreq               0x080038b5   Thumb Code   260  stm32f1xx_hal_rcc_ex.o(i.HAL_RCCEx_GetPeriphCLKFreq)
    HAL_RCCEx_PeriphCLKConfig                0x080039cd   Thumb Code   290  stm32f1xx_hal_rcc_ex.o(i.HAL_RCCEx_PeriphCLKConfig)
    HAL_RCC_ClockConfig                      0x08003afd   Thumb Code   376  stm32f1xx_hal_rcc.o(i.HAL_RCC_ClockConfig)
    HAL_RCC_GetClockConfig                   0x08003c89   Thumb Code    58  stm32f1xx_hal_rcc.o(i.HAL_RCC_GetClockConfig)
    HAL_RCC_GetHCLKFreq                      0x08003ccd   Thumb Code     6  stm32f1xx_hal_rcc.o(i.HAL_RCC_GetHCLKFreq)
    HAL_RCC_GetPCLK1Freq                     0x08003cd9   Thumb Code    22  stm32f1xx_hal_rcc.o(i.HAL_RCC_GetPCLK1Freq)
    HAL_RCC_GetPCLK2Freq                     0x08003cf9   Thumb Code    22  stm32f1xx_hal_rcc.o(i.HAL_RCC_GetPCLK2Freq)
    HAL_RCC_GetSysClockFreq                  0x08003d19   Thumb Code    92  stm32f1xx_hal_rcc.o(i.HAL_RCC_GetSysClockFreq)
    HAL_RCC_OscConfig                        0x08003d89   Thumb Code  1114  stm32f1xx_hal_rcc.o(i.HAL_RCC_OscConfig)
    HAL_RTCEx_RTCEventCallback               0x080041ed   Thumb Code     2  stm32f1xx_hal_rtc_ex.o(i.HAL_RTCEx_RTCEventCallback)
    HAL_RTCEx_RTCEventErrorCallback          0x080041ef   Thumb Code     2  stm32f1xx_hal_rtc_ex.o(i.HAL_RTCEx_RTCEventErrorCallback)
    HAL_RTCEx_RTCIRQHandler                  0x080041f1   Thumb Code    78  stm32f1xx_hal_rtc_ex.o(i.HAL_RTCEx_RTCIRQHandler)
    HAL_RTC_GetDate                          0x0800423f   Thumb Code    82  stm32f1xx_hal_rtc.o(i.HAL_RTC_GetDate)
    HAL_RTC_GetTime                          0x08004291   Thumb Code   260  stm32f1xx_hal_rtc.o(i.HAL_RTC_GetTime)
    HAL_RTC_Init                             0x08004395   Thumb Code   188  stm32f1xx_hal_rtc.o(i.HAL_RTC_Init)
    HAL_RTC_MspInit                          0x08004455   Thumb Code    68  rtc.o(i.HAL_RTC_MspInit)
    HAL_RTC_SetDate                          0x080044a5   Thumb Code   242  stm32f1xx_hal_rtc.o(i.HAL_RTC_SetDate)
    HAL_RTC_SetTime                          0x0800459d   Thumb Code   214  stm32f1xx_hal_rtc.o(i.HAL_RTC_SetTime)
    HAL_RTC_WaitForSynchro                   0x08004679   Thumb Code    64  stm32f1xx_hal_rtc.o(i.HAL_RTC_WaitForSynchro)
    HAL_SPI_ErrorCallback                    0x080046b9   Thumb Code     2  stm32f1xx_hal_spi.o(i.HAL_SPI_ErrorCallback)
    HAL_SPI_IRQHandler                       0x080046bd   Thumb Code   304  stm32f1xx_hal_spi.o(i.HAL_SPI_IRQHandler)
    HAL_SPI_Init                             0x080047f1   Thumb Code   190  stm32f1xx_hal_spi.o(i.HAL_SPI_Init)
    HAL_SPI_MspInit                          0x080048b1   Thumb Code   238  spi.o(i.HAL_SPI_MspInit)
    HAL_SPI_RxCpltCallback                   0x080049b5   Thumb Code     2  stm32f1xx_hal_spi.o(i.HAL_SPI_RxCpltCallback)
    HAL_SPI_TransmitReceive                  0x080049b7   Thumb Code   576  stm32f1xx_hal_spi.o(i.HAL_SPI_TransmitReceive)
    HAL_SPI_TransmitReceive_IT               0x08004bf9   Thumb Code   178  stm32f1xx_hal_spi.o(i.HAL_SPI_TransmitReceive_IT)
    HAL_SPI_Transmit_IT                      0x08004cbd   Thumb Code   170  stm32f1xx_hal_spi.o(i.HAL_SPI_Transmit_IT)
    HAL_SPI_TxCpltCallback                   0x08004d71   Thumb Code     2  stm32f1xx_hal_spi.o(i.HAL_SPI_TxCpltCallback)
    HAL_SPI_TxRxCpltCallback                 0x08004d73   Thumb Code     2  stm32f1xx_hal_spi.o(i.HAL_SPI_TxRxCpltCallback)
    HAL_TIMEx_BreakCallback                  0x08004d75   Thumb Code     2  stm32f1xx_hal_tim_ex.o(i.HAL_TIMEx_BreakCallback)
    HAL_TIMEx_CommutCallback                 0x08004d77   Thumb Code     2  stm32f1xx_hal_tim_ex.o(i.HAL_TIMEx_CommutCallback)
    HAL_TIM_Base_Init                        0x08004d79   Thumb Code   102  stm32f1xx_hal_tim.o(i.HAL_TIM_Base_Init)
    HAL_TIM_Base_MspInit                     0x08004ddf   Thumb Code     2  stm32f1xx_hal_tim.o(i.HAL_TIM_Base_MspInit)
    HAL_TIM_Base_Start_IT                    0x08004de1   Thumb Code   122  stm32f1xx_hal_tim.o(i.HAL_TIM_Base_Start_IT)
    HAL_TIM_IC_CaptureCallback               0x08004e71   Thumb Code     2  stm32f1xx_hal_tim.o(i.HAL_TIM_IC_CaptureCallback)
    HAL_TIM_IRQHandler                       0x08004e73   Thumb Code   406  stm32f1xx_hal_tim.o(i.HAL_TIM_IRQHandler)
    HAL_TIM_OC_DelayElapsedCallback          0x08005009   Thumb Code     2  stm32f1xx_hal_tim.o(i.HAL_TIM_OC_DelayElapsedCallback)
    HAL_TIM_PWM_PulseFinishedCallback        0x0800500b   Thumb Code     2  stm32f1xx_hal_tim.o(i.HAL_TIM_PWM_PulseFinishedCallback)
    HAL_TIM_PeriodElapsedCallback            0x0800500d   Thumb Code    18  main.o(i.HAL_TIM_PeriodElapsedCallback)
    HAL_TIM_TriggerCallback                  0x08005025   Thumb Code     2  stm32f1xx_hal_tim.o(i.HAL_TIM_TriggerCallback)
    HAL_UARTEx_RxEventCallback               0x08005027   Thumb Code     2  stm32f1xx_hal_uart.o(i.HAL_UARTEx_RxEventCallback)
    HAL_UART_DMAStop                         0x08005029   Thumb Code   138  stm32f1xx_hal_uart.o(i.HAL_UART_DMAStop)
    HAL_UART_ErrorCallback                   0x080050b3   Thumb Code     2  stm32f1xx_hal_uart.o(i.HAL_UART_ErrorCallback)
    HAL_UART_IRQHandler                      0x080050b5   Thumb Code   736  stm32f1xx_hal_uart.o(i.HAL_UART_IRQHandler)
    HAL_UART_Init                            0x08005399   Thumb Code   118  stm32f1xx_hal_uart.o(i.HAL_UART_Init)
    HAL_UART_MspInit                         0x08005411   Thumb Code   718  usart.o(i.HAL_UART_MspInit)
    HAL_UART_Receive_DMA                     0x08005721   Thumb Code    44  stm32f1xx_hal_uart.o(i.HAL_UART_Receive_DMA)
    HAL_UART_RxCpltCallback                  0x0800574d   Thumb Code     2  stm32f1xx_hal_uart.o(i.HAL_UART_RxCpltCallback)
    HAL_UART_RxHalfCpltCallback              0x0800574f   Thumb Code     2  stm32f1xx_hal_uart.o(i.HAL_UART_RxHalfCpltCallback)
    HAL_UART_Transmit                        0x08005751   Thumb Code   178  stm32f1xx_hal_uart.o(i.HAL_UART_Transmit)
    HAL_UART_TxCpltCallback                  0x08005803   Thumb Code     2  stm32f1xx_hal_uart.o(i.HAL_UART_TxCpltCallback)
    Hand                                     0x08005805   Thumb Code   110  speak_api.o(i.Hand)
    HardFault_Handler                        0x08005879   Thumb Code     4  stm32f1xx_it.o(i.HardFault_Handler)
    JW5808_EN                                0x080058a5   Thumb Code    32  gpio.o(i.JW5808_EN)
    LCD_Address_Set                          0x080058c9   Thumb Code    66  lcd_init.o(i.LCD_Address_Set)
    LCD_DISP_MIX                             0x0800590b   Thumb Code   128  lcd.o(i.LCD_DISP_MIX)
    LCD_DrawPoint                            0x0800598b   Thumb Code    28  lcd.o(i.LCD_DrawPoint)
    LCD_Fill                                 0x080059a7   Thumb Code    74  lcd.o(i.LCD_Fill)
    LCD_Init                                 0x080059f1   Thumb Code   398  lcd_init.o(i.LCD_Init)
    LCD_ShowChar                             0x08005b85   Thumb Code   328  lcd.o(i.LCD_ShowChar)
    LCD_ShowChinese                          0x08005cdd   Thumb Code   140  lcd.o(i.LCD_ShowChinese)
    LCD_ShowChinese12x12                     0x08005d69   Thumb Code   322  lcd.o(i.LCD_ShowChinese12x12)
    LCD_ShowChinese16x16                     0x08005eb1   Thumb Code   306  lcd.o(i.LCD_ShowChinese16x16)
    LCD_ShowChinese24x24                     0x08005fe9   Thumb Code   322  lcd.o(i.LCD_ShowChinese24x24)
    LCD_ShowChinese32x32                     0x08006131   Thumb Code   306  lcd.o(i.LCD_ShowChinese32x32)
    LCD_ShowFloatNum1                        0x08006269   Thumb Code   158  lcd.o(i.LCD_ShowFloatNum1)
    LCD_ShowIntNum                           0x0800630d   Thumb Code    96  lcd.o(i.LCD_ShowIntNum)
    LCD_ShowString                           0x0800636d   Thumb Code    76  lcd.o(i.LCD_ShowString)
    LCD_WR_DATA                              0x080063b9   Thumb Code    18  lcd_init.o(i.LCD_WR_DATA)
    LCD_WR_DATA8                             0x080063cb   Thumb Code    12  lcd_init.o(i.LCD_WR_DATA8)
    LCD_WR_REG                               0x080063d9   Thumb Code    34  lcd_init.o(i.LCD_WR_REG)
    LCD_Writ_Bus                             0x08006401   Thumb Code    96  lcd_init.o(i.LCD_Writ_Bus)
    MX_ADC1_Init                             0x08006469   Thumb Code   172  adc.o(i.MX_ADC1_Init)
    MX_DMA_Init                              0x0800651d   Thumb Code   122  dma.o(i.MX_DMA_Init)
    MX_FREERTOS_Init                         0x0800659d   Thumb Code   174  freertos.o(i.MX_FREERTOS_Init)
    MX_GPIO_Init                             0x0800666d   Thumb Code   492  gpio.o(i.MX_GPIO_Init)
    MX_I2C1_Init                             0x08006875   Thumb Code    48  i2c.o(i.MX_I2C1_Init)
    MX_RTC_Init                              0x080068b1   Thumb Code   106  rtc.o(i.MX_RTC_Init)
    MX_SPI1_Init                             0x08006925   Thumb Code    62  spi.o(i.MX_SPI1_Init)
    MX_SPI3_Init                             0x0800696d   Thumb Code    58  spi.o(i.MX_SPI3_Init)
    MX_UART4_Init                            0x080069b1   Thumb Code    46  usart.o(i.MX_UART4_Init)
    MX_USART1_UART_Init                      0x080069e9   Thumb Code    46  usart.o(i.MX_USART1_UART_Init)
    MX_USART2_UART_Init                      0x08006a21   Thumb Code    46  usart.o(i.MX_USART2_UART_Init)
    MX_USART3_UART_Init                      0x08006a59   Thumb Code    46  usart.o(i.MX_USART3_UART_Init)
    MemManage_Handler                        0x08006a91   Thumb Code     4  stm32f1xx_it.o(i.MemManage_Handler)
    Menu_Main_Init                           0x08006a95   Thumb Code    40  menu_ui.o(i.Menu_Main_Init)
    Menu_Select_Item                         0x08006ac1   Thumb Code    16  menu.o(i.Menu_Select_Item)
    NMI_Handler                              0x08006ad1   Thumb Code     4  stm32f1xx_it.o(i.NMI_Handler)
    Near_electric                            0x08006ad5   Thumb Code   284  data_get.o(i.Near_electric)
    P_3V8                                    0x08006bf5   Thumb Code    32  gpio.o(i.P_3V8)
    P_5V                                     0x08006c19   Thumb Code    32  gpio.o(i.P_5V)
    Power_key                                0x08006c3d   Thumb Code    34  gpio.o(i.Power_key)
    Protocol_decode_Message                  0x08006c65   Thumb Code    52  data_get.o(i.Protocol_decode_Message)
    Protocol_decode_contrl                   0x08006c99   Thumb Code    26  data_get.o(i.Protocol_decode_contrl)
    Protocol_decode_data                     0x08006cb5   Thumb Code   348  data_get.o(i.Protocol_decode_data)
    RTC_GetDivider                           0x08006f99   Thumb Code    20  user_iecx_use.o(i.RTC_GetDivider)
    RTC_IRQHandler                           0x08006fb1   Thumb Code    10  stm32f1xx_it.o(i.RTC_IRQHandler)
    RTC_SetDivider                           0x08007041   Thumb Code    50  user_iecx_use.o(i.RTC_SetDivider)
    SA868_EN                                 0x0800717d   Thumb Code    32  gpio.o(i.SA868_EN)
    SC116Y_EN                                0x080071a1   Thumb Code    32  gpio.o(i.SC116Y_EN)
    SD_EN                                    0x080071c5   Thumb Code    32  gpio.o(i.SD_EN)
    SD_GetCIDRegister                        0x080071e9   Thumb Code   262  sd.o(i.SD_GetCIDRegister)
    SD_GetCSDRegister                        0x080072f5   Thumb Code   558  sd.o(i.SD_GetCSDRegister)
    SD_GetCardInfo                           0x0800752d   Thumb Code   170  sd.o(i.SD_GetCardInfo)
    SD_GetCardType                           0x080075dd   Thumb Code   380  sd.o(i.SD_GetCardType)
    SD_GetDataResponse                       0x08007761   Thumb Code    76  sd.o(i.SD_GetDataResponse)
    SD_GetResponse                           0x080077ad   Thumb Code    34  sd.o(i.SD_GetResponse)
    SD_GoIdleState                           0x080077d1   Thumb Code    54  sd.o(i.SD_GoIdleState)
    SD_Init                                  0x0800780d   Thumb Code    74  sd.o(i.SD_Init)
    SD_ReadByte                              0x08007865   Thumb Code    36  sd.o(i.SD_ReadByte)
    SD_ReadMultiBlocks                       0x0800788d   Thumb Code   178  sd.o(i.SD_ReadMultiBlocks)
    SD_SendCmd                               0x08007949   Thumb Code    70  sd.o(i.SD_SendCmd)
    SD_WriteByte                             0x08007991   Thumb Code    36  sd.o(i.SD_WriteByte)
    SD_WriteMultiBlocks                      0x080079b9   Thumb Code   184  sd.o(i.SD_WriteMultiBlocks)
    SIQ0T_parse                              0x08007a79   Thumb Code   180  iec10x_debug.o(i.SIQ0T_parse)
    SIQ24T_parse                             0x08007b81   Thumb Code   208  iec10x_debug.o(i.SIQ24T_parse)
    SIQ56T_parse                             0x08007cad   Thumb Code   224  iec10x_debug.o(i.SIQ56T_parse)
    SPI1_IRQHandler                          0x08007df1   Thumb Code    10  stm32f1xx_it.o(i.SPI1_IRQHandler)
    SPI_FLASH_BufferRead                     0x08008069   Thumb Code    80  bsp_spiflash.o(i.SPI_FLASH_BufferRead)
    SPI_FLASH_BufferWrite                    0x080080bd   Thumb Code   290  bsp_spiflash.o(i.SPI_FLASH_BufferWrite)
    SPI_FLASH_PageWrite                      0x080081e1   Thumb Code    96  bsp_spiflash.o(i.SPI_FLASH_PageWrite)
    SPI_FLASH_ReadID                         0x08008245   Thumb Code    78  bsp_spiflash.o(i.SPI_FLASH_ReadID)
    SPI_FLASH_SectorErase                    0x08008299   Thumb Code    66  bsp_spiflash.o(i.SPI_FLASH_SectorErase)
    SPI_FLASH_SendByte                       0x080082e1   Thumb Code    36  bsp_spiflash.o(i.SPI_FLASH_SendByte)
    SPI_FLASH_WaitForWriteEnd                0x08008309   Thumb Code    50  bsp_spiflash.o(i.SPI_FLASH_WaitForWriteEnd)
    SPI_FLASH_WriteEnable                    0x08008341   Thumb Code    30  bsp_spiflash.o(i.SPI_FLASH_WriteEnable)
    SPP_CMD                                  0x08008485   Thumb Code   166  speak_api.o(i.SPP_CMD)
    STD0T_pro                                0x0800853d   Thumb Code   258  iec10x_debug.o(i.STD0T_pro)
    STD24T_pro                               0x08008691   Thumb Code   294  iec10x_debug.o(i.STD24T_pro)
    STD56T_pro                               0x08008815   Thumb Code   326  iec10x_debug.o(i.STD56T_pro)
    StartDefaultTask                         0x080089c1   Thumb Code   238  freertos.o(i.StartDefaultTask)
    StartTask02                              0x08008ac9   Thumb Code    14  freertos.o(i.StartTask02)
    StartTask03                              0x08008ad7   Thumb Code    40  freertos.o(i.StartTask03)
    StartTask04                              0x08008aff   Thumb Code    20  freertos.o(i.StartTask04)
    StartTask05                              0x08008b13   Thumb Code    30  freertos.o(i.StartTask05)
    StartTask06                              0x08008b31   Thumb Code    26  freertos.o(i.StartTask06)
    StartTask07                              0x08008b55   Thumb Code    32  freertos.o(i.StartTask07)
    SysTick_Handler                          0x08008b75   Thumb Code    46  port.o(i.SysTick_Handler)
    SystemClock_Config                       0x08008ba9   Thumb Code   142  main.o(i.SystemClock_Config)
    SystemInit                               0x08008c37   Thumb Code     2  system_stm32f1xx.o(i.SystemInit)
    TIM4_IRQHandler                          0x08008c39   Thumb Code    10  stm32f1xx_it.o(i.TIM4_IRQHandler)
    TIM_Base_SetConfig                       0x08008c49   Thumb Code   134  stm32f1xx_hal_tim.o(i.TIM_Base_SetConfig)
    UART4_IRQHandler                         0x08008ce5   Thumb Code    14  stm32f1xx_it.o(i.UART4_IRQHandler)
    UART_Start_Receive_DMA                   0x080090e1   Thumb Code   186  stm32f1xx_hal_uart.o(i.UART_Start_Receive_DMA)
    USART1_IRQHandler                        0x0800929d   Thumb Code    14  stm32f1xx_it.o(i.USART1_IRQHandler)
    USART2_IRQHandler                        0x080092b1   Thumb Code    14  stm32f1xx_it.o(i.USART2_IRQHandler)
    USART3_IRQHandler                        0x080092c5   Thumb Code    14  stm32f1xx_it.o(i.USART3_IRQHandler)
    UsageFault_Handler                       0x080092d9   Thumb Code     4  stm32f1xx_it.o(i.UsageFault_Handler)
    W25Q_addr                                0x080092dd   Thumb Code    18  bsp_spiflash.o(i.W25Q_addr)
    __0printf                                0x080092f1   Thumb Code    22  printfa.o(i.__0printf)
    __1printf                                0x080092f1   Thumb Code     0  printfa.o(i.__0printf)
    __2printf                                0x080092f1   Thumb Code     0  printfa.o(i.__0printf)
    __c89printf                              0x080092f1   Thumb Code     0  printfa.o(i.__0printf)
    printf                                   0x080092f1   Thumb Code     0  printfa.o(i.__0printf)
    __0snprintf                              0x08009311   Thumb Code    44  printfa.o(i.__0snprintf)
    __1snprintf                              0x08009311   Thumb Code     0  printfa.o(i.__0snprintf)
    __2snprintf                              0x08009311   Thumb Code     0  printfa.o(i.__0snprintf)
    __c89snprintf                            0x08009311   Thumb Code     0  printfa.o(i.__0snprintf)
    snprintf                                 0x08009311   Thumb Code     0  printfa.o(i.__0snprintf)
    __0sprintf                               0x08009341   Thumb Code    34  printfa.o(i.__0sprintf)
    __1sprintf                               0x08009341   Thumb Code     0  printfa.o(i.__0sprintf)
    __2sprintf                               0x08009341   Thumb Code     0  printfa.o(i.__0sprintf)
    __c89sprintf                             0x08009341   Thumb Code     0  printfa.o(i.__0sprintf)
    sprintf                                  0x08009341   Thumb Code     0  printfa.o(i.__0sprintf)
    __read_errno                             0x080093a1   Thumb Code     6  errno.o(i.__read_errno)
    __scatterload_copy                       0x080093ad   Thumb Code    14  handlers.o(i.__scatterload_copy)
    __scatterload_null                       0x080093bb   Thumb Code     2  handlers.o(i.__scatterload_null)
    __scatterload_zeroinit                   0x080093bd   Thumb Code    14  handlers.o(i.__scatterload_zeroinit)
    __set_errno                              0x080093cd   Thumb Code     6  errno.o(i.__set_errno)
    _is_digit                                0x08009587   Thumb Code    14  scanf_fp.o(i._is_digit)
    add                                      0x08009ce3   Thumb Code    28  save_api.o(i.add)
    air_alarm_get                            0x08009dad   Thumb Code   178  data_get.o(i.air_alarm_get)
    air_alarm_page                           0x08009e75   Thumb Code   308  menu.o(i.air_alarm_page)
    air_init                                 0x08009fc1   Thumb Code    60  data_get.o(i.air_init)
    air_page_ui_process                      0x08009ffd   Thumb Code  2032  menu_ui.o(i.air_page_ui_process)
    air_send_da                              0x0800a7fd   Thumb Code    58  data_get.o(i.air_send_da)
    atof                                     0x0800a837   Thumb Code    42  atof.o(i.atof)
    avg_jisuan                               0x0800a861   Thumb Code    36  data_get.o(i.avg_jisuan)
    check_xiping                             0x0800ac01   Thumb Code    76  user_key.o(i.check_xiping)
    clust2sect                               0x0800ac6d   Thumb Code    26  ff.o(i.clust2sect)
    common_btn1_callback                     0x0800ad29   Thumb Code    46  user_key.o(i.common_btn1_callback)
    common_btn2_callback                     0x0800ad61   Thumb Code    46  user_key.o(i.common_btn2_callback)
    common_btn3_callback                     0x0800ad99   Thumb Code    46  user_key.o(i.common_btn3_callback)
    common_btn4_callback                     0x0800add1   Thumb Code    46  user_key.o(i.common_btn4_callback)
    common_btn5_callback                     0x0800ae09   Thumb Code    56  user_key.o(i.common_btn5_callback)
    common_btn6_callback                     0x0800ae49   Thumb Code    74  user_key.o(i.common_btn6_callback)
    common_btn7_callback                     0x0800ae9d   Thumb Code    68  user_key.o(i.common_btn7_callback)
    con_dev_casd                             0x0800af89   Thumb Code   112  user_iecx_use.o(i.con_dev_casd)
    cotLed_Ctrl                              0x0800b07d   Thumb Code   682  cot_led.o(i.cotLed_Ctrl)
    cotLed_Init                              0x0800b335   Thumb Code    44  cot_led.o(i.cotLed_Init)
    cotLed_OFF                               0x0800b369   Thumb Code    14  cot_led.o(i.cotLed_OFF)
    cotLed_ON                                0x0800b377   Thumb Code    14  cot_led.o(i.cotLed_ON)
    cotLed_SetState                          0x0800b385   Thumb Code   184  cot_led.o(i.cotLed_SetState)
    cotLed_Twinkle                           0x0800b445   Thumb Code   174  cot_led.o(i.cotLed_Twinkle)
    cotLed_Waterfall                         0x0800b4fd   Thumb Code   364  cot_led.o(i.cotLed_Waterfall)
    data_get_stip                            0x0800b9b9   Thumb Code   524  data_get.o(i.data_get_stip)
    data_save_in_SD                          0x0800bc0d   Thumb Code  2620  memory_data.o(i.data_save_in_SD)
    delay_ms                                 0x0800c693   Thumb Code    12  lcd_init.o(i.delay_ms)
    dev_config_page_process                  0x0800c6a1   Thumb Code   398  menu.o(i.dev_config_page_process)
    dev_config_page_ui_process               0x0800c849   Thumb Code  1998  menu_ui.o(i.dev_config_page_ui_process)
    dev_open_con                             0x0800d021   Thumb Code   158  power_con.o(i.dev_open_con)
    disk_initialize                          0x0800d53b   Thumb Code    42  diskio.o(i.disk_initialize)
    disk_ioctl                               0x0800d565   Thumb Code   102  diskio.o(i.disk_ioctl)
    disk_read                                0x0800d5d1   Thumb Code    86  diskio.o(i.disk_read)
    disk_status                              0x0800d627   Thumb Code    28  diskio.o(i.disk_status)
    disk_write                               0x0800d643   Thumb Code    92  diskio.o(i.disk_write)
    f_close                                  0x0800d6f1   Thumb Code    32  ff.o(i.f_close)
    f_getfree                                0x0800d711   Thumb Code   258  ff.o(i.f_getfree)
    f_lseek                                  0x0800d813   Thumb Code   410  ff.o(i.f_lseek)
    f_mkfs                                   0x0800d9ad   Thumb Code  1622  ff.o(i.f_mkfs)
    f_mount                                  0x0800e031   Thumb Code    86  ff.o(i.f_mount)
    f_open                                   0x0800e08d   Thumb Code   382  ff.o(i.f_open)
    f_read                                   0x0800e20b   Thumb Code   464  ff.o(i.f_read)
    f_sync                                   0x0800e3db   Thumb Code   176  ff.o(i.f_sync)
    f_write                                  0x0800e48b   Thumb Code   524  ff.o(i.f_write)
    ff_convert                               0x0800e699   Thumb Code   116  cc936.o(i.ff_convert)
    ff_wtoupper                              0x0800e715   Thumb Code    84  cc936.o(i.ff_wtoupper)
    flex_button_event_read                   0x0800ebc9   Thumb Code    10  flexible_button.o(i.flex_button_event_read)
    flex_button_register                     0x0800ee75   Thumb Code   116  flexible_button.o(i.flex_button_register)
    flex_button_scan                         0x0800eef5   Thumb Code    12  flexible_button.o(i.flex_button_scan)
    fml_led_init                             0x0800ef01   Thumb Code    68  led_user.o(i.fml_led_init)
    fputc                                    0x0800efd9   Thumb Code    22  main.o(i.fputc)
    gas_data_get                             0x0800eff5   Thumb Code   226  data_get.o(i.gas_data_get)
    gas_data_pre                             0x0800f0f1   Thumb Code    72  data_get.o(i.gas_data_pre)
    get_ONE_Point                            0x0800f20d   Thumb Code    26  user_iecx_use.o(i.get_ONE_Point)
    get_S_FLOAT                              0x0800f245   Thumb Code    26  user_iecx_use.o(i.get_S_FLOAT)
    get_fat                                  0x0800f27d   Thumb Code   318  ff.o(i.get_fat)
    get_fattime                              0x0800f3bd   Thumb Code     4  diskio.o(i.get_fattime)
    get_net_data                             0x0800f411   Thumb Code    60  data_get.o(i.get_net_data)
    iec101_bus_init                          0x0800f455   Thumb Code   404  iec10x.o(i.iec101_bus_init)
    iec101_connected                         0x0800f601   Thumb Code    66  iec101_link.o(i.iec101_connected)
    iec101_disconnect                        0x0800f665   Thumb Code    56  iec101_link.o(i.iec101_disconnect)
    iec101_packet_parser                     0x0800f91d   Thumb Code    56  iec10x_debug.o(i.iec101_packet_parser)
    iec101_protocol_recv                     0x0800f955   Thumb Code   372  iec101_link.o(i.iec101_protocol_recv)
    iec101_protocol_send                     0x0800fae9   Thumb Code   310  iec101_link.o(i.iec101_protocol_send)
    iec101_shortpkt                          0x0800fc25   Thumb Code    16  iec101_link.o(i.iec101_shortpkt)
    iec101mst_conncet                        0x0800fd9d   Thumb Code    78  iec101_link.o(i.iec101mst_conncet)
    iec101mst_period                         0x0800fe95   Thumb Code     2  iec10x_period.o(i.iec101mst_period)
    iec101slv_balance_period                 0x0800fe99   Thumb Code   298  iec10x_period.o(i.iec101slv_balance_period)
    iec101slv_unbalance_period               0x080101d1   Thumb Code    88  iec10x_period.o(i.iec101slv_unbalance_period)
    iec104_disconnect                        0x08010249   Thumb Code    46  iec104_link.o(i.iec104_disconnect)
    iec104_heartbeat                         0x08010279   Thumb Code    36  iec104_link.o(i.iec104_heartbeat)
    iec104_packet_parser                     0x0801032d   Thumb Code    94  iec10x_debug.o(i.iec104_packet_parser)
    iec104_protocol_recv                     0x08010471   Thumb Code   224  iec104_link.o(i.iec104_protocol_recv)
    iec104_protocol_send                     0x08010575   Thumb Code   232  iec104_link.o(i.iec104_protocol_send)
    iec104mst_period                         0x080107e9   Thumb Code     2  iec10x_period.o(i.iec104mst_period)
    iec104slv_period                         0x08010989   Thumb Code   288  iec10x_period.o(i.iec104slv_period)
    iec10x_devif_register                    0x08010be5   Thumb Code    58  iec10x.o(i.iec10x_devif_register)
    iec10x_event_deinit                      0x08010c49   Thumb Code    74  iec10x_event.o(i.iec10x_event_deinit)
    iec10x_parser_init                       0x08010c95   Thumb Code    54  iec10x_debug.o(i.iec10x_parser_init)
    iec10x_periodic_handle                   0x08010cf5   Thumb Code    48  iec10x.o(i.iec10x_periodic_handle)
    iec10x_protocol_init                     0x08010d31   Thumb Code    38  iec10x.o(i.iec10x_protocol_init)
    iec10x_recv                              0x08010d69   Thumb Code    42  iec10x.o(i.iec10x_recv)
    iec10x_summon_respond                    0x08010dad   Thumb Code    30  iec10x_telesgnl.o(i.iec10x_summon_respond)
    iec10x_telectrl_respond                  0x08010dcb   Thumb Code    30  iec10x_telectrl.o(i.iec10x_telectrl_respond)
    iec10x_type_listen                       0x08010de9   Thumb Code    52  iec10x.o(i.iec10x_type_listen)
    iec10xmst_event_pro                      0x08010e5d   Thumb Code    42  iec10x_event.o(i.iec10xmst_event_pro)
    iec10xslv_event                          0x08010f19   Thumb Code   120  iec10x_event.o(i.iec10xslv_event)
    iec10xslv_event_pro                      0x08010fc9   Thumb Code   388  iec10x_event.o(i.iec10xslv_event_pro)
    iec10xslv_peridic_summon                 0x0801114d   Thumb Code    78  iec10x_telesgnl.o(i.iec10xslv_peridic_summon)
    iec10xslv_summon_add                     0x080111a1   Thumb Code   160  iec10x_telesgnl.o(i.iec10xslv_summon_add)
    iec_devif_find                           0x08011a71   Thumb Code    42  devif.o(i.iec_devif_find)
    iec_devif_register                       0x08011ad5   Thumb Code    80  devif.o(i.iec_devif_register)
    iec_free                                 0x08011b29   Thumb Code   122  heap.o(i.iec_free)
    iec_malloc                               0x08011bcd   Thumb Code   190  heap.o(i.iec_malloc)
    init_dtu_port                            0x08011c9d   Thumb Code    64  usart_api_1.o(i.init_dtu_port)
    init_gas_port                            0x08011ce5   Thumb Code    64  usart_api_1.o(i.init_gas_port)
    init_spp_port                            0x08011d35   Thumb Code    64  usart_api_1.o(i.init_spp_port)
    init_up_port                             0x08011d7d   Thumb Code    64  usart_api_1.o(i.init_up_port)
    lcd_test                                 0x08011dc5   Thumb Code    60  lcd.o(i.lcd_test)
    led_con                                  0x08011e29   Thumb Code   216  led_user.o(i.led_con)
    main                                     0x0801204d   Thumb Code    84  main.o(i.main)
    main_page_process                        0x080120a1   Thumb Code   220  menu.o(i.main_page_process)
    main_page_ui_process                     0x0801218d   Thumb Code  3952  menu_ui.o(i.main_page_ui_process)
    my_Upper_computer_analysis               0x080131a9   Thumb Code   262  usart_api_1.o(i.my_Upper_computer_analysis)
    my_Upper_computer_send                   0x080132bd   Thumb Code   520  usart_api_1.o(i.my_Upper_computer_send)
    mypow                                    0x080134d1   Thumb Code    22  lcd.o(i.mypow)
    near_alarm_page_process                  0x080134e9   Thumb Code    26  menu.o(i.near_alarm_page_process)
    net_play_music                           0x08013509   Thumb Code    46  data_get.o(i.net_play_music)
    now_alarm_page                           0x08013541   Thumb Code   212  menu.o(i.now_alarm_page)
    now_alarm_page_ui_process                0x0801362d   Thumb Code   412  menu_ui.o(i.now_alarm_page_ui_process)
    old_alarm_page_process                   0x080137d9   Thumb Code   922  menu.o(i.old_alarm_page_process)
    old_alarm_page_ui_process                0x08013bd5   Thumb Code   828  menu_ui.o(i.old_alarm_page_ui_process)
    osDelay                                  0x08013f41   Thumb Code    24  cmsis_os.o(i.osDelay)
    osKernelStart                            0x08013f59   Thumb Code    10  cmsis_os.o(i.osKernelStart)
    osThreadCreate                           0x08013f63   Thumb Code    94  cmsis_os.o(i.osThreadCreate)
    out_alarm_page_process                   0x08013fc1   Thumb Code    26  menu.o(i.out_alarm_page_process)
    out_alarm_ui_process                     0x08013fe1   Thumb Code    34  menu_ui.o(i.out_alarm_ui_process)
    parameter_init                           0x08014091   Thumb Code   182  save_api.o(i.parameter_init)
    put_fat                                  0x080145c5   Thumb Code   392  ff.o(i.put_fat)
    pvPortMalloc                             0x0801474d   Thumb Code   296  heap_4.o(i.pvPortMalloc)
    pxPortInitialiseStack                    0x08014889   Thumb Code    30  port.o(i.pxPortInitialiseStack)
    read_ONE_Point                           0x080148ad   Thumb Code    32  user_iecx_use.o(i.read_ONE_Point)
    read_S_FLOAT                             0x080148f1   Thumb Code    34  user_iecx_use.o(i.read_S_FLOAT)
    set_time                                 0x080149a5   Thumb Code   100  data_get.o(i.set_time)
    show_alarm_biao                          0x08014a0d   Thumb Code   222  menu_ui.o(i.show_alarm_biao)
    speak_page                               0x08014b59   Thumb Code   442  menu.o(i.speak_page)
    speak_page_ui_process                    0x08014d39   Thumb Code  1188  menu_ui.o(i.speak_page_ui_process)
    spi_tx_rx_stip                           0x080151e1   Thumb Code   428  save_api.o(i.spi_tx_rx_stip)
    spp_work_stip                            0x080153b1   Thumb Code   558  speak_api.o(i.spp_work_stip)
    synchronize_respond                      0x080157f9   Thumb Code    64  iec10x_sync.o(i.synchronize_respond)
    terminal_gather                          0x0801585d   Thumb Code  2882  save_api.o(i.terminal_gather)
    time_set                                 0x080163c1   Thumb Code   290  user_iecx_use.o(i.time_set)
    uart_check_sum                           0x08016585   Thumb Code    72  usart_api_1.o(i.uart_check_sum)
    uart_dtu_send                            0x080165cd   Thumb Code    20  usart_api_1.o(i.uart_dtu_send)
    uart_gas_port_recv_dma                   0x080165e5   Thumb Code   118  usart_api_1.o(i.uart_gas_port_recv_dma)
    uart_gas_send                            0x08016665   Thumb Code    20  usart_api_1.o(i.uart_gas_send)
    uart_net_port_recv_dma                   0x0801667d   Thumb Code   154  usart_api_1.o(i.uart_net_port_recv_dma)
    uart_spp_port_recv_dma                   0x08016729   Thumb Code   112  usart_api_1.o(i.uart_spp_port_recv_dma)
    uart_spp_send                            0x080167a1   Thumb Code    20  usart_api_1.o(i.uart_spp_send)
    uart_up_port_recv_dma                    0x080167b9   Thumb Code   214  usart_api_1.o(i.uart_up_port_recv_dma)
    uart_up_send                             0x08016899   Thumb Code    20  usart_api_1.o(i.uart_up_send)
    user_bus_init                            0x08016a91   Thumb Code    86  user_iecx_use.o(i.user_bus_init)
    user_button_init                         0x08016af5   Thumb Code   148  user_key.o(i.user_button_init)
    user_dtu_recv_callback                   0x08016b95   Thumb Code   312  usart_api_1.o(i.user_dtu_recv_callback)
    user_event_crea                          0x08016cd1   Thumb Code   322  user_iecx_use.o(i.user_event_crea)
    user_gas_recv_callback                   0x08016e59   Thumb Code   168  usart_api_1.o(i.user_gas_recv_callback)
    user_get_ms_time                         0x08016f05   Thumb Code    98  user_iecx_use.o(i.user_get_ms_time)
    user_init                                0x08016f71   Thumb Code    90  user_iecx_use.o(i.user_init)
    user_music_ctrl                          0x08016fe5   Thumb Code   558  data_get.o(i.user_music_ctrl)
    user_music_play_con                      0x08017261   Thumb Code   310  data_get.o(i.user_music_play_con)
    uxListRemove                             0x080173a5   Thumb Code    40  list.o(i.uxListRemove)
    vApplicationGetIdleTaskMemory            0x080173cd   Thumb Code    14  freertos.o(i.vApplicationGetIdleTaskMemory)
    vApplicationStackOverflowHook            0x080173e5   Thumb Code    22  freertos.o(i.vApplicationStackOverflowHook)
    vListInitialise                          0x08017421   Thumb Code    26  list.o(i.vListInitialise)
    vListInitialiseItem                      0x0801743b   Thumb Code     6  list.o(i.vListInitialiseItem)
    vListInsert                              0x08017441   Thumb Code    52  list.o(i.vListInsert)
    vListInsertEnd                           0x08017475   Thumb Code    24  list.o(i.vListInsertEnd)
    vPortEnterCritical                       0x0801748d   Thumb Code    76  port.o(i.vPortEnterCritical)
    vPortExitCritical                        0x080174e1   Thumb Code    56  port.o(i.vPortExitCritical)
    vPortFree                                0x0801751d   Thumb Code   140  heap_4.o(i.vPortFree)
    vPortSetupTimerInterrupt                 0x080175b1   Thumb Code    36  port.o(i.vPortSetupTimerInterrupt)
    vTaskDelay                               0x080175d9   Thumb Code    82  tasks.o(i.vTaskDelay)
    vTaskStartScheduler                      0x08017635   Thumb Code   146  tasks.o(i.vTaskStartScheduler)
    vTaskSuspendAll                          0x080176e5   Thumb Code    12  tasks.o(i.vTaskSuspendAll)
    vTaskSwitchContext                       0x080176f5   Thumb Code   148  tasks.o(i.vTaskSwitchContext)
    verify_signature                         0x080177d1   Thumb Code   214  save_api.o(i.verify_signature)
    weixing_page_process                     0x080178bd   Thumb Code    66  menu.o(i.weixing_page_process)
    weixing_page_ui_process                  0x0801790d   Thumb Code   498  menu_ui.o(i.weixing_page_ui_process)
    xPortStartScheduler                      0x08017b55   Thumb Code   228  port.o(i.xPortStartScheduler)
    xTaskCreate                              0x08017c4d   Thumb Code   100  tasks.o(i.xTaskCreate)
    xTaskCreateStatic                        0x08017cb1   Thumb Code   184  tasks.o(i.xTaskCreateStatic)
    xTaskIncrementTick                       0x08017d69   Thumb Code   282  tasks.o(i.xTaskIncrementTick)
    xTaskResumeAll                           0x08017eb1   Thumb Code   224  tasks.o(i.xTaskResumeAll)
    xoren                                    0x08017fb5   Thumb Code    28  save_api.o(i.xoren)
    AHBPrescTable                            0x080180b8   Data          16  system_stm32f1xx.o(.constdata)
    APBPrescTable                            0x080180c8   Data           8  system_stm32f1xx.o(.constdata)
    ascii_1206                               0x080180d0   Data        1140  lcd.o(.constdata)
    ascii_1608                               0x08018544   Data        1520  lcd.o(.constdata)
    ascii_2412                               0x08018b34   Data        4560  lcd.o(.constdata)
    ascii_3216                               0x08019d04   Data        6080  lcd.o(.constdata)
    tfont12                                  0x0801b4c4   Data         208  lcd.o(.constdata)
    tfont16                                  0x0801b594   Data         952  lcd.o(.constdata)
    tfont24                                  0x0801b94c   Data        5402  lcd.o(.constdata)
    tfont32                                  0x0801ce66   Data        2080  lcd.o(.constdata)
    iec_tysize                               0x0801d686   Data         128  devif.o(.constdata)
    mstfncode                                0x0801d790   Data          48  str.o(.constdata)
    slvfncode                                0x0801d7c0   Data          48  str.o(.constdata)
    COTinfo                                  0x0801d7f0   Data         192  str.o(.constdata)
    ASDUTYPinfo                              0x0801d8b0   Data         508  str.o(.constdata)
    weekday_list                             0x0801daac   Data          32  str.o(.constdata)
    DPIinfo                                  0x0801dacc   Data          16  str.o(.constdata)
    SPIinfo                                  0x0801dadc   Data           8  str.o(.constdata)
    BLinfo                                   0x0801dae4   Data           8  str.o(.constdata)
    SBinfo                                   0x0801daec   Data           8  str.o(.constdata)
    NTinfo                                   0x0801daf4   Data           8  str.o(.constdata)
    IVinfo                                   0x0801dafc   Data           8  str.o(.constdata)
    OVinfo                                   0x0801db04   Data           8  str.o(.constdata)
    BSIinfo                                  0x0801db0c   Data           8  str.o(.constdata)
    EIinfo                                   0x0801db14   Data           8  str.o(.constdata)
    SL1info                                  0x0801db1c   Data           8  str.o(.constdata)
    SL2info                                  0x0801db24   Data           8  str.o(.constdata)
    SL3info                                  0x0801db2c   Data           8  str.o(.constdata)
    GSinfo                                   0x0801db34   Data           8  str.o(.constdata)
    SIEinfo                                  0x0801db3c   Data           8  str.o(.constdata)
    SRDinfo                                  0x0801db44   Data           8  str.o(.constdata)
    GCinfo                                   0x0801db4c   Data           8  str.o(.constdata)
    CL1info                                  0x0801db54   Data           8  str.o(.constdata)
    CL2info                                  0x0801db5c   Data           8  str.o(.constdata)
    CL3info                                  0x0801db64   Data           8  str.o(.constdata)
    CAinfo                                   0x0801db6c   Data           8  str.o(.constdata)
    CYinfo                                   0x0801db74   Data           8  str.o(.constdata)
    __ctype_categories                       0x08048ca0   Data          64  ctype_c.o(.constdata)
    Region$$Table$$Base                      0x08049f78   Number         0  anon$$obj.o(Region$$Table)
    Region$$Table$$Limit                     0x08049f98   Number         0  anon$$obj.o(Region$$Table)
    myTask05Handle                           0x20000000   Data           4  freertos.o(.data)
    myTask06Handle                           0x20000004   Data           4  freertos.o(.data)
    myTask07Handle                           0x20000008   Data           4  freertos.o(.data)
    defaultTaskHandle                        0x2000000c   Data           4  freertos.o(.data)
    myTask02Handle                           0x20000010   Data           4  freertos.o(.data)
    myTask03Handle                           0x20000014   Data           4  freertos.o(.data)
    myTask04Handle                           0x20000018   Data           4  freertos.o(.data)
    flash_id                                 0x2000001c   Data           4  freertos.o(.data)
    a                                        0x20000020   Data           1  freertos.o(.data)
    uwTick                                   0x20000024   Data           4  stm32f1xx_hal.o(.data)
    uwTickPrio                               0x20000028   Data           4  stm32f1xx_hal.o(.data)
    uwTickFreq                               0x2000002c   Data           1  stm32f1xx_hal.o(.data)
    SystemCoreClock                          0x20000030   Data           4  system_stm32f1xx.o(.data)
    pxCurrentTCB                             0x20000034   Data           4  tasks.o(.data)
    SD_Type                                  0x20000094   Data           1  sd.o(.data)
    iec_timestamp                            0x200000b8   Data           4  iec10x.o(.data)
    aaaaasdfawe                              0x200000d4   Data           1  iec10x_telesgnl.o(.data)
    alarm_map_index                          0x200000d8   Data          20  user_iecx_use.o(.data)
    alarm_map                                0x200000ec   Data           5  user_iecx_use.o(.data)
    get_map_index                            0x200000f4   Data           8  user_iecx_use.o(.data)
    get_map                                  0x200000fc   Data           8  user_iecx_use.o(.data)
    ctrl_map_index                           0x20000104   Data           4  user_iecx_use.o(.data)
    ctrl_map                                 0x20000108   Data           4  user_iecx_use.o(.data)
    cp56time2a                               0x20000110   Data           8  user_iecx_use.o(.data)
    sasdasdTime                              0x20000118   Data           3  user_iecx_use.o(.data)
    sys_time                                 0x20000120   Data           8  user_iecx_use.o(.data)
    old_sos_alarm                            0x20000128   Data           1  user_iecx_use.o(.data)
    old_air_alarm                            0x20000129   Data           1  user_iecx_use.o(.data)
    old_soc_alarm                            0x2000012a   Data           1  user_iecx_use.o(.data)
    old_out_alarm                            0x2000012b   Data           1  user_iecx_use.o(.data)
    old_ele_alarm                            0x2000012c   Data           1  user_iecx_use.o(.data)
    old_jingdu                               0x20000130   Data           4  user_iecx_use.o(.data)
    old_weidu                                0x20000134   Data           4  user_iecx_use.o(.data)
    spp_time                                 0x20000138   Data           4  speak_api.o(.data)
    work_res                                 0x2000013c   Data           1  speak_api.o(.data)
    tx_buf_HAND                              0x2000013d   Data          16  speak_api.o(.data)
    tx_buf_RSSI                              0x2000014d   Data          11  speak_api.o(.data)
    tx_buf_FILTER                            0x20000158   Data          21  speak_api.o(.data)
    tx_buf_VOLUE                             0x2000016d   Data          20  speak_api.o(.data)
    tx_buf_GROUP                             0x20000181   Data          43  speak_api.o(.data)
    tx_buf_SCANRF                            0x200001ac   Data          12  speak_api.o(.data)
    USER_KEY_VALUE                           0x200001c8   Data           1  menu.o(.data)
    first_enter                              0x20000224   Data           1  menu.o(.data)
    deta_flash                               0x20000228   Data           4  menu.o(.data)
    readcount                                0x2000022c   Data           1  menu.o(.data)
    resee_sd                                 0x2000022d   Data           1  menu.o(.data)
    read_fnum                                0x20000230   Data           4  menu.o(.data)
    asf                                      0x20000234   Data           1  menu.o(.data)
    spp_data                                 0x20000238   Data           4  menu.o(.data)
    old_alarm_index                          0x2000023c   Data           1  menu_ui.o(.data)
    data_read_stip                           0x20000240   Data           1  data_get.o(.data)
    adc_num                                  0x20000241   Data           1  data_get.o(.data)
    base_data                                0x20000244   Data           4  data_get.o(.data)
    air_run_ss                               0x20000248   Data           1  data_get.o(.data)
    air_alarm_time                           0x2000024c   Data           4  data_get.o(.data)
    first_alarm_in                           0x20000250   Data           1  data_get.o(.data)
    air_get_time                             0x20000254   Data           4  data_get.o(.data)
    air_wait_time                            0x20000258   Data           4  data_get.o(.data)
    air_test_time                            0x2000025c   Data           1  data_get.o(.data)
    air_run_stip                             0x2000025d   Data           1  data_get.o(.data)
    aaa                                      0x20000260   Data           4  data_get.o(.data)
    assa                                     0x20000264   Data          11  data_get.o(.data)
    music_buff                               0x2000026f   Data          11  data_get.o(.data)
    music_play_count_time                    0x2000027c   Data           4  data_get.o(.data)
    music_play_count                         0x20000280   Data           1  data_get.o(.data)
    user_old_alarm_near                      0x20000281   Data           1  data_get.o(.data)
    user_old_alarm_air                       0x20000282   Data           1  data_get.o(.data)
    user_old_alarm_soc                       0x20000283   Data           1  data_get.o(.data)
    user_old_alarm_sos                       0x20000284   Data           1  data_get.o(.data)
    user_old_alarm_out                       0x20000285   Data           1  data_get.o(.data)
    DARA_RUN_FALG_time                       0x20000288   Data           4  data_get.o(.data)
    spi_send_time                            0x2000028c   Data           4  save_api.o(.data)
    cnt                                      0x20000290   Data           1  save_api.o(.data)
    asdaawd                                  0x20000291   Data           1  save_api.o(.data)
    lenght                                   0x20000292   Data           2  save_api.o(.data)
    spi_data_machine                         0x20000294   Data           1  save_api.o(.data)
    Message_type                             0x20000295   Data           2  save_api.o(.data)
    led                                      0x200002a4   Data           8  led_user.o(.data)
    ALARM                                    0x200002ac   Data           4  led_user.o(.data)
    old_soc                                  0x200002b0   Data           1  led_user.o(.data)
    charge_con                               0x200002b1   Data           1  led_user.o(.data)
    g_logic_level                            0x20000338   Data           4  flexible_button.o(.data)
    g_btn_status_reg                         0x2000033c   Data           4  flexible_button.o(.data)
    res_sd                                   0x2000034c   Data           1  memory_data.o(.data)
    air_fnum                                 0x20000350   Data           4  memory_data.o(.data)
    AIR_SAVE_DATA_FLAG                       0x20000354   Data           1  memory_data.o(.data)
    NEAR_SAVE_DATA_FLAG                      0x20000355   Data           1  memory_data.o(.data)
    OUT_SAVE_DATA_FLAG                       0x20000356   Data           1  memory_data.o(.data)
    SOS_SAVE_DATA_FLAG                       0x20000357   Data           1  memory_data.o(.data)
    RE_AIR_SAVE_DATA_FLAG                    0x20000358   Data           1  memory_data.o(.data)
    RE_NEAR_SAVE_DATA_FLAG                   0x20000359   Data           1  memory_data.o(.data)
    RE_OUT_SAVE_DATA_FLAG                    0x2000035a   Data           1  memory_data.o(.data)
    RE_SOS_SAVE_DATA_FLAG                    0x2000035b   Data           1  memory_data.o(.data)
    DATA_RUN_FLAG                            0x2000035c   Data           1  memory_data.o(.data)
    fre_clust                                0x20000360   Data           4  memory_data.o(.data)
    fre_sect                                 0x20000364   Data           4  memory_data.o(.data)
    tot_sect                                 0x20000368   Data           4  memory_data.o(.data)
    save_flag                                0x2000036c   Data           4  memory_data.o(.data)
    __stdout                                 0x20000370   Data           4  stdout.o(.data)
    hadc1                                    0x200005cc   Data          48  adc.o(.bss)
    hi2c1                                    0x200005fc   Data          84  i2c.o(.bss)
    hrtc                                     0x20000650   Data          20  rtc.o(.bss)
    hspi1                                    0x20000664   Data          88  spi.o(.bss)
    hspi3                                    0x200006bc   Data          88  spi.o(.bss)
    huart4                                   0x20000714   Data          72  usart.o(.bss)
    huart1                                   0x2000075c   Data          72  usart.o(.bss)
    huart2                                   0x200007a4   Data          72  usart.o(.bss)
    huart3                                   0x200007ec   Data          72  usart.o(.bss)
    hdma_uart4_rx                            0x20000834   Data          68  usart.o(.bss)
    hdma_usart1_rx                           0x20000878   Data          68  usart.o(.bss)
    hdma_usart2_rx                           0x200008bc   Data          68  usart.o(.bss)
    hdma_usart3_rx                           0x20000900   Data          68  usart.o(.bss)
    htim4                                    0x20000944   Data          72  stm32f1xx_hal_timebase_tim.o(.bss)
    SDCardInfo                               0x20004680   Data          88  sd.o(.bss)
    lnhashmap                                0x20005ad8   Data        1020  iec10x.o(.bss)
    demobus                                  0x20005fd4   Data         688  user_iecx_use.o(.bss)
    user_rtc_count                           0x20006284   Data          12  user_iecx_use.o(.bss)
    user_spp_config                          0x20006290   Data          32  speak_api.o(.bss)
    sub_index                                0x200062b0   Data          12  menu.o(.bss)
    fr8ad                                    0x200062bc   Data        4132  menu.o(.bss)
    old_alarm_air_disp_buff                  0x200072e0   Data         312  menu_ui.o(.bss)
    old_alarm_near_disp_buff                 0x20007418   Data         124  menu_ui.o(.bss)
    old_alarm_out_disp_buff                  0x20007494   Data         124  menu_ui.o(.bss)
    old_alarm_sos_disp_buff                  0x20007510   Data         120  menu_ui.o(.bss)
    user_base_data                           0x20007588   Data          32  data_get.o(.bss)
    user_net_data                            0x200075a8   Data          56  data_get.o(.bss)
    temp_tu_data                             0x200075e0   Data         200  data_get.o(.bss)
    temp_tu_data1                            0x200076a8   Data         200  data_get.o(.bss)
    temp_tu_data2                            0x20007770   Data         200  data_get.o(.bss)
    temp_tu_data3                            0x20007838   Data         200  data_get.o(.bss)
    temp_tu_data4                            0x20007900   Data         200  data_get.o(.bss)
    ADC_Value                                0x200079c8   Data          10  data_get.o(.bss)
    adc_ture                                 0x200079d4   Data          16  data_get.o(.bss)
    user_air_config                          0x200079e4   Data          16  data_get.o(.bss)
    user_alarm_config                        0x200079f4   Data          32  data_get.o(.bss)
    user_alarm_data                          0x20007a14   Data          31  data_get.o(.bss)
    user_music_play                          0x20007a34   Data         168  data_get.o(.bss)
    gas_                                     0x20007adc   Data        1030  usart_api_1.o(.bss)
    dtu_                                     0x20007ee2   Data        1030  usart_api_1.o(.bss)
    spp_                                     0x200082e8   Data        1030  usart_api_1.o(.bss)
    up_                                      0x200086ee   Data        1030  usart_api_1.o(.bss)
    frame_gas_                               0x20008af4   Data        1030  usart_api_1.o(.bss)
    frame_dtu_                               0x20008efa   Data        1030  usart_api_1.o(.bss)
    frame_up_                                0x20009300   Data        1030  usart_api_1.o(.bss)
    send_buff                                0x20009706   Data          20  usart_api_1.o(.bss)
    Certification                            0x2000971c   Data        6480  usart_api_1.o(.bss)
    spi_rx_data                              0x2000b06c   Data        1500  save_api.o(.bss)
    send_buff_t                              0x2000b648   Data        1024  save_api.o(.bss)
    sends_buff                               0x2000ba48   Data          20  save_api.o(.bss)
    fs                                       0x2000bb20   Data        4144  memory_data.o(.bss)
    fair                                     0x2000cb50   Data        4132  memory_data.o(.bss)
    save_alarm_buff                          0x2000db74   Data         128  memory_data.o(.bss)
    __initial_sp                             0x2000e020   Data           0  startup_stm32f103xe.o(STACK)



==============================================================================

Memory Map of the image

  Image Entry point : 0x08000131

  Load Region LR_IROM1 (Base: 0x08000000, Size: 0x0004a310, Max: 0x00080000, ABSOLUTE, COMPRESSED[0x0004a0a4])

    Execution Region ER_IROM1 (Exec base: 0x08000000, Load base: 0x08000000, Size: 0x00049f98, Max: 0x00080000, ABSOLUTE)

    Exec Addr    Load Addr    Size         Type   Attr      Idx    E Section Name        Object

    0x08000000   0x08000000   0x00000130   Data   RO            3    RESET               startup_stm32f103xe.o
    0x08000130   0x08000130   0x00000000   Code   RO         9067  * .ARM.Collect$$$$00000000  mc_w.l(entry.o)
    0x08000130   0x08000130   0x00000004   Code   RO         9375    .ARM.Collect$$$$00000001  mc_w.l(entry2.o)
    0x08000134   0x08000134   0x00000004   Code   RO         9378    .ARM.Collect$$$$00000004  mc_w.l(entry5.o)
    0x08000138   0x08000138   0x00000000   Code   RO         9380    .ARM.Collect$$$$00000008  mc_w.l(entry7b.o)
    0x08000138   0x08000138   0x00000000   Code   RO         9382    .ARM.Collect$$$$0000000A  mc_w.l(entry8b.o)
    0x08000138   0x08000138   0x00000008   Code   RO         9383    .ARM.Collect$$$$0000000B  mc_w.l(entry9a.o)
    0x08000140   0x08000140   0x00000000   Code   RO         9385    .ARM.Collect$$$$0000000D  mc_w.l(entry10a.o)
    0x08000140   0x08000140   0x00000000   Code   RO         9387    .ARM.Collect$$$$0000000F  mc_w.l(entry11a.o)
    0x08000140   0x08000140   0x00000004   Code   RO         9376    .ARM.Collect$$$$00002712  mc_w.l(entry2.o)
    0x08000144   0x08000144   0x00000096   Code   RO         6035    .emb_text           port.o
    0x080001da   0x080001da   0x00000002   PAD
    0x080001dc   0x080001dc   0x00000024   Code   RO            4    .text               startup_stm32f103xe.o
    0x08000200   0x08000200   0x00000062   Code   RO         9070    .text               mc_w.l(uldiv.o)
    0x08000262   0x08000262   0x00000020   Code   RO         9072    .text               mc_w.l(llushr.o)
    0x08000282   0x08000282   0x00000002   PAD
    0x08000284   0x08000284   0x00000094   Code   RO         9074    .text               mc_w.l(localtime.o)
    0x08000318   0x08000318   0x00000024   Code   RO         9078    .text               mc_w.l(memcpya.o)
    0x0800033c   0x0800033c   0x00000024   Code   RO         9082    .text               mc_w.l(memseta.o)
    0x08000360   0x08000360   0x0000000e   Code   RO         9084    .text               mc_w.l(strlen.o)
    0x0800036e   0x0800036e   0x000000b0   Code   RO         9349    .text               mf_w.l(fadd.o)
    0x0800041e   0x0800041e   0x00000064   Code   RO         9351    .text               mf_w.l(fmul.o)
    0x08000482   0x08000482   0x0000007c   Code   RO         9353    .text               mf_w.l(fdiv.o)
    0x080004fe   0x080004fe   0x000000e4   Code   RO         9355    .text               mf_w.l(dmul.o)
    0x080005e2   0x080005e2   0x00000012   Code   RO         9357    .text               mf_w.l(fflti.o)
    0x080005f4   0x080005f4   0x0000000a   Code   RO         9359    .text               mf_w.l(ffltui.o)
    0x080005fe   0x080005fe   0x00000022   Code   RO         9361    .text               mf_w.l(dflti.o)
    0x08000620   0x08000620   0x00000028   Code   RO         9363    .text               mf_w.l(ffixui.o)
    0x08000648   0x08000648   0x00000032   Code   RO         9365    .text               mf_w.l(dfixui.o)
    0x0800067a   0x0800067a   0x00000026   Code   RO         9367    .text               mf_w.l(f2d.o)
    0x080006a0   0x080006a0   0x00000038   Code   RO         9369    .text               mf_w.l(d2f.o)
    0x080006d8   0x080006d8   0x00000014   Code   RO         9371    .text               mf_w.l(cfcmple.o)
    0x080006ec   0x080006ec   0x00000014   Code   RO         9373    .text               mf_w.l(cfrcmple.o)
    0x08000700   0x08000700   0x0000002c   Code   RO         9390    .text               mc_w.l(uidiv.o)
    0x0800072c   0x0800072c   0x0000001e   Code   RO         9392    .text               mc_w.l(llshl.o)
    0x0800074a   0x0800074a   0x00000002   PAD
    0x0800074c   0x0800074c   0x0000009c   Code   RO         9401    .text               mc_w.l(strtod.o)
    0x080007e8   0x080007e8   0x00000000   Code   RO         9403    .text               mc_w.l(iusefp.o)
    0x080007e8   0x080007e8   0x0000006e   Code   RO         9404    .text               mf_w.l(fepilogue.o)
    0x08000856   0x08000856   0x000000ba   Code   RO         9406    .text               mf_w.l(depilogue.o)
    0x08000910   0x08000910   0x0000014e   Code   RO         9408    .text               mf_w.l(dadd.o)
    0x08000a5e   0x08000a5e   0x000000de   Code   RO         9410    .text               mf_w.l(ddiv.o)
    0x08000b3c   0x08000b3c   0x00000030   Code   RO         9412    .text               mf_w.l(dfixul.o)
    0x08000b6c   0x08000b6c   0x00000030   Code   RO         9414    .text               mf_w.l(cdrcmple.o)
    0x08000b9c   0x08000b9c   0x00000024   Code   RO         9416    .text               mc_w.l(init.o)
    0x08000bc0   0x08000bc0   0x00000024   Code   RO         9418    .text               mc_w.l(llsshr.o)
    0x08000be4   0x08000be4   0x0000000a   Code   RO         9420    .text               mc_w.l(isspace_c.o)
    0x08000bee   0x08000bee   0x00000002   PAD
    0x08000bf0   0x08000bf0   0x00000360   Code   RO         9422    .text               mc_w.l(scanf_fp.o)
    0x08000f50   0x08000f50   0x00000040   Code   RO         9426    .text               mc_w.l(_sgetc.o)
    0x08000f90   0x08000f90   0x00000028   Code   RO         9428    .text               mc_w.l(ctype_c.o)
    0x08000fb8   0x08000fb8   0x00000018   Code   RO         9431    .text               mf_w.l(dfltul.o)
    0x08000fd0   0x08000fd0   0x00000056   Code   RO         9441    .text               mc_w.l(__dczerorl2.o)
    0x08001026   0x08001026   0x0000005c   Code   RO         1043    i.ADC_ConversionStop_Disable  stm32f1xx_hal_adc.o
    0x08001082   0x08001082   0x00000002   PAD
    0x08001084   0x08001084   0x00000090   Code   RO         1047    i.ADC_Enable        stm32f1xx_hal_adc.o
    0x08001114   0x08001114   0x0000018c   Code   RO         6882    i.ASDU_parse        iec10x_debug.o
    0x080012a0   0x080012a0   0x00000004   Code   RO          814    i.BusFault_Handler  stm32f1xx_it.o
    0x080012a4   0x080012a4   0x00000184   Code   RO         8542    i.Certification_effectiveness  save_api.o
    0x08001428   0x08001428   0x0000011c   Code   RO         8543    i.Certification_in  save_api.o
    0x08001544   0x08001544   0x00000434   Code   RO         8544    i.Certification_process  save_api.o
    0x08001978   0x08001978   0x000001dc   Code   RO         8545    i.Certification_writ  save_api.o
    0x08001b54   0x08001b54   0x00000024   Code   RO         8829    i.CtrlLed_100       led_user.o
    0x08001b78   0x08001b78   0x00000024   Code   RO         8830    i.CtrlLed_25        led_user.o
    0x08001b9c   0x08001b9c   0x00000024   Code   RO         8831    i.CtrlLed_50        led_user.o
    0x08001bc0   0x08001bc0   0x00000024   Code   RO         8832    i.CtrlLed_75        led_user.o
    0x08001be4   0x08001be4   0x00000024   Code   RO         8833    i.CtrlLed_BED       led_user.o
    0x08001c08   0x08001c08   0x00000024   Code   RO         8834    i.CtrlLed_RED       led_user.o
    0x08001c2c   0x08001c2c   0x00000024   Code   RO         8835    i.CtrlLed_run1      led_user.o
    0x08001c50   0x08001c50   0x00000024   Code   RO         8836    i.CtrlLed_run2      led_user.o
    0x08001c74   0x08001c74   0x0000004c   Code   RO         8693    i.CtrlPwmLedState   cot_led.o
