:020000040800F2
:1000000020E00020DD010008D16A000879580008CE
:10001000916A0008A1120008D992000800000000AF
:100020000000000000000000000000004501000882
:10003000A52000080000000089010008758B000859
:10004000F7010008F7010008F7010008B16F000888
:10005000F7010008F7010008F7010008F7010008A0
:10006000F7010008F7010008F7010008F701000890
:10007000F701000839200008F701000849200008AE
:1000800059200008F7010008F7010008F7010008EF
:10009000F7010008F7010008F7010008A720000891
:1000A000F7010008F7010008F7010008F701000850
:1000B000F7010008F7010008398C0008F701000873
:1000C000F7010008F7010008F7010008F17D0008BA
:1000D000F70100089D920008B1920008C59200083F
:1000E000F7010008F7010008F7010008F701000810
:1000F000F7010008F7010008F7010008F701000800
:10010000F7010008F7010008F7010008F7010008EF
:10011000E58C0008F7010008F7010008F701000866
:10012000F7010008F701000869200008F70100083E
:10013000DFF80CD000F032FD004800474D200108E8
:1001400020E00020224B19680868B0E8F00F80F327
:100150000988BFF36F8F4FF0000080F311884EF0D5
:100160000D0E70470000000006480068006880F32C
:10017000088862B661B6BFF34F8FBFF36F8F00DFA1
:1001800000BF00BF08ED00E0EFF30980BFF36F8F01
:100190000F4B1A6820E9F00F106008B54FF05000BF
:1001A00080F31188BFF34F8FBFF36F8F17F0A2FA60
:1001B0004FF0000080F31188BDE808401968086816
:1001C000B0E8F00F80F30988BFF36F8F704700BF6E
:1001D00034000020EFF30580704700000648804798
:1001E00006480047FEE7FEE7FEE7FEE7FEE7FEE71C
:1001F000FEE7FEE7FEE7FEE7378C00083101000866
:100200002DE9F05F0546002092469B46884606464B
:10021000814640241BE0284641464746224600F0DE
:1002200020F853465A46C01A914110D31146184639
:10023000224600F07BFA2D1A67EB01084F46224652
:100240000120002100F072FA17EB00094E41201E38
:10025000A4F10104DFDC484631462A464346BDE8A6
:10026000F09F202A04DB203A21FA02F00021704797
:1002700021FA02F3D040C2F120029140084319460E
:1002800070470000014610B509683C22B1FBF2F34B
:1002900002FB1313B1FBF2F11D480360B1FBF2F353
:1002A00002FB1313B1FBF2F118224360B1FBF2F32E
:1002B00002FB1313B1FBF2F183600A1D0723B2FBAB
:1002C000F3F403FB142282618A0040F2B55102F676
:1002D0006C32B2FBF1F344334361B2FBF1F301FB47
:1002E00013218908C1613B2903D3027D920700D005
:1002F000491C0022074C13460261E25C8A4203D883
:10030000891A5B1C0361F8E7491CC16010BD00003D
:10031000F4DB0020948C040840EA01039B0703D01F
:1003200009E008C9121F08C0042AFAD203E011F834
:10033000013B00F8013B521EF9D27047D2B201E0F6
:1003400000F8012B491EFBD270470022F6E710B5DA
:1003500013460A4604461946FFF7F0FF204610BD33
:10036000421C10F8011B0029FBD1801A7047F0B421
:1003700080EA0102D40F4200B2EB410F02D20246E2
:10038000084611464A0042D0C30DDDB2C1F3C75240
:10039000AD1A202D35DAC1F3160141F4000204B183
:1003A0005242C5F1200602FA06F12A411044B3EB8D
:1003B000D05F23D0C4B1012DA0EBC35009DCF0BC49
:1003C0004FF0004202EAC352DBB200F5000000F039
:1003D00014BA400000F1807000EBC350A0F18070AF
:1003E00040EAD170490009E0490841EAC071A0EB38
:1003F000C35000F50000400800EBC350F0BC00F013
:10040000F3B96142012202EB4101001BF6E7F0BCA7
:10041000704781F00041AAE780F00040A7E780EA3A
:10042000010210B502F00043400022D04A001FD064
:10043000010E01EB1261C0F35600C2F3560240F404
:10044000000042F40002A0FB022000047F391404E3
:1004500000D0401C50EA124001D44000491EC2B2F4
:100460000C0604EBD010401C4008802A02D003E0A8
:10047000002010BD20F00100002900DA0020184300
:1004800010BD30B480EA010202F0004530F00042B5
:1004900021F0004013D090B1C30DD40DC2F316016A
:1004A000C0F31600E41A41F4000140F400027D3468
:1004B000914201D3641C00E04900002C02DA30BCF8
:1004C000002070474FF400000023914201D3891AA5
:1004D000034340084FEA4101F7D151B1914202D1A3
:1004E0004FF0004105E002D24FF0010101E06FF052
:1004F000010103EBC450284430BC00F075B92DE96C
:10050000FE4F81EA030404F0004421F0004100940E
:100510004FF0000B23F0004350EA01045ED052EA92
:1005200003045BD0C3F30A54C1F30A552C44A4F26C
:10053000F3340194A0FB0254C1F3130141F4801180
:10054000C3F3130343F4801301FB024400FB034E87
:10055000840A970A44EA815447EA8357A4FB076850
:1005600002958D0A05FB07854FEA932C04FB0C547A
:100570002705029D4FEA065847EA1637B5EB0805EE
:100580006EEB070C870E920E47EA811742EA831240
:10059000A7FB0201B6EB0B0164EB00042B0D43EA51
:1005A0000C335E1844EB1C50DA465146E7FB02015F
:1005B000C5F313044FEA0B3343EA14534FEA0432F2
:1005C000019C43EA0603A4F10C040294009CCDE9CB
:1005D00000B400F04FF903B0BDE8F08F00200146F1
:1005E000F9E7C10F80EAE0700844CA0796230021AA
:1005F00000F003B996230022114600F0FEB80EB5B4
:10060000C10F80EAE0700844CA07002140F233437A
:100610008DE80E000A460B4600F02CF903B000BD31
:1006200020F00040C10DC0F3160040F400007F2907
:1006300001DA00207047962903DCC1F19601C84019
:100640007047963988407047C1F30A5210B5C1F31C
:10065000130140F2FF3341F480119A4201DA002085
:1006600010BD40F233439A42A2F2334203DC5242BD
:10067000FFF7F7FD10BD904010BD00F0004230F0D4
:1006800000400AD0C10D01F56071C0F3160042EAC6
:100690000151C208400711437047002001467047CE
:1006A00001F0004330B421F0004150EA010206D0CD
:1006B0000A0DA2F56072C1F31301002A02DC30BCFE
:1006C00000207047440F44EAC104C100E01830BC68
:1006D00000EBC25000F088B8002801DBC0F10040F8
:1006E000002901DBC1F1004181427047002801DB94
:1006F000C0F10040002901DBC1F100418842704790
:1007000030B50B46014600202022012409E021FAE1
:1007100002F59D4205D303FA02F5491B04FA02F5DE
:100720002844151EA2F10102F1DC30BD202A04DBB1
:10073000203A00FA02F1002070479140C2F12003F4
:1007400020FA03F319439040704700000FB40023D0
:1007500000B589B00CA900910B996FF00042CB60F5
:100760001E4B06931E4B07930423CDE901321D4A0D
:10077000089202466B46002000F0CEFA09B05DF800
:1007800014FB70B586B006464FF0FF300091CDE9FE
:100790000101002015460C4604903246694604A823
:1007A000FFF7D4FF02460498211825B108B1084686
:1007B00000E020462860049800280DD0002A02DDC1
:1007C0000098884208D0081B0094CDE90104324605
:1007D000694604A8FFF7BAFF06B070BD510F0008C4
:1007E0006F0F0008E50B00080029A8BF7047401CE8
:1007F000490008BF20F00100704710B4B0FA80FC37
:1008000000FA0CF050EA010404BF10BC704749B173
:10081000CCF1200421FA04F411FA0CF118BF0121E3
:1008200021430843A3EB0C01CB1D4FEA00614FEAC3
:10083000102042BF002010BC704700EBC350104492
:100840000029A4BF10BC7047401C490008BF20F01D
:10085000010010BC704710B5141E73F1000408DAD3
:10086000401C41F1000192185B411A4301D120F074
:10087000010010BD2DE9F04D92469B4611B1B1FA31
:1008800081F202E0B0FA80F220329046FFF74EFF8C
:1008900004460F4640EA0A0041EA0B0153465A4615
:1008A000084313D0114653EA010019D0C8F14002A1
:1008B0005046FFF7D6FC05460E465046594642467E
:1008C000FFF734FF084305D0012004E020463946F5
:1008D000BDE8F08D0020054346EAE0762C4337431F
:1008E0000A986305E40AA0EB08000022FD0A44EA26
:1008F00047540A3002D500200146E9E701051019E6
:100900006941DDE9084500196941BDE8F04DA2E7FC
:100910002DE9FE4F804681EA0300C00F0C4600908F
:1009200021F0004123F00045B8EB0200A94105D2B7
:100930004046214690461C460B46024623F00040A6
:10094000104347D0270DC7F30A00C3F30A510290A2
:10095000401A019040286BDAC3F3130040F4801B67
:100960000098924620B10023D2EB030A63EB0B0BF5
:1009700001985946C0F140025046FFF7D7FE06469F
:100980000D4650465946019A00F01AF910EB08003E
:100990006141002487EA115284EAE7731A4340D088
:1009A000009A62B3019A012A4FEA075215DC001B34
:1009B00061EB02014FF0004202EA0752CDE900422A
:1009C000001C41F5801132462B46FFF753FF03B060
:1009D000BDE8F08F40462146F9E7001B61EB0201BC
:1009E000001C41F5801300185B412018A2F5001788
:1009F00047EB030140EAD570B6196D4111E06D086F
:100A00004FEA360645EAC0754FEA0752001B61EB14
:100A10000201001C41F5801149084FEA300000191D
:100A2000514132462B4603B0BDE8F04FFFF713BFEC
:100A30000098012240000023D0EB020263EBE07338
:100A4000009821464FEAE074B8EB000061EB040126
:100A5000E9E783F000435BE781F0004158E72DE9C7
:100A6000F04D81EA030404F0004B21F000451446E8
:100A70004FF0000A23F0004150EA050220D054EA6A
:100A800001021DD0C5F30A570246C5F31303C1F393
:100A90001300C1F30A5640F4801543F48013A7EB0A
:100AA0000608101BD64608F2FD3873EB050002D38A
:100AB00008F1010801E092185B41B8F1000F03DA78
:100AC00000200146BDE8F08D00204FF4801106465D
:100AD00084460EE0171B73EB050705D3121B63EB6F
:100AE000050306434CEA010C49084FEA300092180E
:100AF0005B4150EA0107EDD152EA030012D082EACD
:100B0000040083EA0501084305D0101BAB4106D25F
:100B10000122002306E000224FF0004302E06FF0C4
:100B2000010253101AEB06004CEB085110EB0A00BF
:100B300041EB0B01BDE8F04DFFF78DBEC1F30A524A
:100B4000C1F3130140F2FF3341F480119A4202DAFB
:100B500000200146704740F233439A42A2F23342EA
:100B600002DC5242FFF77DBBFFF7E0BD30B5041E4B
:100B700071F1000404DB4FF00044404264EB0101DA
:100B8000141E73F1000405DB1C464FF00043524273
:100B900063EB0403994208BF904230BD064C074DF9
:100BA00006E0E06840F0010394E80700984710343D
:100BB000AC42F6D3FFF7C0FA789F0408989F040868
:100BC000202A06DBCB17203A41FA02F043EAE07311
:100BD00006E041FA02F3D040C2F1200291400843FE
:100BE00019467047C0B24FF4F05100F0D1B900007F
:100BF0002DE9FF4F087883B09946FF2805D0491C9E
:100C00002D2804D00024002008E000200BE001245F
:100C1000F9E700EB800003EB4000491C0B78FF2B49
:100C2000F7D104B1404200230293147819461D46BF
:100C30002D2C01D02B2C04D1521C2D2C13D0002490
:100C40000294AA461478FF2C0FD00A25A3FB05783E
:100C500001FB05814FF0000C03FB0C11521CE31942
:100C60004AEB0101EEE70124EAE7814453EA01007F
:100C700002D019F5C87F06DA03980021C0E90011F7
:100C800007B0BDE8F08F0025AE4E2F46DFF8B882E2
:100C9000184600F091F9CDE90001B9F1000002DA3F
:100CA000C9F1000400E004460023A74A1AEB030B35
:100CB00042EB045A12E0E00707D02A463346384692
:100CC0004146FFF71CFC074688462A463346104635
:100CD0001946FFF714FC05460E466410002CEAD1B5
:100CE000DDE90001B9F1000F5A46534606DAFFF775
:100CF000B6FE3A464346FFF7B2FE05E0FFF7FFFBBC
:100D00003A464346FFF7FBFB029A0AB181F00041E5
:100D1000039AC2E90001B3E72DE9FF4F1F468DB0EA
:100D2000D7E901464FF0FF382E2045464FF0000925
:100D30000B90B9696D1C0E988847396A82468847BE
:100D40000028F6D1BAF1FF3F0AD024F4D064002E77
:100D500011DDBAF12B0F08D0BAF12D0F0BD102E043
:100D6000404611B08DE744F48064B9696D1C0E985B
:100D700088478246761E6946600501D52D2000E031
:100D80002B208DF8000001F1010B0DF1200809E086
:100D9000B9696D1C0E98884782460F9844F4007418
:100DA000761E0560002E02DDBAF1300FF0D00B99EF
:100DB0008A453ED144F0800406E00F99681CA9F1F1
:100DC000010944F400740860B9696D1C761E0E9820
:100DD000884782463028F0D02BE00B998A4505D110
:100DE000200603D444F08004761E18E0504608F034
:100DF000CAFB08B30DF11301761E44F400748B4551
:100E000008D2AAF130000BF8010B200607D5A9F192
:100E1000010003E0200602D409F101008146A0058B
:100E200002D50F99681C0860B9696D1C0E98884737
:100E30008246002ED1DC53E0002E51DDBAF1650F61
:100E400002D0BAF1450F4BD1A00549D5B9696D1C47
:100E500024F44074761E0E9888478246002E0CDDDE
:100E60002B2804D0BAF12D0F07D144F48074B9694E
:100E70006D1C0E9888478246761EE00501D52D210F
:100E800000E02B2108F8011BCDF82C8021E00DF1AA
:100E90002901761E44F4007488450CD2AAF1300072
:100EA00010F0FF0088F8000002D10B99884509D99D
:100EB00008F1010806E0E00501D5244801E042F20E
:100EC0000F708146B9696D1C0E98884782460F984D
:100ED0000560002E04DD504608F055FB0028D6D1F1
:100EE000F9690E988847FF208BF8000088F8000009
:100EF0000020069007904B466A4608A906A8FFF70F
:100F000077FEA00502D46FF001002AE714F0240F49
:100F10000AD0E00714D1DDE906123868031D3B60F2
:100F20000068C0E900120BE0DDE90601FFF7B8FB3D
:100F30000146E00704D13868021D3A60006801608C
:100F400028460EE7000014400000F03FF1D8FFFFF4
:100F5000426842B1016811F8013B23B1521EC0E959
:100F60000012184670470121C160881E7047426810
:100F70005AB1C368016843B983688B4205D0491EE2
:100F8000521CC0E90012002070474FF0FF3070473C
:100F90007F2801D9002208E0064A02EB5002C00770
:100FA000127800D1120902F00F020120904008408F
:100FB00070470000A08C04080EB540F23342029244
:100FC0000022CDE900221346FFF754FC03B000BD18
:100FD00070B58C1810F8015B15F0070301D110F8FB
:100FE000013B2A1106D110F8012B03E010F8016B28
:100FF00001F8016B5B1EF9D12B0705D40023521EAB
:101000000DD401F8013BFAE710F8013BCB1A921C12
:1010100003E013F8015B01F8015B521EF9D5A14210
:10102000D8D3002070BD70B50446002520688068C4
:1010300000F0010018B32068806820F001002168EA
:10104000886002F0F1F9054613E002F0EDF9401B6B
:1010500002280ED92068806800F0010048B1A06A1B
:1010600040F01000A062E06A40F00100E062012060
:1010700070BD2068806800F001000028E5D10020E4
:10108000F6E7000038B504460025002000902068EF
:10109000806800F0010078BB2068806840F00100A3
:1010A00021688860194800681949B0FBF1F0009088
:1010B00002E00098401E009000980028F9D102F04C
:1010C000B3F9054619E002F0AFF9401B022814D924
:1010D0002068806800F0010078B9A06A40F0100034
:1010E000A062E06A40F00100E06200BF002084F8E6
:1010F000240000BF012038BD05E02068806800F0B2
:1011000001000028DFD00020F5E7000030000020BB
:1011100040420F002DE9F04F85B006460D4696F887
:10112000890200F1020B96F888025844049068780E
:1011300000F08000002801DD012000E00020039085
:10114000687820F0800715F80B000290287849494C
:10115000085C009096F88802012806DD0BF101007A
:10116000295C029840EA012002904349039851F813
:1011700020303A46D6F820C040A00299E04796F8C1
:10118000A802032802DA05B0BDE8F08F28783F28CE
:1011900006DC2878414951F8200008B1009800B9D0
:1011A000F1E7B90001F5807010F010FD8046B8F14C
:1011B000000F00D1E7E708F58070019004982C1823
:1011C000DDF804900398E0B1002096F88A12032914
:1011D00008D12178627841EA0221A27841EA0240EE
:1011E000E41C04E02178627841EA0220A41CA246B3
:1011F000002103E049F8040B401C491CB942F9DB0B
:1012000029E04046C246002122E096F88A22032ABD
:101210000AD12278637842EA0322A37842EA0342A1
:10122000C9F80020E41C06E02278637842EA032231
:10123000C9F80020A41C002204E014F8013B00F8C7
:10124000013B521C009B9A42F7DB491C09F104093F
:10125000B942DADB00BFF9B22878104A52F820C050
:1012600053463046019AE047404610F05DFC00BF0F
:1012700089E7000086D60108BC000020636F6D6D11
:101280006F6E20616464723A307825780D0A6E754D
:101290006D733A25640D0A25730D0A00D45E002093
:1012A00000BFFEE71CB558A103C9CDE900015520D8
:1012B00057490870802048701E2088700020C87030
:1012C00008715448B0F8020400124871514890F86F
:1012D000020488714F48B0F8022401464C48C01DF2
:1012E000FFF71AF84B48B0F80204801D81B2484855
:1012F000401C16F05FFE4749B1F80214C91D444A6C
:101300005054444890F8D90520B101280AD0022849
:1013100077D116E001204049087001213D4880F84E
:10132000D9156EE03B48B0F80204083081B2384865
:1013300013F056FF062803D10221364880F8D9154C
:101340005FE0344890F8D80510B1012857D106E085
:101350000120314908702F4981F8D8054FE0082154
:10136000684613F03DFF062848D12C48007908282C
:1013700041D12B480021016141612849491D0A687A
:1013800002614968416102202249A1F80E0400204F
:1013900081F8D80500211F4880F8D9154FF48061E5
:1013A0001B48FEF7D2FFEB20194908700020487057
:1013B0000D208870EB20C870002008714020487113
:1013C000312088710020C87108200872D7208874E5
:1013D0000931134802690A60406948600D210C48D0
:1013E000001D08F07EFC0A494874642313220D484E
:1013F00004F0AEF902E001200749087000BF00BF09
:1014000000BF00BF1CBD0000550084000800007331
:1014100048B600201C970020940200206CB00020E9
:101420001C9B00205C07002010B5424890F8E605A0
:1014300010B101287BD107E001203F49087001214C
:101440003C4880F8E61572E055203C490870802041
:101450004870384890F8420F062805D1242088703B
:101460000020C870087108E0222034498870314893
:1014700090F8420FC870002008712E48B0F8460F4F
:1014800000122E4948712B4890F8460F8871294860
:10149000B0F8462F00F64A712848C01DFEF73CFF01
:1014A0002448B0F8460F801D81B22448401C16F035
:1014B00081FD2049B1F8461FC91D204A50541D48DE
:1014C000B0F8460F083081B2104613F089FE0628A6
:1014D0002CD1EB2019490870002048700720887033
:1014E000EB20C87000200871402048713F208871AF
:1014F0000020C87102200872902048720020887273
:10150000D720087307210D48001D08F0EAFB0B499E
:10151000C87264230D220A4804F01AF90021054814
:1015200080F8E61500200349A1F80E0400BF00BFB3
:1015300010BD00001C9700209402002048B6002037
:101540005C07002010B5FE4890F8000410B1012897
:101550002CD12CE0FB48B0F80E04062825D2DFE899
:1015600000F0030B0E1B1E21F64890F8EA05012837
:1015700001D100F003FE18E0FFF794FE15E0F148FA
:1015800090F8DA0510B1012804D100E002E016F06D
:101590001FF900BF00BF08E014F060F905E0FFF795
:1015A00043FF02E000F0E8F900BF00BFE0E10020E7
:1015B000E34981F8000408460078EB287ED108460C
:1015C000C078EB28FAD1084680780A46527840EA7B
:1015D0000221DB48001D08F084FBD9498978091DE8
:1015E000D74A527841EA0221D54A515C8842E5D176
:1015F00010464179D34880F8651490F8650480114D
:10160000D04981F86204084690F86504C0F3C0012F
:10161000CC4880F8631490F8650400F00701C948CD
:1016200080F8641490F8620430B1012805D00228D3
:1016300078D0032800D194E194E1C24890F8630483
:1016400010B101286FD152E1BD4880793038172898
:101650006AD2DFE800F00C696F69FD697B698B690C
:1016600090696969B469FC699C69FBFAF900B4483E
:10167000807AB44981F80C04B148C07A81F80D042D
:10168000084690F80D04012808D10020A1F80204B2
:10169000A1F82004A1F80E0412F0FAFCA94890F871
:1016A0000D04A84991F80C14884242DCA448007A41
:1016B0000B38A349C97940EA012000E053E1A14970
:1016C000A1F80004B1F80024B1F802149D4BC81829
:1016D0009B490C31FEF720FE99488078001F9849FD
:1016E000497840EA01209649014497480A684260D7
:1016F000496881609348B0F802049249B1F8001437
:1017000008449049A1F80204084690F80D0491F8A5
:101710000C14884209D101208A49A1F82004A1F8BB
:101720000E0406E01CE10AE1DFE00121854880F8B3
:10173000EA15DAE040228249093183482230FEF777
:10174000EBFD01217F4880F8DA15CEE003207D49CA
:10175000A1F80E0401217B4880F8DD15002180F8F6
:10176000DC1580F8DE1580F8DF15BEE00221754833
:1017700080F8DD15B9E00321724880F8DD150320FB
:101780007049A1F80E04012070490870ADE00621EF
:101790006C4880F8DD15002180F8401F4FF480610F
:1017A0006B48FEF7D2FD03206649A1F80E04002124
:1017B0006448A0F8F61801206449087095E00120FB
:1017C000624908705E48407A5E4981F8420F5C4881
:1017D000817A5C4880F8441F5948C17A594880F89A
:1017E000431F90F8430F012803D100215548A0F86A
:1017F000461F544890F8431F90F8440F814241DC43
:101800004F48007AC01E4E49C97940EA012081B292
:101810004C48A0F8481F0146B1F8482FB1F8463FA0
:1018200000F64A71581846490C31FEF775FD4548D7
:10183000B0F8461FB0F8480F084481B24148A0F8FC
:10184000461F90F8431F04E026E03DE048E036E004
:1018500019E090F8440F81420CD101213D4880F8F5
:10186000081504203749A1F80E0401023848FEF794
:101870006CFD07E00121334880F8EA15002031496A
:10188000A1F80E0431E007212E4880F8DD15032071
:101890002C49A1F80E0428E02948007A2849C97982
:1018A00040EA0122264909312B48FEF735FD072180
:1018B000244880F8DD15032180F8E81515E005209F
:1018C0002049A1F80E0410E006211E4880F8DD151D
:1018D00090F8400F401CC1B21A4880F8401F04E045
:1018E0000821184880F8DD1500BF00BF27E0144824
:1018F00080781349497840EA0120801F81B211485D
:10190000A0F8F018B0F8F0280D49891D00F2EC603D
:10191000FEF702FD0B48B0F8F008094901440948F8
:10192000D1F80610C0F8EC18042180F8DD15090282
:101930000748FEF70AFD01200449087000BF0DE0CA
:10194000EE8600201C9700201C9B002094020020A3
:1019500048B600205EA6002068AB002000BF01E072
:1019600000E000BF03E000200249A1F80E0400BF20
:1019700000BF10BD1C97002010B5704890F8E90515
:1019800030B101280CD002283AD0032807D16DE0ED
:1019900001206B4908700121684880F8E915CBE007
:1019A00055206849087000204870B0208870812058
:1019B000C870002008714871022088710020C87129
:1019C0000220087208215F48401C16F0F3FA5D49B6
:1019D00048720A215B4813F003FC06280FD15A48CD
:1019E00080795949497940EA01215848A0F84C15B5
:1019F0000221524880F8E9150120514908709BE006
:101A000055205049087000204870B020887081200F
:101A1000C8700220087100204871022088714B486C
:101A2000B0F84C050012C871484890F84C0508728F
:101A300008214448401C16F0BDFA424948720A2168
:101A4000404813F0CDFB06280FD14048B0F84C2594
:101A50003D49491D00F24E50FEF75EFC0321374818
:101A600080F8E91501203649087065E055203549B0
:101A7000087080204870242088700020C870087189
:101A80003248B0F84C0500124871304890F84C05C7
:101A900088712E48B0F84C2500F24E512948C01DDF
:101AA000FEF73AFC2948B0F84C05801D81B2254864
:101AB000401C16F07FFA2549B1F84C15C91D214A82
:101AC00050542248B0F84C05083081B2104613F04B
:101AD00087FB06282FD10021184880F8E915062039
:101AE0001649A1F80E04012015490870EB2015498C
:101AF00008700020487007208870EB20C870002014
:101B0000087140204871412088710020C87102206E
:101B100008729020487200208872D720087307212D
:101B20000848001D08F0DDF80649C87264230D223C
:101B3000074803F00DFE00BF00BF10BD1C9700203A
:101B40009402002048B600206CB000201CA70020A2
:101B50005C07002010B50446012C05D1002241028B
:101B6000044801F05BFC04E001225102014801F04D
:101B700055FC10BD0018014010B50446012C05D1DC
:101B800000220221044801F049FC04E00122022164
:101B9000014801F043FC10BD000C014010B50446A3
:101BA000012C05D100228021044801F037FC04E01B
:101BB00001228021014801F031FC10BD00180140D4
:101BC00010B50446012C05D100220102044801F0A1
:101BD00025FC04E001221102014801F01FFC10BDA8
:101BE0000018014010B50446012C05D10022C103A4
:101BF000044801F013FC04E00122D103014801F084
:101C00000DFC10BD0008014010B50446012C05D1A3
:101C100000222021044801F001FC04E001222021DF
:101C2000014801F0FBFB10BD0018014010B504464F
:101C3000012C05D100222021044801F0EFFB04E033
:101C400001222021014801F0E9FB10BD00100140F4
:101C500010B50446012C05D100220121044801F0F1
:101C6000DDFB04E001221146014801F0D7FB10BD65
:101C7000000C01408188C288914220DD00218180D2
:101C8000C178C1F3C00151B10189491C01810189A9
:101C9000142914DBC17821F00801C1700FE001891B
:101CA000491E0181018951B9C17821F0080108312B
:101CB000C1708178002902DD8178491E81707047EA
:101CC0002DE9F84F05460F4690469A46544695F83A
:101CD000A80203283DDD4FF0000937E026462078B2
:101CE000009058F82910024622A02B6A98473078B5
:101CF00000F00300254B53F8201025A02A6A9047D6
:101D00003078C0F30010244B53F8201023A02A6A27
:101D100090473078C0F34010224B53F8201022A097
:101D20002A6A90473078C0F38010214B53F8201076
:101D300020A02A6A90473078C009204B53F8201021
:101D40001FA02A6A904709F10109641CB945C5DB47
:101D50000DE0002609E02078009058F82610024691
:101D600004A02B6A9847761C641CBE42F3DB00205B
:101D7000BDE8F88F616464723A307825782C76611A
:101D80006C3A307825780D0A00000000DCDA010892
:101D900053504925732C0000E4DA0108424C2573A6
:101DA0002C000000ECDA0108534225732C000000DF
:101DB000F4DA01084E5425732C000000FCDA010807
:101DC000495625730D0A00002DE9F04705460F46D8
:101DD00090469A46544695F8A802032844DD4FF0F1
:101DE00000093EE02646227858F829102AA02B6ADE
:101DF000984794F801C0A0784CEA0022E1782BA023
:101E00002B6A9847307800F003002B4B53F82010D2
:101E10002AA02A6A90473078C0F30010294B53F863
:101E2000201029A02A6A90473078C0F34010284B30
:101E300053F8201027A02A6A90473078C0F380100A
:101E4000264B53F8201026A02A6A90473078C00904
:101E5000254B53F8201025A02A6A904709F1010963
:101E6000241DB945BEDB14E0002610E0227858F8A6
:101E7000261009A02B6A984794F801C0A0784CEA74
:101E80000022E17809A02B6A9847761C241DBE42E7
:101E9000ECDB0020BDE8F087616464723A3078259D
:101EA000782C76616C3A307825782C00743A256469
:101EB0002025640D0A000000DCDA01085350492592
:101EC000732C0000E4DA0108424C25732C0000005A
:101ED000ECDA0108534225732C000000F4DA010803
:101EE0004E5425732C000000FCDA01084956257376
:101EF0000D0A00002DE9FC4705460F4690469A461C
:101F0000544695F8A802032848DD4FF0000942E046
:101F10002646227858F829102EA02B6A9847E07898
:101F20002179CDE90010607900F01F03A279E179F1
:101F30002DA0D5F820C0E047307800F003002F4BEB
:101F400053F820102EA02A6A90473078C0F3001072
:101F50002D4B53F820102DA02A6A90473078C0F3FB
:101F600040102C4B53F820102BA02A6A9047307851
:101F7000C0F380102A4B53F820102AA02A6A9047F9
:101F80003078C009294B53F8201029A02A6A9047BD
:101F900009F101090834B945BADB18E0002614E05C
:101FA000227858F826100BA02B6A9847E078217900
:101FB000CDE90010607900F01F03A279E1790AA051
:101FC000D5F820C0E047761C0834BE42E8DB00208C
:101FD000BDE8FC87616464723A307825782C7661BC
:101FE0006C3A307825782C00743A25642F25642FBC
:101FF00025642025643A25640D0A0000DCDA010816
:1020000053504925732C0000E4DA0108424C257333
:102010002C000000ECDA0108534225732C0000006C
:10202000F4DA01084E5425732C000000FCDA010894
:10203000495625730D0A000010B5024800F0C2FD94
:1020400010BD00000009002010B5024800F0BAFDE4
:1020500010BD00007808002010B5024800F0B2FD65
:1020600010BD0000BC08002010B5024800F0AAFD19
:1020700010BD00003408002030B590F84050012415
:10208000AC40C56B6C60046863604468102C04D17C
:102090000468A2600468E16003E00468A160046869
:1020A000E26030BD704710B5402001F001F880209B
:1020B00000F0FEFF10BD000038B504460D46224872
:1020C000C07AA04208D04FF6FF70F0231A460021D4
:1020D0000090084603F067FC1B49CC72C87A0021C7
:1020E00004F0EEFC1848C07A08282AD2DFE800F095
:1020F00004070D12171C212504F0CCFC22E0134923
:1021000091F82A0015F002FC1CE00F49087911F043
:102110008DFA17E00C4988780AF096FB12E00A491C
:10212000487812F009FE0DE00749C87807F066FF0D
:1021300008E0284611F04EFD04E0284611F050FF5B
:1021400000E000BF00BF38BDB0620020A8750020CD
:1021500072B600BFFEE7000010B50446012C05D1A1
:1021600000220421044801F059F904E0012204216D
:10217000014801F053F910BD0010014010B5EB20EB
:10218000144908700020487007208870EB20C87040
:102190000020087140204871452088710020C871D6
:1021A000022008729020487200208872D72008739D
:1021B00007210848001D07F094FD0649C8726423F2
:1021C0000D22054803F0C4FA0021044880F8EA15FE
:1021D00010BD000048B600205C0700201C970020BE
:1021E00010B502460020521C002305E01478044478
:1021F000E0B2521C5C1CE3B28C1E9C42F6DCC44371
:10220000641CE0B210BD000010B50446012C05D1DD
:1022100001224103054801F001F905E000224FF4D5
:102220000051024801F0FAF810BD0000001401400E
:1022300010B50446012C05D100220103044801F029
:10224000EDF804E001221103014801F0E7F810BDA8
:1022500000080140F8B5044600260020009000BFA9
:1022600094F82400012801D10220F8BD012084F84F
:10227000240000BF2046FEF7D6FE06462046FEF7A5
:1022800001FF0646002E69D1A06A20F4885040F074
:102290000200A062022001F00DFB34490968B1FB85
:1022A000F0F04000009002E00098401E009000987E
:1022B0000028F9D12068806840F008002168886013
:1022C00001F0B2F8054616E001F0AEF8401B0A280E
:1022D00011D92068806800F0080060B1A06A20F081
:1022E000020040F01000A06200BF002084F824002B
:1022F00000BF0120B9E72068806800F008000028CE
:10230000E2D12068806840F004002168886001F014
:102310008BF8054616E001F087F8401B0A2811D912
:102320002068806800F0040060B1A06A20F002001C
:1023300040F01000A06200BF002084F8240000BF1D
:10234000012092E72068806800F004000028E2D1B4
:10235000A06A20F0020040F00100A06200BF00204F
:1023600084F8240000BF30467FE7000030000020E2
:1023700038B5024600230020009000BF92F82400E8
:10238000012801D1022038BD012082F8240000BFBD
:102390004868072812D21068406B0C79641E04EB61
:1023A00084051F24AC40A0430D796D1E05EB850507
:1023B0000C68AC4020431468606327E048680D282F
:1023C00012D21068006B0C79E41F04EB84051F2403
:1023D000AC40A0430D79ED1F05EB85050C68AC40C2
:1023E00020431468206311E01068C06A0C790D3C2A
:1023F00004EB84051F24AC40A0430D790D3D05EB93
:1024000085050C68AC4020431468E06208680A281F
:1024100012D31068C0680C780A3C04EB440507240A
:10242000AC40A0430D780A3D05EB45058C68AC40F7
:1024300020431468E0600FE0106800690C7804EB3A
:1024400044050724AC40A0430D7805EB45058C6896
:10245000AC402043146820610868102802D0086846
:10246000112827D1174C1068A0421ED1106880682F
:1024700000F40000F0B91068806840F400001468AF
:10248000A0600868102815D10F4800680F4CB0FBF9
:10249000F4F000EB80004000009002E00098401E45
:1024A000009000980028F9D104E0906A40F02000E4
:1024B0009062012300BF002082F8240000BF18466C
:1024C00061E70000002401403000002040420F007E
:1024D00001460868C06C70472DE9F04104460027AA
:1024E00000250026A84614B90120BDE8F081A068A7
:1024F00010B1207D00B100BFA06A30B90020E062B9
:1025000084F82400204600F097F82046FEF78BFD63
:102510000746A06A00F01000002873D1002F7ED17A
:10252000A06A20F4885040F00200A0623F4AD4E93B
:102530000001904208D1E069B0F5402F02D14FF47C
:10254000002002E0E06900E0E0690143207B41EA0D
:1025500040000643A068B0F5807F02D0A068012843
:1025600002D14FF4807000E000200543207D012857
:1025700011D1207B38B9A069401E4FF4006141EAB7
:102580004030054307E0A06A40F02000A062E06A06
:1025900040F00100E0622068406820F46940284370
:1025A00021684860206880682149084030432168DC
:1025B0008860A068B0F5807F02D0A068012802D1B1
:1025C0004FF4807000E00020B0F5807F03D1208AB6
:1025D000401E4FEA00582068C06A20F4700040EAAC
:1025E00008002168C8622068806812490840B0422B
:1025F00009D10020E062A06A20F0020040F0010052
:10260000A06211E00BE0A06A20F0020040F0100090
:10261000A062E06A40F00100E062012704E0A06AE5
:1026200040F01000A062012738465EE7003C014000
:10263000FDF7E1FFFE0E1FFF10B586B00446002037
:1026400002900390049005901E492068884237D17B
:1026500000BF1D48806940F400701B49886108462E
:10266000806900F40070019000BF00BF00BF084601
:10267000806940F0100088610846806900F0100011
:10268000019000BF00BF00BF0846806940F0040011
:1026900088610846806900F00400019000BF00BF17
:1026A000092002900320039002A9084800F00EFDC3
:1026B000062002900320039002A9054800F006FDC1
:1026C00006B010BD0024014000100240001001407F
:1026D00000080140F8B504460D4600260020009091
:1026E000002700F0A1FE06462068806800F4807094
:1026F00050B1A06A40F02000A06200BF002084F822
:10270000240000BF0120F8BD2068406800F48070FC
:1027100020BB2068C06A00F47000F8B917E0681C9C
:10272000A8B125B100F080FE801BA8420FD9206817
:10273000006800F0020050B9A06A40F00400A062F6
:1027400000BF002084F8240000BF0320DBE72068DE
:10275000006800F002000028E1D053E0022001F000
:10276000A9F838490968B1FBF0F021680969364ACF
:10277000114091B92168C9689211114069B9216865
:102780000969324A114031B92168C9689211114072
:1027900009B9142117E0292115E0216809692B4A9C
:1027A000114021B92168C9689211114041B12168D5
:1027B0000969274A114029B92168C968114009B936
:1027C000542100E0FC2100FB01F718E0681C98B1DF
:1027D00025B100F029FE801BA8420DD90098B8420F
:1027E0000AD2A06A40F00400A06200BF002084F872
:1027F000240000BF032086E70098401C009000984A
:10280000B842E3D36FF0120021680860A06A40F478
:102810000070A0622068806800F46020B0F5602F2E
:102820000DD1207B58B9A06A20F48070A062A06A04
:1028300000F4805018B9A06A40F00100A0620020A6
:1028400061E70000300000202449922492244912BC
:102850004992240070B50446002500BF94F8240076
:10286000012801D1022070BD012084F8240000BF9E
:102870002046FEF707FC0546002D77D1A06A40F2FE
:102880000121884340F48070A0623C49206888425E
:1028900008D13B48006800F4702008B9012002E02C
:1028A000002000E0012078B1A06A20F48010A0622E
:1028B0002068406800F4806000B3A06A20F40050F3
:1028C00040F48050A06219E0A06A40F48010A06239
:1028D0002B49091F2068884203D028492068884274
:1028E00004D12748006800F4806000E0002028B18F
:1028F000A06A20F4005040F48050A062A06A00F466
:10290000805020B1E06A20F00600E06201E0002083
:10291000E06200BF002084F8240000BFC01E2168D0
:1029200008602068806800F46020B0F5602F16D140
:1029300012492068884208D11148006800F47020CC
:1029400008B9012002E0002000E0012038B1206831
:10295000806840F4A000216888600CE006E02068F0
:10296000806840F480102168886004E000BF002087
:1029700084F8240000BF284675E7000000280140C5
:102980000424014070B50446002500BF94F82400DB
:10299000012801D1022070BD012084F8240000BF6D
:1029A0002046FEF740FB05462DB9A06A20F488506A
:1029B00040F00100A06200BF002084F8240000BFA6
:1029C0002846E8E70146002291F82100022808D0B5
:1029D0000420886300BF002081F8200000BF012090
:1029E00070470868006820F00E000B6818600868DF
:1029F000006820F001000B68186091F84030012059
:102A00009840CB6B5860012081F8210000BF002066
:102A100081F8200000BF1046E2E7000070B50446D0
:102A2000002594F82100022803D00420A06301258A
:102A3000C1E02068006820F00E002168086020686E
:102A4000006820F00100216808605C492068884225
:102A500052D95A4978392068884201D1012047E08B
:102A6000564964392068884201D1102040E053491A
:102A700050392068884201D1801539E04F493C39EE
:102A80002068884201D1801432E04C4928392068FE
:102A9000884202D14FF480302AE048491439206836
:102AA000884202D14FF4801022E0444920688842D5
:102AB00001D140041CE042492068884201D1012034
:102AC00016E03F4914312068884201D110200FE000
:102AD0003B4928312068884201D1801508E03849F7
:102AE0003C312068884201D1801401E04FF48030ED
:102AF0003349091F086051E030497839206888421D
:102B000001D1012047E02D4964392068884201D174
:102B1000102040E0294950392068884201D18015B1
:102B200039E026493C392068884201D1801432E0DE
:102B3000224928392068884202D14FF480302AE0A7
:102B40001E4914392068884202D14FF4801022E0D7
:102B50001A492068884201D140041CE018492068C5
:102B6000884201D1012016E01549143120688842BD
:102B700001D110200FE0124928312068884201D18C
:102B8000801508E00E493C312068884201D180144C
:102B900001E04FF48030094980394860012084F811
:102BA000210000BF002084F8200000BF606B10B13E
:102BB0002046616B8847284670BD000080000240B7
:102BC0000804024070B50446E06B0568206806689A
:102BD00094F84010042088402840002875D006F062
:102BE00004000028FAD02068006800F0200028B90E
:102BF0002068006820F0040021680860D54920683A
:102C0000884254D9D34978392068884201D10420B8
:102C100049E0D04964392068884201D1402042E02F
:102C2000CC4950392068884201D100153BE0C949A0
:102C30003C392068884202D14FF4804033E0C549D6
:102C400028392068884202D14FF480202BE0C14906
:102C500014392068884202D14FF4800023E0BD4936
:102C60002068884201D1C0041DE0BB492068884229
:102C700001D1042017E0B84914312068884201D1FD
:102C8000402010E0B44928312068884201D1001565
:102C900009E0B1493C312068884202D14FF48040BC
:102CA00001E04FF48020AC49091F086054E0A949B5
:102CB00078392068884201D104204AE0A549643966
:102CC0002068884202D1402043E04CE0A1495039BD
:102CD0002068884201D100153BE09E493C392068BC
:102CE000884202D14FF4804033E09A492839206865
:102CF000884202D14FF480202BE096491439206895
:102D0000884202D14FF4800023E092492068884233
:102D100001D1C0041DE090492068884201D10420FF
:102D200017E08D4914312068884201D1402010E01D
:102D3000894928312068884201D1001509E0864977
:102D40003C312068884202D14FF4804001E04FF4CA
:102D50008020804980394860E06A002802D02046FF
:102D6000E16A8847F4E094F8401002208840284047
:102D7000002871D006F002000028FAD02068006810
:102D800000F0200040B92068006820F00A002168A7
:102D90000860012084F821006E492068884254D9D7
:102DA0006C4978392068884201D1022049E069499C
:102DB00064392068884201D1202042E065495039B9
:102DC0002068884201D140153BE062493C392068C7
:102DD000884202D14FF4005033E05E492839206820
:102DE000884202D14FF400302BE05A491439206850
:102DF000884202D14FF4001023E0564920688842EF
:102E000001D180041DE054492068884201D102208C
:102E100017E0514914312068884201D1202010E088
:102E20004D4928312068884201D1401509E04A49BE
:102E30003C312068884202D14FF4005001E04FF449
:102E400000304549091F086054E04249783920683C
:102E5000884202D102204AE057E03E4964392068A6
:102E6000884201D1202042E03A4950392068884206
:102E700001D140153BE037493C392068884202D1F6
:102E80004FF4005033E0334928392068884202D19A
:102E90004FF400302BE02F4914392068884202D1CA
:102EA0004FF4001023E02B492068884201D18004B0
:102EB0001DE029492068884201D1022017E02649F7
:102EC00014312068884201D1202010E022492831A5
:102ED0002068884201D1401509E01F493C31206833
:102EE000884202D14FF4005001E04FF400301949FC
:102EF0008039486000BF002084F8200000BFA06A2D
:102F000030B32046A16A884722E094F84010082098
:102F100088402840E0B106F00800C8B12068006889
:102F200020F00E002168086094F8401001208840CD
:102F3000E16B48600120A06384F8210000BF0020FD
:102F400084F8200000BF206B10B12046216B884719
:102F500070BD0000800002400804024001460022CB
:102F600009B9012070471E4B086898420BD21D4BCF
:102F70000868C01A1423B0FBF3F0800008641948F5
:102F80000838C8630AE0164B0868C01A1423B0FB5F
:102F9000F3F08000086412480838C863022081F802
:102FA00021000868026843F6F0708243D1E901030A
:102FB0001843CB6818430B6918434B6918438B6956
:102FC0001843CB69184302430868026000208863F5
:102FD000012081F82100002081F8200000BFC1E716
:102FE00008040240080002402DE9F04104460D4665
:102FF00016461F464FF0000800BF94F82000012835
:1030000002D10220BDE8F081012084F8200000BF39
:1030100094F8210001282CD1022084F821000020FE
:10302000A0632068006820F00100216808603B462A
:10303000324629462046FFF71FF8E06A30B1206883
:10304000006840F00E00216808600BE0206800680E
:1030500020F00400216808602068006840F00A0041
:10306000216808602068006840F00100216808605D
:1030700006E000BF002084F8200000BF4FF00208E7
:103080004046BFE770B5044600F0CEF90646254637
:10309000681C10B104480078054400BF00F0C4F972
:1030A000801BA842FAD370BD2C000020704700009E
:1030B00010B5044604480068204020B1024804606E
:1030C0002046FFF7F3FF10BD140401402DE9F84737
:1030D000024600239C467BE14FF0010808FA03F406
:1030E000D1F8008008EA0400A0427DD1DFF8F4A204
:1030F000D1F80480A8EB0A09D0453AD014DCB8F125
:10310000030F50D009DCB8F1000F31D0B8F1010F36
:103110001CD0B8F1020F49D120E0B8F1110F18D03E
:10312000B8F1120F42D11EE0B9F5881F25D006DC98
:10313000B9F5803F20D0B9F5801F37D11AE0B9F535
:10314000001F18D0B9F5041F30D117E0D1F80CC01A
:103150002DE0D1F80C8008F1040C28E0D1F80C80A7
:1031600008F1080C23E0D1F80C8008F10C0C1EE0EB
:1031700000BF00BF00BF00BF00BF00BFD1F8088084
:10318000B8F1000F02D14FF0040C0BE0D1F8088029
:10319000B8F1010F03D14FF0080C146102E04FF0B9
:1031A000080C546103E04FF0000C00E000BF00BFCA
:1031B000FF2801D8904601E002F104084646FF28A6
:1031C00002D84FEA830803E0A3F108084FEA880811
:1031D0004746D6F800804FF00F0909FA07F928EAA8
:1031E00009080CFA07F900E07AE048EA0908C6F88D
:1031F0000080D1F8048008F08058B8F1805F6FD16A
:1032000000BFDFF8E481D8F8188048F00108DFF843
:10321000D891C9F81880C846D8F8188008F0010875
:10322000CDF8008000BF00BF4FEAB9384FEA9309DC
:1032300058F829504FEA83784FEA18794FF00F0871
:1032400008FA09F825EA0805DFF8A081424502D10D
:103250004FF0000824E0DFF89881424502D14FF09A
:1032600001081DE0DFF88C81424502D14FF00208D1
:1032700016E0DFF88481424502D14FF003080FE0E9
:10328000DFF87881424502D14FF0040808E0DFF80A
:103290007081424502D14FF0050801E04FF0060869
:1032A0004FEA83794FEA197908FA09F848EA0505DF
:1032B000DFF850814FEA930948F82950D1F804808B
:1032C00008F48018B8F5801F0BD1DFF83C81D8F8DE
:1032D000008048EA0008DFF83091C9F800800AE071
:1032E00075E0DFF82481D8F8008028EA0008DFF8CC
:1032F0001891C9F80080D1F8048008F40018B8F5D6
:10330000001F0ED1DFF8008108F10408D8F8008012
:1033100048EA0008DFF8F09009F10409C9F80080D4
:103320000DE0DFF8E48008F10408D8F8008028EA0E
:103330000008DFF8D49009F10409C9F80080D1F839
:10334000048008F40038B8F5003F0ED1DFF8B880EB
:10335000A8F10408D8F8008048EA0008DFF8A8902F
:10336000A9F10409C9F800800DE0DFF89C80A8F1FC
:103370000408D8F8008028EA0008DFF88C90A9F14A
:103380000409C9F80080D1F8048008F48038B8F541
:10339000803F0ED1DFF87080A8F10808D8F80080CF
:1033A00048EA0008DFF86090A9F10809C9F8008030
:1033B0000DE0DFF85480A8F10808D8F8008028EA6A
:1033C0000008DFF84490A9F10809C9F800805B1CE7
:1033D000D1F8008028FA03F8B8F1000F7FF47CAE32
:1033E000BDE8F887000011100010024000080140FD
:1033F000000C014000100140001401400018014081
:10340000001C014008000140080401400246936886
:103410000B400BB1012000E0002070470AB10161B0
:1034200001E00B0403617047014800687047000029
:103430002400002070B504460CB9012070BD94F83A
:103440003D0028B9002084F83C00204600F0DAF85E
:10345000242084F83D002068006820F001002168E5
:1034600008602068006840F4004021680860206817
:10347000006820F400402168086000F02DFC05463B
:103480005C496068884206D85B48854201D20120C9
:1034900007E0002005E05948854201D2012000E004
:1034A0000020012800D1C9E75548B5FBF0F6206897
:1034B000406820F03F003043216848604D49606813
:1034C000884201D8701C07E04FF4967070434FF4A7
:1034D0007A71B0FBF1F0401C2168096A21F03F01CC
:1034E00008432168086243496068884214D8681E0E
:1034F00061684900B0FBF1F0401CC0F30B000428E8
:1035000001D204203DE0681E61684900B0FBF1F083
:10351000401CC0F30B0034E0A06838B9681E616835
:1035200001EB4101B0FBF1F0401C0AE0681E61684C
:1035300001EBC10202EB0111B0FBF1F0401C40F4C1
:103540008040C0F30B0008B901201AE0A06848B918
:10355000681E616801EB4101B0FBF1F0401CC0F353
:103560000B000CE0681E616801EBC10202EB011167
:10357000B0FBF1F0401CC0F30B0040F4804040F47D
:1035800000402168C9694CF6FF72914308432168E5
:10359000C861D4E9070108432168096821F0C00126
:1035A000084321680860D4E903100843216889684A
:1035B00048F2FF329143084321688860D4E905014D
:1035C00008432168C96821F0FF0108432168C860E9
:1035D0002068006840F00100216808600020206435
:1035E000202084F83D000020206384F83E0000BFC6
:1035F00024E70000A086010080841E0000093D0031
:1036000040420F0010B586B004460020029003909F
:10361000049005901A49206888422FD100BF1948AC
:10362000806940F00800174988610846806900F009
:103630000800019000BF00BF4FF4407002901220BC
:1036400003900320059002A90F48FFF73FFD00BF3C
:103650000E49486840F0E06040F00200486000BF5A
:1036600000BF0848C06940F400100649C861084618
:10367000C06900F40010019000BF00BF06B010BD8B
:103680000054004000100240000C014000000140C6
:1036900003480068034909780844014908607047F5
:1036A000240000202C00002010B50848006840F0DD
:1036B000100006490860032000F0E2F80F2000F037
:1036C00007F800F05FF8002010BD00000020024065
:1036D0002DE9F04188B004460027B846002600BF17
:1036E0002348C06940F004002149C8610846C06908
:1036F00000F00400019000BF00BF02A903A800F081
:10370000C3FA069F1FB900F0E7FA054602E000F091
:10371000E3FA45001748B5FBF0F0A0F101081648A0
:103720001649086040F2E7311448C160C0F80480CF
:10373000002101618160816101F01EFB064696B99E
:103740000E4801F04DFB06466EB91E2000F04AF807
:10375000102C07D2002221461E2000F053F8084802
:10376000046000E00126304608B0BDE8F0810000AA
:103770000010024040420F000008004044090020B1
:103780002800002008B500BF1448806940F00100FF
:10379000124988610846806900F00100009000BF6E
:1037A00000BF00BF0846C06940F08050C8610846AD
:1037B000C06900F08050009000BF00BF00220F21C0
:1037C000901E00F01FF800BF0549486820F0E06037
:1037D00040F00070486000BF08BD000000100240CB
:1037E0000000014001460846002809DB00F01F03E5
:1037F00001229A4043099B0003F1E023C3F8002112
:1038000000BF70472DE9F05F80460D461646002741
:1038100005F0AAFD074639462A46334601F007005F
:10382000C0F1070ABAF1040F02D94FF0040A01E00F
:10383000C0F1070AD14600F1040ABAF1070F02D21B
:103840004FF0000A01E0A0F1030AD4464FF0010A4C
:103850000AFA09FAAAF1010A0AEA020A0AFA0CFAB1
:103860004FF0010B0BFA0CFBABF1010B0BEA030B56
:103870004AEA0B042146404605F07EFDBDE8F09F74
:1038800000BF00F00702064B19684FF6FF0319400E
:10389000044B0B4343EA0221014B196000BF704700
:1038A0000CED00E00000FA050120014908627047B4
:1038B00000000E422DE9F04706464FF000080025B3
:1038C00000270024A146042E37D004DC012E3CD072
:1038D000022E6CD160E0082E33D0102E67D136480E
:1038E0004468006800F0807008B33448C4F3834132
:1038F000475C04F4803078B12F484068C0F3404002
:103900002F4911F8008004F4803040B12D48B0FBFD
:10391000F8F000FB07F502E02B4807FB00F526480E
:10392000406800F48000B0F5800F01D1A94603E0A3
:1039300068000321B0FBF1F93AE000F0EDF98146AF
:1039400036E000F0E9F9814632E01B48046A04F4ED
:103950004070B0F5807F05D104F0020010B14FF443
:10396000004918E004F44070B0F5007F07D1124818
:10397000406A00F0020010B149F640490BE004F43F
:103980004070B0F5407F06D10B48006800F400306D
:1039900008B14FF224490BE000F0AEF9064949683E
:1039A000C1F38131491C4900B0FBF1F900E000BFCF
:1039B00000BF4846BDE8F08700100240A68001081D
:1039C000B680010800127A0000093D00F8B50446EF
:1039D00000260025207800F0010000286BD0002789
:1039E0004348C06900F0805070B900BF4048C069CA
:1039F00040F080503E49C8610846C06900F08050E0
:103A0000009000BF00BF01273A48006800F48070B2
:103A1000B0B93848006840F4807036490860FFF754
:103A200003FD064606E0FFF7FFFC801B642801D972
:103A30000320F8BD2F48006800F480700028F2D001
:103A40002B48006A00F440752DB3A08800F4407044
:103A5000A84220D02648006A20F44075012026495B
:103A60000860002008602248056205F0010090B15E
:103A7000FFF7DAFC064608E0FFF7D6FC801B41F2B0
:103A80008831884201D90320D3E71948006A00F041
:103A900002000028F0D01648006A20F440706168E7
:103AA000084313490862012F04D10846C06920F079
:103AB0008050C86100BF207800F00200022807D1C2
:103AC0000B48406820F44040A1680843084948601A
:103AD000207800F01000102807D10548406820F435
:103AE000800061690843024948600020A1E70000A6
:103AF00000100240007000404004424270B504468D
:103B00000D460CB9012070BD5A48006800F007004E
:103B1000A8420ED25748006820F0070028435549B4
:103B200008600846006800F00700A84201D00120A4
:103B3000E9E7207800F0020002281DD1207800F08B
:103B40000400042805D14C48406840F4E0604A492C
:103B50004860207800F00800082805D146484068F1
:103B600040F46050444948604348406820F0F00009
:103B7000A168084340494860207800F0010078B30C
:103B80006068012806D13C48006800F4003090B914
:103B90000120B8E76068022806D13748006800F0C5
:103BA000007040B90120AEE73348006800F0020021
:103BB00008B90120A7E73048406820F00300616899
:103BC00008432D494860FFF72FFC064609E0FFF740
:103BD0002BFC801B41F28831884202D9032092E7F6
:103BE00007E02548406800F00C006168B0EB810FE9
:103BF000EDD12048006800F00700A8420ED91D480A
:103C0000006820F0070028431A4908600846006849
:103C100000F00700A84201D0012074E7207800F0EE
:103C20000400042807D11448406820F4E060E168EB
:103C3000084311494860207800F00800082808D19E
:103C40000D48406820F46050216940EAC1000A49EB
:103C5000486000F061F808494968C1F30311074A58
:103C6000515CC8400649086006480068FFF730FD0F
:103C7000002048E70020024000100240B880010800
:103C800030000020280000200F2202600D4A5268F8
:103C900002F0030242600B4A526802F0F0028260B6
:103CA000084A526802F4E062C260064A526802F4AE
:103CB0006052D2080261044A126802F007020A60E8
:103CC00070470000001002400020024001480068D8
:103CD000704700003000002000B5FFF7F7FF0449EF
:103CE0004968C1F30221034A515CC84000BD00008D
:103CF00000100240C880010800B5FFF7E7FF044943
:103D00004968C1F3C221034A515CC84000BD0000AC
:103D100000100240C880010870B500210022002474
:103D200000230020134D696801F00C05F5B1042D46
:103D300002D0082D19D101E00F4819E00F4DC1F351
:103D40008346AB5D01F4803555B10A4D6D68C5F30E
:103D500040450B4E725D084D5D43B5FBF2F402E049
:103D6000084D03FB05F4204602E000BF024800BFF7
:103D700000BF70BD0010024000127A00948001085C
:103D8000A480010800093D00F8B504460CB90120E3
:103D9000F8BD207800F00100002878D0F84840688D
:103DA00000F00C0004280CD0F548406800F00C002E
:103DB000082811D1F248406800F48030B0F5803F07
:103DC0000AD1EF48006800F4003000285FD0606836
:103DD00000285CD10120DBE700BF6068B0F5803FC0
:103DE00006D1E748006840F48030E549086028E0E3
:103DF000606858B9E248006820F48030E049086003
:103E00000846006820F4802008601AE06068B0F579
:103E1000A02F0BD1DA48006840F48020D849086010
:103E20000846006840F4803008600AE0D448006822
:103E300020F48030D24908600846006820F48020D1
:103E4000086000BF606888B1FFF7EEFA054606E03B
:103E5000FFF7EAFA401B642801D9032098E7C84815
:103E6000006800F400300028F2D010E0FFF7DCFA20
:103E7000054606E0FFF7D8FA401B642801D9032065
:103E800086E7BF48006800F400300028F2D12078AF
:103E900000F00200022857D1B948406800F00C0039
:103EA00050B1B748406800F00C00082818D1B44859
:103EB000406800F4803098B9B148006800F0020012
:103EC00020B12069012801D0012061E7AC480068D9
:103ED00020F0F800616940EAC100A949086033E0B8
:103EE0002069E8B10120A7490860FFF79DFA05465F
:103EF00006E0FFF799FA401B022801D9032047E7A3
:103F00009F48006800F002000028F2D09C4800683A
:103F100020F0F800616940EAC1009949086013E0A7
:103F2000002098490860FFF77FFA054606E0FFF792
:103F30007BFA401B022801D9032029E7904800683A
:103F400000F002000028F2D1207800F008000828D4
:103F50002DD1A069B8B101208B490860FFF764FA40
:103F6000054606E0FFF760FA401B022801D903204E
:103F70000EE78348406A00F002000028F2D00120DA
:103F800002F048FF13E000207F490860FFF74CFA79
:103F9000054606E0FFF748FA401B022801D9032036
:103FA000F6E67748406A00F002000028F2D1207857
:103FB00000F00400042873D100277148C06900F0A4
:103FC000805070B900BF6E48C06940F080506C49A5
:103FD000C8610846C06900F08050009000BF00BF73
:103FE00001276A48006800F48070B0B9674800682B
:103FF00040F4807065490860FFF716FA054606E050
:10400000FFF712FA401B642801D90320C0E65F487D
:10401000006800F480700028F2D000BFE06801283A
:1040200006D15748006A40F001005549086227E070
:10403000E06858B95248006A20F00100504908620F
:104040000846006A20F00400086219E0E0680528CC
:104050000BD14B48006A40F0040049490862084609
:10406000006A40F0010008620AE04548006A20F05A
:104070000100434908620846006A20F00400086213
:1040800000BFE068A0B1FFF7CFF9054609E0FFF7F0
:10409000CBF9401B41F28831884202D9032077E6F0
:1040A00022E03748006A00F002000028EFD012E05A
:1040B000FFF7BAF9054608E0FFF7B6F9401B41F2F1
:1040C0008831884201D9032062E62D48006A00F059
:1040D00002000028F0D1012F05D12948C06920F045
:1040E00080502749C86100BFE069C8B324484068D0
:1040F00000F00C00082860D0E069022848D10020B8
:1041000020490866FFF790F9054606E0FFF78CF9AD
:10411000401B022801D903203AE61948006800F044
:1041200000700028F2D1206AB0F5803F07D1144812
:10413000406820F40030A168084311494860D4E980
:10414000080108430E49496821F4741108430C49D9
:10415000486001200B490866FFF766F9054607E04D
:104160003DE0FFF761F9401B022801D903200FE66B
:104170000348006800F000700028F2D02FE0000033
:1041800000100240000042428004424200700040A1
:10419000002014490866FFF747F9054606E0FFF7D7
:1041A00043F9401B022801D90320F1E50E480068BD
:1041B00000F000700028F2D111E0E069012800D180
:1041C000E6E50948466806F48031206A814204D158
:1041D00006F47011606A814201D00120D8E5002008
:1041E000D6E50000000042420010024070477047D0
:1041F00010B504462068006800F00100F0B12068A6
:10420000406800F00100C8B120684068C0F3800039
:1042100048B12046FFF7EBFF6FF0040021684860CB
:104220000420607404E02046FFF7E0FF0120607482
:104230002068406820F001002168486010BDF8B592
:1042400005460C4616460020009005B10CB9012029
:10425000F8BD00226946284600F01AF808B101208E
:10426000F6E7287B2070E87BE070687B6070A87BB5
:10427000A0705EB1E07802F0ECFDE070607802F0D2
:10428000E8FD6070A07802F0E4FDA0700020DFE798
:104290002DE9F04780460C46914600250026AA46A7
:1042A0000027B8F1000F00D014B90120BDE8F08755
:1042B000D8F800004068C0F3800008B10120F5E79D
:1042C000404602F0A2FE05464FF46160B5FBF0F7F0
:1042D000B5FBF0F100FB11503C21B0FBF1F0607038
:1042E0004FF46160B5FBF0F100FB11503C21B0FBD5
:1042F000F1F201FB1200A070182F39D31820B7FB80
:10430000F0FAB7FBF0F100FB11702070404602F0AC
:1043100070FE0646701C18B1AE4201D9761B01E052
:104320004FF0FF360AEB4A00C000C0EB4011C1EB72
:104330000020A5EB00152946404602F0FAFE08B120
:104340000120B3E7701C38B12E443146404602F0DC
:10435000D9FE40B10120A9E73146404602F0D2FE25
:1043600008B10120A2E75146404602F07FFD00E07F
:104370002770B9F1000F0BD0207802F06AFD207091
:10438000607802F066FD6070A07802F062FDA070B7
:1043900000208BE770B5044600250CB9012070BDE4
:1043A000607C20B900202074204600F053F80220E1
:1043B0006074204600F060F918B104206074012098
:1043C000EDE7204602F0ADFD18B104206074012035
:1043D000E5E72068406820F0070021684860A06891
:1043E00028B11B48006820F00100194908601848EE
:1043F000001F006820F46070A16808431449091F79
:1044000008606068401C08B1656809E00120FFF79A
:1044100051FA05461DB9042060740120BFE76D1EE6
:10442000C5F3034021688860A8B22168C8602046AF
:1044300002F094FD18B1042060740120AFE7002160
:10444000E17301216173A173012060740020A6E76C
:10445000306C004038B504460F49206888421AD1B4
:10446000FFF722FA00BF0D48C06940F000600B4919
:10447000C8610846C06900F00060009000BF00BF3E
:10448000012007490860002205210320FFF7BAF93F
:104490000320FFF7A7F938BD0028004000100240B4
:1044A0003C0442422DE9F04704460D469046002662
:1044B0000027B14604B115B90120BDE8F08700BF5F
:1044C000207C012801D10220F7E70120207400BFE1
:1044D00002206074B8F1000F06D1E978E1736978C1
:1044E0006173A978A1730BE0E87802F0A7FCE07390
:1044F000687802F0A3FC6073A87802F09FFCA073B8
:10450000A27B617BE07B02F0BBFD2073207B2870E7
:10451000204602F07AFD06464FF46160B6FBF0F9E2
:10452000B9F1180F2FD91820B9FBF0F000EB4000BB
:10453000C000C0EB4011C1EB0020A6EB00163146D5
:10454000204602F0F6FD38B10420607400BF002060
:10455000207400BF0120B0E7204602F04AFD074664
:10456000781C80B1B7420ED20B480744394620462A
:1045700002F0C8FD38B10420607400BF0020207430
:1045800000BF012099E70120607400BF0020207463
:1045900000BF00BF91E70000805101002DE9F04706
:1045A00004460D4690460026002704B115B90120A7
:1045B000BDE8F08700BF207C012801D10220F7E789
:1045C0000120207400BF02206074B8F1000F0BD1ED
:1045D00028784FF4616148436978C1EB011100EB21
:1045E0008100A978461812E0287802F027FC4FF4E1
:1045F000616100FB01F9687802F020FCC0EB00105B
:1046000009EB8009A87802F019FC09EB0006314695
:10461000204602F08EFD38B10420607400BF0020F7
:10462000207400BF0120C3E72068406820F0050027
:1046300021684860204602F0DCFC0746781C80B107
:10464000B7420ED20B4807443946204602F05AFDC5
:1046500038B10420607400BF0020207400BF012026
:10466000A6E70120607400BF0020207400BF00BFD7
:104670009EE700008051010070B5044600250CB98A
:10468000012070BD2068406820F008002168486063
:10469000FEF7CAFE054607E0FEF7C6FE401BB0F572
:1046A0007A7F01D90320ECE72068406800F0080019
:1046B0000028F1D00020E4E770470000F8B5044678
:1046C0002068466820688568C5F3801048B905F001
:1046D000010030B1C6F3801018B12046216C884724
:1046E000F8BDC5F3400030B1C6F3C01018B1204684
:1046F000616C8847F4E7C5F3401018B9C5F3801022
:10470000002871D0C6F3401000286DD0C5F380108A
:10471000F0B194F8510003280ED0606D40F0040011
:10472000606500BF002000902068C068009020688D
:104730008068009000BF0BE000BF00200090206860
:10474000C068009020688068009000BF00BFC7E785
:10475000C5F3401088B1606D40F00100606500BF96
:10476000002000902068806800902068006820F099
:1047700040002168086000BF00BF606D70B3206812
:10478000406820F0E00021684860012084F8510072
:1047900006F0020010B906F0010000B3206840687E
:1047A00020F0030021684860E06C50B10F48E16CD4
:1047B0004863E06CFEF732F918B1606D40F04000DC
:1047C0006065A06C50B10948A16C4863A06CFEF70D
:1047D00025F918B1606D40F04000606502E02046A8
:1047E000FFF76AFF7CE7FFE700BF79E72D8000084D
:1047F00010B504460CB9012010BD606A38B9606874
:10480000B0F5827F00D105E00021E16102E00021E6
:10481000216161610021A16294F8510028B9002052
:1048200084F85000204600F043F8022084F851003C
:104830002068006820F0400021680860A08800F42B
:104840008270218901F404410843A18901F40061C7
:104850000843217C01F002010843217D01F00101A0
:104860000843218B01F400710843217F01F03801D6
:1048700008432021095D01F080010843218D01F4E6
:1048800000510843216808600421A06901EA104032
:10489000216848602068C06920F400602168C86110
:1048A00000206065012084F851000020A4E700008A
:1048B00010B586B004460020029003900490059045
:1048C00037492068884236D100BF3648806940F4B5
:1048D0008050344988610846806900F48050019016
:1048E00000BF00BF00BF0846806940F00400886137
:1048F0000846806900F00400019000BF00BFA020BE
:104900000290022003900320059002A92648FEF79A
:10491000DDFB4020029000200390049002A9224871
:10492000FEF7D4FB002205212320FEF76BFF232096
:10493000FEF758FF31E01D49206888422DD100BFA5
:104940001848C06940F400401649C8610846C0696B
:1049500000F40040019000BF00BF00BF084680691E
:1049600040F0080088610846806900F00800019066
:1049700000BF00BF28200290022003900320059072
:1049800002A90B48FEF7A2FB102002900020039022
:10499000049002A90648FEF799FB06B010BD00007E
:1049A000003001400010024000080140003C00407F
:1049B000000C014070472DE9FF5F04468846914690
:1049C0001D460E9E012002900020019000BF94F829
:1049D0005000012803D1022004B0BDE8F09F01205F
:1049E00084F8500000BFFEF71FFD074694F851B051
:1049F00060680390AA46BBF1010F0BD00398B0F595
:104A0000827F04D1A06810B9BBF1040F02D002204C
:104A10000190E9E0B8F1000F03D0B9F1000F00D028
:104A200015B901200190DFE094F85100042802D06C
:104A3000052084F8510000206065C4F83890E587AF
:104A4000A587C4F83080E586A58620646064206868
:104A5000006800F04000402805D02068006840F061
:104A6000400021680860E068B0F5006F4DD16068D3
:104A700010B1BAF1010F09D1206B00882168C8601C
:104A8000206B801C2063E08E401EE08636E02068AC
:104A9000806800F00200022810D1E08E70B1029808
:104AA00001280BD1206B00882168C860206B801C16
:104AB0002063E08E401EE08600200290206880681F
:104AC00000F0010068B1E08F58B12068C068A16BA8
:104AD0000880A06B801CA063E08F401EE08701204F
:104AE0000290FEF7A1FCC01BB04207D3701C28B196
:104AF00003200190012084F8510075E0E08E002829
:104B0000C5D1E08F0028C2D14DE0606810B1BAF184
:104B1000010F09D1206B007821680873206B401CBD
:104B20002063E08E401EE08637E02068806800F059
:104B30000200022810D1E08E70B1029801280BD13A
:104B4000206B007821680873206B401C2063E08E86
:104B5000401EE086002002902068806800F001007E
:104B600068B1E08F58B12068C068A16B0870A06B75
:104B7000401CA063E08F401EE08701200290FEF7FA
:104B800053FCC01BB04201D3701C00B92EB90320E6
:104B90000190012084F8510026E0E08E0028C4D165
:104BA000E08F0028C1D13A463146204603F048FA4A
:104BB00020B1012001902020606515E0A06850B967
:104BC00000BF002000902068C068009020688068C6
:104BD000009000BF00BF606D10B10120019002E0A5
:104BE000012084F8510000BF00BF002084F850006D
:104BF00000BF0198F0E60000F0B50446002700BFB2
:104C000094F85000012801D10220F0BD012084F861
:104C1000500000BF94F851506668012D08D0B6F5D9
:104C2000827F03D1A06808B9042D01D0022735E0A6
:104C300009B102B10BB9012730E094F85100042802
:104C400002D0052084F85100002060652163A3860E
:104C5000E386A263A387E387E06820B1134820645A
:104C60001348606403E013482064134860642068BC
:104C7000406840F0E000D4F800C0CCF804002068A0
:104C8000006800F04000402807D02068006840F02D
:104C90004000D4F800C0CCF8000000BF00BF0020E6
:104CA00084F8500000BF3846AFE70000017E0008DE
:104CB000697E0008357E00089D7E000830B50346F9
:104CC000002400BF93F85000012801D1022030BD1C
:104CD000012083F8500000BF01B10AB901243BE074
:104CE00093F85100012801D0022435E0032083F815
:104CF00051000020586519639A86DA869863988770
:104D0000D8871864D86810B11748586401E017486C
:104D100058649868B0F5004F0BD11868006820F00F
:104D200040001D6828601868006840F480401D68D5
:104D300028601868406840F0A0001D686860186826
:104D4000006800F04000402805D01868006840F076
:104D500040001D68286000BF00BF002083F850009D
:104D600000BF2046B3E70000658300088983000880
:104D7000704770477047704710B504460CB9012062
:104D800010BD94F83D0028B9002084F83C0020466E
:104D900000F025F8022084F83D00211D206803F072
:104DA00053FF012084F8460000BF84F83E00012133
:104DB0003F200155402001554120015500BF00BF53
:104DC000012084F84200432001554420015545202C
:104DD000015500BF012084F83D000020D0E7704756
:104DE000014691F83D00012801D0012070470220C2
:104DF00081F83D000868C06840F001000B68D86089
:104E0000164B0868984213D0154B086898420FD08B
:104E10000868B0F1804F0BD0124B0868984207D059
:104E2000114B0868984203D0104B086898420CD187
:104E30000868806800F00702062A0CD0086800683D
:104E400040F001000B68186005E00868006840F059
:104E500001000B6818600020C8E70000002C01402A
:104E6000003401400004004000080040000C0040F5
:104E7000704710B5044620680069C0F34000D8B1FF
:104E80002068C068C0F34000B0B16FF00200216834
:104E90000861012020772068806900F0030018B1C4
:104EA0002046FFF7E5FF05E0204600F0ADF820467C
:104EB00000F0ABF80020207720680069C0F3800084
:104EC000D8B12068C068C0F38000B0B16FF00400B2
:104ED00021680861022020772068806900F4407012
:104EE00018B12046FFF7C4FF05E0204600F08CF81B
:104EF000204600F08AF80020207720680069C0F37F
:104F0000C000D8B12068C068C0F3C000B0B16FF075
:104F1000080021680861042020772068C06900F03B
:104F2000030018B12046FFF7A3FF05E0204600F07C
:104F30006BF8204600F069F80020207720680069AF
:104F4000C0F30010D8B12068C068C0F30010B0B141
:104F50006FF0100021680861082020772068C06980
:104F600000F4407018B12046FFF782FF05E02046AC
:104F700000F04AF8204600F048F80020207720682A
:104F8000006900F0010058B12068C06800F001001D
:104F900030B16FF0010021680861204600F036F85A
:104FA00020680069C0F3C01058B12068C068C0F321
:104FB000C01030B16FF08000216808612046FFF713
:104FC000D9FE20680069C0F3801058B12068C0681D
:104FD000C0F3801030B16FF04000216808612046B6
:104FE00000F020F820680069C0F3401058B1206834
:104FF000C068C0F3401030B16FF020002168086134
:105000002046FFF7B8FE10BD7047704710B5044644
:1050100003492068884201D1FEF73AFB10BD000029
:10502000000800407047704770B5044600252068AE
:105030004069C0F3C01594F84100212817D1B5B1DB
:1050400000BF00BF2168143151E8001F21F080002B
:105050002168143141E80002002AF3D100BFA06B9F
:1050600010B1A06BFDF7AEFC204603F029FF2068CD
:105070004069C0F3801594F84200222817D1B5B1D9
:1050800000BF00BF2168143151E8001F21F040002B
:105090002168143141E80002002AF3D100BFE06B1F
:1050A00010B1E06BFDF78EFC204603F0C3FE00203C
:1050B00070BD70472DE9F84F0446206805682068E8
:1050C000C668206847694FF00009CA4605F00F0915
:1050D000B9F1000F0AD105F0200038B106F0200028
:1050E00020B1204603F0FFFEBDE8F88FB9F1000FB4
:1050F0007BD007F0010018B906F49070002874D036
:1051000005F0010030B106F4807018B1606C40F019
:105110000100606405F0040030B107F0010018B12F
:10512000606C40F00200606405F0020030B107F0EE
:10513000010018B1606C40F00400606405F00800E4
:1051400048B106F0200010B907F0010018B1606CFA
:1051500040F008006064606C002845D005F0200035
:1051600028B106F0200010B1204603F0BCFE2068F4
:105170004069C0F3801A606C00F0080010B9BAF101
:10518000000F2CD0204603F055FE2068406900F047
:10519000400000B300BF00BF2168143151E8001F78
:1051A00021F040002168143141E80002002AF3D1C7
:1051B00000BFE06B50B17748E16B4863E06BFDF7EF
:1051C0002DFC88B1E06B416B88470DE02046FFF76E
:1051D00070FF09E009E02046FFF76BFF04E020467E
:1051E000FFF767FF002060647EE7206B012877D11E
:1051F00005F01000002873D006F010000028FAD047
:1052000000BF00200090206800680090206840687F
:10521000009000BF00BF2068406900F040000028F7
:105220005FD0E06B006840681FFA80F8B8F1000FAB
:1052300055D0A08D404552DDA4F82E80E06B8069EA
:10524000202843D000BF00BF21680C3151E8001F67
:1052500021F4807021680C3141E80002002AF3D16A
:1052600000BF00BF00BF2168143151E8001F21F0CA
:1052700001002168143141E80002002AF3D100BF87
:1052800000BF00BF2168143151E8001F21F0400029
:105290002168143141E80002002AF3D100BF202028
:1052A00084F842000020206300BF00BF21680C3159
:1052B00051E8001F21F0100021680C3141E8000284
:1052C000002AF3D100BFE06BFDF77CFB0220606396
:1052D000A08DE28D801A81B22046FFF7A4FE03E77D
:1052E00042E0A08DE18D401A1FFA80F8E08DD0B326
:1052F000B8F1000F37D000BF00BF21680C3151E872
:10530000001F21F4907021680C3141E80002002A4E
:10531000F3D100BF00BF00BF2168143151E8001F66
:1053200021F001002168143141E80002002AF3D184
:1053300000BF202084F842000020206300BF00BF8F
:1053400021680C3151E8001F21F0100021680C3158
:1053500041E80002002AF3D100BF02206063414609
:105360002046FFF760FEBFE605F0800030B106F092
:10537000800018B1204603F017FFB5E605F04000A5
:1053800030B106F0400018B1204603F089FDABE6CD
:1053900000BFA9E6F98C000810B504460CB901203D
:1053A00010BDA06900B100E000BF94F8410028B929
:1053B000002084F84000204600F02AF8242084F8D9
:1053C00041002068C06820F400502168C860204671
:1053D00003F008FE2068006920F49040216808610D
:1053E0002068406920F02A00216848612068C06870
:1053F00040F400502168C86000206064202084F8D8
:10540000410084F842000020606300BFC8E700004C
:1054100010B586B0044600200290039004900590D9
:10542000AF492068884250D100BFAE48C06940F4FF
:105430000020AC49C8610846C06900F40020019012
:1054400000BF00BF00BF0846806940F010008861BF
:105450000846806900F01000019000BF00BF0815E9
:105460000290022003900320059002A99E48FDF7B8
:105470002DFE4FF40060029000200390049002A9DA
:105480009948FDF723FE9948994908600020486033
:105490000021974881608021C16000210161416144
:1054A0008161C161FDF75AFD08B1FCF751FE00BFF3
:1054B0008F48E063446200BF002205213420FEF7DC
:1054C000A1F93420FEF78EF907E18A492068884265
:1054D00050D100BF8348806940F480408149886191
:1054E0000846806900F48040019000BF00BF00BF03
:1054F0000846806940F0040088610846806900F031
:105500000400019000BF00BF4815029002200390E4
:105510000320059002A97848FDF7D8FD4FF480607C
:10552000029000200390049002A97348FDF7CEFD7D
:10553000724873490860002048600021704881600B
:105540008021C1600021016141618161C161FDF77C
:1055500005FD08B1FCF7FCFD00BF6948E06344624B
:1055600000BF002205212520FEF74CF92520FEF77B
:1055700039F9B2E063492068884259D100BF5948DF
:10558000C06940F400305749C8610846C06900F45A
:105590000030019000BF00BF00BF0846806940F0A6
:1055A000200088610846806900F02000019000BF5B
:1055B00000BF20200290022003900320059002A942
:1055C0005148FDF783FD4020029000200390049095
:1055D00002A94D48FDF77AFD00BF4C49486840F0EC
:1055E000E06040F00800486000BF4448143048497B
:1055F0000860002048600021454881608021C1602A
:105600000021016141618161C161FDF7A7FC08B121
:10561000FCF79EFD00BF3E48E063446200BF0022ED
:1056200005212620FEF7EEF82620FEF7DBF854E0F1
:1056300038492068884250D100BF2A48C06940F4E8
:1056400080202849C8610846C06900F48020019084
:1056500000BF00BF00BF0846806940F008008861B5
:105660000846806900F00800019000BF00BF0815DF
:105670000290022003900320059002A92648FDF71E
:1056800025FD4FF40060029000200390049002A9D1
:105690002148FDF71BFD19482838204908600020E3
:1056A000486000211D4881608021C16000210161A6
:1056B00041618161C161FDF751FC08B1FCF748FD12
:1056C00000BF1648E063446200BF00220521272086
:1056D000FEF798F82720FEF785F806B010BD000009
:1056E000004C004000100240001001403004024015
:1056F00034080020003801400008014058000240F2
:1057000078080020004400400014014000000140DF
:10571000BC08002000480040000C014000090020A7
:1057200070B504460D46164694F8420020280BD169
:1057300005B10EB9012070BD002020633246294614
:10574000204603F0CDFCF6E70220F4E770477047EF
:105750002DE9F84F04460E46174699464FF0000AC9
:1057600094F8410020284AD106B117B90120BDE8BC
:10577000F88F00206064212084F84100FDF754FE7A
:105780008246A784E784A068B0F5805F04D12069D1
:1057900010B90025B04602E035464FF000081BE086
:1057A0005346002280212046CDF8009003F02CFDC6
:1057B00008B10320DBE745B9B8F80000C0F30800E2
:1057C0002168486008F1020803E0287821684860F1
:1057D0006D1CE08C401EE084E08C0028E0D1534634
:1057E000002240212046CDF8009003F00DFD08B1C5
:1057F0000320BCE7202084F841000020B7E7022006
:10580000B5E77047F0B503460C4615460026194823
:1058100090F80004012801D00020F0BD0020154FB1
:1058200087F8000429461CE01248405C1F78B84203
:1058300015D101261A460AE00E48405C1778B84296
:1058400003D1521C481C81B201E0002602E010780E
:105850000028F1D100BF012E01D1218006E0481CB3
:1058600081B20448B0F802048842DDDC00BFF0B227
:10587000D3E70000E882002000BFFEE770B50446D1
:105880000D460B2C01D2002C02DA4FF0FF3070BD18
:10589000034800EBC4004168284688470020F6E72B
:1058A000CC01002010B50446012C05D10022C10214
:1058B0000448FDF7B3FD04E00122D1020148FDF7E1
:1058C000ADFD10BD000801402DE9F04104460D4634
:1058D00016461F462A2000F07FFD04F1500188B2D1
:1058E00000F06AFD06F1500188B200F065FD2B2042
:1058F00000F072FD284600F05FFD384600F05CFDC8
:105900002C2000F069FDBDE8F0812DE9FE4305463D
:105910000E4614469946DDE90A782EE020787F2865
:1059200014DD10204B4622463146CDE90108009790
:10593000284600F0BDFAA41C05F1100085B2F02D38
:105940001BDB002506F1100086B216E020787F28C8
:1059500013DC1020CDE90108009722784B46314630
:10596000284600F00FF9641C05F1080085B2F02DFF
:1059700003DB002506F1100086B220780D2802D046
:1059800020780028CAD1BDE8FE8370B504460D46D4
:1059900016462B46224629462046FFF795FF3046FD
:1059A00000F00AFD70BD2DE9F04706460F4614468B
:1059B0001D46DDF820A0681E83B2601E82B2394603
:1059C0003046FFF781FFB8460EE0B14606E050468C
:1059D00000F0F2FC09F101001FFA80F9A945F6DB9D
:1059E00008F101001FFA80F8A045EEDBBDE8F08762
:1059F00010B500224FF480616148FDF70FFD64206F
:105A000006F047FE012291025D48FDF707FD642084
:105A100006F03FFE112000F0DFFC782006F039FE92
:105A2000362000F0D9FCA02000F0CFFC3A2000F096
:105A3000D3FC052000F0C9FCB22000F0CDFC0C2006
:105A400000F0C3FC0C2000F0C0FC002000F0BDFC06
:105A5000332000F0BAFC332000F0B7FCB72000F090
:105A6000BBFC352000F0B1FCBB2000F0B5FC3220BF
:105A700000F0ABFCC22000F0AFFC012000F0A5FC60
:105A8000C32000F0A9FC152000F09FFCC42000F00A
:105A9000A3FC202000F099FCC62000F09DFC0F2004
:105AA00000F093FCD02000F097FCA42000F08DFCC7
:105AB000A12000F08AFCE02000F08EFCD02000F055
:105AC00084FC082000F081FC0E2000F07EFC092000
:105AD00000F07BFC092000F078FC052000F075FC4C
:105AE000312000F072FC332000F06FFC482000F001
:105AF0006CFC172000F069FC142000F066FC1520F7
:105B000000F063FC312000F060FC342000F05DFC0C
:105B1000E12000F061FCD02000F057FC082000F0EC
:105B200054FC0E2000F051FC092000F04EFC09202E
:105B300000F04BFC152000F048FC312000F045FC43
:105B4000332000F042FC482000F03FFC172000F01A
:105B50003CFC142000F039FC152000F036FC31200C
:105B600000F033FC342000F030FC212000F034FC45
:105B7000292000F031FC112000F02EFC10BD0000A7
:105B8000001401402DE9FF5F80468A4617469B4678
:105B90000F9D00200290CDF80080284605EBD071C3
:105BA000C1F347042046E21704EB5272D21021469B
:105BB000E31704EB5373DB10A4EBC3030BB1012316
:105BC00000E000231A446A4392B20192A7F1200038
:105BD000C7B20AEB0500401E83B208EB0400401E6A
:105BE00082B251464046FFF76FFE002669E00C2D59
:105BF00007D107EB4700354901EB8000805D03903A
:105C00001BE0102D05D1324800EB0710805D03909A
:105C100013E0182D07D107EB47002E4901EB0010C8
:105C2000805D039009E0202D05D12B4800EB871003
:105C3000805D039001E0BDE8FF9F4FF000093AE06E
:105C40001098C8B9012000FA09F00399084018B16A
:105C5000584600F0B1FB02E00E9800F0ADFB029850
:105C6000401CC0B20290029890FBF4F104FB1100BA
:105C7000E8B90020029021E0012000FA09F0039920
:105C8000084020B15A4651464046FFF77EFE08F1D3
:105C900001001FFA80F80098A8EB0000A04206D18E
:105CA000DDF800800AF101001FFA80FA06E009F130
:105CB000010000F0FF09B9F1080FC1DB00BF701C43
:105CC00086B20198864292DB00BFB4E7D08001081B
:105CD00044850108348B0108049D01082DE9FE4F1D
:105CE0008046894617469A46DDE90D460C9D36E00A
:105CF0000C2C09D153463A4649464046CDE9014667
:105D0000009500F031F825E0102C09D153463A46B1
:105D100049464046CDE90146009500F0C9F819E032
:105D2000182C09D153463A4649464046CDE901462A
:105D3000009500F059F90DE0202C09D153463A4660
:105D400049464046CDE90146009500F0F1F901E0F1
:105D5000BDE8FE8FBF1C08EB04001FFA80F83878FE
:105D60000028C5D100BFF3E72DE9FF5F064689464D
:105D700092469B460F9C0020039000962046E21717
:105D800004EB5272D2102146E31704EB5373DB107D
:105D9000A4EBC3030BB1012300E000231A446243C8
:105DA00092B2019208200290002579E005EB85006F
:105DB00000EBC5003D4911F810009AF80010884228
:105DC0006BD105EB850000EBC500384901EB4000C5
:105DD00040789AF8011088425FD109EB0400401E18
:105DE00083B23019401E82B249463046FFF76CFD3F
:105DF00000274FE04FF0000846E0109808BB05EB85
:105E0000850000EBC500294901EB4000801CC05D06
:105E1000012101FA08F1084018B1584600F0CCFA07
:105E200002E00E9800F0C8FA0398401CC0B203903C
:105E3000039890FBF4F104FB110008BB00200390D1
:105E400025E005EB850000EBC500184901EB40009B
:105E5000801CC05D012101FA08F1084020B15A46BA
:105E600049463046FFF791FD701C86B20098301A03
:105E7000A04205D1009E09F101001FFA80F906E059
:105E800008F1010000F0FF08B8F1080FB5DB00BF12
:105E9000781CC7B201988742ACDB00BF681C85B292
:105EA0000298854282DBBDE8FF9F0000C4B4010870
:105EB0002DE9FF5F0646894692469B460F9C0020CF
:105EC000039000962046E21704EB5272D21021464E
:105ED000E31704EB5373DB10A4EBC3030BB10123F3
:105EE00000E000231A44624392B201921C20029007
:105EF000002571E005EB05103A4911F810009AF8F9
:105F00000010884265D105EB0510364901EB4000D1
:105F100040789AF8011088425BD109EB0400401EDA
:105F200083B23019401E82B249463046FFF7CCFC9E
:105F300000274BE04FF0000842E01098F8B905EB5D
:105F40000510284901EB4000801CC05D012101FAC9
:105F500008F1084018B1584600F02EFA02E00E98F9
:105F600000F02AFA0398401CC0B20390039890FBFB
:105F7000F4F104FB1100F8B90020039023E005EBD5
:105F80000510184901EB4000801CC05D012101FA99
:105F900008F1084020B15A4649463046FFF7F5FC63
:105FA000701C86B20098301AA04205D1009E09F1FB
:105FB00001001FFA80F906E008F1010000F0FF0877
:105FC000B8F1080FB9DB00BF781CC7B2019887424F
:105FD000B0DB00BF681C85B2029885428ADBBDE851
:105FE000FF9F000094B501082DE9FF5F0646894632
:105FF00092469B460F9C0020039000962046E21795
:1060000004EB5272D2102146E31704EB5373DB10FA
:10601000A4EBC3030BB1012300E000231A44624345
:1060200092B2019249200290002579E005EB8500AB
:1060300000EB45103D4911F810009AF80010884215
:106040006BD105EB850000EB4510384901EB4000B2
:1060500040789AF8011088425FD109EB0400401E95
:1060600083B23019401E82B249463046FFF72CFCFD
:1060700000274FE04FF0000846E0109808BB05EB02
:10608000850000EB4510294901EB4000801CC05DF4
:10609000012101FA08F1084018B1584600F08CF9C6
:1060A00002E00E9800F088F90398401CC0B20390FB
:1060B000039890FBF4F104FB110008BB002003904F
:1060C00025E005EB850000EB4510184901EB400089
:1060D000801CC05D012101FA08F1084020B15A4638
:1060E00049463046FFF751FC701C86B20098301AC2
:1060F000A04205D1009E09F101001FFA80F906E0D7
:1061000008F1010000F0FF08B8F1080FB5DB00BF8F
:10611000781CC7B201988742ACDB00BF681C85B20F
:106120000298854282DBBDE8FF9F00004CB9010860
:106130002DE9FF5F0646894692469B460F9C00204C
:10614000039000962046E21704EB5272D2102146CB
:10615000E31704EB5373DB10A4EBC3030BB1012370
:1061600000E000231A44624392B201921020029090
:10617000002571E005EB85103A4911F810009AF8F6
:106180000010884265D105EB8510364901EB4000CF
:1061900040789AF8011088425BD109EB0400401E58
:1061A00083B23019401E82B249463046FFF78CFB5D
:1061B00000274BE04FF0000842E01098F8B905EBDB
:1061C0008510284901EB4000801CC05D012101FAC7
:1061D00008F1084018B1584600F0EEF802E00E98B9
:1061E00000F0EAF80398401CC0B20390039890FBBB
:1061F000F4F104FB1100F8B90020039023E005EB53
:106200008510184901EB4000801CC05D012101FA96
:1062100008F1084020B15A4649463046FFF7B5FB21
:10622000701C86B20098301AA04205D1009E09F178
:1062300001001FFA80F906E008F1010000F0FF08F4
:10624000B8F1080FB9DB00BF781CC7B201988742CC
:10625000B0DB00BF681C85B2029885428ADBBDE8CE
:10626000FF9F000066CE01082DE9FF4F85B007466D
:1062700090461C46DDE91396304606EBD071C1F31B
:10628000470B21494046FAF7CAF80390FAF7C8F9D4
:1062900080B20490002531E0601B401EC1B20A208C
:1062A0000DF016F90499B1FBF0F00A21B0FBF1F200
:1062B00001FB120AA01EA84210D10020A11E01FB62
:1062C0000B71CDE90096029088B22E22129B06999E
:1062D000FFF758FC681CC5B2601CC4B200200AF16C
:1062E0003001CAB205FB0B71CDE90096029088B26D
:1062F000129B0699FFF746FC681CC5B2A542CBDB92
:1063000009B0BDE8F08F00000000C8422DE9FE4F43
:1063100007468A4690461D460E9E304606EBD071D3
:10632000C1F3470B00241DE0281B401EC1B20A2008
:106330000DF0CEF8B8FBF0F00A21B0FBF1F201FB52
:10634000120900210D98CDE90161009009F1300199
:10635000CAB204FB0B7188B251460C9BFFF712FCCA
:10636000601CC4B2AC42DFDBBDE8FE8F2DE9FE4FFE
:1063700006460F4614469846DDE90D5ADDF8309082
:1063800010E0CDE9015ACDF8009022784346394615
:106390003046FFF7F7FB284605EBD07106EB6101AD
:1063A0008EB2641C20780D2804D0207810B120789B
:1063B0007F28E6DDBDE8FE8F10B50446201200F010
:1063C0001FF8E0B200F01CF810BD10B504462046DE
:1063D00000F016F810BD000010B5044600224FF47E
:1063E00080410648FDF71AF8204600F009F801221E
:1063F00091030248FDF712F810BD0000000C0140A7
:1064000070B5044600224FF400411548FDF706F828
:1064100000251DE000224FF480711248FCF7FEFFBA
:1064200004F0800028B1012251020E48FCF7F6FF6B
:1064300005E000224FF400710A48FCF7EFFF01224B
:1064400011020848FCF7EAFF6006040E681CC5B29A
:10645000082DDFDB0122D1030148FCF7DFFF70BD0F
:10646000000C0140001401400EB500200090019086
:10647000029028482849086081152748816000213A
:1064800001730121017581614FF46021C161002018
:1064900021494860052120480161FCF71DF808B139
:1064A000FBF756FE012000900190052002906946FE
:1064B0001948FBF75DFF08B1FBF74AFE0220009088
:1064C000019069461448FBF753FF08B1FBF740FE03
:1064D0000A2000900320019069460F48FBF748FF0F
:1064E00008B1FBF735FE0D200090042001906946AD
:1064F0000948FBF73DFF08B1FBF72AFE1120009089
:106500000520019069460448FBF732FF08B1FBF70C
:106510001FFE0EBD00240140CC05002008B500BFC1
:106520001D48406940F001001B4948610846406928
:1065300000F00100009000BF00BF00BF08464069A6
:1065400040F0020048610846406900F002000090F7
:1065500000BF00BF002205210D20FDF753F90D20DB
:10656000FDF740F9002205210F20FDF74BF90F2020
:10657000FDF738F9002205211020FDF743F910201E
:10658000FDF730F9002205213A20FDF73BF93A20CA
:10659000FDF728F908BD00000010024000B5B1B0B9
:1065A0001C222A492AA8F9F7B7FE00212AA80DF0D3
:1065B000D8FC274908601C2224491C3123A8F9F77C
:1065C000ABFE002123A80DF0CCFC224908601C2260
:1065D0001E4938311CA8F9F79FFE00211CA80DF0B8
:1065E000C0FC1D4908601C221849543115A8F9F750
:1065F00093FE002115A80DF0B4FC184908601C2278
:10660000124970310EA8F9F787FE00210EA80DF08F
:10661000A8FC134908601C220C498C3107A8F9F723
:106620007BFE002107A80DF09CFC0E4908601C228F
:106630000649A8316846F9F76FFE002168460DF05B
:1066400090FC0949086031B000BD0000D07F01080E
:106650000C00002010000020140000201800002072
:1066600000000020040000200800002000B585B0D4
:106670000020019002900390049000BF764880694A
:1066800040F04000744988610846806900F040008D
:10669000009000BF00BF00BF0846806940F01000B6
:1066A00088610846806900F01000009000BF00BFBC
:1066B00000BF0846806940F0040088610846806990
:1066C00000F00400009000BF00BF00BF08468069D2
:1066D00040F0080088610846806900F008000090DA
:1066E00000BF00BF00BF0846806940F020008861FD
:1066F0000846806900F02000009000BF00BF002223
:106700004FF49D515548FCF789FE00224FF46D71FE
:106710005348FCF783FE002249F618115148FCF754
:106720007DFE002247F203014F48FCF777FE01226D
:10673000D1034D48FCF772FE00224EF21F714B4808
:10674000FCF76CFE012280214848FCF767FE01221D
:1067500002214248FCF762FE012204214048FCF776
:106760005DFE41F2A23001900120029000200390D2
:106770000220049001A93948FCF7A8FC42200190AE
:1067800000200290039001A93548FCF79FFC4FF4CC
:106790006D7001900120029000200390022004906F
:1067A00001A92F48FCF792FC0120019000200290E3
:1067B000039001A92B48FCF789FC49F618100190B9
:1067C00001200290002003900220049001A9254896
:1067D000FCF77CFC4FF203000190012002900020A6
:1067E00003900220049001A91F48FCF76FFC4FF4AE
:1067F0006C40019000200290039001A91748FCF71B
:1068000065FC4EF29F7001900120029000200390E1
:106810000220049001A91548FCF758FC4FF4C05021
:10682000019000200290039001A91048FCF74EFC53
:10683000C02001900E4802900020039001A90A4850
:10684000FCF744FC002205211720FCF7DBFF172092
:10685000FCF7C8FF05B000BD001002400018014061
:106860000010014000080140000C014000140140EC
:106870000000111010B50B480B4908600B48486028
:10688000002109488160C1604FF48041016100210D
:1068900041618161C1610162FCF7CCFD08B1FBF788
:1068A00057FC10BD00540040FC050020A0860100EC
:1068B0001CB50020019000901848194908604FF05D
:1068C000FF3048604FF4807115488160FDF762FD2C
:1068D00008B1FBF73DFC00208DF804008DF80500A1
:1068E0008DF80600012201A90D48FDF757FE08B1F9
:1068F000FBF72EFC01208DF800008DF80100002030
:106900008DF802008DF80300012269460448FDF766
:10691000C9FD08B1FBF71CFC1CBD000000280040AD
:106920005006002010B50F480F4908604FF48270E0
:10693000486000210C488160C16002210161012191
:106940004161490281610821C16100210162416206
:1069500081620A21C162FDF74BFF08B1FBF7F8FB2A
:1069600010BD0000003001406406002010B50E4844
:106970000E4908604FF48270486000210B48816026
:10698000C160016141614FF4007181610021C16109
:106990000162416281620A21C162FDF729FF08B1EB
:1069A000FBF7D6FB10BD0000003C0040BC060020F9
:1069B00010B50B480B4908604FF416504860002191
:1069C00008488160C16001610C2141610021816141
:1069D000C161FEF7E1FC08B1FBF7BAFB10BD000096
:1069E000004C00401407002010B50B480B4908600C
:1069F0004FF416504860002108488160C160016171
:106A00000C21416100218161C161FEF7C5FC08B123
:106A1000FBF79EFB10BD0000003801405C07002022
:106A200010B50B480B4908604FF4E1304860002175
:106A300008488160C16001610C21416100218161D0
:106A4000C161FEF7A9FC08B1FBF782FB10BD000095
:106A500000440040A407002010B50B480B49086013
:106A60004FF416504860002108488160C160016100
:106A70000C21416100218161C161FEF78DFC08B1EB
:106A8000FBF766FB10BD000000480040EC0700204B
:106A900000BFFEE710B5012008490870C8704870B3
:106AA0008870087148710020C8720021084600F003
:106AB00007F8024908780BF069FB10BDB0620020AE
:106AC00070B504460D4629462046FEF7D7FE70BD38
:106AD00000BFFEE770B505460C46062C1DD2DFE868
:106AE00004F085031D37516B002210214048FCF74C
:106AF00095FC012208213E48FCF790FC012204216C
:106B00003B48FCF78BFC012202213948FCF786FC4C
:106B1000012211463648FCF781FC67E00122102172
:106B20003348FCF77BFC002208213148FCF776FC57
:106B3000012204212E48FCF771FC012202212C487D
:106B4000FCF76CFC012211462948FCF767FC4DE07C
:106B5000012210212648FCF761FC0122082124486B
:106B6000FCF75CFC002204212148FCF757FC0122C1
:106B700002211F48FCF752FC012211461C48FCF779
:106B80004DFC33E0012210211948FCF747FC01229B
:106B900008211748FCF742FC012204211448FCF7A5
:106BA0003DFC002202211248FCF738FC012211466C
:106BB0000F48FCF733FC19E0012210210C48FCF7C8
:106BC0002DFC012208210A48FCF728FC012204219F
:106BD0000748FCF723FC012202210548FCF71EFCB4
:106BE000002201210248FCF719FC00BF00BF70BD64
:106BF0000014014010B50446012C05D10022010308
:106C00000448FCF70BFC04E0012211030148FCF7E7
:106C100005FC10BD0018014010B50446012C05D13B
:106C2000002241030448FCF7F9FB04E00122510370
:106C30000148FCF7F3FB10BD000C014010B5044601
:106C4000012C05D1012241020548FCF7E7FB05E0D4
:106C500000224FF400710248FCF7E0FB10BD000079
:106C6000001001402DE9F04107460C4615461E462E
:106C7000012F02D0022F0CD105E0324629462046D2
:106C800000F018F805E032462946204600F004F8E6
:106C900000BF00BFBDE8F08170B51546002200239B
:106CA00000BFA0F57A76B4188A4201DA002BF8D03A
:106CB00070BD00002DE9F05F0646894615460024A8
:106CC000A34600BFA6F57A7000EB040A5046BAF15D
:106CD0001B0F5DD00DDC172845D005DC98B10B28C3
:106CE00026D0162823D138E0192845D01A28F9D102
:106CF00048E01C3809281AD2DFE800F050565C61E1
:106D0000678181817B002819414902680A614268D4
:106D10004A6102890A83807A887601F1100003F0C3
:106D20008AFD0746F9F7BCFC394908600B3466E078
:106D3000281937491D3102680A6042684A60028991
:106D40000A81807A8872084603F075FD0746F9F7D4
:106D5000A7FC2F4948600B3451E0285D2C4981F88D
:106D60002C00641C4BE0601C295C285D01EB0020BA
:106D70002749C885A41C42E0285D254981F83000D8
:106D8000641C3CE0285D224981F83100641C36E037
:106D9000285D1F4981F83200641C30E0285D1C49E1
:106DA00081F83300641C2AE0285D194981F8340019
:106DB000641C24E0285D16490872641C1FE0285DED
:106DC000134981F82B00641C19E0285D0106601C42
:106DD000285C01EB0041A01C285C01EB0021E01CB9
:106DE000285C08440A49C860C8680DF0DBFD241D12
:106DF00005E0285D064981F82A00641C00BF00BF39
:106E00004C4503DABBF1000F3FF45CAFBDE8F09FE7
:106E1000A875002008B508490968C9084FF47A72B6
:106E2000B1FBF2F14143009100BF00BF00994A1E3F
:106E300000920029F9D108BD30000020014600BFB2
:106E4000080900EB8000420001F00F001044C0B2BE
:106E500070470146002203E0521CA1F10A00C1B2B2
:106E60000A29F9D2100741EA106070472DE9F0476E
:106E700006468846002700240025A146F77B747B40
:106E8000B57B00BF40E0012C0BD0032C09D0052CB2
:106E900007D0072C05D0082C03D00A2C01D00C2CCD
:106EA0000CD11F2D01D26D1C2CE00C2C02D0641CC7
:106EB000012527E0012401257F1C23E0042C05D0B7
:106EC000062C03D0092C01D00B2C06D11E2D01D28B
:106ED0006D1C17E0641C012514E0022C12D11C2D3E
:106EE00001D26D1C0EE01C2D08D1B8B200F068F87C
:106EF00008B16D1C06E0641C012503E01D2D01D1C5
:106F0000641C012509F10109C145BCD3F7737473F1
:106F1000B573EAB2E1B2384600F0B2F83073BDE8BA
:106F2000F08770B504460025FCF77EFA054607E0B9
:106F3000FCF77AFA401BB0F57A7F01D9032070BDC7
:106F40002068406800F020000028F1D020684068E8
:106F500040F01000216848600020F0E770B504465A
:106F600000252068406820F0100021684860FCF788
:106F70005BFA054607E0FCF757FA401BB0F57A7F4D
:106F800001D9032070BD2068406800F0200000286F
:106F9000F1D00020F6E70000002004490968090745
:106FA000080B0249091D0968084370471028004072
:106FB00010B50248FDF71CF910BD00005006002076
:106FC000014601F0030008B1002070476420B1FBC6
:106FD000F0F200FB121008B10120F6E74FF4C87080
:106FE000B1FBF0F200FB121008B90120EDE7002020
:106FF000EBE70146002200230868006A82B20868B5
:10700000406A83B243EA0240704730B5014600222D
:107010000023002400200D68AD69AAB20D68ED6957
:10702000ACB20D68AD69ABB29A4205D00D68ED699E
:1070300063F31F45284601E044EA024030BD0000EA
:107040002DE9F04704464FF47A70B4FBF0F100FBF1
:107050001149C9F57A70F9F7D2FA0746054A064B85
:10706000F9F74DFA0546F9F7EFFA04490860BDE86B
:10707000F0870000FCA9F1D24D6240401428004086
:10708000F0B504460B460021002504F5FA61032BF8
:107090001BD2C3EBC30000EB03100926B0FBF6F0D4
:1070A0001044001D4618481E06EB90066427B0FBEE
:1070B000F7F0361A481EBF00B0FBF7F03044072641
:1070C000B0FBF6F706FB17051AE0C3EBC30000EBB5
:1070D00003100926B0FBF6F01044001D084400EB35
:1070E00091006426B1FBF6F6801B4FF4C876B1FB25
:1070F000F6F63044801E0726B0FBF6F706FB1705B0
:10710000E8B2F0BD70B504460D4600262046FFF7F4
:1071100008FF08B101260AE0280C21680862A8B21D
:10712000216848622046FFF719FF00B1012630466A
:1071300070BD70B504460D4600262046FFF7F1FEEF
:1071400008B101260AE0280C21688861A8B22168EC
:10715000C8612046FFF702FF00B10126304670BD2E
:1071600001464A890B899A4201DA012000E0002099
:107170004A89142A01DB00234B81704710B504466D
:10718000012C05D1012280210448FCF747F904E0D5
:10719000002280210148FCF741F910BD0010014098
:1071A00010B50446012C05D1002210210448FCF73B
:1071B00035F904E0012210210148FCF72FF910BD38
:1071C0000010014010B50446012C05D10022082111
:1071D0000448FCF723F904E0012208210148FCF7E8
:1071E0001DF910BD000801407FB504460025FF26AB
:1071F000002202213E48FCF711F9FF2200210A205B
:1072000000F0A2FB002000F0D1FA98B9FE2000F0B7
:10721000CDFA40B900BF04E000F024FB0DF80500F2
:107220006D1C102DF8D3FF2000F0B2FBFF2000F002
:10723000AFFB0026012202212D48FCF7EFF8FF20CA
:1072400000F0A6FB9DF8000020709DF801000002F0
:10725000608060889DF80210084360809DF80300FC
:107260000006606060689DF8041040EA01406060BC
:1072700060689DF8051040EA0120606060689DF834
:107280000610084360609DF8070020729DF8080012
:1072900060729DF809000006E060E0689DF80A1041
:1072A00040EA0140E060E0689DF80B1040EA0120F0
:1072B000E060E0689DF80C100843E060207C9DF8D9
:1072C0000D1040EA111020749DF80D000007000D0C
:1072D0006082608A9DF80E10084360829DF80F005E
:1072E0004008207501206075304604B070BD000074
:1072F000001801407FB504460025FF260022022128
:107300008848FCF78BF8FF220021092000F01CFBC5
:10731000002000F04BFA98B9FE2000F047FA40B97F
:1073200000BF04E000F09EFA0DF805006D1C102D62
:10733000F8D3FF2000F02CFBFF2000F029FB0026F3
:10734000012202217748FCF769F8FF2000F020FBBA
:107350009DF80000800920709DF80000C0F38300B4
:1073600060709DF8000000F00300A0709DF801001F
:10737000E0709DF8020020719DF8030060719DF897
:1073800004000001E080E0889DF8051040EA11103B
:10739000E0809DF8050000F00F0020729DF80600C7
:1073A000C00960729DF80600C0F38010A0729DF8BD
:1073B0000600C0F34010E0729DF80600C0F3001014
:1073C0002073002060739DF806008007000D206187
:1073D00055480078012803D05348007802282AD164
:1073E00020699DF8071040EA8100206120699DF81E
:1073F000081040EA911020619DF80800C0F3C20017
:1074000020759DF8080000F0070060759DF80900E0
:107410004009A0759DF80900C0F38200E0759DF851
:1074200009008007400F2076207E9DF80A1040EA70
:10743000D110207613E03C48007804280FD19DF845
:1074400007008006800A206120699DF8081040EA44
:107450000120206120699DF80910084320619DF8F2
:107460000A00C0F3801004F8190F9DF80A00800686
:10747000400E607060789DF80B1040EAD11060708B
:107480009DF80B0000F07F00A0709DF80C00C00973
:10749000E0709DF80C00C0F3411020719DF80C00C5
:1074A000C0F3820060719DF80C008007000FA0718E
:1074B000A0799DF80D1040EA9110A0719DF80D0083
:1074C000C0F34010E071002020729DF80D0000F024
:1074D000010060729DF80E00C009A0729DF80E00B8
:1074E000C0F38010E0729DF80E00C0F340102073CE
:1074F0009DF80E00C0F3001060739DF80E00C0F3FD
:107500008100A0739DF80E0000F00300E0739DF869
:107510000F004008207401206074193C304604B00C
:1075200070BD000000180140940000202DE9F041DA
:107530000446FF252046FFF7DDFE054604F12C003A
:10754000FFF752FE054624480078012803D0224860
:107550000078022825D12069401C0021C4E91201CD
:10756000207ED4E91223801C012101FA00F0C1170A
:10757000A2FB006703FB007002FB0100C4E912607C
:10758000217A0120884020650021D4E91223206D52
:10759000A2FB006703FB007002FB0100C4E912605C
:1075A00016E00D480078042812D12069401C4FF4E1
:1075B0000071A0FB01104FF480630022A1FB036760
:1075C00000FB037001FB0200C4E912605810206543
:1075D0002846BDE8F081000094000020F8B50024A2
:1075E00040F6FF75012202215B48FBF717FFFF20E1
:1075F00000F0CEF9002202215748FBF70FFF872247
:107600004FF4D571082000F09FF900E06D1E00F0E6
:1076100029F90646FF2801D1002DF7D10DB9FF2029
:10762000F8BD052E1BD100BF012202214A48FBF7FD
:10763000F5FEFF2000F0ACF9002202214648FBF7DE
:10764000EDFEFF220021012000F07EF9002000F075
:10765000ADF80028E8D101204049087072E0012E01
:1076600070D1002404E000F0FDF80DF80400641C63
:10767000042CF8D3012202213748FBF7CFFEFF206C
:1076800000F086F9002202213348FBF7C7FE9DF87F
:107690000200012856D19DF80300AA2852D1C8251E
:1076A00000BFFF220021372000F04EF9002000F03B
:1076B0007DF808B9FF20B3E7FF224FF08041292071
:1076C00000F042F9281EA5F1010501D1FF20A7E72E
:1076D000002000F06BF80028E3D1C82500BF01228C
:1076E00002211D48FBF79AFEFF2000F051F900220D
:1076F00002211948FBF792FEFF2200213A2000F0F8
:1077000023F9002000F052F80028E8D1281EA5F146
:107710000105E4D00DB9FF2082E7002404E000F069
:10772000A1F80DF80400641C042CF8D39DF80000A7
:1077300000F0400018B104200849087002E002205F
:1077400006490870012202210348FBF767FEFF206B
:1077500000F01EF9002063E70018014094000020AB
:1077600070B5002518E000F07DF8044604F01F0411
:10777000052C04D00B2C04D00D2C06D103E00526DB
:1077800005E00B2070BD0D20FCE7FF2600BF00BF09
:10779000052E00D102E06D1C402DE4D900BF00BFD2
:1077A00000F060F80028FBD02046EBE770B50546F6
:1077B00040F6FF7400E0641E00F054F8A84201D0C7
:1077C000002CF8D10CB9FF2070BD0020FCE70000B0
:1077D00010B5002202210C48FBF720FE9522002163
:1077E000084600F0B1F80120FFF7E0FF08B1FF20E4
:1077F00010BD012202210448FBF710FEFF2000F01B
:10780000C7F80020F4E700000018014010B500247C
:10781000012202211048FBF701FE00BF03E0FF2018
:1078200000F0B6F8641C092CF9D9002400BFFFF75A
:10783000CFFFFFF7D3FE0948007818B92046641C33
:107840000A28F4D80548007808B9FF2010BD04487C
:10785000FFF76CFEFAE700000018014094000020DA
:10786000804600200EB5FF2001906FF07F4001237D
:1078700002AA01A900900448FDF79DF808B1FF2075
:1078800002909DF808000EBDBC0600202DE9F05FB7
:10789000074615461E46DDE90A8A4FF00009002416
:1078A0004FF0FF0B26480078042809D14FF40078E8
:1078B000C201002328463146F8F7A2FC05460E46D1
:1078C000002202211F48FBF7A9FD29E029194FF0EA
:1078D000FF024FF0110000F037F80020FFF766FFBD
:1078E00010B1FF20BDE8F09FFE20FFF75FFF90B9C9
:1078F0004FF0000905E0FFF7B5FF38707F1C09F174
:107900000109C145F7D34444FFF7ACFFFFF7AAFFD5
:107910004FF0000B01E04FF0FF0BFF2000F038F8B4
:10792000BAF10000AAF1010AD0D1012202210548D2
:10793000FBF774FDFF2000F02BF85846D2E700005B
:1079400094000020001801402DE9FC4106460C4639
:107950001746002546F040008DF80000200E8DF8F7
:107960000100200C8DF80200200A8DF80300E0B21F
:107970008DF804008DF8057000BF04E01DF80500C7
:1079800000F006F86D1C062DF8D3BDE8FC81000060
:107990003EB5044601946FF07F40012302AA01A97D
:1079A00000900448FDF707F808B1FF2002909DF809
:1079B00008003EBDBC0600202DE9F05F07461546D5
:1079C0001E46DDE90A8A4FF0000900244FF0FF0B44
:1079D00027480078042809D14FF40078C201002319
:1079E00028463146F8F70CFC05460E4600220221D7
:1079F0002048FBF713FD2CE029194FF0FF024FF050
:107A00001800FFF7A1FF0020FFF7D0FE10B1FF2004
:107A1000BDE8F09FFF20FFF7BBFFFE20FFF7B8FF98
:107A20004FF0000905E03878FFF7B2FF7F1C09F13D
:107A30000109C145F7D34444FFF714FFFFF712FFD4
:107A4000FFF78EFE052802D14FF0000B01E04FF04A
:107A5000FF0BBAF10000AAF1010ACDD101220221E7
:107A60000448FBF7DBFCFF20FFF792FF5846CFE707
:107A700094000020001801402DE9F84F05460F46FC
:107A800090469A46544695F8A80203283DDD4FF0EB
:107A9000000937E026462078009058F82910024661
:107AA00022A02B6A9847307800F00100254B53F84C
:107AB000201025A02A6A90473078C0F30010244B8C
:107AC00053F8201023A02A6A90473078C0F3401062
:107AD000224B53F8201022A02A6A90473078C0F336
:107AE0008010214B53F8201020A02A6A904730784C
:107AF000C009204B53F820101FA02A6A904709F1B3
:107B00000109641CB945C5DB0DE0002609E02078B9
:107B1000009058F82610024604A02B6A9847761C5D
:107B2000641CBE42F3DB0020BDE8F88F6164647220
:107B30003A307825782C76616C3A307825780D0AC1
:107B400000000000DCDA010853504925732C0000C6
:107B5000E4DA0108424C25732C000000ECDA01083D
:107B6000534225732C000000F4DA01084E542573AB
:107B70002C000000FCDA0108495625730D0A0000AC
:107B80002DE9F04705460F4690469A46544695F82B
:107B9000A802032844DD4FF000093EE02646227883
:107BA00058F829102AA02B6A984794F801C0A078A9
:107BB0004CEA0022E1782BA02B6A9847307800F03D
:107BC00001002B4B53F820102AA02A6A90473078E6
:107BD000C0F30010294B53F8201029A02A6A9047BF
:107BE0003078C0F34010284B53F8201027A02A6AA1
:107BF00090473078C0F38010264B53F8201026A011
:107C00002A6A90473078C009254B53F8201025A0E8
:107C10002A6A904709F10109241DB945BEDB14E029
:107C2000002610E0227858F8261009A02B6A984701
:107C300094F801C0A0784CEA0022E17809A02B6AF0
:107C40009847761C241DBE42ECDB0020BDE8F0877F
:107C5000616464723A307825782C76616C3A3078B9
:107C600025782C00743A25642025640D0A00000054
:107C7000DCDA010853504925732C0000E4DA0108CE
:107C8000424C25732C000000ECDA010853422573A6
:107C90002C000000F4DA01084E5425732C0000007B
:107CA000FCDA0108495625730D0A00002DE9FC474E
:107CB00005460F4690469A46544695F8A802032872
:107CC00048DD4FF0000942E02646227858F8291096
:107CD0002EA02B6A9847E0782179CDE900106079D1
:107CE00000F01F03A279E1792DA0D5F820C0E0476C
:107CF000307800F001002F4B53F820102EA02A6A94
:107D000090473078C0F300102D4B53F820102DA071
:107D10002A6A90473078C0F340102C4B53F820105B
:107D20002BA02A6A90473078C0F380102A4B53F872
:107D300020102AA02A6A90473078C009294B53F8AE
:107D4000201029A02A6A904709F101090834B94591
:107D5000BADB18E0002614E0227858F826100BA0B1
:107D60002B6A9847E0782179CDE90010607900F01E
:107D70001F03A279E1790AA0D5F820C0E047761C5C
:107D80000834BE42E8DB0020BDE8FC876164647211
:107D90003A307825782C76616C3A307825782C004A
:107DA000743A25642F25642F25642025643A2564C0
:107DB0000D0A0000DCDA010853504925732C00003D
:107DC000E4DA0108424C25732C000000ECDA0108CB
:107DD000534225732C000000F4DA01084E54257339
:107DE0002C000000FCDA0108495625730D0A00003A
:107DF00010B50248FCF762FC10BD000064060020CC
:107E000010B504462068C068A16B0880A06B801C78
:107E1000A063E08F401EE087E08F50B92068406883
:107E200020F0400021684860E08E10B9204600F044
:107E30004FF810BD10B504462068007BA16B087098
:107E4000A06B401CA063E08F401EE087E08F50B91C
:107E50002068406820F0600021684860E08E10B91A
:107E6000204600F035F810BD10B50446206B0088A0
:107E70002168C860206B801C2063E08E401EE08675
:107E8000E08E50B92068406820F08000216848608A
:107E9000E08F10B9204600F01BF810BD10B5044665
:107EA000206B007821680873206B401C2063E08EF3
:107EB000401EE086E08E50B92068406820F08000C7
:107EC00021684860E08F10B9204600F001F810BD2D
:107ED0007CB504462C4800681821B0FBF1F04FF443
:107EE0007A71B0FBF1F0642148430190FBF79CFAF2
:107EF00005462068406820F020002168486000BFE7
:107F0000019820B9606D40F02000606508E001989C
:107F1000401E01902068806800F002000028EFD029
:107F200000BF2A466421204600F08AF818B1606D2F
:107F300040F020006065A06850B900BF00200090AC
:107F40002068C068009020688068009000BF00BF73
:107F5000606D88B994F85100042806D1012084F896
:107F600051002046FCF726FD0CE0012084F851006A
:107F70002046FCF7FEFE05E0012084F85100204673
:107F8000FCF79AFB7CBD0000300000207CB5044665
:107F9000254800681821B0FBF1F04FF47A71B0FB6E
:107FA000F1F0642148430190FBF73EFA054600BF1B
:107FB000019820B9606D40F02000606508E00198EC
:107FC000401E01902068806800F002000028EFD079
:107FD00000BF2068406820F0A000216848602A4661
:107FE0006421204600F02CF818B1606D40F02000AC
:107FF0006065A06850B900BF002000902068C0688C
:10800000009020688068009000BF00BF012084F8C5
:108010005100606D18B12046FCF74EFB02E020468F
:10802000FCF7A6FE7CBD00003000002070B50546C0
:108030006C6A0020E087E0862046FCF73DFB70BDBF
:10804000F8B504460D4616462B46002280212046F0
:10805000009600F0ABF928B1606D40F0200060653B
:108060000320F8BD0020FCE770B505460C46164617
:10807000002280211048FBF7D1F9032000F030F9ED
:10808000C4F3074000F02CF9C4F3072000F028F9EE
:10809000E0B200F025F904E0FF2000F021F928709B
:1080A0006D1C301EA6F101018EB2F5D10122802196
:1080B0000148FBF7B3F970BD001401402DE9F05FF2
:1080C00007460E4614464FF00008C146C24600253A
:1080D000AB4606F0FF0ACAF10000C5B22046E11720
:1080E00004EB1161C1F30728E11704EB11610912D8
:1080F000A4EB012101F0FF09BAF1000F20D1B8F182
:10810000000F05D122463146384600F069F864E098
:1081100009E04FF480723146384600F061F806F508
:10812000807607F58077B8F10000A8F1010101F031
:10813000FF08EED14A463146384600F051F84CE08F
:10814000B8F1000F18D1A94510DDA9EB050000F02A
:10815000FF0B2A463146384600F042F82E442F44A1
:108160005A463146384600F03BF836E02246314662
:10817000384600F035F830E0601B84B22046E11745
:1081800004EB1161C1F30728E11704EB1161091237
:10819000A4EB012101F0FF092A463146384600F0E0
:1081A0001FF82E442F4409E04FF4807231463846C0
:1081B00000F016F806F5807607F58077B8F1000034
:1081C000A8F1010101F0FF08EED1B9F1000F04D0D0
:1081D0004A463146384600F003F8BDE8F09F0000FB
:1081E00070B505460C46164600F0AAF8002280211C
:1081F0001348FBF713F9022000F072F8C4F30740AC
:1082000000F06EF8C4F3072000F06AF8E0B200F066
:1082100067F8B6F5807F01DD4FF4807603E02878BB
:1082200000F05EF86D1C301EA6F101018EB2F6D191
:10823000012280210248FBF7F1F800F065F870BDDB
:10824000001401402DE9F0410024002500260027FC
:10825000002280210F48FBF7E1F89F2000F040F852
:10826000FF2000F03DF80546FF2000F039F80646F3
:10827000FF2000F035F80746012280210548FBF772
:10828000CDF8280440EA062040EA07042046BDE86D
:10829000F08100000014014010B5044600F050F8D1
:1082A00000F032F8002280210C48FBF7B7F82020BC
:1082B00000F016F8C4F3074000F012F8C4F30720EA
:1082C00000F00EF8E0B200F00BF801228021034824
:1082D000FBF7A4F800F018F810BD000000140140EE
:1082E0003EB5044601946FF07F40012302AA01A924
:1082F00000900448FCF75FFB08B1FF2002909DF856
:1083000008003EBDBC06002010B5002400228021DC
:108310000A48FBF783F80520FFF7E2FF00BFFF20C4
:10832000FFF7DEFF044604F001000028F7D1012228
:1083300080210248FBF772F810BD000000140140D4
:1083400010B5002280210648FBF768F80620FFF7E9
:10835000C7FF012280210248FBF760F810BD000032
:108360000014014010B50446206B00882168C860E5
:10837000206B801C2063E08E401EE086E08E10B9EA
:108380002046FFF703FE10BD10B50446206B0078B1
:1083900021680873206B401C2063E08E401EE0863D
:1083A000E08E10B92046FFF7F1FD10BD2DE9F84F22
:1083B00004460D4690461E46DDF82890FBF734F83B
:1083C000A0EB0900371AFBF72FF882462C4800680B
:1083D000C0F3CB307843009045E0701C002842D0B9
:1083E000FBF722F8A0EB0A00B84200D2A7BB206836
:1083F000406820F0E000216848606068B0F5827F46
:108400000DD1A068B0F5004F03D0A068B0F5806F23
:1084100005D12068006820F0400021680860A06A4B
:10842000B0F5005F0DD100BF2068006820F4005057
:10843000216808602068006840F4005021680860E6
:1084400000BF012084F8510000BF002084F85000D4
:1084500000BF0320BDE8F88FFFE7009800B90027B0
:108460000098401E0090206880682840A84201D1F2
:10847000012000E000204045AFD10020EAE70000E5
:10848000300000202DE9F84306460F4614461D46ED
:10849000DDF8208025480078052840D2DFE800F08C
:1084A000030A1B3D3E00224880F8008001201F493E
:1084B000087035E040F206411E48F7F746FF39469E
:1084C00030460EF06DF9022018490870FAF7ACFF3B
:1084D0001949086024E0FAF7A7FF17490968401A0C
:1084E000A04209D2002269462846FDF78BF998B1CF
:1084F00003200E4908700FE00D480078002803DDC6
:1085000001200A49087002E0042008490870084860
:108510000078401E0649087002E001E000E000BF5C
:1085200000BF02480078BDE8F88300003C0100204D
:10853000B8010020E8820020380100202DE9FF5F0B
:108540000546884691469A46544603A8029095F8F7
:10855000A80203284FDD4FF0000B49E02646271DF7
:108560003078717840EA0120B17840EA0140F17832
:1085700040EA0161029801600398F8F77EF8CDE9BE
:10858000000159F82B100246D5F820C02CA0019B01
:10859000E047387800F001002E4B53F820102EA051
:1085A0002A6A90473878C0F300102D4B53F82010FA
:1085B0002CA02A6A90473878C0F340102B4B53F810
:1085C00020102BA02A6A90473878C0F380102A4BDD
:1085D00053F8201029A02A6A90473878C009294BFF
:1085E00053F8201028A02A6A90470BF1010B641D54
:1085F000C345B3DB1FE000271BE0264630787178C7
:1086000040EA0120B17840EA0140F17840EA016196
:10861000029801600398F8F730F8CDE9000159F8A5
:1086200027100246D5F820C005A0019BE0477F1C1B
:10863000641D4745E1DB002004B0BDE8F09F000069
:10864000616464723A307825782C76616C3A2566DC
:108650000D0A000004DB01084F5625732C000000B2
:10866000E4DA0108424C25732C000000ECDA010822
:10867000534225732C000000F4DA01084E54257390
:108680002C000000FCDA0108495625730D0A000091
:108690002DE9FF5F0546884691469A46544603A851
:1086A000029095F8A802032858DD4FF0000B52E025
:1086B0002646271D3078717840EA0120B17840EADB
:1086C0000140F17840EA0161029801600398F7F7F0
:1086D000D4FFCDE9000159F82B100246D5F820C08F
:1086E00035A0019BE04794F805C0A0794CEA002230
:1086F000E17936A02B6A9847387800F00100364BB4
:1087000053F8201035A02A6A90473878C0F300103B
:10871000344B53F8201034A02A6A90473878C0F3BD
:108720004010334B53F8201032A02A6A9047387813
:10873000C0F38010314B53F8201031A02A6A9047C3
:108740003878C009304B53F8201030A02A6A90477F
:108750000BF1010B0834C345AADB28E0002724E015
:1087600026463078717840EA0120B17840EA01402D
:10877000F17840EA0161029801600398F7F77DFF04
:10878000CDE9000159F827100246D5F820C00AA00B
:10879000019BE04794F805C0A0794CEA0022E179FA
:1087A0000AA02B6A98477F1C08344745D8DB002075
:1087B00004B0BDE8F09F0000616464723A3078252F
:1087C000782C76616C3A25662C000000743A25649A
:1087D0002025640D0A00000004DB01084F562573B4
:1087E0002C000000E4DA0108424C25732C00000044
:1087F000ECDA0108534225732C000000F4DA01087A
:108800004E5425732C000000FCDA010849562573EC
:108810000D0A00002DE9FF5F05460F4690469A4677
:10882000544603A8029095F8A802032862DD4FF091
:10883000000B5CE0264604F104093078717840EAC8
:108840000120B17840EA0140F17840EA01610298E4
:1088500001600398F7F711FFCDE9000158F82B10DC
:108860000246D5F820C03DA0019BE047E079217A7F
:10887000CDE90010607A00F01F03A27AE17A3CA0F3
:10888000D5F820C0E04799F8000000F001003D4B0A
:1088900053F820103CA02A6A904799F80000C0F3D2
:1088A00000103B4B53F820103AA02A6A904799F8E1
:1088B0000000C0F34010394B53F8201038A02A6A4A
:1088C000904799F80000C0F38010374B53F8201000
:1088D00036A02A6A904799F80000C009354B53F832
:1088E000201035A02A6A90470BF1010B0C34BB45D0
:1088F000A0DB2EE04FF0000929E0264630787178A1
:1089000040EA0120B17840EA0140F17840EA016193
:10891000029801600398F7F7B0FECDE9000158F81E
:1089200029100246D5F820C00CA0019BE047E07951
:10893000217ACDE90010607A00F01F03A27AE17A73
:108940000BA0D5F820C0E04709F101090C34B94566
:10895000D3DB002004B0BDE8F09F000061646472C6
:108960003A307825782C76616C3A25662C00000028
:10897000743A25642F25642F25642025643A2564E4
:108980000D0A000004DB01084F5625732C0000007F
:10899000E4DA0108424C25732C000000ECDA0108EF
:1089A000534225732C000000F4DA01084E5425735D
:1089B0002C000000FCDA0108495625730D0A00005E
:1089C0000120FEF7FFFB09F0FDF96420FAF75AFBDE
:1089D000FFF738FC364908600221084600F07EFCAB
:1089E0000446202221463348FFF73EFB3148807D74
:1089F000FF2817D120212F48F7F7A7FC00202D4989
:108A000088750870888008614875087308751E208D
:108A1000487088700120C8750846C17D0020FEF7A7
:108A200059F808E02348C17D0020FEF753F821489B
:108A30004078204988700221012000F04FFC044654
:108A4000202221461C48FFF70FFB1B480078FF2817
:108A500009D120211848F7F778FC184816494860D2
:108A60008860082088770221032000F037FC044644
:108A7000102221461248FFF7F7FA11480078FF2824
:108A800008D10F480021016041608160C160002071
:108A90000B490870FEF7BAFE00BF0A48006803F0F1
:108AA000B5F802F089FF0A200BF04AFAF5E700005A
:108AB0001C00002088750020906200200090CF43A9
:108AC000E47900206C03002000BF0CF071FC0A2048
:108AD0000BF036FAF9E706F013FA00BF09F0A4F933
:108AE00004F09EFA0EF07EFAFAF79EFC044602F0BD
:108AF000C5FA06F07FFA0A200BF022FAEEE7012011
:108B0000FEF74EFB00BFF8F71DFD0A200BF018FA28
:108B1000F9E70DF0EFFF00BF06F07AFC0EF0A0FBC6
:108B200002F06EF806F0E6F90A200BF009FAF3E716
:108B3000FDF7B0FF00BF0549C87A05490978FDF780
:108B4000BFFF0A200BF0FCF9F5E70000B06200203F
:108B5000C80100200DF09CFF00BF0EF0D3F90EF00D
:108B6000B7F8FAF761FC044608F0C4F864200BF08B
:108B7000E7F9F2E710B500BF502080F31188BFF38A
:108B80004F8FBFF36F8F00BF0FF0EEF818B14FF0AB
:108B900080500449086000BF002080F3118800BFA6
:108BA00010BD000004ED00E000B595B028210BA831
:108BB000F7F7CBFB142106A8F7F7C7FB1821684687
:108BC000F7F7C3FB0D200B904FF480300C90002082
:108BD0000D9001200E900F90119002201290C10371
:108BE00013914FF4E01114910BA8FBF7CDF808B1E5
:108BF000F9F7AEFA0F2006900220079000200890A7
:108C00004FF48060099000200A90022106A8FAF72C
:108C100075FF08B1F9F79CFA032000904FF48070BB
:108C20000190C00102906846FAF7D0FE08B1F9F74A
:108C30008FFA15B000BD704710B50248FCF719F95E
:108C400010BD00004409002010B50268204B984276
:108C50000ED0204B98420BD0B0F1804F08D01E4B65
:108C6000984205D01D4B984202D01D4B984203D12B
:108C700022F070024B681A43154B98420ED0154BE8
:108C800098420BD0B0F1804F08D0134B984205D0DA
:108C9000124B984202D0124B984203D122F44072F8
:108CA000CB681A4322F080034C6943EA0402026055
:108CB0008B68C3620B688362054B984202D0054BF8
:108CC000984201D10B6903630123436110BD000089
:108CD000002C014000340140000400400008004026
:108CE000000C004010B50348FCF7E4F90DF07AFCE5
:108CF00010BD00001407002070B505466C6A002006
:108D0000E085E0842046FCF7D4F970BD70B50646D6
:108D10000025746A20684069C0F3C01594F84100CA
:108D2000212805D125B10020E084204600F0C8F8B4
:108D300020684069C0F3801594F84200222805D1CC
:108D400025B10020E085204600F074F8606C40F00A
:108D5000100060642046FCF7ACF970BD70B50546A4
:108D60006C6A2868006800F02000002842D1E08585
:108D700000BF00BF21680C3151E8001F21F4807052
:108D800021680C3141E80002002AF3D100BF00BF86
:108D900000BF2168143151E8001F21F00100216853
:108DA000143141E80002002AF3D100BF00BF00BF28
:108DB0002168143151E8001F21F04000216814316E
:108DC00041E80002002AF3D100BF202084F84200CD
:108DD000206B01280ED100BF00BF21680C3151E883
:108DE000001F21F0100021680C3141E80002002A28
:108DF000F3D100BF00206063206B012804D1A18D56
:108E00002046FCF710F902E02046FCF79FFC70BDFD
:108E100070B505466C6A01206063206B012805D19E
:108E2000A08D41082046FCF7FEF802E02046FCF742
:108E30008EFC70BD00BF00BF02680C3252E8002FEC
:108E400022F4907102680C3242E80013002BF3D137
:108E500000BF00BF00BF0268143252E8002F22F0AA
:108E600001010268143242E80013002BF3D100BF65
:108E7000016B01290ED100BF00BF02680C3252E81D
:108E8000002F22F0100102680C3242E80013002B80
:108E9000F3D100BF202180F8421000210163704708
:108EA00010B504462068C06820F040002168C86002
:108EB000202084F841002046FCF7A3FC002010BDD0
:108EC00000BF00BF02680C3252E8002F22F0C00140
:108ED00002680C3242E80013002BF3D100BF2021BE
:108EE00080F841107047F8B5044694F842002228F3
:108EF00075D1A068B0F5805F0CD1206950B900250C
:108F0000A66A20684068C0F308003080A06A801C10
:108F1000A06215E0A56A0026A068B0F5805F03D0C6
:108F2000A06828B9206918B920684068287004E052
:108F30002068406800F07F002870A06A401CA06292
:108F4000E08D401E80B2E085002846D12068C068D0
:108F500020F020002168C8602068C06820F480707C
:108F60002168C8602068406920F0010021684861DC
:108F7000202084F8420000206063206B012826D165
:108F80000020206300BF00BF21680C3151E8001FA2
:108F900021F0100021680C3141E80002002AF3D1D1
:108FA00000BF2068006800F0100010280AD100BF40
:108FB00000200090206800680090206840680090C1
:108FC00000BF00BFA18D2046FCF72DF802E020462F
:108FD000FCF7BCFB0020F8BD01E00020FBE702200D
:108FE000F9E7000070B504462168096921F4405191
:108FF000E2681143226811612269A1681143626924
:1090000041EA02052168C96841F20C629143294393
:109010002268D1602168496921F44071A269114335
:10902000226851612D4A2168914202D1FAF764FE0B
:1090300001E0FAF751FE00EBC00101EB001162689C
:109040009200B1FBF2F100EBC00202EB0012636888
:109050009B00B2FBF3F26423B2FBF3F202EBC20318
:1090600003EB0212A1EB8201322202EB0111642216
:10907000B1FBF2F101F0F00100EBC00202EB0012D3
:1090800063689B00B2FBF3F26423B2FBF3F201EBE3
:10909000021200EBC00101EB001163689B00B1FB01
:1090A000F3F100EBC00303EB00136668B600B3FBFB
:1090B000F6F36426B3FBF6F303EBC30606EB0313E8
:1090C000A1EB8301322303EB01116423B1FBF3F124
:1090D00001F00F0111442268916070BD0038014019
:1090E00077B581B0044615460298A062A585002098
:1090F0006064222084F842002848E16B8862284896
:10910000E16BC8622748E16B08630020E16B4863AC
:1091100002AE32682368191D2B46E06BF9F764FF35
:1091200000BF002000902068006800902068406820
:10913000009000BF00BF206970B100BF00BF216870
:109140000C3151E8001F41F4807021680C3141E876
:109150000002002AF3D100BF00BF00BF2168143114
:1091600051E8001F41F001002168143141E800027C
:10917000002AF3D100BF00BF00BF2168143151E8BD
:10918000001F41F040002168143141E80002002A2C
:10919000F3D100BF002004B070BD00005D8D000859
:1091A000118E00080D8D0008014691F8410021281C
:1091B00028D18868B0F5805F0BD1086948B90A6A80
:1091C0001088C0F308000B685860086A801C0862A9
:1091D00005E00B6A581C086218780B685860C88C48
:1091E000401E80B2C88458B90868C06820F080006A
:1091F0000B68D8600868C06840F040000B68D86011
:10920000002070470220FCE72DE9F04104460D469E
:1092100017469846069E34E0701C88B32EB1FAF7C4
:1092200003F9A0EB0800B0422BD900BF00BF2168B2
:109230000C3151E8001F21F4D07021680C3141E855
:109240000002002AF3D100BF00BF00BF2168143123
:1092500051E8001F21F001002168143141E80002AB
:10926000002AF3D100BF202084F8410084F8420096
:1092700000BF002084F8400000BF0320BDE8F0815B
:10928000FFE7206800682840A84201D1012000E0E3
:109290000020B842C0D00020F0E7000010B503481D
:1092A000FBF708FF0DF088FA10BD00005C070020F6
:1092B00010B50348FBF7FEFE0DF0E0F910BD00000D
:1092C000A407002010B50348FBF7F4FE0DF02CFABC
:1092D00010BD0000EC07002000BFFEE710B50246FD
:1092E000002013044FF4805404FB013010BD000033
:1092F0000FB4054B10B503A9044A029800F04AF9CF
:1093000010BC5DF814FB0000D9EF000870030020CA
:109310000FB41CB50246002007AC00290BD0491E33
:10932000CDE90021054B6A462146069800F032F946
:10933000009A002111701CBC5DF814FBC39C00084E
:109340000FB4084B10B504A902AA039800F022F943
:10935000044602A9002000F0BFFC204610BC5DF8C6
:1093600014FB0000D99C000802480068C0F30220EA
:10937000704700000CED00E010B5002804DB0A0780
:10938000130E054A135406E00A07140E034A00F0B0
:109390000F031B1FD45410BD00E400E018ED00E0E3
:1093A00001480068704700007403002002E008C80C
:1093B000121F08C1002AFAD170477047002001E04F
:1093C00001C1121F002AFBD170470000014908604B
:1093D00070470000740300202DE9FF5F82B0002178
:1093E000DDE90430020DDDF840B0034318D044F647
:1093F0001050A2F2FF3242431514119801281FD0D9
:10940000A5EB0B00401C5FEA000A4FF000064E4F30
:10941000DFF83891B046504615D5CAF1000413E084
:10942000119801244AA3012801D16FEA0B01029887
:10943000119AC0E90031C0E9024206B0BDE8F09FD0
:10944000CBF10000DFE704460021404A491842EB17
:109450000450CDE9001012E0E00707D032463B4649
:1094600040464946F7F74BF88046894632463B4628
:1094700010461946F7F743F806460F466410002CCD
:10948000EAD1DDE90401DDE90023BAF1000F06DAD3
:10949000F7F735F842464B46F7F731F805E0F7F7AE
:1094A000DEFA42464B46F7F7DAFA04460E46002249
:1094B000284BF7F75BFB03D84FF0FF30014607E07E
:1094C0000022254B20463146F7F722FAF7F736FB04
:1094D000102409E0002C0ADB0A220023F6F790FE94
:1094E000039B30321A55641E50EA0102F2D1641C0B
:1094F000039AC4F111031444119A012A03D00122E2
:1095000008430DD10AE0084304D000204FF0110BAE
:10951000119072E7A3EB0B056D1E0DE05B4504DDBA
:109520004FF0000205F1010504E003DA4FF00002FC
:10953000A5F10105002AECD002981199C0E9023189
:10954000C0E9004579E70000000014400000F03F4A
:10955000300000000000F0430000E03F10B504467A
:1095600040F2A320035D00221146204606F0BCFA1B
:1095700094F8840200F0050020B1606A10B1606ABE
:10958000C4F89C0210BD30380A2801D2012070476F
:10959000002070472DE9FF4F95B09B46894606464F
:1095A00000250FE2252877D100242746F84A01211B
:1095B000059400E0044316F8013F203B01FA03F054
:1095C0001042F7D130782A2811D06FF02F0330786D
:1095D000A0F13002092A16D8059A44F0020402EBE1
:1095E000820203EB42021044761C0590EFE759F823
:1095F000042B0592002A03DA504244F400540590EB
:1096000044F00204761C30782E2816D116F8010F8B
:1096100044F004042A280DD06FF02F023078A0F116
:109620003003092B09D807EB870302EB4303C71864
:10963000761CF3E759F8047B761C30786C280FD041
:1096400006DC4C2817D068280DD06A2814D104E015
:10965000742810D07A280FD10DE044F400140AE0E9
:1096600044F4801401E044F440147278824202D140
:1096700004F58014761C761C307866280BD013DC39
:10968000582877D009DC002875D04528F6D0462820
:10969000F4D047281AD19DE118E0632835D064281A
:1096A00079D0652812D195E1702873D008DC67283D
:1096B000F1D069286FD06E280DD06F2806D1B5E0A3
:1096C00073282CD0752875D0782874D05A461799ED
:1096D00090476D1C75E1C4F30250022809D003289D
:1096E0000DD0D9F8001004280DD00D6009F104093F
:1096F00067E1D9F80010EA17C1E90052F6E7D9F896
:1097000000100D80F2E70D70F0E719F8041B8DF8DA
:10971000001000208DF80100EA46012003E059F80E
:1097200004AB4FF0FF3061074FF0000102D40DE0B1
:1097300008F101018846B9420FDA8045F8DB1AF8D2
:1097400008100029F4D108E008F10101884681429F
:10975000FADB1AF808100029F6D105985B46A0EB51
:10976000080721463846179A00F094FA284400EB7F
:10977000080507E04DE029E10DE01AF8010B5A4613
:1097800017999047B8F10108F7D25B462146384651
:10979000179A13E142E00A220092C4F302524FF0FA
:1097A000000A022A08D059F804CB032A4FEAEC71C8
:1097B0000AD00DE029E02AE009F1070121F00702B3
:1097C000F2E802C1914609E00FFA8CFC4FEAEC7115
:1097D000042A03D14FFA8CFC4FEAEC71002907DA16
:1097E0000A460021DCF1000C61EB02012D2202E0AF
:1097F000220504D52B228DF80420012203E0E20784
:1098000001D02022F7E7904659E00A2102E0102219
:109810000DE010214FF0000A00910BE010224FF0F4
:10982000000A44F004040827009203E008224FF0E5
:10983000000A0092C4F30252022A05D059F804CB60
:109840000021032A08D009E009F1070121F00702ED
:10985000F2E802C1914605E01FFA8CFC042A01D10E
:109860000CF0FF0C4FF00008220728D5702806D016
:10987000009B83F0100353EA0A0305D00EE0402258
:109880008DF80420012208E05CEA010206D03022B3
:109890008DF804208DF8050002229046009B83F08D
:1098A000080353EA0A030AD15CEA010201D1620704
:1098B00005D530228DF804204FF001087F1E58286E
:1098C00004D034A003900EA802900DE036A0F9E772
:1098D00053466046009AF6F793FC84460398825CF0
:1098E0000298401E029002705CEA0100F0D10298DA
:1098F00006A9081A00F1200A600702D524F4803472
:1099000000E00127574502DDA7EB0A0000E0002038
:1099100000EB0A01009005984144401A0590E003CD
:1099200006D45B462146179A059800F0B3F9054422
:10993000002706E001A85A46C05D179990476D1CA4
:109940007F1C4745F6DBE0030CD55B462146179AA2
:10995000059800F09FF9054404E030205A46179915
:1099600090476D1C0099481E00900029F5DC08E026
:10997000029802995A460078491C0291179990471B
:109980006D1CBAF10001AAF1010AF1DC65E10000E9
:1099900009280100303132333435363738396162C5
:1099A0006364656600000000303132333435363789
:1099B00038394142434445460000000000F058F960
:1099C0000544761C307800287FF4ECAD19B02846A9
:1099D000BDE8F08F620700D4062709F1070222F0E4
:1099E000070CFCE80223E14603F000485FEA080C9C
:1099F00002D00FF2702C0DE05FEA045C02D50FF28A
:109A0000682C07E05FEAC47C02D00FF2602C01E012
:109A1000AFF2700C4FF0FF3823F00043CDF850C088
:109A200065280CD006DC452809D046281DD04728DB
:109A30003DD13DE0662818D067287ED138E000216E
:109A4000112F01DB112000E0781CCDE9000106A9EF
:109A50000EA8FFF7C1FCDDE90F010E9A039100216A
:109A6000009207F1010A04914DE04FF00040009789
:109A7000CDE9011006A90EA8FFF7AEFCDDE90F0243
:109A800003920E9B11990022DDF80CA00093049222
:109A900011B9791C00EB010AB7EB0A0004D4C0F13C
:109AA000FF3007F1010A0490AAEB0700019044E09F
:109AB000012F00DA01270021112F01DD112000E024
:109AC0003846CDE9000106A90EA8FFF785FCDDE9BF
:109AD0000F010E9A0391002104910092BA462107CA
:109AE0000CD40399514500DA8A46BAF1010F05DD1D
:109AF000009AAAF10101515C302908D0B84202DA7B
:109B000010F1040F06DA0121CDE9011015E0AAF1E8
:109B10000101E9E7002805DC049901440491AAEB5E
:109B2000000102E0411C514500DD8A460499401ABB
:109B3000401C01904FF000400290200704D401988F
:109B4000504501DBCDF8048000208DF84F000298CD
:109B50000DF14F07B0F1004F25D02B200E90029849
:109B60004FF0020800280CDA404202902D200E909F
:109B700007E00A210298F6F7C3FD3031029007F89A
:109B8000011DB8F10001A8F10108F2DC02980028DB
:109B9000EFD1791E0E980870307800F0200040F068
:109BA000450007F8020D12A8C01B00F10708149821
:109BB000007800B1012000EB0A01019801EBE0718F
:109BC00005984144401A401E0590E00306D45B46C8
:109BD0002146179A059800F05DF80544149800781E
:109BE00018B15A46179990476D1CE00324D55B467F
:109BF0002146179A059800F04DF805441CE004989A
:109C0000002807DBDDE90301884203DD0098405CA2
:109C1000179901E0179930205A469047049805F1AA
:109C20000105401C04900198401E019004D12E2093
:109C30005A46179990476D1CBAF10001AAF1010A22
:109C4000DDDC05E017F8010B5A46179990476D1CAB
:109C5000B8F10001A8F10108F4DC5B462146179A2F
:109C60000598ABE62D0000002B000000200000004E
:109C70002DE9F041044600251E461746880404D409
:109C800005E039462020B0476D1C641EF9D52846F2
:109C9000BDE8F0812DE9F041044600251E469046BE
:109CA000C80301D5302700E02027880404D505E04B
:109CB00041463846B0476D1C641EF9D52846BDE8BC
:109CC000F0814A68002A06D00A68531C0B601070A5
:109CD0004868401E486070470A68531C0B6010704B
:109CE000704710B502460023002004E0145C1C44B9
:109CF000E3B2441CA0B28842F8DB184610BD2DE93F
:109D0000F04704461D4694F8890200F1020894F8D1
:109D1000880200EB080C0126002394F88B02A0EBCC
:109D20000C0094F88A92A0EB090090FBF5F77F2ACB
:109D300000DD7F22974200DD17460868401CD1F8FD
:109D40000490484501D0002611E001230CE0A3F166
:109D5000010951F8290051F823A000F10109CA4571
:109D600001D0002602E05B1CBB42F0DB00BFCEB995
:109D700094F88B92A9EB0C0994F88AA2AA4499FB57
:109D8000FAF0904200DD1046834202DD4FF00109F7
:109D900001E04FF000094E460EB1994600E08146C1
:109DA0004F4600BF47EAC610BDE8F08710B52C4902
:109DB0000868F6F71FFC04462A4881682046F6F733
:109DC00095FC0AD226494868F6F714FC0446254853
:109DD00081682046F6F780FC23D321488069214919
:109DE0008989884205D91E48C0691E4989898842E7
:109DF00017D31B4800691B494988884205D9184870
:109E000040691849498888420BD31548806815492C
:109E1000898888420BD91248C068124989888842CB
:109E200005D20020104948701049087016E00F480C
:109E3000007838B901200D490870F9F7F5FA0C4996
:109E400008600BE0F9F7F0FA09490968401A41F295
:109E50007071884202D301200349487010BD000090
:109E6000F4790020E4790020147A002050020020C8
:109E70004C02002070B50446072C16D2DFE804F02F
:109E80000416248F8F327700F9F7CEFA4649096815
:109E9000401A41F28831884207D94449C87800F015
:109EA000ADF8F9F7C1FA4049086078E03F48C0785A
:109EB000012804DD3D48C078401E3C49C8703B493C
:109EC000C87800F09BF86AE03848C078032804DAC4
:109ED0003648C078401C3549C8703449C87800F00D
:109EE0008DF85CE03148C078012811D1022030495A
:109EF000087001202F4981F86C0000212D4880F85E
:109F00006D10012180F86E100021A0F8741029E076
:109F10002648C078022810D101202549087025491B
:109F200081F854000021234880F85510012180F861
:109F300056100021A0F85C1014E01C48C0780328DB
:109F400010D100201A49087001201A4981F88400B4
:109F50000021184880F88510012180F88610002122
:109F6000A0F88C101149C87800F048F817E00221D9
:109F70000320FFF7B3F90546FEF78EF9022103200F
:109F8000FFF7ACF90546102229460948FEF728F9E3
:109F90000020094908702146F8F78EF800BF00BF7D
:109FA00000200649087070BD28020020B062002021
:109FB000E4790020347A002024020020C801002027
:109FC0000EB5FF208DF8000001208DF801007820EB
:109FD0008DF8020041208DF8030000208DF8040068
:109FE0008DF805008DF806008DF8070046208DF8E5
:109FF0000800092168460CF035FB0EBD01B584B0A0
:10A000000498012804D002282AD0032878D14FE0F0
:10A01000002010211F224FF6FF73CDE9002102908E
:10A02000FEA218210A20FBF759FE002010214FF64E
:10A03000FF721F23CDE900210290FBA218216E20A0
:10A04000FBF74CFE002010214FF6FF721F23CDE9D5
:10A0500000210290F7A21821C620FBF73FFE4FE037
:10A06000002010214FF6FF721F23CDE9002102903E
:10A07000EAA218210A20FBF731FE002010211F223E
:10A080004FF6FF73CDE900210290E7A218216E2060
:10A09000FBF724FE002010214FF6FF721F23CDE9AD
:10A0A00000210290E3A21821C620FBF717FE27E04B
:10A0B000002010214FF6FF721F23CDE900210290EE
:10A0C000D6A218210A20FBF709FE002010214FF626
:10A0D000FF721F23CDE900210290D3A218216E2028
:10A0E000FBF7FCFD002010211F224FF6FF73CDE986
:10A0F00000210290CFA21821C620FBF7EFFD00BF80
:10A1000000BFCE488078002842D118214FF6FF7258
:10A110001F23CDE900210290C9A250210A20FBF79C
:10A12000DDFDC9488068C9490390F6F7D5FA10D219
:10A1300018204FF6FF711F22CDE900210290C2487E
:10A14000806804230246682103900A20FCF78CF8FB
:10A1500064E0BD488068BD490390F6F7C7FA5DD852
:10A16000B9488068BA490390F6F7B6FA56D2182073
:10A170004FF6FF711F22CDE900210290B24880689E
:10A1800004230246682103900A20FCF76DF845E09D
:10A19000002018214FF478424FF6FF73CDE90021DB
:10A1A0000290A7A250210A20FBF798FDA6488068DC
:10A1B000A6490390F6F790FA11D218204FF478418F
:10A1C0004FF6FF72CDE9002102909F48806804237A
:10A1D0000246682103900A20FCF746F81EE09A48E0
:10A1E00080689A490390F6F781FA17D896488068F4
:10A1F00097490390F6F770FA10D218204FF478417F
:10A200004FF6FF72CDE9002102908F488068042349
:10A210000246682103900A20FCF726F88748C07898
:10A22000002870D118214FF6FF721F23CDE90021BD
:10A23000029088A250218220FBF750FD824840887E
:10A240000A2810DA18204FF6FF711F22CDE90021ED
:10A2500002907D48408804230246682103908220B2
:10A26000FCF754F8C4E0784840880A2814DB7648A4
:10A270004088642810DA18204FF6FF711F22CDE9BC
:10A280000021029070484088042302466821039010
:10A290008220FCF73BF8ABE06B484088642815DB74
:10A2A00069484088B0F57A7F10DA18204FF6FF71C0
:10A2B0001F22CDE900210290634840880423024612
:10A2C000682103908220FCF721F891E05E484088E5
:10A2D000B0F57A7F15DB5C48408842F21071884205
:10A2E0000FDA18204FF6FF711F22CDE900210290EE
:10A2F0005548408804230246682103908220FCF7D9
:10A3000005F875E0FFE7002018214FF478424FF67A
:10A31000FF73CDE9002102904EA250218220FBF76D
:10A32000DDFC494840880A2811DA18204FF47841AA
:10A330004FF6FF72CDE90021029043484088042384
:10A340000246682103908220FBF7E0FF50E03E4880
:10A3500040880A2815DB3C484088642811DA182018
:10A360004FF478414FF6FF72CDE900210290364854
:10A37000408804230246682103908220FBF7C6FF31
:10A3800036E031484088642816DB2F484088B0F515
:10A390007A7F11DA18204FF478414FF6FF72CDE939
:10A3A0000021029028484088042302466821039037
:10A3B0008220FBF7ABFF1BE023484088B0F57A7F93
:10A3C00016DB2148408842F21071884210DA1820CA
:10A3D0004FF478414FF6FF72CDE9002102901A4800
:10A3E000408804230246682103908220FBF78EFFF9
:10A3F0001248007900287AD118214FF6FF721F23E6
:10A40000CDE90021029016A2A4210A20FBF766FCE8
:10A410000D4880880A2837DA182025E0CEFCC6F8D7
:10A42000C4A3CABD00000000B3A3CCACC4A3CABD82
:10A4300000000000B9D8B1D500000000147A002057
:10A44000D1F5C6F800000000E479002000002041AA
:10A450000000C842D2BBD1F5BBAFCCBC00000000AD
:10A46000C1F2BBAFC7E200004FF6FF711F22CDE97A
:10A4700000210290DD48808804230246BC2103901D
:10A480000A20FBF743FFC5E0D84880880A2814DB80
:10A49000D6488088642810DA18204FF6FF711F22F2
:10A4A000CDE900210290D148808804230246BC21D6
:10A4B00003900A20FBF72AFFACE0CC488088642890
:10A4C00016DBCA488088B0F57A7F11DA18204FF67B
:10A4D000FF711F22CDE900210290C4488088042327
:10A4E0000246BC2103900A20FBF710FF92E01BE01C
:10A4F000BE488088B0F57A7F15DBBC48808842F280
:10A50000107188420FDA18204FF6FF711F22CDE933
:10A5100000210290B548808804230246BC210390A4
:10A520000A20FBF7F3FE75E0002018214FF4784273
:10A530004FF6FF73CDE900210290AFF2DC02A421B7
:10A540000A20FBF7CBFBA94880880A2811DA1820DB
:10A550004FF478414FF6FF72CDE900210290A348F5
:10A56000808804230246BC2103900A20FBF7CEFE1C
:10A5700050E09E4880880A2815DB9C488088642823
:10A5800011DA18204FF478414FF6FF72CDE900211F
:10A5900002909648808804230246BC2103900A203A
:10A5A000FBF7B4FE36E091488088642816DB8F48BC
:10A5B0008088B0F57A7F11DA18204FF478414FF691
:10A5C000FF72CDE90021029088488088042302466A
:10A5D000BC2103900A20FBF799FE1BE0834880888A
:10A5E000B0F57A7F16DB8148808842F2107188428C
:10A5F00010DA18204FF478414FF6FF72CDE90021B0
:10A6000002907A48808804230246BC2103900A20E5
:10A61000FBF77CFE76484079D0BB002018214FF62E
:10A62000FF721F23CDE90021029072A2A421822093
:10A63000FBF754FB6D4880890A2810DA18204FF682
:10A64000FF711F22CDE90021029068488089042310
:10A650000246BC2103908220FBF758FEC4E0634809
:10A6600080890A2815DB61488089642811DA18205E
:10A670004FF6FF711F22CDE9002102905B488089CF
:10A6800004230246BC2103908220FBF73FFEABE08F
:10A6900035E056488089642815DB54488089B0F538
:10A6A0007A7F10DA18204FF6FF711F22CDE90021C2
:10A6B00002904E48808904230246BC2103908220E8
:10A6C000FBF724FE90E049488089B0F57A7F15DBDE
:10A6D0004648808942F2107188420FDA18204FF6FE
:10A6E000FF711F22CDE90021029040488089042398
:10A6F0000246BC2103908220FBF708FE74E0002094
:10A7000018214FF478424FF6FF73CDE900210290F3
:10A7100038A2A4218220FBF7E1FA344880890A2874
:10A7200011DA18204FF478414FF6FF72CDE900217D
:10A7300002902E48808904230246BC210390822087
:10A74000FBF7E4FD50E0294880890A2815DB2748FB
:10A750008089642811DA18204FF478414FF6FF728F
:10A76000CDE9002102902148808904230246BC21C2
:10A7700003908220FBF7CAFD36E01C4880896428DC
:10A7800016DB1A488089B0F57A7F11DA18204FF469
:10A7900078414FF6FF72CDE900210290134880897D
:10A7A00004230246BC2103908220FBF7AFFD1BE08F
:10A7B0000E488089B0F57A7F16DB0C48808942F21A
:10A7C0001071884210DA18204FF478414FF6FF726A
:10A7D000CDE9002102900548808904230246BC216E
:10A7E00003908220FBF792FD05B000BDE4790020C4
:10A7F000147A0020BCD7CDE9000000000EB5FF2080
:10A800008DF8000001208DF8010086208DF80200EF
:10A8100000208DF803008DF804008DF805008DF8F8
:10A8200006008DF8070079208DF808000921684698
:10A830000BF018FF0EBD30B583B00446FEF7B0FD37
:10A8400005460020CDE90000024621466846F5F79E
:10A8500098FF2846FEF7BAFDDDE9000103B030BDE0
:10A8600030B502460023002004E052F820502B446B
:10A87000451CE8B28842F8DB3220B3FBF0F084B22A
:10A88000204630BD38B504460D4600959DF80000C1
:10A89000C0F3801050B19DF8000000F00F00094B8C
:10A8A00053F8201008A0226A904709E09DF80000A4
:10A8B00000F00F000D4B53F820100DA0226A9047B6
:10A8C00038BD000090D7010850524D3D312C736CBB
:10A8D000617665206C656164696E672E0D0A666E2F
:10A8E000636F64653A25730D0A000000C0D7010844
:10A8F00050524D3D302C736C61766520636F6E66EF
:10A9000069726D2E0D0A666E636F64653A25730D6C
:10A910000A000000F8B504460E4600969DF80000B7
:10A92000C0F3801078B39DF8000000F00F0038B13C
:10A93000032804D0082816D0092822D114E000BF2B
:10A94000002594F8840200F0800005432B46002285
:10A950001146204605F0C8F894F8860210B9204642
:10A9600004F04EFE0EE000BF0B2594F8840200F0C8
:10A97000800005432B4600221146204605F0B4F81E
:10A9800000E000BF28E0FFE79DF8000000F00F00A6
:10A9900008280BD003DC38B101281CD105E00928B8
:10A9A00005D00B2817D109E000BF00BF00BF94F805
:10A9B000850220F0200084F885020CE0402594F800
:10A9C000840200F0800005432B46002211462046F9
:10A9D00005F08AF800BF00BFF8BD000038B5044696
:10A9E0000D4600959DF80000C0F3801050B19DF811
:10A9F000000000F00F00094B53F8201008A0226A55
:10AA0000904709E09DF8000000F00F00074B53F855
:10AA1000201003A0226A904738BD000090D701089B
:10AA2000666E636F64653A25730D0A00C0D701082E
:10AA3000F8B504460E46002500969DF80000C0F3C8
:10AA4000801090B39DF8000000F00F000A282DD26E
:10AA5000DFE800F0052C122C112C2C2C1E1F802559
:10AA600094F8840200F080000543374A29462046C6
:10AA700005F0D8F81BE01AE0002594F8840200F0F5
:10AA80008000054300222946204605F0CBF80EE061
:10AA900000BF8B2594F8840200F08000054300225B
:10AAA0002946204605F0BEF801E001E000BF4AE07B
:10AAB0009DF8000000F00F00082814D003DC38B126
:10AAC00001283FD10EE009280ED00B283AD126E00C
:10AAD00094F8860228B9012084F886021B48C4F83D
:10AAE0009C0200BF00BF00BF94F8850220F0200048
:10AAF00084F88502206C18B1206CC4F89C020DE02B
:10AB000004F10800A168814203D01148C4F89C02F6
:10AB100004E0606A10B1606AC4F89C0212E094F824
:10AB2000850240F0200084F88502C02594F8840254
:10AB300000F0800005432B4600221146204604F019
:10AB4000D3FF00BF00BFF8BD9DFD00080D00010848
:10AB50005D0E010810B502460023002003E01478C2
:10AB60002344401C521C8842F9DBD8B210BD0000BF
:10AB700070B504460D4600202071401EE062294653
:10AB8000204608F0F6FA08B1032070BD94F82E12A2
:10AB900094F82F0241EA00204AF65521884201D05C
:10ABA0000220F2E794F86900010694F8680041EA8F
:10ABB000004194F8670041EA002094F866100843C9
:10ABC00020F07F400D49884201D10020DDE794F854
:10ABD0008500010694F8840041EA004194F883005E
:10ABE00041EA002094F88210084320F07F40034996
:10ABF000884201D10020C8E70120C6E74641540041
:10AC000010B5F8F711FC11490968401AB0F57A7FC0
:10AC10000CD9F8F709FC0D4908600D488078002828
:10AC200004DD0B488078401E094988700848807808
:10AC300030B900224FF480510648F8F7EFFB04E0EA
:10AC4000012211030348F8F7E9FB10BD4803002077
:10AC500088750020000C0140024600E0521C10786C
:10AC600010B110788842F9D1107870470246891ED9
:10AC70005069801E884201D8002070479378906AFE
:10AC800001FB0300F9E700002DE9F04780460C4680
:10AC9000A17EE07E41EA002010B10020BDE8F087EF
:10ACA000207800F03F00401E00EB800101EBC00661
:10ACB0004FF00109002524E01A48405D205C194945
:10ACC000495D2144497840EA0127B9F1000F11D0CC
:10ACD000FF2E0BD2384603F01DFD82463146761C0E
:10ACE00038F8110003F016FD824501D00020D5E7A9
:10ACF000B94605E04FF6FF70874201D00020CDE74E
:10AD00006D1C0D2DD8D3207800F0400038B1B9F17A
:10AD1000000F04D038F8160008B10020BEE701206B
:10AD2000BCE700007CDB010870B5044625462846D8
:10AD300003F04AFF01280AD10748807810B10120AA
:10AD400006490870044840780349887002E02846A4
:10AD500003F03AFF70BD000088750020C801002094
:10AD600070B504462546284603F02EFF01280AD177
:10AD70000748807810B102200649087004484078DE
:10AD80000349887002E0284603F01EFF70BD0000F2
:10AD900088750020C801002070B504462546284665
:10ADA00003F012FF01280AD10748807810B1032070
:10ADB00006490870044840780349887002E0284634
:10ADC00003F002FF70BD000088750020C80100205C
:10ADD00070B504462546284603F0F6FE01280AD140
:10ADE0000748807810B1042006490870044840786C
:10ADF0000349887002E0284603F0E6FE70BD0000BB
:10AE000088750020C801002070B5044625462846F4
:10AE100003F0DAFE01280AD10948807810B1052034
:10AE200008490870064840780549887007E02846B8
:10AE300003F0CAFE082802D106200249087070BD3E
:10AE400088750020C801002070B5044625462846B4
:10AE500003F0BAFE01280BD10E480078401C0D49C2
:10AE6000087008460078032812D1002008700FE00F
:10AE7000284603F0A9FE08280AD10748006808B947
:10AE8000012000E00020044908600878FBF7D6FEA6
:10AE900070BD0000887500204403002070B5044692
:10AEA0002546284603F090FE01280BD10C488078F7
:10AEB00020B90B4840780A49887070BD01200949C3
:10AEC00048720BE0284603F07FFE082806D1A97ED1
:10AED00005A0FEF70DFA00200249487200BFECE71A
:10AEE00088750020147A0020256420534F53B3A4A2
:10AEF000B0B4B4A5B7A20D0A0000000070B50446B6
:10AF000000252646B07E072834D2DFE800F0040B87
:10AF1000121920272D004FF400611848F8F776FA2F
:10AF2000054628E04FF400411448F8F76FFA05464B
:10AF300021E04FF480411148F8F768FA05461AE01D
:10AF40004FF480610D48F8F761FA054613E04FF4BD
:10AF500000510A48F8F75AFA05460CE00121084862
:10AF6000F8F754FA054606E040210648F8F74EFA8D
:10AF7000054600E000BF00BF284670BD0018014034
:10AF800000080140001001402DE9F0478046894645
:10AF900092461D46089E3446207800F0800040B15D
:10AFA00015A0FEF7A5F9227817A02968FEF7A0F9E9
:10AFB0001FE01CA0FEF79CF92078F5F71BFB1D494C
:10AFC00007460860F5F72CFB1B49C871194908684A
:10AFD0004FF07E51F5F780FB03D118A0FEF788F9FA
:10AFE00002E01BA0FEF784F922781EA02968FEF774
:10AFF0007FF90020BDE8F087D3C3BBA7D2A3BFD899
:10B00000D1A1D4F10D0A000073656C656374205BF7
:10B01000307825785D206173205B307825785D2E4F
:10B020000D0A0000D3C3BBA7D2A3BFD8D6B4D0D0DB
:10B030000D0A000008010020147A0020C9E8B1B808
:10B04000B7A2C9FAD4BDBDE7B1A8BEAF0D0A0000D2
:10B05000C9E8B1B8D4BDBDE7B1A8BEAFC8A1CFFBA8
:10B060000D0A0000736574205B307825785D2061DF
:10B0700073205B307825785D2E0D0A0070B505468B
:10B08000A948006810B1A948006810B94FF0FF3016
:10B0900070BDA748006808B9A5480560002424E1F0
:10B0A000A148006800EB041080884FF6FF71081A71
:10B0B0009F490968691A884207D24FF6FF709A497A
:10B0C000096801EB041188800DE09748006800EBE7
:10B0D0000410808896490988691A084492490968C9
:10B0E00001EB041188809048006800EB0410C078E0
:10B0F00000F0010000285BD08B48006800EB0410D2
:10B10000807890B98848006800EB0410C078400847
:10B110008549096801EB0411C97860F3820182480E
:10B12000006800EB0410C17069E07F48006800EB24
:10B130000410C078C0F3001090B17B49096801EB9E
:10B140000410FCF70DF87849096801EB0411C9787F
:10B1500060F382017448006800EB0410C1704EE097
:10B16000714A126802EB04125178CA1701EB52724D
:10B17000D3106D4A126802EB04120832D25C6A4B9B
:10B180001B6803EB04135878C31700EB5373DB10F1
:10B19000A0EBC3031A41644B1B6803EB0413DB7879
:10B1A00062F38203604A126802EB0412D37026E055
:10B1B0005D4A126802EB04125178CA1701EB527211
:10B1C000D310594A126802EB04120832D25C564B73
:10B1D0001B6803EB04135878C31700EB5373DB10A1
:10B1E000A0EBC3031A41504B1B6803EB0413DB783D
:10B1F00062F382034C4A126802EB0412D3704A488D
:10B20000006800EB0410C078C0F3001050B346484B
:10B21000006800EB041040894FF6FF71081A44499A
:10B220000968691A884207D24FF6FF713E480068E4
:10B2300000EB041041810EE03B48006800EB041075
:10B2400040893B490988691A084481B23648006838
:10B2500000EB041041813449096801EB0410F6F752
:10B2600009FD40E03048006800EB041080882E495A
:10B27000096801EB0411C988884234DB00202A499F
:10B28000096801EB041188802748006800EB04106E
:10B290004078401C2449096801EB04114870224899
:10B2A000006800EB041040781F49096801EB0411A5
:10B2B0000978884217DB00201B49096801EB04115B
:10B2C00048701948006800EB0410807800280ADDF7
:10B2D0001548006800EB04108078401E1249096888
:10B2E00001EB04118870601C84B21048006884422D
:10B2F000FFF4D6AE00240EE00B4A126802EB0412F3
:10B30000D278C2F38000084A126802EB0412D168B6
:10B310008847601C84B2054800688442ECD3044826
:10B3200005600020B4E60000980200209C02002086
:10B33000A002002010B503460948036009480160D7
:10B34000002209E00648006800EB021000240460B7
:10B3500044608460501CC2B28A42F3D3002010BD06
:10B36000980200209C02002010B5044600212046CF
:10B3700000F008F810BD10B504460121204600F089
:10B3800001F810BD02462D48006830B12C48006815
:10B3900018B12B480068824202D34FF0FF3070474B
:10B3A0006420264B1B6803EB0213D8800020234B3C
:10B3B0001B6803EB02139880012901D1012000E0F2
:10B3C00000201E4B1B6803EB0213187200201B4B5E
:10B3D0001B6803EB021358700120184B1B6803EB2A
:10B3E000021318700020154B1B6803EB02139870B2
:10B3F0001248006800EB0210C07820F001000F4BEB
:10B400001B6803EB0213D8700C48006800EB0210B5
:10B41000C07820F00200094B1B6803EB0213D870C0
:10B420000648006800EB0210C07820F01000034BC3
:10B430001B6803EB0213D8700020B0E798020020CD
:10B440009C02002002462B48006830B12A48006860
:10B4500018B129480068824202D34FF0FF3070478C
:10B460002448006800EB0210C1800020214B1B68BB
:10B4700003EB0213988001201E4B1B6803EB0213A1
:10B48000187200201B4B1B6803EB0213587002203C
:10B49000184B1B6803EB021318700020154B1B6838
:10B4A00003EB021398701348006800EB0210C07899
:10B4B00020F001000F4B1B6803EB0213D8700D48FE
:10B4C000006800EB0210C07820F00200094B1B68F6
:10B4D00003EB0213D8700748006800EB0210C07835
:10B4E00020F01000034B1B6803EB0213D870002000
:10B4F000B5E70000980200209C0200202DE9F043EF
:10B5000003460D4616465848006810B15748006873
:10B5100018B94FF0FF30BDE8F08300209FE033F80A
:10B520001010524A126891427DD233F810104E4AE0
:10B53000126802EB011100228A6033F810204A4C95
:10B54000246804EB0212D680002133F81020464C08
:10B55000246804EB02129180014632E00A46CF17BC
:10B5600001EB57774FEAE70C33F81070DFF8F880FB
:10B57000D8F8008008EB0717083717F80C700C464E
:10B580004FEAE17C01EB5C7C4FEAEC0CA1EBCC08D0
:10B590004FF0010C0CFA08FC47EA0C0707F0FF0C0F
:10B5A000CF1701EB57774FEAE70833F81070DFF851
:10B5B000B890D9F8009009EB0717083707F808C0CA
:10B5C000491CA942CADB002133F81020264C24680C
:10B5D00004EB02125170691C33F81020224C2468CD
:10B5E00004EB02121170002133F810201E4C246865
:10B5F00004EB0212917033F810101B4A126802EB30
:10B600000111C97821F0010133F81020164C24688B
:10B6100004EB0212D17033F81010134A126802EBD7
:10B620000111C97800E018E021F0020133F8102080
:10B630000D4C246804EB0212D17033F810100A4A42
:10B64000126802EB0111C97821F0100133F81020C3
:10B65000054C246804EB0212D170411CC8B2A84208
:10B66000FFF65DAF002056E7980200209C02002004
:10B670002DE9F04704468946B9F1000F06D1E76885
:10B6800017B16069B84215D8012713E04946204632
:10B6900003F0F4FD0646022E02D20120BDE8F08739
:10B6A000701C08B93046F9E76069B04201D93046EC
:10B6B000F4E74F463D4600BF6D1C6069A84204D8C0
:10B6C0000225BD4201D90020E8E72946204603F0C3
:10B6D000D5FD064606B909E0701C08B1012E01D15E
:10B6E0003046DBE7BD42E7D10020D7E700BF6FF06F
:10B6F00070422946204608F065FF8046B8F1000FE9
:10B7000008D1B9F1000F05D02A464946204608F075
:10B7100059FF8046B8F1000F0BD1E5602069401C4D
:10B7200078B12069401E2061607940F001006071AD
:10B7300007E0B8F1010F02D14FF0FF3000E0012027
:10B7400005462846AAE700002DE9F34F83B081465D
:10B7500004980068019002E00198401C0190019853
:10B7600000782F28F8D0019800785C28F4D0D9F818
:10B770001CA000252F4600BF38467F1C01990C5C99
:10B78000202C03DB2F2C01D05C2C00D132E0FF2DCC
:10B7900003D3062005B0BDE8F08FE4B2812C13DBA3
:10B7A000E0B2FE2810DC38467F1C01990E5C06EBE7
:10B7B000042084B2402E01DB7E2E05DD802E01DBCD
:10B7C000FE2E01DD0620E5E70121204602F064FFA0
:10B7D00004460CB90620DDE7802C06DA214671A06C
:10B7E000FFF73AFA08B10620D4E728466D1C2AF87C
:10B7F0001040C1E700BF0198C11904980160202CD6
:10B8000001DA042000E00020804608E0681E3AF8D3
:10B810001040202C02D02E2C00D002E06D1E002DF6
:10B82000F4D100BF0DB90620B4E700202AF81500B6
:10B830000B222021D9F8180007F091FC002700E026
:10B840007F1C3AF817002028FAD03AF817002E2863
:10B85000F6D00FB148F0030800E06D1E25B1681E58
:10B860003AF810002E28F8D10020064602904FF03A
:10B87000080B00BF38467F1C3AF8104004B963E05B
:10B88000202C03D02E2C04D1AF4202D048F0030864
:10B89000F0E70298584501D2AF4214D1BBF10B0F2B
:10B8A00002D148F003084FE0AF4201D048F003084E
:10B8B000AF4200D948E02F46082002904FF00B0B12
:10B8C000B006060ED6E7802C09DB204602F022FFE8
:10B8D0000021009002F0E0FE044648F00208FF2C30
:10B8E00011DDABF101000299884204D848F0030849
:10B8F000CDF808B0BEE72212D9F818300298411CE2
:10B9000002911A5419E024B1214629A0FFF7A4F9A5
:10B9100018B15F2448F003080FE0412C04DB5A2CD7
:10B9200002DC46F0020608E0612C06DB7A2C04DC1F
:10B9300046F00106A4F1200084B2D9F8183002982C
:10B94000411C02911C5495E700BFD9F818000078FB
:10B95000E52803D10520D9F818100870BBF1080FAD
:10B9600001D1B006060E06F00C000C2803D006F03C
:10B970000300032801D148F0020808F0020058B97A
:10B9800006F00300012801D148F0100806F00C0071
:10B99000042801D148F00808D9F8180080F80B8075
:10B9A0000020F7E6222A3A3C3E3F7C7F0000000060
:10B9B0002B2C3B3D5B5D000010B58248007820B128
:10B9C000012863D0022860D18CE07F48F6F742FC62
:10B9D0007D48F6F73FFF64217B48F6F77BFE7A4807
:10B9E000F6F776FD79497A4A127841F822007648CE
:10B9F000F6F730FF64217448F6F76CFE7248F6F7EC
:10BA000067FD7449724A127841F822006E48F6F7D1
:10BA100021FF64216C48F6F75DFE6B48F6F758FD90
:10BA20006D496B4A127841F822006748F6F712FF19
:10BA300064216548F6F74EFE6348F6F749FD67490D
:10BA4000634A127841F822005F48F6F703FF642149
:10BA50005D48F6F73FFE5C48F6F73AFD60495C4A00
:10BA6000127841F822005A480078401C5849087062
:10BA700008460078322805D101205249087000207C
:10BA8000534908705048F6F77DFF97E032214F4840
:10BA9000FEF7E6FE5349088032214E48FEF7E0FEED
:10BAA0005049488032214C48FEF7DAFE4D498880E3
:10BAB00032214A48FEF7D4FE4A49C880322148481C
:10BAC000FEF7CEFE474908810889F4F793FD044646
:10BAD00021464548F4F7D5FC44490860022039491D
:10BAE00008706BE03F494888F4F784FD04463F48FE
:10BAF00001682046F4F793FC3D4948603949C888FD
:10BB0000F4F778FD0446394801682046F4F787FCCD
:10BB10003749C86048683749F4F781FC34494860C0
:10BB200048683549F4F7E2FD03D2642033490873CD
:10BB300038E02F4948683049F4F7CEFD09D82C4940
:10BB400048682F49F4F7D2FD03D24B202B490873E4
:10BB500028E0274948682A49F4F7BEFD09D8244956
:10BB600048682849F4F7C2FD03D2322023490873FC
:10BB700018E01F4948682349F4F7AEFD09D81C496D
:10BB800048682149F4F7B2FD03D219201B49087314
:10BB900008E0174948681C49F4F79EFD02D80520C3
:10BBA000164908731249C8684FF08041F4F769FCE0
:10BBB0001249086100200349087000BF00BF014816
:10BBC000007810BD40020020CC050020E075002068
:10BBD00041020020A87600207077002038780020ED
:10BBE00000790020C87900209A99993F44020020EA
:10BBF000D47900200000C040CDCCEC4088750020F6
:10BC00009A99D9409A99C9409A99B94070B58CB01F
:10BC10000446B4F1FF3F02D0012C38D138E00122B4
:10BC2000FDA1FE4802F004FAFD49087008460078BC
:10BC30000D281FD100221146F7A001F0B7FEF849E8
:10BC400008700846007888B90122F3A1002002F0AC
:10BC5000EFF9F34908700122EFA1F04802F0E8F98A
:10BC6000EF4908700120EF4908600DE0FF20ED4921
:10BC7000086009E0EA48007818B1FF20E949086047
:10BC800002E00120E74908600120E6490860FDE381
:10BC9000E5480078012875D18021E448F4F755FB88
:10BCA0001222E3A1E54802F0F1F9DD490870E44908
:10BCB0008868F4F7E2FC05460E46E1488089E049D1
:10BCC0008988DF4A5288CDE90456CDE906210890DB
:10BCD000DC4890F83300DB4991F83210D94A92F8E9
:10BCE0003120D84B93F83030CDE90032CDE9021045
:10BCF000D448C38DD44A7F21CC48FDF709FBC848FE
:10BD00000078F8B9CD48C16801F083FDC748F4F761
:10BD100027FB0546CD4B2A46C449C84802F0B5FB6F
:10BD2000BF4908700846007830B90020BE49087045
:10BD3000C24801F0DDFC05E00020BB490870BF48A7
:10BD400001F0D6FC0020B8490870B4480B900BAA4B
:10BD5000BF49C0A001F0DCFCB0484069801EAF497B
:10BD600089784843BC490860AC488078B84909687C
:10BD70004843BA49086008460068C0F3CF20B84974
:10BD8000888000BFB7480078002864D08021A74889
:10BD9000F4F7DBFA1222B4A1A84802F077F9A0491F
:10BDA0000870A84890F83300A64991F83210A54AC7
:10BDB00092F83120A34B93F83030CDE90032CDE931
:10BDC0000210A048C38DABA27F219848FDF7A0FACE
:10BDD00093480078F8B99948C16801F01AFD934872
:10BDE000F4F7BEFA0546994B2A469049934802F06B
:10BDF0004CFB8B4908700846007830B900209949FF
:10BE000008708E4801F074FC05E000209549087028
:10BE10008A4801F06DFC0020924908707F480B9021
:10BE20000BAA8B498BA001F073FC7C484069801EF3
:10BE30007A498978484388490860784880788449F5
:10BE4000096848438549086008460068C0F3CF2068
:10BE50008349888000BF91480078012863D1802100
:10BE60007248F4F772FA12228DA1744802F00EF9AA
:10BE70006B490870734890F8331090F83200714A9B
:10BE800092F831206F4B93F83030CDE90032CDE994
:10BE900002016C48C38D85A27F216448FDF738FA02
:10BEA0005F480078F8B96548C16801F0B2FC5F48A6
:10BEB000F4F756FA0546654B2A465C495F4802F09E
:10BEC000E4FA574908700846007830B900207349F1
:10BED00008705A4801F00CFC05E000206F4908701A
:10BEE000564801F005FC00206C4908704B480B9047
:10BEF0000BAA574957A001F00BFC48484069801E27
:10BF000046498978484354490860444880785049F4
:10BF1000096848435149086008460068C0F3CF20CB
:10BF20004F49888000BF6B480078012863D1802189
:10BF30003E48F4F70AFA122267A1404802F0A6F838
:10BF4000374908703F4890F833003E4991F8322055
:10BF500091F831103B4B93F83030CDE90031CDE909
:10BF600002203848C38D5FA27F213048FDF7D0F909
:10BF70002B480078F8B93148C16801F04AFC2B48D9
:10BF8000F4F7EEF90546314B2A4628492B4802F0D2
:10BF90007CFA234908700846007830B900204D49E2
:10BFA0000870264801F0A4FB05E00020494908700C
:10BFB000224801F09DFB00204649087017480B906D
:10BFC0000BAA234923A001F0A3FB14484069801E5B
:10BFD00012498978484320490860104880781C49F4
:10BFE000096848431D49086008460068C0F3CF202F
:10BFF0001B49888000BF4548007801280AD180216C
:10C000000A48F4F7A2F9122209A10C4802F03EF8FE
:10C0100003497DE0E9E00000303A000020BB002049
:10C020004C0300206C0300205403002074DB00202C
:10C03000303A6169722E74787400000050CB002091
:10C04000E4790020A8750020C09E04085003002059
:10C0500060030020303A2F006803002064030020B2
:10C060008875002055030020303A6E6561722E7489
:10C070007874000025303464C4EA25303264D4C2B8
:10C0800025303264C8D520253032643A25303264F8
:10C0900020BDFCB5E7B8E6BEAF0D0A005603002090
:10C0A000303A6F75742E7478740000002530346453
:10C0B000C4EA25303264D4C225303264C8D5202584
:10C0C0003032643A2530326420D4BDBDE7B8E6BED4
:10C0D000AF0D0A0057030020303A736F732E747847
:10C0E0007400000025303464C4EA25303264D4C2C0
:10C0F00025303264C8D520253032643A2530326488
:10C1000020534F53B8E6BEAF0D0A0000580300207D
:10C110000870FE498868F4F7B0FA05460E46FB48F9
:10C120008089FA498988F94A5288CDE90456CDE9CF
:10C1300006210890F64890F83300F54991F832103E
:10C14000F34A92F83120F24B93F83030CDE90032C7
:10C15000CDE90210EE48C38DEE4A7F21EE48FDF78F
:10C16000D7F8EE480078F8B9ED48C16801F051FB06
:10C17000E948F4F7F5F80546EA4B2A46E649E84867
:10C1800002F083F9E54908700846007830B90020CC
:10C19000E5490870E24801F0ABFA05E00020E24909
:10C1A0000870DF4801F0A4FA0020DF490870DF487A
:10C1B0000B900BAADE49AFF2641001F0A9FADB483C
:10C1C0004069801ED94989784843DA490860D748D0
:10C1D0008078D74909684843D7490860084600680D
:10C1E000C0F3CF20D549888000BFD548007801280A
:10C1F00064D18021C848F4F7A8F81222AFF2981150
:10C20000C74801F043FFC5490870C14890F8331092
:10C2100090F8322090F83100BD4B93F83030CDE9E2
:10C220000030CDE90221BA48C38DC6A27F21BA48A9
:10C23000FDF76EF8B9480078F8B9B948C16801F05F
:10C24000E8FAB548F4F78CF80546B64B2A46B249E9
:10C25000B34802F01AF9B14908700846007830B9BD
:10C260000020B7490870AE4801F042FA05E000200E
:10C27000B3490870AA4801F03BFA0020B0490870A1
:10C28000AA480B900BAAAA49AFF2382001F040FA55
:10C29000A6484069801EA54989784843A549086099
:10C2A000A2488078A24909684843A3490860084623
:10C2B0000068C0F3CF20A149888000BFAB48007858
:10C2C000012864D180219448F4F73FF81222AFF29C
:10C2D0003021934801F0DAFE904908708C4890F8BC
:10C2E000332090F8321090F83100894B93F83030B9
:10C2F000CDE90030CDE902128548C38D9CA27F2193
:10C300008548FDF705F885480078F8B98448C16884
:10C3100001F07FFA8048F4F723F80546814B2A465E
:10C320007D497F4802F0B1F87C49087008460078E2
:10C3300030B900208D490870794801F0D9F905E03D
:10C3400000208A490870764801F0D2F90020874918
:10C35000087076480B900BAA7549AFF2083001F0CF
:10C36000D7F972484069801E7049897848437149FD
:10C3700008606E4880786E49096848436E490860D5
:10C3800008460068C0F3CF206C49888000BF82480F
:10C390000078012866D180215F48F3F7D6FF12228A
:10C3A000AFF2CC215E4801F071FE5C49087058483C
:10C3B00090F83300564991F83210554A92F83120DE
:10C3C000534B93F83030CDE90032CDE9021050489C
:10C3D000C38D72A27F215048FCF79AFF4F48007826
:10C3E000F8B94F48C16801F014FA4B48F3F7B8FFA9
:10C3F00005464C4B2A464849494802F046F8474909
:10C4000008700846007830B900206E49086044483A
:10C4100001F06EF905E000206A490860404801F02B
:10C4200067F900205C49087040480B900BAA40490E
:10C43000AFF2E03001F06CF93C484069801E3B49A6
:10C44000897848433B49086038488078384909680A
:10C4500048433949086008460068C0F3CF2037498F
:10C46000888000BF5848007801284ED180212A4892
:10C47000F3F76BFF122255A1294801F007FE274967
:10C48000087022498868F4F7F8F800E0D9E005461A
:10C490000E461E4880891D4989881C4A5288CDE96C
:10C4A0000656CDE908210A9019481D30A0F10D016A
:10C4B000174A92F83320164B93F83230CDE9023206
:10C4C000CDE904101D3890F83100103991F8301082
:10C4D000CDE900100E48C38D3F4A7F210E48FCF77E
:10C4E00017FF0E48007878B90D48C16801F091F93E
:10C4F0000948F3F735FF05460A4B2A46064908481E
:10C5000001F0C3FF054969E079E099E0E479002092
:10C51000A87500201C9F040874DB00204C03002039
:10C5200050CB0020500300205803002020BB0020E7
:10C530006003002068030020640300208875002049
:10C540005903002025303464C4EA25303264D4C253
:10C5500025303264C8D520253032643A2530326423
:10C5600020BDFCB5E7BBD6B8B40D0A005A030020C5
:10C5700025303464C4EA25303264D4C225303264B4
:10C58000C8D520253032643A2530326420D4BDBD70
:10C59000E7BBD6B8B40D0A005B0300202530346435
:10C5A000C4EA25303264D4C225303264C8D520258F
:10C5B0003032643A2530326420534F53BBD6B8B47E
:10C5C0000D0A00006C0300205C030020303A6D73FC
:10C5D000672E747874000000609E04080870084696
:10C5E000007830B9002018490870184801F080F828
:10C5F00005E0002014490870144801F079F8002083
:10C600001149087012480B900BAA1249AFF2BC50A6
:10C6100001F07EF80E484069801E0D498978484334
:10C620000D4908600A4880780A49096848430B495F
:10C63000086008460068C0F3CF200949888000BF21
:10C6400000BF00BF0CB070BD5C03002050CB0020C9
:10C6500020BB00206003002068030020640300204A
:10C660008875002070B505460E46A5F1740400BF1C
:10C6700094F8A80220B1206A10B102A0216A88476C
:10C6800000BF70BD0D0A2823293A54782E0D0A00E8
:10C69000704710B504462046F6F7F4FC10BD0000C4
:10C6A00070B50446062C15D2DFE804F003315F159F
:10C6B000238DF6F7B9FE5E490968401A41F28831C8
:10C6C000884207D95B49887800F0BEF8F6F7ACFEDF
:10C6D00057490860A6E057488078012804DD55488E
:10C6E0008078401E534988705249887800F0ACF831
:10C6F00098E050488078052804DA4E488078401C3D
:10C700004C4988704B49887800F09EF88AE0494887
:10C710008078012809D1484840780A2820DD464819
:10C720004078401E444948701AE042488078022808
:10C7300009D14248807F002812DD4048807F401E9A
:10C740003E4988770CE03B488078052808D13A4874
:10C75000C07D012804DD3848C07D401E3649C875BB
:10C760003449887800F070F85CE03248807801281D
:10C7700009D1314840783C2820DA2F484078401CC5
:10C780002D4948701AE02B488078022809D12B489F
:10C79000807F082812DA2948807F401C2749887743
:10C7A0000CE024488078052808D12348C07D05285E
:10C7B00004DA2148C07D401C1F49C8751D4988788E
:10C7C00000F042F82EE01C48C17D0020FAF782F903
:10C7D00000201B49087002210846FCF77FFD054632
:10C7E000FBF75AFD02210846FCF778FD054620229A
:10C7F00029461148FBF762FC02210120FCF76EFD7F
:10C800000546FBF749FD02210120FCF767FD0546BF
:10C81000202229460948FBF751FC21460020F5F764
:10C820004BFC00BF00BF00200649087070BD00002F
:10C8300028020020B062002088750020906200204D
:10C8400024020020C801002001B584B018204FF652
:10C85000FF711F22CDE900210290FE4890F83200BE
:10C86000022302460A2103900846F9F74FFD0020F3
:10C8700018214FF6FF721F23CDE900210290F6A286
:10C880000A212320F9F772FD18204FF6FF711F22AD
:10C89000CDE900210290EF4890F8330002230246D0
:10C8A0000A2103902C20F9F731FD18204FF6FF7173
:10C8B0001F22CDE900210290E64890F82C000223C7
:10C8C00002460A2103908C20F9F720FDE348007B03
:10C8D00064281DD118204FF6FF711F22CDE90021D9
:10C8E0000290DE48007B032302460A210390B42015
:10C8F000F9F70CFD002018214FF6FF721F23CDE938
:10C9000000210290D6A20A21D920F9F72FFD20E0BC
:10C91000D248007B64281CDA18204FF6FF711F22D2
:10C92000CDE900210290CD48007B022302460A2176
:10C930000390B420F9F7EAFC002018214FF6FF72AB
:10C940001F23CDE900210290C5A20A21CD20F9F7CD
:10C950000DFD049806287CD2DFE800F07B03A2FEE0
:10C96000FDFC002018211F224FF6FF73CDE90021A6
:10C970000290BCA228210A20F9F7B0F918201F2143
:10C980004FF6FF72CDE900210290B44840780223AF
:10C99000024628210390B420F9F7B8FC00201821A2
:10C9A0004FF6FF721F23CDE900210290B0A2402173
:10C9B0000A20F9F793F918204FF6FF711F22CDE9ED
:10C9C00000210290AD48807F012302464021039060
:10C9D000B420F9F79BFC002018214FF6FF721F23AB
:10C9E000CDE900210290A6A258210A20F9F776F994
:10C9F000002018214FF6FF721F23CDE9002102907D
:10CA0000964A921D5821B420F9F7B0FC0020182155
:10CA10004FF6FF721F23CDE9002102909BA27021E7
:10CA20000A20F9F75BF918204FF6FF711F22CDE9B4
:10CA300000210290894880880323024670210390D8
:10CA4000B420F9F763FC002018214FF6FF721F2372
:10CA500000E037E2CDE9002102908FA27021D820BA
:10CA6000F9F784FC002018214FF6FF721F23CDE94F
:10CA70000021029089A288210A20F9F72FF91820B5
:10CA80004FF6FF711F22CDE9002102907348C07D4F
:10CA90000123024688210390B420F9F737FCB7E25E
:10CAA000002018214FF6FF721F23CDE900210290CC
:10CAB0006CA228210A20F9F711F918204FF6FF710E
:10CAC0001F22CDE9002102906448407802230246EB
:10CAD00028210390B420F9F719FC002018211F2207
:10CAE0004FF6FF73CDE90021029061A240210A2098
:10CAF000F9F7F4F818201F214FF6FF72CDE9002155
:10CB000002905E48807F0123024640210390B420BA
:10CB1000F9F7FCFB002018214FF6FF721F23CDE927
:10CB20000021029056A258210A20F9F7D7F80020D8
:10CB300018214FF6FF721F23CDE900210290474ACA
:10CB4000921D5821B420F9F711FC002018214FF64E
:10CB5000FF7202E0B7E111E143E01F23CDE90021BC
:10CB600002904AA270210A20F9F7B8F818204FF66F
:10CB7000FF711F22CDE900210290384880880323ED
:10CB8000024670210390B420F9F7C0FB0020182161
:10CB90004FF6FF721F23CDE9002102903EA27021C3
:10CBA000D820F9F7E3FB002018214FF6FF721F236E
:10CBB000CDE90021029039A288210A20F9F78EF8E8
:10CBC00018204FF6FF711F22CDE900210290234863
:10CBD000C07D0123024688210390B420F9F796FB1B
:10CBE00016E2002018214FF6FF721F23CDE9002125
:10CBF00002901CA228210A20F9F770F818204FF69D
:10CC0000FF711F22CDE900210290144840780223D1
:10CC1000024628210390B420F9F778FB0020182160
:10CC20004FF6FF721F23CDE90021029010A2402190
:10CC30000A20F9F753F818204FF6FF711F22CDE9AB
:10CC4000002102900D48807F01230246402103907D
:10CC5000B42029E0A87500203A0000008875002063
:10CC600025000000CFA2C6C1CAB1BCE4000000008C
:10CC7000D2F4C1BFB4F3D0A1000000009062002044
:10CC8000C8EDBCFEB0E6B1BE00000000C4DAB4E6F8
:10CC9000C8DDC1BF000000004D000000BDFCB5E7CD
:10CCA000B5C8BCB600000000F9F730FB0020182121
:10CCB0001F224FF6FF73CDE900210290AFF2400230
:10CCC00058210A20F9F70AF8002018211F224FF6F0
:10CCD000FF73CDE900210290CF4A5821B420F9F723
:10CCE00045FB002018214FF6FF721F23CDE90021DC
:10CCF0000290AFF2680270210A20F8F7EFFF1820C7
:10CD00004FF6FF711F22CDE900210290C248801F1B
:10CD100080880323024670210390B420F9F7F6FAC5
:10CD2000002018214FF6FF721F23CDE90021029049
:10CD3000AFF29C027021D820F9F718FB00201821CF
:10CD40004FF6FF721F23CDE900210290AFF2B4022B
:10CD500088210A20F8F7C2FF18204FF6FF711F2222
:10CD6000CDE900210290AC48801FC07D012302461E
:10CD700088210390B420F9F7C9FA49E1002018216D
:10CD80004FF6FF721F23CDE900210290AFF22C1263
:10CD900028210A20F8F7A2FF18204FF6FF711F2262
:10CDA000CDE9002102909C48801F40780223024672
:10CDB00028210390B420F9F7A9FA002018214FF692
:10CDC000FF721F23CDE900210290AFF25C124021D7
:10CDD0000A20F8F783FF18204FF6FF711F22CDE9D4
:10CDE000002102908D48807F01230246402103905C
:10CDF000B420F9F78BFA002018214FF6FF721F2399
:10CE0000CDE900210290AFF2881258210A20F8F7EC
:10CE100065FF002018214FF6FF721F23CDE9002186
:10CE200002907D4A5821B420F9F7A0FA0020182179
:10CE30001F224FF6FF73CDE900210290AFF2B4122A
:10CE400070210A20F8F74AFF18201F214FF6FF72C1
:10CE5000CDE9002102907048801F8088032302469C
:10CE600070210390B420F9F751FA002018211F22F5
:10CE70004FF6FF73CDE900210290AFF2E41270216A
:10CE8000D820F9F773FA002018214FF6FF721F23FC
:10CE9000CDE900210290AFF2FC1288210A20F8F7B8
:10CEA0001DFF18204FF6FF711F22CDE900210290CF
:10CEB0005948801FC07D0123024688210390B42079
:10CEC000F9F724FAA4E0002018214FF6FF721F237F
:10CED000CDE900210290AFF2742228210A20F8F750
:10CEE000FDFE18204FF6FF711F22CDE900210290B0
:10CEF0004948801F40780223024628210390B4202D
:10CF0000F9F704FA002018214FF6FF721F23CDE92C
:10CF100000210290AFF2A82240210A20F8F7DEFE9D
:10CF200018204FF6FF711F22CDE9002102903B48E7
:10CF3000807F0123024640210390B420F9F7E6F9EF
:10CF4000002018214FF6FF721F23CDE90021029027
:10CF5000AFF2D42258210A20F8F7C0FE0020182191
:10CF60004FF6FF721F23CDE9002102902A4A582173
:10CF7000B420F9F7FBF9002018214FF6FF721F23A8
:10CF8000CDE900210290AFF2FC2270210A20F8F7CF
:10CF9000A5FE18204FF6FF711F22CDE90021029057
:10CFA0001D48801F80880323024670210390B4200F
:10CFB000F9F7ACF9002018214FF6FF721F23CDE9D5
:10CFC00000210290AFF230327021D820F9F7CEF96B
:10CFD000002018211F224FF6FF73CDE90021029097
:10CFE000AFF2483288210A20F8F778FE18201F2176
:10CFF0004FF6FF72CDE9002102900748801FC07DE7
:10D000000123024688210390B420F9F77FF900BF7D
:10D0100000BF05B000BD00008E75002090620020AA
:10D0200010B50120FAF7CEF80120FAF7B9F801207F
:10D03000F9F7E0FD0120F8F735FC0120F5F7F8F8E5
:10D040001F48007818B91F480078012824D1012012
:10D05000F9F7E2FD1B480078012802D1FAF78EF8B3
:10D0600005E01848007810B90020FAF787F814484E
:10D070000078012805D1F5F7C7F80020F5F76CF81E
:10D080001CE00F480078022818D10120F5F7BCF801
:10D090000120F5F761F811E00948007870B90948F6
:10D0A000007858B90020F9F7B7FD0020FAF766F8C4
:10D0B0000020F5F7A9F80020F5F74EF810BD0000A4
:10D0C000E4790020906200202DE9F04104460E46EC
:10D0D0000021204600F0CDF90546EDB9002700BF3C
:10D0E0002169206806F045F8054605B113E060693E
:10D0F0000078E52802D06069007820B9781C0746DE
:10D10000B04201D107E000270121204600F07FF85E
:10D110000546002DE4D000BF042D00D10725284688
:10D12000BDE8F0812DE9F04704460021204600F0DB
:10D13000A0F9074617B13846BDE8F0874FF0FF0960
:10D14000CA464FF6FF70208400BF2169206806F0B0
:10D1500010F8074607B157E065692E780EB9042725
:10D1600052E0E87A00F03F08E52E05D008F008000C
:10D1700040B1B8F10F0F05D04FF0FF094FF6FF7027
:10D1800020843AE0B8F10F0F1CD1E06978B306F0C3
:10D19000400030B195F80DA026F04006B146E08879
:10D1A00020844E450AD1687B504507D12946E06965
:10D1B000FDF76AFD10B1A9F1010000E0FF2000F0C9
:10D1C000FF091AE0B9F1000F05D1284608F076FAF8
:10D1D000504500D118E0A069C07A00F0010038B9CC
:10D1E0000B222846A16905F09AFF08B90CE004E07B
:10D1F0004FF0FF094FF6FF7020840021204600F019
:10D2000006F80746002FA0D000BF384694E72DE966
:10D21000F04104468846E088461CB0B208B1206957
:10D2200010B90420BDE8F08121684889C11700EBDE
:10D23000D1614911B6FBF1F201FB1261002971D1F4
:10D240002069401C2061E06828B920680089B0424C
:10D2500068D80420E6E721684889C11700EBD1614E
:10D260004911B6FBF1F122689278521E1140002953
:10D2700058D1E168206802F001F80546012D01D877
:10D280000220CFE7681C08B90120CBE7206840697D
:10D29000A84241D8B8F1000F01D10420C2E7E168EB
:10D2A0002068FEF7E5F905460DB90720BAE7012D1C
:10D2B00001D10220B6E7681C08B90120B2E7206856
:10D2C00008F070FA08B10120ACE721684A8901F141
:10D2D0003000002105F043FF29462068FDF7C6FC19
:10D2E0002168C86200270EE00120216808712068CB
:10D2F00008F058FA08B1012094E72068C06A401C81
:10D300002168C8627F1C20688078B842ECD8206809
:10D31000C06AC01B2168C862E56029462068FDF725
:10D32000A5FC2061E68021684889C11700EBD16126
:10D330004911B6FBF1F201FB12612268303202EBB7
:10D340004111616100206DE72DE9FE4F0446D4F8DC
:10D350001880D4F81C900C224146684605F0F2FE75
:10D3600000BF9DF80B0000F0010020B3002088F8FA
:10D370000B00E06101260CE033464A466946404610
:10D3800001F0DEFE2046FFF7CDFE054605B102E0C6
:10D39000761C642EF0D300BF642E02D10720BDE8B6
:10D3A000FE8F042D01D02846F9E79DF80B0088F880
:10D3B0000B00C4F81C909DF80B0000F0020060B157
:10D3C000002600E0761C39F816000028FAD106F194
:10D3D00019000D21B0FBF1F700E001273946204686
:10D3E000FFF772FE054645BB781E071E25D0E08874
:10D3F000C11B204600F03DF80546F5B9A06908F0CC
:10D400005DF9824600BF2169206805F0B2FE05463D
:10D4100005B111E0FAB253466169E06901F094FB8D
:10D4200001202168087100212046FFF7F0FE054623
:10D4300015B9781E071EE6D100BFC5B9216920685D
:10D4400005F097FE054695B920220021606905F098
:10D4500086FE0B22D4E9050105F074FEA069C07AAE
:10D4600000F01800616908730120216808712846DE
:10D4700095E72DE9F04104460E46E680A568012DAA
:10D4800003D020684069A84202D80220BDE8F0819C
:10D490002DB920680078032801D12068456A45B974
:10D4A00020680089B04201D80220EFE72068476A6F
:10D4B00024E021684889C11700EBD1614911226835
:10D4C000927801FB02F812E02946206801F0D6FEAE
:10D4D0000546681C08B90120D8E7022D03D320684F
:10D4E0004069A84201D80220D0E7A6EB08064645CD
:10D4F000EAD229462068FDF7B9FB0746E5600FB977
:10D500000220C3E721684889C11700EBD1614911A6
:10D51000B6FBF1F13944216121684889C11700EB5C
:10D52000D1614911B6FBF1F201FB12612268303280
:10D5300002EB411161610020A8E770B504460125A6
:10D5400014B1012C09D107E0FAF760F910B925F000
:10D55000010500E0012502E001E0012500BF00BF58
:10D56000284670BD2DE9F04705460E4614464FF09B
:10D57000040915B1012D21D11FE0CEB1012E0BD030
:10D58000022E02D0032E14D103E04FF4007020804D
:10D590000FE0012020600CE00C48D0F850C062463B
:10D5A0000023D0E912713846F2F72AFE206000E02D
:10D5B00000BF00BF4FF0000903E002E04FF0040994
:10D5C00000BF00BF4846BDE8F0870000804600204D
:10D5D0002DE9FC5F04460D46164699464FF0040AB5
:10D5E0004FF0000B14B1012C16D114E04FF4007071
:10D5F000CDE90009A6FB00703A4603462846FAF733
:10D6000045F98346BBF1000F02D04FF0040A01E058
:10D610004FF0000A03E002E04FF0040A00BF00BF31
:10D620005046BDE8FC9F0146012011B1012904D1FB
:10D6300002E020F0010002E001E0012000BF00BF95
:10D6400070472DE9FC5F05460E4691461C464FF09B
:10D65000040A4FF0000B14B90420BDE8FC9F15B17B
:10D66000012D16D114E04FF40070CDE90004A9FBA0
:10D6700000703A4603463046FAF79EF98346BBF1FE
:10D68000000F02D04FF0040A01E04FF0000A03E05F
:10D6900002E04FF0040A00BF00BF5046DDE702463B
:10D6A0000D2A18D008DC012A0DD0022A0DD0032A39
:10D6B0000DD0042A17D10CE00E2A0ED01E2A10D04D
:10D6C000242A10D10BE001210FE004210DE00121FB
:10D6D0000BE0042109E0052107E0082105E00C2109
:10D6E00003E0082101E00020704700BF0846FBE787
:10D6F00070B50546284600F070FE044634B9284649
:10D700000AF04CF804460CB900202860204670BD91
:10D710002DE9F74F82B08A46002202A9049801F051
:10D7200027F8019004980468019800286DD1D4E985
:10D730000410801E814203D82069CAF8000064E00A
:10D7400094F800B00026BBF1010F1CD1022700BFE6
:10D750003946204601F092FD804608F1010010B9DB
:10D76000012001900EE0B8F1010F02D102200190DA
:10D7700008E0B8F1000F00D1761C781C07466169FB
:10D780008842E5D33AE06769206A00904FF00009CB
:10D79000002500BFB9F1000F0ED10098421C0146D0
:10D7A0002046009205F0E5FC0190019800B124E0CC
:10D7B00004F13005B4F80A90BBF1020F09D12878C2
:10D7C000697840EA012000B9761CAD1CA9F1020974
:10D7D00010E0E8780006A97840EA0140697840EA5C
:10D7E00001202978084320F0704000B9761C2D1DD7
:10D7F000A9F10409781E071ECCD100BF266160790B
:10D8000040F001006071CAF80060019805B0BDE801
:10D81000F08F2DE9F04704460E46204609F0BEFF82
:10D820008246BAF1000F02D05046BDE8F087E07999
:10D8300008B1E079F9E7E068B04204D2A07900F0DD
:10D84000020000B9E668D4F808904FF00008C4F868
:10D850000880002E71D0206880782168498900FBFB
:10D8600001F7B9F1000F11D0701EB0FBF7F1A9F16B
:10D870000100B0FBF7F0814208D3A9F10100791E45
:10D880008843A060A068361A656912E025697DB9F1
:10D8900000212068FDF7ECFE0546012D02D1022093
:10D8A000E071C2E7681C10B90120E071BDE7256195
:10D8B0006561002D41D023E0A07900F0020038B16D
:10D8C00029462068FDF7D4FE054635B93E4619E0E5
:10D8D0002946206801F0D2FC0546681C10B90120D9
:10D8E000E071A2E7012D03D920684069A84202D85F
:10D8F0000220E07199E76561A0683844A060F61BDA
:10D90000BE42D9D800BFA0683044A06020684089DA
:10D91000B6FBF0F100FB116078B129462068FDF7F5
:10D92000A5F98046B8F1000F02D10220E0717CE732
:10D9300020684089B6FBF0F0804421684989A068DE
:10D94000B0FBF1F201FB120020B3A069404521D0E9
:10D95000A07900F0400078B121684878012304F1F3
:10D960002401A269FFF76DFE10B10120E0715CE7B0
:10D97000A07920F04000A071216848780123424638
:10D9800004F12401FFF724FE10B10120E0714CE7FF
:10D99000C4F81880D4E90201884205D9A068E06083
:10D9A000A07940F02000A07150463EE72DE9F74FE6
:10D9B00090B091461198012803DD132013B0BDE803
:10D9C000F08F10A801F0FEFC0F900F98002801DAEC
:10D9D0000B20F3E7FA490F9851F820500DB90C20AD
:10D9E000ECE7002028700F98C0B20C9000200B903C
:10D9F0000C98FFF7A2FD0190019800F0010008B11A
:10DA00000320DBE7019800F0040008B10A20D5E705
:10DA100005F10A0202210C98FFF7A4FD38B96889C4
:10DA2000B0F5805F03DC6889B0F5007F01DA012082
:10DA3000C4E700BF04AA01210C98FFF793FD10B9B9
:10DA40000498802801D20120B8E7119808B100207D
:10DA500000E03F2082460498A0EB0A000490A9F160
:10DA6000010000EA090008B14FF00009B9F1000F08
:10DA70001AD16889C11700EBD15149124FF4FA62EB
:10DA800092FBF1F1049AB2FBF1F10A914FF0000B15
:10DA900001E00BF1010BCB4830F81B100A988142D2
:10DAA000F7D8C94830F81B90B9F5007F02D36889D0
:10DAB000B9FBF0F9B9F1000F01D14FF00109B9F14B
:10DAC000800F01D94FF080090498B0FBF9F80126C6
:10DAD00040F6F670804500D302264FF6F67080457A
:10DAE00000D30326032E0CD1082000EB880069899F
:10DAF0000844401EB0FBF1F7202003900020029064
:10DB000019E0012E05D108EB4800401C4008C01C5C
:10DB100002E04FEA4800001D074668893844401E6D
:10DB20006989B0FBF1F70120039068894FF48041C7
:10DB3000B1FBF0F0029003985044079007983844E6
:10DB40000690029906980844059005984844A0EB71
:10DB50000A000499884201D90E202FE709AA03215F
:10DB60000C98FFF7FFFC28B9099818B10998B0F58F
:10DB7000004F01D901200990099905980844401ED9
:10DB8000491E8843099009990598081A0990032E9F
:10DB900008D1099903980844039009990798084403
:10DBA000079001E009980744DDE90301081AC11B49
:10DBB0000298081AB0FBF9F8022E03D140F6F6706D
:10DBC000804505D3032E05D14FF6F670804501D26E
:10DBD0000E20F3E6032E02D10C200D9010E0012E52
:10DBE00006D10498B0F5803F02D201200D9007E0E5
:10DBF0000498B0F5803F01D2042000E006200D908B
:10DC000000BF119810B1F0200E9043E06A89002106
:10DC100005F1300005F0A3FA05F5F77401206070F6
:10DC2000A0700020E0700D982071FE2060710498B3
:10DC300050443F21B0FBF1F0FF21B0FBF1F009901F
:10DC40003F21099841EA9000A0710998E0713F20B6
:10DC5000207200216172A172E1720498207304980D
:10DC6000010A61730498010CA1730498010EE17319
:10DC7000552185F82E12AA2185F82F1201230022A2
:10DC800005F130010C98FFF7DCFC08B1012095E6A6
:10DC9000F8200E9005F130046A890021204605F035
:10DCA0005EFA0B2249A1204605F04CFAB5F80AB0FD
:10DCB00084F80BB04FEA1B21217384F80D90039870
:10DCC000A0730398010AE17301202074032E01D18F
:10DCD000002001E04FF40070834684F811B04FEA51
:10DCE0001B21A1740498B0F5803F05D20498E0741C
:10DCF0000498010A217510E0049884F82000049823
:10DD0000C0F30721212001550498C0F307412220C8
:10DD100001550498010E232001550E9860753F208F
:10DD2000207600216176FF20A076E17684F81CA0A1
:10DD30004FEA1A2161774FEA1A41A1774FEA1A6137
:10DD4000E17701F03BFB0990032E4BD1099884F851
:10DD500043000998C0F30721442001550998C0F3F6
:10DD60000741452001550998010E4620015584F8C8
:10DD70002470C7F3072125200155C7F3074126204A
:10DD80000155390E27200155022084F82C0000216E
:10DD90002D2001552E2001552F200155012084F8FA
:10DDA000300031200155062084F83200332001551F
:10DDB000802084F84000292084F8420013220BE0E0
:10DDC000BC0100208ADB0108A0DB0108EBFE904DBE
:10DDD00053444F53352E30008AA104F1470005F01B
:10DDE000B1F91FE0099884F827000998C0F30721CA
:10DDF000282001550998C0F30741292001550998A9
:10DE0000010E2A200155A775390AE175802084F892
:10DE10002400292084F8260013227FA104F12B007E
:10DE200005F090F9552084F8FE01AA2140F2FF1078
:10DE300001550123524621460C98FFF702FC08B118
:10DE40000120BBE5032E06D101230AF1060221467B
:10DE50000C98FFF7F6FB079808904FF0000B5FE077
:10DE60006A890021204605F07AF90E980990032E60
:10DE700014D0012E01D16D4801E06FF0FF00099927
:10DE800008430990099820700998000A6070099861
:10DE9000000CA0700998000EE07019E0099860F07D
:10DEA000FF000990099820700998000A607009988D
:10DEB000000CA0700998000EE070FF202071FF2177
:10DEC0006171A171E17120726172A1720F21E17221
:10DED0000898411C02460123089121460C98FFF73F
:10DEE000B0FB08B1012069E56A890021204605F0F0
:10DEF00036F9012009900EE00898411C02460123E2
:10DF0000089121460C98FFF79CFB08B1012055E5CC
:10DF10000998401C09900998B842EDD30BF1010B08
:10DF2000BBF1000F9CD0032E01D1484600E00298BF
:10DF3000834600BF0898411C0246012308912146F0
:10DF40000C98FFF77EFB08B1012037E5ABF101002B
:10DF5000B0F1000BEED1032E49D152202070607039
:10DF60006120A0704120E070722084F8E4017221E9
:10DF700040F2E51001554121401C01556121401C32
:10DF80000155A8F1010084F8E801C0F3072140F22F
:10DF9000E9100155A8F10100C0F307414FF4F570F5
:10DFA0000155A8F10100010E40F2EB1001550220CD
:10DFB00084F8EC01002140F2ED100155401C0155A0
:10DFC000401C0155552084F8FE01AA2140F2FF10A3
:10DFD000015501230AF1010221460C98FFF731FB9C
:10DFE00001230AF1070221460C98FFF72AFB0022C1
:10DFF00011460C98FFF7B6FA08B10120DEE40020C4
:10E00000DCE400004E4F204E414D452020202046AC
:10E0100041543332202020004E4F204E414D4520A8
:10E0200020202046415420202020200000FFFF0017
:10E03000F7B582B016460398019001A801F0C2F925
:10E040000546002D02DA0B2005B0F0BD0E4850F851
:10E0500025400CB100202070029810B100200299D8
:10E0600008700949029841F82500029808B1012E6C
:10E0700001D00020E8E7002203A902A800F078FB05
:10E0800007463846E0E70000BC0100202DE9F743D1
:10E09000ADF50C7D0546164625B909200DF50F7D19
:10E0A000BDE8F0830020286006F01F0626F001027C
:10E0B0008DA983A800F05CFB0746002F74D180A8CF
:10E0C0008990CDF828D283A88D9900F03DFF0746AE
:10E0D000889C0FB904B9062706F01C0000285CD004
:10E0E0004FB1042F03D183A8FFF72EF9074646F05E
:10E0F0000806889C09E0E07A00F0110008B10727C3
:10E1000003E006F0040000B10827002F55D106F007
:10E110000800002851D001F051F9804684F80E80A3
:10E120004FEA1821E1734FEA184121744FEA186150
:10E13000617484F816804FEA1821E1754FEA18419E
:10E1400021764FEA186161760020E0722077002185
:10E150006177A177E1772146839803F055FE8146E8
:10E160000021204607F0A2FA012083990871B9F135
:10E17000000F22D08398D0F82C804946839806F06F
:10E18000DBFB0746CFB9A9F101008399C86041467E
:10E19000839804F0EEFF07460FE077B9E07A00F0CD
:10E1A000100010B1042708E02DE006F0020020B1B5
:10E1B000E07A00F0010000B1072747B906F0080037
:10E1C00008B146F020068398C06AE8612C62D7B98E
:10E1D000AE710020E8712146839803F015FE286196
:10E1E000E07F0106A07F41EA0041607F41EA002014
:10E1F000217F0843E8600020A860A8618398286018
:10E200002868C088A880384648E72DE9FF4F85B0C8
:10E21000044615469A46DDF818B00020CAF80000FA
:10E22000204609F0BBFA0490049818B1049809B08C
:10E23000BDE8F08FE07908B1E079F8E7A07900F067
:10E24000010008B90720F2E7D4E90210401A029051
:10E250000298854200D9029DBAE021684989A068E8
:10E26000B0FBF1F201FB1200002877D12168498947
:10E27000A068B0FBF1F021688978491E084000F0E1
:10E28000FF09B9F1000F17D1A06810B920690390F8
:10E2900004E06169206800F0F1FF03900398022810
:10E2A00002D20220E071C2E70398401C10B901209D
:10E2B000E071BCE70398606161692068FCF7D6FCF7
:10E2C000064616B90220E071B1E74E442068408945
:10E2D000B5FBF0F8B8F1000F2DD009EB080021686C
:10E2E0008978884203D920688078A0EB09082168E2
:10E2F0004878434632465946FFF76AF910B1012083
:10E30000E07194E7A07900F0400078B1A069801B2B
:10E3100040450BD2A169891B23685B8901FB03B0CF
:10E3200021684A8904F1240104F00CFF2068408927
:10E3300000FB08F742E0A069B04220D0A07900F0CD
:10E34000400080B121684878012304F12401A269CA
:10E35000FFF777F918B10120E07168E710E0A079C4
:10E3600020F04000A071216848780123324604F172
:10E370002401FFF72DF910B10120E07157E7A661E4
:10E3800021684989A068B0FBF1F201FB1200216805
:10E3900049890F1AAF4200D92F4621684989A068E0
:10E3A000B0FBF1F201FB120104F1240008443A46EB
:10E3B00001460190584604F0C5FE00BFBB44A0686A
:10E3C0003844A060DAF800003844CAF80000ED1BB9
:10E3D000002D7FF442AF002029E72DE9F0410446EB
:10E3E000204609F0DBF90746002F4CD1A07900F058
:10E3F0002000002847D0A07900F0400078B12168C3
:10E400004878012304F12401A269FFF71AF910B139
:10E410000120BDE8F081A07920F04000A071E16901
:10E42000206804F0A6FE0746002F2CD1256AE87A62
:10E4300040F02000E872207B2877A089010A6977E4
:10E44000E068010CA977E068010EE97728462169A8
:10E4500007F02CF900F0B2FF0646AE75310AE975F7
:10E46000310C2976310E69760020A8740021E974F8
:10E47000A07920F02000A071012021680871206897
:10E4800007F02CF907463846C3E72DE9FF4F83B064
:10E49000044615469B46049801900020CBF80000E6
:10E4A000204609F07BF90290029818B1029807B053
:10E4B000BDE8F08FE07908B1E079F8E7A07900F0E5
:10E4C000020008B90720F2E7A0682844A168884242
:10E4D00000D20025CFE021684989A068B0FBF1F2A5
:10E4E00001FB120000287ED121684989A068B0FB99
:10E4F000F1F021688978491E084000F0FF0ABAF15E
:10E50000000F1ED1A06838B9276957B900212068CB
:10E51000FDF7AEF8074604E061692068FDF7A8F84A
:10E52000074607B9AAE0012F02D10220E071BEE739
:10E53000781C10B90120E071B9E76761206900B962
:10E540002761A07900F0400078B121684878012364
:10E5500004F12401A269FFF774F810B10120E07101
:10E56000A5E7A07920F04000A07161692068FCF760
:10E570007DFB064616B90220E07198E756442068F4
:10E580004089B5FBF0F9B9F1000F31D00AEB090071
:10E5900021688978884203D920688078A0EB0A092D
:10E5A000216848784B4632460199FFF74AF810B186
:10E5B0000120E0717BE7A069801B484511D2A0696A
:10E5C000831B2068B0F80AC0019803FB0C01206887
:10E5D000428904F1240004F0B5FDA07920F0400048
:10E5E000A071206800E017E0408900FB09F835E0E1
:10E5F000A069B0420FD0D4E9020188420BD2216851
:10E6000048780123324604F12401FEF7E1FF10B1FE
:10E610000120E0714BE7A66121684989A068B0FB41
:10E62000F1F201FB120021684989A1EB0008A8451D
:10E6300000D9A84621684989A068B0FBF1F201FB26
:10E64000120104F12400084442460090019904F0AC
:10E6500079FDA07940F04000A07100BF01984044CE
:10E660000190A0684044A060DBF800004044CBF873
:10E670000000A5EB0805002D7FF42DAF00BFD4E905
:10E680000201884201D9A068E060A07940F0200032
:10E69000A07100200BE700002DE9F04102460F4673
:10E6A000802A01DA10462FE01FB1184B45F22056A0
:10E6B00002E0174B45F220560025102416E0A6EB89
:10E6C000050C0CEBDC7805EB68014FEA410C33F8E4
:10E6D0001CC0944500D10BE04FEA410C33F81CC03C
:10E6E000944501DA0D4600E00E46641E002CE6D18A
:10E6F00000BF34B14FF0010C0CEB410C33F81CC0DF
:10E7000001E04FF0000C6046BDE8F0813A300308AC
:10E71000B6DB010830B5802807DA612823DB7A28C8
:10E7200021DCA0F12005A8B21DE00C2200234FF44B
:10E73000F77400BFE51A03EB55010B4D35F8115086
:10E74000854200D10AE0084D35F81150854201DAC2
:10E750000B4600E00C46551E2A1EEBD100BF12B13D
:10E76000024D35F8110030BDBE8404089A880408B3
:10E770002DE9F74F8AB000210A9801600B9800F04C
:10E7800021FE09900998002803DA0B200DB0BDE89E
:10E79000F08FE949099851F820400CB90C20F5E7B1
:10E7A0000A980460207878B16078FEF73CFF8146D3
:10E7B00009F0010040B90C9820B109F0040008B13B
:10E7C0000A20E3E70020E1E700202070099860704C
:10E7D0006078FEF7B2FE814609F0010008B103201F
:10E7E000D4E70C9820B109F0040008B10A20CDE765
:10E7F000607804F10A020221FEF7B4FE38B960899C
:10E80000B0F5007F03DB6089B0F5805F01DD01209A
:10E81000BCE7002739462046FCF7AAF90546012D3A
:10E8200001D09DBB32E000261AE004F5F77000EB42
:10E83000061898F8040070B198F80B00010698F8D3
:10E840000A0041EA004198F8090041EA002098F8DE
:10E850000810084300E0002002A941F82600761CB9
:10E86000042EE2D3002606B1761E00BF02A850F89F
:10E87000267027B139462046FCF77AF900E00220DD
:10E8800005461DB1701C06460428EFD3032D01D1A7
:10E8900001207BE70DB10D2078E73B20015D94F866
:10E8A0003C0041EA00206189884201D00D206DE7DB
:10E8B0004620015D94F8470041EA002ABAF1000FB2
:10E8C0000ED194F85700010694F8560041EA004131
:10E8D00094F8550041EA002094F8541040EA010AE7
:10E8E000C4F818A04020005DE070E078012804D052
:10E8F000E078022801D00D2048E7E0780AFB00FA12
:10E900003D20005DA070A07818B1A078411E08409D
:10E9100008B10D203AE74120015D94F8420041EA38
:10E92000002020816089C11700EBD1614911228943
:10E9300092FBF1F301FB132109B10D2026E74320DF
:10E94000015D94F8440041EA00200890089870B9ED
:10E9500094F85300010694F8520041EA004194F8FB
:10E96000510041EA002094F85010084308903E20DE
:10E97000015D94F83F0041EA00200190019808B938
:10E980000D2003E76089C11700EBD161491122898D
:10E9900092FBF1F20199514411440791DDE907100E
:10E9A000884201D20D20F1E6DDE90710401AA17876
:10E9B000B0FBF1FBBBF1000F01D10D20E6E6012514
:10E9C00040F6F670834500D302254FF6F670834576
:10E9D00000D303250BF102006061E7610198384420
:10E9E000206207983844A062032D16D1208908B10F
:10E9F0000D20CBE694F85F00010694F85E0041EA32
:10EA0000004194F85D0041EA002094F85C1008434E
:10EA1000606260698000069014E0208908B90D20CA
:10EA2000B4E6206A50446062022D02D16069400061
:10EA300007E0207D00F00100616901EB410100EB7E
:10EA4000510006906089401E069908446189B0FB18
:10EA5000F1F0A169884201D90D2097E64FF0FF300F
:10EA60002061E06080206071032D5AD194F860101D
:10EA700094F8610041EA0020012852D1791C204617
:10EA800004F077FBE8BB0020607194F82E1294F834
:10EA90002F0241EA00204AF65521884241D1332015
:10EAA000005D01063220005D41EA00413120005D39
:10EAB00041EA002094F8301008432049884230D1C0
:10EAC00094F81702010694F8160241EA004194F8FE
:10EAD000150241EA002094F81412084318498842AC
:10EAE0001FD194F81B02010694F81A0241EA004172
:10EAF00094F8190241EA002094F8181208432061A2
:10EB000000E00EE094F81F02010694F81E0241EAAC
:10EB1000004194F81D0241EA002094F81C120843B9
:10EB2000E060257007480088401C80B205490880D5
:10EB3000E08000202AE60000BC0100205252614122
:10EB400072724161C4010020F0B504461D464D7348
:10EB50000F27CF7200270F738F76BC4681F81BC03A
:10EB6000571E07EB870C0CEBC706002738463B46C1
:10EB700000BF4FF6FF77B84203D03746761C34F813
:10EB80001700DFF840C01CF803C001F80C000712A2
:10EB9000DFF830C01CF803C08C448CF8017008B951
:10EBA0004FF6FF705F1C3B460D2FE2D34FF6FF7709
:10EBB000B84202D034F816700FB942F040020A7021
:10EBC000F0BD00007CDB01080146C87EC0F34300B5
:10EBD0007047000070B5002691480468914800789D
:10EBE000401EC5B216E1E07E4009002809DDA0897B
:10EBF000401CA081A0894FF6FF71884201DB208B69
:10EC0000A081E07E400920B1012822D002281FD136
:10EC1000CEE00120A84084490968084098B100204E
:10EC2000A081E08100BFE07E20F01E00E076A068B9
:10EC300010B12046A168884700BFE07E20F0E000C8
:10EC40002030E07604E0E07E20F01E001630E07612
:10EC5000D6E00120A84074490968084000285FD028
:10EC6000E08900281DDDA089218A884218DD00BFC7
:10EC7000E089032801DAE08900E00320E17E60F307
:10EC80004401E176A06810B12046A168884700BF22
:10EC9000E07E20F0E0002030E0760020A081E081DE
:10ECA00085E0A089218B884210DBE07EC0F3430021
:10ECB00008287CD000BFE07E20F01E001030E076F7
:10ECC000A06810B12046A168884770E0A089E18A59
:10ECD000884210DBE07EC0F34300062867D000BF07
:10ECE000E07E20F01E000C30E076A06810B12046D7
:10ECF000A16888475BE0A089A18A884257DBE07E53
:10ED0000C0F34300042852D000BFE07E20F01E0074
:10ED10000830E076A06810B12046A168884746E038
:10ED2000A089218B884210DB00BFE07E20F01E000E
:10ED30001230E076A06810B12046A168884700BF75
:10ED4000E07E20F0E000E07631E0A089E18A8842B0
:10ED500010DB00BFE07E20F01E000E30E076A068E1
:10ED600010B12046A168884700BFE07E20F0E00097
:10ED7000E0761CE0A089A18A884210DB00BFE07E1B
:10ED800020F01E000A30E076A06810B12046A1688D
:10ED9000884700BFE07E20F0E000E07607E0E07EFC
:10EDA00020F0E0004030E076E089401CE08127E080
:10EDB0000120A8401C490968084038B1E07E20F0D5
:10EDC000E0002030E0760020A08118E0A089218AB0
:10EDD000884214DD00BFE089032801DAE08900E001
:10EDE0000320E17E60F34401E176A06810B1204683
:10EDF000A168884700BFE07E20F0E000E07600BF19
:10EE000000BFE07E4009002801DD701CC6B2246806
:10EE1000681EC5B2002C7FF4E6AE304670BD00001F
:10EE200034030020400300203C03002070B500267E
:10EE30000C4804680C480078401EC5B207E0204624
:10EE400061688847A84006432468681EC5B214B1AB
:10EE500060680028F3D1F043044909684840044938
:10EE6000086070BD340300204003002038030020F8
:10EE70003C03002001461C48026819B11B48007879
:10EE8000202802D94FF0FF30704705E08A4202D1B6
:10EE90004FF0FF30F8E71268002AF7D112480068F7
:10EEA0000860C87E20F0E000C876C87E20F01E0012
:10EEB0001630C87600208881C881142008820A484C
:10EEC0000160C87E00F00100084B1B789840084B99
:10EED0001B681843064B186004480078401C034B1D
:10EEE000187018460078CFE7340300204003002054
:10EEF0003803002010B5FFF799FFFFF76BFE10BD38
:10EF000010B508210F48FCF715FA4FF49671002050
:10EF1000FCF798FA4FF496710120FCF793FA02205F
:10EF2000FCF729FA0320FCF726FA0420FCF723FA61
:10EF30000520FCF720FA0620FCF716FA0720FCF75C
:10EF400013FA10BDB40200202DE9F34104460198E4
:10EF500000782F2803D0019800785C2802D101980E
:10EF6000401C01900020A06001980078202807D262
:10EF700000212046FEF77DFA05460020606128E06A
:10EF800000BF01A92046FCF7DFFB054605B11FE0E5
:10EF90002046FEF7C7F80546A069C67A3DB1042DA4
:10EFA00004D100BF06F0040000B9052510E006F00A
:10EFB000040000B10CE06769F87A00F0100008B9AD
:10EFC000052505E03946206802F01EFFA060D8E75D
:10EFD00000BF2846BDE8FC8113B50C464FF6FF7311
:10EFE000012269460248F6F7B3FB00981CBD0000F9
:10EFF0005C07002010B538480078012803D0364857
:10F000000078022858D135480078052853D2DFE827
:10F0100000F0030619334200FAF7D2FF00BFF4F7FD
:10F0200003FA2F490968401A41F28831884208D30F
:10F03000FBF7E4FBF4F7F8F92A49086002202749B6
:10F04000087038E028480078032811DAF4F7ECF962
:10F0500024490968401A40F6B83188420BD3012090
:10F060001E49087020480078401C1F49087002E0C3
:10F0700004201A4908701EE0FAF798FEF4F7D4F954
:10F0800017490860012015490870002015490860DB
:10F09000154908700FE000201049087011490860F8
:10F0A0001149087004200C490870002088814880AC
:10F0B0008880886000BF0DE000200C494870074937
:10F0C0000870094908700749086003498881488029
:10F0D0008880886010BD0000E47900205D02002077
:10F0E00054020020580200205C020020147A002004
:10F0F00070B504466078217800EB01200E49488005
:10F10000E078A17800EB01200B49888060792179B3
:10F1100000EB01200A2190FBF1F52846F1F761FA96
:10F1200005498860E079A17900EB012002498881D6
:10F1300003200249087070BDE47900205D020020C0
:10F140002DE9FF4F83B0074691461E460B223846F5
:10F15000049903F0F7FF052E19D9B04612E039F8EB
:10F1600002BB00250CE0584668F35F0080464FEA7A
:10F170006B0B08F4803010B1234888EA00086D1C3E
:10F18000102DF0D3B9F800000028E8D14646072535
:10F1900000BF06F00F0000F1300ABAF1390F03DDAD
:10F1A0000AF1070000F0FF0A28466D1E01A901F8C8
:10F1B00000A03609002EECD17E20485500240BE03B
:10F1C000385D812807DB385DFE2804DC681EA0421C
:10F1D00000D106E0641C641CAC4202D2385D2028D9
:10F1E000EED100BF00BF082D04D228466D1C01A936
:10F1F000095C00E020212046641C3954082CF2D31D
:10F2000007B0BDE8F08F00002110010070B5064680
:10F210000C461546052028600348206003A0FAF735
:10F2200067F8002070BD0000D8000020BBF1C8A125
:10F23000B5A5B5E3D2A3D0C5CAFDBEDDB5D8D6B756
:10F240000D0A000070B506460C46154602202860DF
:10F250000348206003A0FAF74BF8002070BD0000BF
:10F26000F4000020BBF1C8A1B6CCB8A1B5E3CAFD3B
:10F27000BEDDB5D8D6B70D0A000000002DE9F05F5D
:10F2800004460D46022D02D36069A84202D84FF011
:10F2900001098FE04FF0FF392078012804D00228BF
:10F2A0003CD003287ED157E02F4607EB57076089F3
:10F2B000B7FBF0F0216A00EB010A5146204603F04B
:10F2C00058FF00B175E038467F1C6189B0FBF1F250
:10F2D00001FB120104F1300010F801806089B7FBD6
:10F2E000F0F0216A00EB010A5146204603F041FF8D
:10F2F00000B15EE06089B7FBF0F100FB117104F131
:10F300003000405C48EA002805F0010010B14FEAE7
:10F31000181001E0C8F30B0081464AE0B4F80AA0D7
:10F320000AEBDA704010B5FBF0F0216A00EB010B3C
:10F330005946204603F01DFF00B13AE0680061899C
:10F34000B0FBF1F201FB120104F130000E1830782D
:10F35000717840EA01292CE0B4F80AA04FEAEA707B
:10F360000AEB90708010B5FBF0F0216A00EB010B06
:10F370005946204603F0FDFE00B11AE0A80061895D
:10F38000B0FBF1F201FB120104F130000E18F0782D
:10F390000006B17840EA0140717840EA01203178F6
:10F3A000084300E002E020F0704902E04FF001095C
:10F3B00000BF00BF4846BDE8F09F0000004870470E
:10F3C0000000214670B502464FF0FF301568E5B1E8
:10F3D000116800E0491C0D78202D02D30D783A2DDC
:10F3E000F8D10D783A2D0FD1146814F8015BA5F10E
:10F3F00030030A2B07D28C4205D1022B03D21846C8
:10F400004D1C2946156070BD002000BFFBE70000C1
:10F4100010B5F4F709F80D490968401AB0F57A7F7C
:10F4200013D3002409220021094807F0ABF8044651
:10F43000200A074948728C720B21054807F0C6F86C
:10F44000F3F7F2FF0149086000BF10BD6002002021
:10F45000640200202DE9F04105460F4616460DB91D
:10F46000BDE8F0814FF42C712846F0F76EFF0FB124
:10F47000384600E05C480446A0682862A06810B1E5
:10F4800094F8260000E0002085F8A802206808B162
:10F49000206800E05548A861606808B1606800E035
:10F4A0005348E861E06808B1E06801E04EF660208A
:10F4B000E866206908B1206900E04E48286794F8A2
:10F4C000280085F8840294F8230010B194F82300F2
:10F4D00000E0022085F8880294F8240010B194F826
:10F4E000240000E0022085F8890294F8250010B17C
:10F4F00094F8250000E0032085F88A02208C08B1EA
:10F50000208C00E00120A5F89002208B08B1208B10
:10F5100001E04EF66020A5F892024EF66020A5F8B4
:10F520009402E08A08B1E08A01E043F69820A5F849
:10F5300096020020A5F89802A08A08B1A08A00E0EF
:10F540002D48A5F89A02E08B08B1E08B00E001207D
:10F550004FF42871485394F8220010B194F8220017
:10F5600000E0022040F2A221485594F8290010B191
:10F5700094F8290000E0032040F2A621485594F8B1
:10F580002700102803DB94F82700F02802DDF02084
:10F5900085F88B0294F82A0028B195F8840240F08F
:10F5A000040085F8840294F82B0028B195F88402B1
:10F5B00040F0800085F8840295F8840240F0020053
:10F5C00085F88402B5F89A020C490968081AE865BA
:10F5D00005F1080002F0AAFB284601F0DBFB0EB1A2
:10F5E0002846B04700BF3BE750D7010865C6000872
:10F5F00091C60008C0270900A0BB0D00B80000207C
:10F6000010B5044600BF94F8A80220B1206A10B1DA
:10F610000CA0216A884700BF012084F886020020E0
:10F6200084F887020E49E06E0968081A00F57A70BE
:10F6300020660B49206F0968081A00F57A70606629
:10F6400010BD00000D0A2823293A69656320627500
:10F650007320636F6E6E656374656421210D0A000B
:10F66000B800002010B50446002084F8860200216E
:10F670004FF429700155002084F8870284F8850230
:10F680001C2104F12400F0F760FE1C2104F140006D
:10F69000F0F75BFE204601F0D7FA10BD2DE9F84FD8
:10F6A00004460E46914635466878801D009095F8D0
:10F6B00005802878E978884203D1A878697888425B
:10F6C00004D038A0216A8847BDE8F88F69783AA04D
:10F6D000226A90470098401E305C162803D03AA05A
:10F6E000216A8847F0E740F2A220005D012802DD90
:10F6F000A87948EA002841463AA0226A90474FF488
:10F700002870005B404503D03AA0216A8847DBE7B8
:10F7100040F2A220015D681D0F186878401E40F27B
:10F72000A221095DA0EB010A94F8840200F0010017
:10F7300080EA090BBBF1000F0ED194F8840200F0AF
:10F74000040020B129792046FBF748F912E0297915
:10F75000204607F029F90DE094F8840200F0040037
:10F7600020B129792046FBF78DF803E0297920465E
:10F7700007F09EF83878802811DA3878DFF890C0E2
:10F780005CF82020B878DFF88CC05CF8201022A04C
:10F79000236A9847524639462046F1F7BBFC00BF22
:10F7A00092E700006672616D65206865616420659E
:10F7B00072726F720D0A0000706B746C656E203D82
:10F7C0002025640D0A00000063616E6E6F74206670
:10F7D0006F756E64206672616D65207461696C0D71
:10F7E0000A0000006C696E6B616464723A307825BF
:10F7F000780D0A006164647265737320646F6573C9
:10F80000206E6F74206D617463682E0D0A00000015
:10F81000B0D80108F0D70108434F543A25730D0AB8
:10F82000415344553A25730D0A0000002DE9F0417B
:10F8300004460E4635466878871D2878E978884260
:10F8400003D1A878697888420BD000BF94F8A80249
:10F8500020B1206A10B11CA0216A884700BFBDE812
:10F86000F081781E305C16280AD000BF94F8A802F8
:10F8700020B1206A10B11BA0216A884700BFEEE7C3
:10F880006978281DFBF766F9B91E715C88420AD0B9
:10F8900000BF94F8A80220B1206A10B119A0216A13
:10F8A000884700BFDBE794F8840200F0010020B92C
:10F8B0002946204600F012FC03E02946204600F0CD
:10F8C000A1FA00BFCBE700000D0A3C213E3A667268
:10F8D000616D652068656164206572726F720D0AE2
:10F8E000000000000D0A3C213E3A63616E6E6F74A9
:10F8F00020666F756E64206672616D652074616943
:10F900006C0D0A000D0A3C213E3A636865636B206A
:10F9100073756D206572726F720D0A002DE9F041EA
:10F9200006460C4617461D462B463A4621463046AB
:10F9300004F06EFB2078102805D12A462146304677
:10F9400000F07AF904E02A4621463046FFF7A6FE89
:10F95000BDE8F0812DE9F04104460E46154657E01A
:10F9600094F87C01102804D140F2A220005D071D0C
:10F970000BE0B4F88C02012804DD40F27D10005D3C
:10F98000801D01E03078801D0746B4F88C02A7EB9B
:10F99000000845450FDAB4F88C2204F5BE71501802
:10F9A0002A463146F0F7B8FCB4F88C022844A4F893
:10F9B0008C02BDE8F081B4F88C2204F5BE715018B9
:10F9C00042463146F0F7A8FC4644A5EB0805002066
:10F9D000A4F88C0200BF94F8A802012808DD206A70
:10F9E00030B100233A4604F5BE712046FFF796FF7A
:10F9F00000BF94F87C01102805D104F5BE712046A3
:10FA000000F062F904E004F5BE712046FFF70EFF36
:10FA1000B4F88C0208B1002DA2D151E03078E5286D
:10FA200008D194F8850220F0200084F88502761C25
:10FA30006D1E45E03078102804D140F2A220005D10
:10FA4000071D15E03078682807D1022D01DAFF2064
:10FA500001E07078801D07460AE000BF94F8A80214
:10FA600020B1206A10B118A0216A884700BFA0E722
:10FA7000BD4208DA2A46314604F5BE70F0F74CFC68
:10FA8000A4F88C52002500BF94F8A802012807DDD5
:10FA9000206A28B100233A4631462046FFF73EFF50
:10FAA00000BF3078102804D13146204600F00CF910
:10FAB00003E031462046FFF7B9FE3E44ED1B00BF90
:10FAC000002DABD100BF74E70D0A3C213E3A6361C3
:10FAD0006E6E6F7420666F756E64206672616D6500
:10FAE0002068656164210A002DE9F05F04468A46BA
:10FAF000174698464FF0E50B04F174054FF4287053
:10FB000030F80490BAF1000F43D0002F41D004F137
:10FB100074066820307040F2A220005D3844401C1A
:10FB200070707078B0706820F07086F8048086F885
:10FB3000059040F2A220005D012802DD4FEA192164
:10FB4000B17140F2A220015D701D0D18AA4504D0CC
:10FB50003A4651462846F0F7DFFB40F2A220025D0C
:10FB6000781C1044C1B2301DFAF7F4FF83463D44BF
:10FB700005F801BB162005F8010B94F8840200F08B
:10FB8000050028B194F8850240F0200084F8850231
:10FB90002BE0102005F8010B05F8018B05F8019BFF
:10FBA00040F2A220005D012803DD4FEA192005F88C
:10FBB000010B04F17500281AC1B204F17500FAF7BF
:10FBC000C9FF834605F801BB162005F8010B94F820
:10FBD000840200F0050040B108F0400028B194F81C
:10FBE000850240F0200084F885020D480068E06539
:10FBF00004F17400291AA269904700BF94F8A80282
:10FC0000012809DD206A38B104F174002A1A0123A1
:10FC100001462046FFF782FE00BFBDE8F09F0000CE
:10FC2000B800002040F2A3231954024BC0F89C32C4
:10FC3000426270475D9500082DE9F04104460D468B
:10FC4000164640F2A220005D00F10408A8F1010070
:10FC5000285C162804D015A0216A8847BDE8F081E9
:10FC600094F8840200F0010080EA060777B194F866
:10FC7000840200F0040020B169782046FAF702FE01
:10FC800012E06978204606F013FE0DE094F8840235
:10FC900000F0040020B169782046FAF79FFE03E0E7
:10FCA0006978204606F080FE00BFD7E763616E6E7C
:10FCB0006F7420666F756E64206672616D65207466
:10FCC00061696C0D0A00000070B504460D4640F2F3
:10FCD000A220005D061D701E285C16280AD000BFF9
:10FCE00094F8A80220B1206A10B11EA0216A8847AA
:10FCF00000BF70BDF01EC1B2681CFAF72BFFB11E29
:10FD0000695C88420AD000BF94F8A80220B1206A3A
:10FD100010B11CA0216A884700BFEAE794F884026A
:10FD200000F0040070B994F8840200F0010020B9DA
:10FD30006978204606F050FE12E06978204606F009
:10FD4000EFFD0DE094F8840200F0010020B969781D
:10FD50002046FAF76DFE03E069782046FAF7DAFDEF
:10FD600000BFC6E70D0A3C213E3A63616E6E6F74B8
:10FD700020666F756E64206672616D6520746169BE
:10FD80006C0D0A000D0A3C213E3A636865636B20E6
:10FD900073756D206572726F720D0A0070B504463E
:10FDA000C9252046FFF75EFC00BF94F8A80220B1E9
:10FDB000206A10B10DA0216A884700BF94F8840220
:10FDC00000F0040020B194F8840200F080000543A4
:10FDD0002B46002211462046FFF786FE94F8850246
:10FDE00040F0200084F8850270BD00000D0A282331
:10FDF000293A7265717565737420636F6E6E656301
:10FE0000740D0A002DE9F04104460D4640F2A2208F
:10FE1000015D681D0E186878401E40F2A221095D40
:10FE2000A0EB01083078124951F8207094F8840250
:10FE300000F0040020B129792046FAF76BFD03E0B9
:10FE40002979204606F06CFD27B14246314620460E
:10FE5000B8470AE000BF94F8A80228B1206A18B198
:10FE6000317804A0226A904700BFBDE8F08100000D
:10FE7000D85A00200D0A5B2A5D3A756E7265636F71
:10FE8000676E697A656420747970653A25640D0A35
:10FE9000000000007047000070B5044694F8870227
:10FEA000012819D14749A06E0968081AB4F89212BE
:10FEB000884211D9002084F887021C2104F14400F3
:10FEC000F0F743FA00BF94F8A80220B1206A10B1FD
:10FED0003DA0216A884700BF94F8850200284BD0D6
:10FEE0003849E06D0968081AB4F89612884242D978
:10FEF00034480068E06540F2A520005D401CC1B2B6
:10FF000040F2A5200155401C005D814207DD2046DE
:10FF1000FFF744FF002140F2A52001552BE094F8A3
:10FF20007400102804D140F2A220005D051D02E0FB
:10FF30007520005D851D00BF94F8A80230B1206ACD
:10FF400020B194F8851227A0226A904700BF00BF15
:10FF500094F8A802012808DD206A30B101232A465E
:10FF600004F174012046FFF7D9FC00BF294604F1D3
:10FF70007400A269904770BD04F10800A168814235
:10FF800003D0204601F020F8F5E7D4F89C0238B100
:10FF9000D4F89C620020C4F89C022046B0470EE0D2
:10FFA000606A60B90749206E0968081AE16E8842E4
:10FFB00005D9044800682066204601F0C7F800BF54
:10FFC000D9E70000B80000200D0A5B2A5D3A73658E
:10FFD0006C656374206374726C2074696D656F75F1
:10FFE000740D0A000D0A5B2A5D3A6E6F207265730C
:10FFF000706F6E645B307825785D2C726573656E0A
:020000040801F1
:1000000064207061636B65742E0D0A002DE9F04762
:10001000044694F88902871C94F88802C61994F85B
:10002000840200F0020038B140F2A220005D401DC1
:1000300004F17401084401E004F17A00054604F576
:100040002174A079304400F1010946202870012074
:1000500068700420A870A07AE870207BE855A08919
:100060000112781C29540020A8550021701C295425
:10007000B01C29540020A179314468542078A4F59B
:10008000217400F00400C8B14FF42971095D09B969
:10009000012100E0002108464FF429710855C021D4
:1000A00041EA401141F01001C91C01F0FF0894F829
:1000B000841201F0800141EA080801E04FF00808CD
:1000C0001FFA89F2434629462046FFF70DFD1C2101
:1000D00004F12400F0F739F9BDE8F0872DE9F04785
:1000E00004460D4695F8059040F2A220005D0128D7
:1000F00002DDA87949EA00294FF42870005B4845E1
:100100000BD000BF94F8A80220B1206A10B11EA045
:10011000216A884700BFBDE8F08740F2A220015D58
:10012000681D0E186878401E40F2A221095DA0EB00
:10013000010894F8840200F0040020B129792046D7
:10014000FAF776FC03E02979204606F045FC307882
:10015000154951F8207027B1424631462046B8472C
:1001600010E000BF94F8A80228B1206A18B13178D5
:100170000EA0226A904700BF00231A461946204667
:10018000FFF7B2FC00BFC6E70D0A5B2A5D3A616467
:10019000647265737320646F6573206E6F74206D75
:1001A000617463682E0D0A00D85A00200D0A3C21A4
:1001B0003E3A756E6B6E6F776E207479706528307D
:1001C00078257829207061636B65742E0D0A000014
:1001D00070B5044694F88702012819D11249A06E1F
:1001E0000968081AB4F89212884211D9002084F8DC
:1001F00087021C2104F14400F0F7A7F800BF94F82F
:10020000A80220B1206A10B108A0216A884700BF67
:10021000D4F89C0238B1D4F89C520020C4F89C0257
:100220002046A84700BF70BDB80000200D0A5B2A19
:100230005D3A73656C656374206374726C207469D5
:100240006D656F75740D0A0010B50446002084F8C2
:10025000870284F8860284F885021C2104F12400B8
:10026000F0F773F81C2104F14000F0F76EF8204617
:1002700000F0EAFC10BD000010B504464323002244
:100280001146204600F076F904480068E06594F8CD
:10029000850240F0010084F8850210BDB8000020FE
:1002A0002DE9F04707460C4692462546AE1DA87834
:1002B0004110E87841EAC01828794110687941EA8C
:1002C000C0194A4641460DA03B6A984730788028BD
:1002D00012DA3078DFF838C05CF82020B078DFF828
:1002E00034C05CF820100CA03B6A98476878021F65
:1002F00031463846F0F70EFFBDE8F0873C492D66E1
:1003000072616D653E25643A25640D0A00000000A7
:10031000B0D80108F0D70108434F543A25730D0AAD
:10032000415344553A25730D0A0000002DE9F04170
:1003300005460C4616461F463B4632462146284691
:1003400003F066FEA07800F00300032808D1A0782F
:1003500000F084F9804641460CA02A6A904712E0DA
:10036000A07800F0010048B120794010617940EA9E
:10037000C118414609A02A6A904704E0B2B221465A
:100380002846FFF78DFFBDE8F08100005B552D6624
:1003900072616D655D3A25730D0A000028532D6664
:1003A00072616D65293A25640D0A000070B5054635
:1003B0000C46164600BF95F8A802012807DD286AFA
:1003C00028B10023324621462846FFF7AFFF00BF81
:1003D00095F8840200F00100D8B1A07800F0030085
:1003E000032804D1A178284600F000FA32E0A07872
:1003F00000F0010020B1A11C284600F075FB29E0A7
:1004000015A0F8F775FFB2B22146284600F082F930
:1004100020E0A07800F00300032807D110A0F8F72F
:1004200067FFA178284600F069FB13E0A07800F090
:10043000010038B10CA0F8F75BFFA11C284600F0C2
:1004400053FB07E004A0F8F753FFB2B22146284659
:1004500000F04CFA70BD000049D6A10D0A00000062
:1004600055D6A10D0A00000053D6A10D0A000000C8
:100470002DE9F0470446894615464E463448006843
:10048000E06535E0B4F88C02012803DD40F27D1010
:10049000005D00E030780746BF1CB4F88C02A7EB83
:1004A000000845450FDAB4F88C2204F5BE715018E7
:1004B0002A463146EFF730FFB4F88C022844A4F8FE
:1004C0008C02BDE8F087B4F88C2204F5BE71501898
:1004D00042463146EFF720FF4644A5EB08050020D1
:1004E000A4F88C023A4604F5BE712046FFF75EFF81
:1004F000B4F88C0208B1002DC4D125E0307868280A
:100500000AD000BF94F8A80220B1206A10B111A04F
:10051000216A884700BFD4E7022D03DB7078801C76
:10052000A84208DD2A46314604F5BE70EFF7F4FE16
:10053000A4F88C52C5E77078871C3A4631462046AD
:10054000FFF734FFED1B3E44002DD7D100BFB8E7C5
:10055000B80000200D0A5B2A5D3A63616E6E6F740D
:1005600020666F756E64206672616D6520686561D6
:1005700064210A002DE9F0470546884617461E46C5
:1005800005F174044FF006096820207004206070A3
:10059000B8F1000F2CD05FB360783844607009EB7D
:1005A00007001FFA80F9B5F89C02FE2101EA40001D
:1005B000A070B5F89C02C0F3C711E170B5F89C02B9
:1005C000401CA5F89C024FF42870405BFE2101EA14
:1005D000400121714FF42870405BC0F3C711617175
:1005E000A01D404524D03A464146EFF795FE1FE056
:1005F00006F00300032805D1A6700021E1702171E7
:10060000617115E006F0010080B1A6700021E17073
:100610004FF42870405BFE2101EA400121714FF444
:100620002870405BC0F3C711617101E0BDE8F0873D
:1006300000BF95F8A802012808DD286A30B101231F
:100640004A4605F174012846FFF770FE00BF49468F
:1006500005F17400AA69904700BFE7E701460B293E
:1006600001D10CA014E0232901D10FA010E04329EF
:1006700001D112A00CE0832901D113A008E00729C1
:1006800001D116A004E0132901D119A000E01DA09A
:1006900070470000736C61766520636F6E6E6563F2
:1006A0007465642E00000000736C617665206469D7
:1006B00073636F6E6E65637465642E006865617246
:1006C00074626561742E00006865617274626561B0
:1006D00074207265706C792E00000000636F6E6E7E
:1006E00065637420726571756573742E0000000077
:1006F000646973636F6E6E6563742072657175658E
:1007000073742E00756E6B6E6F776E207061636B05
:1007100065742E002DE9F04704460E4692464FF0D0
:100720000008C146354628794110687941EAC01968
:10073000A8784110E87841EAC0184FF42870005BAF
:1007400040450ED000BF94F8A80220B1206A10B135
:100750001BA0216A884700BF2046FFF775FDBDE852
:10076000F0874FF42870005B401C81B24FF4287072
:1007700001531B480068E065A4F89E9240F2A22055
:10078000005BA8EB000140F2A520005D81420ADD7C
:100790004FF42870015B801C015301230022114695
:1007A0002046FFF7E7FEA8790E4951F8207027B1DF
:1007B0006878021FA91D2046B84700BFCFE7000098
:1007C0000D0A3C213E3A493A72656376206E756D9A
:1007D00020636865636B206572726F720D0A00009A
:1007E000B8000020D85A00207047000070B50446B9
:1007F0000D460B2D27D1012084F88602002084F8B5
:10080000850228480068E0652649E06E0968081AF4
:1008100020662449206F0968081A60660020A4F841
:100820009C02002140F29E200153801C0153801C39
:10083000015300BF94F8A80220B1206A10B11AA099
:10084000216A88472CE0232D06D1002084F88602F7
:1008500014480068E06523E0432D09D1832300227A
:1008600011462046FFF786FE0E480068E06517E057
:10087000832D09D194F8850220F0010084F88502C7
:1008800008480068E0650BE000BF94F8A80228B1B2
:10089000206A18B1294609A0226A904700BF70BD9E
:1008A00000BFFCE7B80000200D0A2823293A636F37
:1008B0006E6E6563746564210D0A00000D0A3C21AB
:1008C0003E3A63616E6E6F74206964656E7469741C
:1008D00079207468697320552D636F6E74726F6C24
:1008E0002830782578292E0D0A0000002DE9F047E0
:1008F00004460E4692464FF00008C1463546A87899
:100900004110E87841EAC01828794110687941EA35
:10091000C0194FF42870005B40450ED000BF94F81A
:10092000A80220B1206A10B10EA0216A884700BF3A
:100930002046FFF789FCBDE8F08708F1010081B28D
:100940004FF428700153A4F89E92A8790D4951F8EC
:10095000207027B16878021FA91D2046B84700BF44
:10096000E9E700000D0A3C213E3A493A7265637698
:10097000206E756D20636865636B206572726F729F
:100980000D0A0000D85A002010B5044694F88602DB
:1009900000B910BD94F8870230B3206C30B14248E2
:1009A0000068E0652046216C8847F2E794F88702EA
:1009B000012819D13C49A06E0968081AB4F89212AE
:1009C000884211D9002084F887021C2104F14000DC
:1009D000EFF7BBFC00BF94F8A80220B1206A10B169
:1009E00032A0216A884700BF04F10800A168814253
:1009F00006D0204600F0E8FA2B480068E065C8E71A
:100A0000606A88B1B4F89C1240F29E20005B091A1B
:100A10004FF42970005D814206DC23480068E065E0
:100A20002046616A8847B4E794F8850230B940F2FD
:100A30009E20005BB4F89C1288421AD01A49E06DDF
:100A40000968081AB4F89612884211D900BF94F8C0
:100A5000A80230B1206A20B194F885121AA0226A47
:100A6000904700BF2046FFF7EFFB2046E16988472B
:100A70008FE70D49206E0968081AE16E884206D991
:100A8000094800682066204600F060FB81E70649BF
:100A9000E06D0968081AB4F89A12884202D9204613
:100AA000FFF7EAFB00BF74E7B80000200D0A5B2ADD
:100AB0005D3A73656C656374206374726C2074694D
:100AC0006D656F75740D0A000D0A5B2A5D3A7265DB
:100AD0006D6F74652074696D656F75745B30782512
:100AE000785D2E0D0A00000010B58B785B10CC7875
:100AF00043EAC41240F29E231A5210BDF8B50446D0
:100B00000E46032000906D46072E19D12046FFF7B0
:100B10009BFB287820F0080008302870012084F81A
:100B200086022348006820660020A4F89C02002169
:100B300040F29E200153801C0153801C01532EE083
:100B400094F8860200B9F8BD132E08D1287820F059
:100B5000200020302870002084F886021FE0432EF9
:100B600005D1287820F080008030287017E0832E8F
:100B700009D194F8850220F0010084F885020C4820
:100B80000068E065DFE700BF94F8A80228B1206A9A
:100B900018B1314607A0226A904700BFD3E79DF8FD
:100BA0000030002211462046FFF7E4FC00BFCAE7F0
:100BB000B80000200D0A3C213E3A63616E6E6F74EE
:100BC000206964656E74697479207468697320554E
:100BD0002D636F6E74726F6C2830782578292E0D16
:100BE0000A0000002DE9F84304460E4617469846D1
:100BF000DDF8209043463A46314604F11000CDF826
:100C0000009000F067FF0546002D05DA206A18B154
:100C1000314603A0226A90472846BDE8F8830000C9
:100C20000D0A3C213E3A72656769737465722069EA
:100C30006E74657266616365282564292066616942
:100C40006C65642E0D0A00002DE9F0410446A5688C
:100C500004F108000060406000BF94F8840200F0D6
:100C6000010050B104E02E462D68304600F05CFFD4
:100C700004F108008542F6D109E004E02F462D6812
:100C8000384600F051FF04F108008542F6D1BDE876
:100C9000F08100000D480E494860C1F8B4000D48CD
:100CA00088600D48C1F8E8000C48C860C1F8B80079
:100CB0000B4808610B48C1F8EC000B4848630B482F
:100CC00088630B48C1F8900070470000797A0008EB
:100CD000D45E0020817B0008AD7C0008C11C0008A8
:100CE000C91D0008F51E00083D8500089186000812
:100CF000158800082DE9F04106460A4806600A48B2
:100D000004680AE0254695F8840200F007000749C8
:100D100051F820702846B847246803488442F1D12E
:100D2000BDE8F081B8000020AC00002008D7010821
:100D300010B5094800F0FAFF0849642000F054F8A3
:100D40000749672000F050F806492D2000F04CF8C4
:100D5000FFF7A0FF10BD0000AC000020AD0D0108A2
:100D6000F9570108CB0D010870B504460D4616462B
:100D700094F8840200F0020028B132462946204649
:100D8000FEF7E8FD04E0324629462046FFF770FBF7
:100D900070BD000004494A6848600160426010600C
:100DA00000BF00BF70470000AC00002070B50446D3
:100DB0000D46164694F8840200F0010020B9324630
:100DC0002946204600F006FC70BD70B504460D466D
:100DD000164694F8840200F0010020B932462946F4
:100DE000204600F033FD70BD70B504460D460B483B
:100DF00050F8240068B140F28B12094909A0F8F7B5
:100E000077FA224621460BA0F8F772FA4FF0FF302E
:100E100070BD024840F824500020F9E7D85A00205D
:100E20007CD701086572726F723A257328292C25C8
:100E3000640D0A006572726F722C74686973207495
:100E40007970655B307825782C25645D2069732086
:100E50006C697374656E65640D0A000070B50446B4
:100E60000025A66804F1080086420BD035463046BE
:100E700000F0A5FE05F10C012046AA68904728461F
:100E800000F052FE70BD70B5044604F1440694F8BB
:100E9000840200F0020030B932780023711C204631
:100EA000FFF768FB27E094F8840200F00400A8B183
:100EB0004FF42971095D09B9012100E000210846BC
:100EC0004FF429710855C02141EA4011C91CCDB227
:100ED00094F8841201F080010D4306E094F8870233
:100EE000022801D1202500E0002532782B46711C14
:100EF0002046FEF7F9FD94F88702022803D094F803
:100F00008702042802D1002084F887021C2104F102
:100F10004000EFF71AFA70BD2DE9F04706460F467C
:100F20009046994696F8860230B919A0F8F7E0F98C
:100F30004FF0FF30BDE8F0873846FCF7B0FB0546C0
:100F4000294617A0F8F7D4F915B94FF0FF30F1E7AB
:100F500005F1100000F03AFE04462CB913A0F8F792
:100F6000C7F94FF0FF30E5E7C4F8088027732A4639
:100F7000494604F10D00EFF7CFF929460FA0F8F725
:100F8000B7F906F10801204600F012FE0020D1E773
:100F90006275732D3E636F6E6E65637465640000E9
:100FA00074797073697A6525640D0A006E657765DA
:100FB00076656E74203D3D204E554C0074797073FB
:100FC000697A6525642C00002DE9F04F87B004464E
:100FD00094F88902801C069094F8881206980844B8
:100FE000059094F8840200F0020038B140F2A2208B
:100FF000005D401D04F17401084401E004F17A0031
:1010000005462E4605982F1805F1010A0020049088
:101010008046287068700320A87094F88E02E870EB
:1010200094F8901206982954B4F890020112069888
:10103000401C2954A068804698F80C003546307052
:1010400098F80C00FCF72BFB814694F88B1294F86F
:101050008A2202EB090091FBF0F0C0B204900498E0
:101060007F2801DD7F2004904FF0000BA0680390E3
:10107000E068029029E0DDF80CB0DBF80000039096
:10108000D84698F80C00317888421ED1002006E03E
:10109000C200D8F80810D14007F8011B401C94F892
:1010A0008A128142F4DC4A4608F10D013846EFF716
:1010B00033F94F44404600F082FD404600F034FDD5
:1010C0009AF80000401C8AF800000298834504D07A
:1010D0009AF8001004988142CDDB94F8840200F065
:1010E000020050B30020019094F8840200F0040044
:1010F000C8B14FF42971095D09B9012100E000214F
:1011000008464FF429710855402141EA4011C9B2FF
:1011100041F01001019194F8841201F08001019ACC
:101120001143019101E000200190781B82B2294611
:101130002046019BFEF7D8FC05E07A1B00232946D8
:101140002046FFF717FA07B0BDE8F08F2DE9F04110
:10115000044665690AE02F467879142800D107E033
:101160007879142801DD002502E02D68002DF2D1E8
:1011700000BF85B104F1280635601420706001209D
:10118000F0600648606294F8840200F0040010B138
:10119000204600F0D5F8BDE8F081000041130108B9
:1011A0002DE9F74F0746904697F8840200F00100BA
:1011B00018B14FF0FF30BDE8FE8F414607F1100037
:1011C00000F056FC06461EB1706808B1B06828B938
:1011D0001BA0F8F78DF84FF0FF30ECE7019848EAD4
:1011E000002907F1140513E0286883469BF80400E2
:1011F0009BF8051040EA012AD14500DD0BE0D145FE
:1012000005D114A0F8F774F84FF0FF30D3E72D683C
:1012100028680028E8D100BF082000F0D7FC044669
:101220002CB90FA0F8F764F84FF0FF30C3E701982E
:10123000607184F80480286820602C600020BAE780
:101240006965635F64657669665F66696E640D0AE9
:10125000000000006E6577696E6465780D0A000015
:101260006E657773756D6D6F6E0D0A002DE9F04335
:1012700089B0044694F88902861C94F8880200EB31
:101280000608202101A8EFF760F894F88A0240448C
:1012900001A9451804F1280964208DF804000120F3
:1012A0008DF8050007208DF8060000208DF8070056
:1012B00094F890028855B4F89002011201AA701CAB
:1012C000115499F8040005F8010B94F8840200F019
:1012D000020030B394F8840200F00400B8B14FF477
:1012E0002971095D09B9012100E0002108464FF488
:1012F00029710855C02141EA401141F01001C91C73
:10130000CFB294F8841201F080010F4300E0282747
:1013100001A8281A82B23B4601A92046FEF7E4FB49
:1013200006E001A82A1A002301A92046FFF722F9A6
:101330000248606209B0BDE8F08300004113010873
:101340002DE9F04F8BB0044694F8890200F1020BAE
:1013500094F8880258440A9094F8840200F002003D
:1013600038B140F2A220005D401D04F17401084430
:1013700001E004F17A0006460020089004900390F2
:101380008146824604F128052868039000BF03982F
:1013900078B96968E868884203D1204600F0AEF861
:1013A00004E01C2104F12400EEF7CFFF0BB0BDE8F0
:1013B000F08F0398814699F805006968884203D048
:1013C000204600F09BF8F1E799F8041004F11000B2
:1013D00000F04EFB824604AA08A92046DAF8043041
:1013E00098470898016841A0F7F782FF0498002801
:1013F000CDD0AF689AF810300498C21B089800EB63
:1014000087012046F8F77BFC804608F080000590B5
:101410000598A8EB0000079099F80400307086F852
:101420000180287BB07094F88E02F07094F89002DE
:1014300006F80B00B4F8900201120BF101003154D0
:101440000A9831180598CDE90001089800EB870249
:1014500051462046079B00F05DFD06900A990698CC
:1014600008440690079807440498874205DB0398D0
:10147000006828600020A86000E0AF6094F8840253
:1014800000F0020048B394F8840200F00400D0B1E8
:101490004FF42971095D09B9012100E000210846D6
:1014A0004FF429710855C02141EA401141F0100163
:1014B000C91CC9B2099194F8841201F08001099AFB
:1014C0001143099101E028200990069882B2314623
:1014D0002046099BFEF708FB05E000233146204625
:1014E000069AFFF747F800BF60E700006164647286
:1014F0006C69737425780D0A000000002DE9F04333
:1015000089B0044694F88902861C94F8880200EB9E
:101510000608202101A8EEF718FF04F1280964202D
:101520008DF8040001208DF805000A208DF80600D2
:1015300094F88E028DF8070094F8900201A988555E
:10154000B4F89002011201AA701C115494F88A0296
:10155000404401A9451899F8040005F8010B1C2125
:1015600004F12400EEF7F1FE94F8840200F002008A
:1015700030B394F8840200F00400B8B14FF429713C
:10158000095D09B9012100E0002108464FF42971E5
:101590000855402141EA401141F01001C91CCFB269
:1015A00094F8841201F080010F4300E0082701A89D
:1015B000281A82B23B4601A92046FEF795FA06E0BA
:1015C00001A82A1A002301A92046FEF7D3FF09B07B
:1015D000BDE8F0832DE9F84F04468A4694F8890265
:1015E00000F1020B94F888025844009094F88A1293
:1015F000009808441AF80070D4F814800EE0C14630
:1016000099F80500B84200D10BE099F80500B842FE
:1016100002DD4FF0000804E0D8F80080B8F1000FB8
:10162000EDD100BF1C2104F12400EEF78EFE04F181
:101630002805C5F800806F600020A860EF6094F86E
:10164000840200F00200E8B194F8840200F0040083
:1016500088B1802694F8840200F0800006430B488D
:1016600006703346002211462046FEF73DFA084830
:10167000C4F89C0206E0A02633460022114620460C
:10168000FEF732FA02486062BDE8F88FD40000200D
:101690006D12010870B5044604F128050721E970B0
:1016A00094F8840200F0020020B3002694F884022B
:1016B00000F00400B0B14FF42971095D09B90121AE
:1016C00000E0002108464FF429710855C02141EA85
:1016D0004011C9B241F0100694F8841201F0800163
:1016E0000E4300E000262A783346691C2046FEF7A8
:1016F000FBF905E02A780023691C2046FEF73AFF33
:101700001C2104F12400EEF720FE70BD2DE9FC5FE2
:1017100004460E46924694F8890200F1020B94F8B2
:1017200088025844019094F88A1201980844851957
:10173000672104F1100000F09BF98146B9F1000F18
:1017400028D0D9F80C00002824D0297830A0F7F749
:10175000CFFD69782EA0F7F7CBFDA9782CA0F7F77D
:10176000C7FDE9782AA0F7F7C3FD297928A0F7F784
:10177000BFFD697926A0F7F7BBFDA97924A0F7F78B
:10178000B7FD0095B17800231A462046D9F80CC061
:10179000E04709E000BF94F8A80220B1206A10B128
:1017A0001EA0216A884700BF04F1280888F800A01D
:1017B0005246314608F10100EEF7AEFD94F884027E
:1017C00000F00200F8B194F8840200F0040080B147
:1017D000002794F8840200F0800007433B46002273
:1017E00011462046FEF780F917486062C4F89C0253
:1017F0000BE020273B46002211462046FEF774F9F5
:101800001148606201E010486062BDE8FC9F000082
:1018100064617461253032580D0A00000D0A5B2A9C
:101820005D3A73796E6368726F6E697A6520696E6E
:1018300074657266616365206E6F7420666F756E85
:10184000642E0D0A00000000951601082DE9F04FE6
:1018500085B004460D46174694F88902801C049012
:1018600094F88812049801EB000B002001905F4867
:101870000068A066297804F1100000F0F9F88246AB
:10188000A878039094F88A0258442844029004F1FE
:10189000440637703A462946701CEEF73DFD00209D
:1018A00008E00BEB0001695CC2009140019A114312
:1018B0000191401C94F88A128142F2DC28783A287F
:1018C00003DA781E15F8008003E0A7F1080015F888
:1018D000008008F0800060B194F8870218B90120F8
:1018E00084F887021DE0042084F887020A21F17041
:1018F00047E094F88702012803D1022084F8870288
:101900000FE0042084F887020A21F17000BF94F8E8
:10191000A80220B1206A10B135A0216A884700BF13
:101920002FE0A878082803D1A878401CF07027E0A1
:10193000BAF1000F02D0DAF80C0070B9042084F874
:1019400087020A21F17000BF94F8A80220B1206A32
:1019500010B12FA0216A884712E00298009001ABD5
:101960000122DAF80CC020460399E04718B9A8789C
:10197000401CF07004E0042084F887020A21F17012
:1019800000BF94F8840200F0020028B92A482064BD
:101990002AA0F7F7ADFC25E094F8840200F00400DB
:1019A000B0B14FF0800994F8840200F0800040EA62
:1019B00009094B46002211462046FEF795F81E48BD
:1019C000206424A0F7F794FC206CC4F89C0209E082
:1019D0004FF020094B46002211462046FEF784F8BE
:1019E0001548206405B0BDE8F08F0000B800002065
:1019F0000D0A5B2A5D3A6374726C20776974686FB4
:101A000075742073656C6563742E0D0A0000000008
:101A10000D0A5B2A5D3A75736572206465766963A9
:101A20006520696E74657266616365206E6F7420EF
:101A3000666F756E640D0A00870E01086965633173
:101A40003078736C765F6374726C7265706C790D4C
:101A50000A0000006275732D3E6D6F6465202620BC
:101A60004945435F42414C414E43450D0A00000049
:101A700010B504460A4623680AE01946487C90429D
:101A800000DD07E0487C904201D1084610BD1B688C
:101A9000002BF2D100BF0020F8E730B503461A460C
:101AA0000FE010680446607C4D7CA84200DD0BE02E
:101AB000607C4D7CA84202D14FF0FF3030BD1268EF
:101AC00000BF10680028ECD100BF106808601160EA
:101AD0000020F3E72DE9F04780460D4616461F46E5
:101AE000DDF82090142000F071F804461CB94FF086
:101AF000FF30BDE8F087657405F07F000949085C98
:101B00002074C4F80C90A760666021464046FFF739
:101B1000C4FF28B1204600F007F86FF00100E8E7A5
:101B20000020E6E786D60108F0B505462B46083BBF
:101B30001C4E36689C1B002C03DB1B4E3668B442DF
:101B400000DDF0BD19461948164F06683F68F219C6
:101B500004E01046134F06683F68F2199A42F8D322
:101B600006680E6004604E681E4496420DD10E4F0A
:101B70000E683F68BE4208D016464F68D6F804C0CB
:101B800067444F6037680F6000BF466806449E4256
:101B900005D146684F683E4446600E68066000BF47
:101BA000CFE70000980000209C000020A00000204B
:101BB0004A68486001604260106000BF7047D0E929
:101BC00000124A60116000BF70470000F0B5014686
:101BD00000252E48006820BB2D4800F5A05600F0D7
:101BE000030737B100F00307C7F1040784466744D1
:101BF00000E0274FDFF89CC0CCF8007026F0030708
